{"contracts/OrderStorage.sol":{"OrderStorage":{"abi":[{"inputs":[],"name":"CannotFindNextEmptyKey","type":"error"},{"inputs":[],"name":"CannotFindPrevEmptyKey","type":"error"},{"inputs":[],"name":"InvalidInitialization","type":"error"},{"inputs":[],"name":"NotInitializing","type":"error"},{"anonymous":false,"inputs":[{"indexed":false,"internalType":"uint64","name":"version","type":"uint64"}],"name":"Initialized","type":"event"},{"inputs":[{"internalType":"address","name":"collection","type":"address"},{"internalType":"uint256","name":"tokenId","type":"uint256"},{"internalType":"enum LibOrder.Side","name":"side","type":"uint8"},{"internalType":"enum LibOrder.SaleKind","name":"saleKind","type":"uint8"}],"name":"getBestOrder","outputs":[{"components":[{"internalType":"enum LibOrder.Side","name":"side","type":"uint8"},{"internalType":"enum LibOrder.SaleKind","name":"saleKind","type":"uint8"},{"internalType":"address","name":"maker","type":"address"},{"components":[{"internalType":"uint256","name":"tokenId","type":"uint256"},{"internalType":"address","name":"collection","type":"address"},{"internalType":"uint96","name":"amount","type":"uint96"}],"internalType":"struct LibOrder.Asset","name":"nft","type":"tuple"},{"internalType":"Price","name":"price","type":"uint128"},{"internalType":"uint64","name":"expiry","type":"uint64"},{"internalType":"uint64","name":"salt","type":"uint64"}],"internalType":"struct LibOrder.Order","name":"orderResult","type":"tuple"}],"stateMutability":"view","type":"function"},{"inputs":[{"internalType":"address","name":"collection","type":"address"},{"internalType":"enum LibOrder.Side","name":"side","type":"uint8"}],"name":"getBestPrice","outputs":[{"internalType":"Price","name":"price","type":"uint128"}],"stateMutability":"view","type":"function"},{"inputs":[{"internalType":"address","name":"collection","type":"address"},{"internalType":"enum LibOrder.Side","name":"side","type":"uint8"},{"internalType":"Price","name":"price","type":"uint128"}],"name":"getNextBestPrice","outputs":[{"internalType":"Price","name":"nextBestPrice","type":"uint128"}],"stateMutability":"view","type":"function"},{"inputs":[{"internalType":"address","name":"collection","type":"address"},{"internalType":"uint256","name":"tokenId","type":"uint256"},{"internalType":"enum LibOrder.Side","name":"side","type":"uint8"},{"internalType":"enum LibOrder.SaleKind","name":"saleKind","type":"uint8"},{"internalType":"uint256","name":"count","type":"uint256"},{"internalType":"Price","name":"price","type":"uint128"},{"internalType":"OrderKey","name":"firstOrderKey","type":"bytes32"}],"name":"getOrders","outputs":[{"components":[{"internalType":"enum LibOrder.Side","name":"side","type":"uint8"},{"internalType":"enum LibOrder.SaleKind","name":"saleKind","type":"uint8"},{"internalType":"address","name":"maker","type":"address"},{"components":[{"internalType":"uint256","name":"tokenId","type":"uint256"},{"internalType":"address","name":"collection","type":"address"},{"internalType":"uint96","name":"amount","type":"uint96"}],"internalType":"struct LibOrder.Asset","name":"nft","type":"tuple"},{"internalType":"Price","name":"price","type":"uint128"},{"internalType":"uint64","name":"expiry","type":"uint64"},{"internalType":"uint64","name":"salt","type":"uint64"}],"internalType":"struct LibOrder.Order[]","name":"resultOrders","type":"tuple[]"},{"internalType":"OrderKey","name":"nextOrderKey","type":"bytes32"}],"stateMutability":"view","type":"function"},{"inputs":[{"internalType":"address","name":"","type":"address"},{"internalType":"enum LibOrder.Side","name":"","type":"uint8"},{"internalType":"Price","name":"","type":"uint128"}],"name":"orderQueues","outputs":[{"internalType":"OrderKey","name":"head","type":"bytes32"},{"internalType":"OrderKey","name":"tail","type":"bytes32"}],"stateMutability":"view","type":"function"},{"inputs":[{"internalType":"OrderKey","name":"","type":"bytes32"}],"name":"orders","outputs":[{"components":[{"internalType":"enum LibOrder.Side","name":"side","type":"uint8"},{"internalType":"enum LibOrder.SaleKind","name":"saleKind","type":"uint8"},{"internalType":"address","name":"maker","type":"address"},{"components":[{"internalType":"uint256","name":"tokenId","type":"uint256"},{"internalType":"address","name":"collection","type":"address"},{"internalType":"uint96","name":"amount","type":"uint96"}],"internalType":"struct LibOrder.Asset","name":"nft","type":"tuple"},{"internalType":"Price","name":"price","type":"uint128"},{"internalType":"uint64","name":"expiry","type":"uint64"},{"internalType":"uint64","name":"salt","type":"uint64"}],"internalType":"struct LibOrder.Order","name":"order","type":"tuple"},{"internalType":"OrderKey","name":"next","type":"bytes32"}],"stateMutability":"view","type":"function"},{"inputs":[{"internalType":"address","name":"","type":"address"},{"internalType":"enum LibOrder.Side","name":"","type":"uint8"}],"name":"priceTrees","outputs":[{"internalType":"Price","name":"root","type":"uint128"}],"stateMutability":"view","type":"function"}],"evm":{"bytecode":{"linkReferences":{},"object":"6080806040523461001657610e86908161001c8239f35b600080fdfe6080604052600436101561001257600080fd5b60003560e01c8063436a5ed6146108205780635dcc7f9c146105a95780637d910dac1461055a578063877edbff146101445780639c3f1e90146100fd5780639e09126c146100d25763e471ba461461006957600080fd5b346100cd576100773661084f565b6001600160a01b0390921660009081526002602052604090209061009a81610892565b60005260205260406000209060018060801b03166000526020526040806000206001815491015482519182526020820152f35b600080fd5b346100cd5760206100eb6100e536610944565b90610a6b565b6040516001600160801b039091168152f35b346100cd5760203660031901126100cd5760043560005260006020526101406040600020600461012c826109d0565b91015461013c60405180936108b2565b610120820152f35b346100cd5760e03660031901126100cd5761015d610839565b600260443510156100cd57600260643510156100cd5760a4356001600160801b03811690036100cd5760a43560c43560009261019a608435610d45565b60405193906001600160401b03601f8201601f191686019081119086111761054457601f01601f191684016040526084358085526101d790610d45565b601f190160005b81811061052d57505060a4356001600160801b0316610508575061020460443582610a6b565b90935b6000925b6001600160801b0383161515806104fd575b156104a8576001600160a01b0386166000908152600260205260409020610245604435610892565b604435600052602052604060002060018060801b038416600052602052604060002061026f610973565b602060018354938484520154910152918161044a575b915b8015158061043f575b156104245760005260006020526040600020916102ab610973565b6001600160401b0360a060046102c0876109d0565b96878552015480602085015295015116801515908161041a575b5061036b576102ea604435610892565b60443560011480610405575b6103bb575b610306604435610892565b604435600114806103a4575b610341575b6020915080516103278789610da5565b526103328688610da5565b50015193600101935b91610287565b600181515161034f81610892565b61035881610892565b1480610383575b80610371575b15610317575b5061033b565b50606081510151516024351415610365565b50600160208251015161039581610892565b61039e81610892565b1461035f565b506103b0606435610892565b600160643514610312565b60018151516103c981610892565b6103d281610892565b14806103e4575b156102fb575061033b565b5060016020825101516103f681610892565b6103ff81610892565b146103d9565b50610411606435610892565b606435156102f6565b90504211896102da565b50929490916104369060443583610ae8565b9190949261020b565b506084358510610290565b9095919493945b8015158061049e575b15610490576000526000602052602060406000206004610478610973565b91610482816109d0565b835201549182910152610451565b919550939293600090610285565b508681141561045a565b8482604051906040820190604083528351809252606083019160208095019060005b8181106104dd5750505082938301520390f35b90919386610120826104f260019489516108b2565b0195019291016104ca565b50608435841061021d565b908215610516575b93610207565b905061052760a43560443583610ae8565b90610510565b602090610538610d5c565b828289010152016101de565b634e487b7160e01b600052604160045260246000fd5b346100cd5761056836610944565b6001600160a01b0390911660009081526001602052604090209061058b81610892565b600052602052602060018060801b0360406000205416604051908152f35b346100cd5760803660031901126100cd576105c2610839565b600260443510156100cd57600260643510156100cd576105e0610d5c565b906105ed60443582610a6b565b905b6001600160801b0382168015610814576001600160a01b0382166000908152600260205260409020610622604435610892565b6044356000526020526040600020906000526020526040600020610644610973565b602060018354938484520154910152805b610699575b5060808301519091906001600160801b03166106835761067d9060443583610ae8565b906105ef565b5050610120905b61069760405180926108b2565bf35b6000526000602052604060002060046106b0610973565b916106ba816109d0565b8352015490602081019182526106d1604435610892565b604435600114806107fd575b610799575b6106ed604435610892565b60443560011480610784575b610738575b516001600160401b0360a082015116801590811561072e575b5061072457505180610655565b935084905061065a565b9050421086610717565b600181515161074681610892565b61074f81610892565b1480610763575b156106fe57505180610655565b50600160208251015161077581610892565b61077e81610892565b14610756565b50610790606435610892565b606435156106f9565b60018151516107a781610892565b6107b081610892565b14806107dc575b806107ca575b156106e257505180610655565b506060815101515160243514156107bd565b5060016020825101516107ee81610892565b6107f781610892565b146107b7565b50610809606435610892565b6001606435146106dd565b5050506101209061068a565b346100cd5760206100eb6108333661084f565b91610ae8565b600435906001600160a01b03821682036100cd57565b60609060031901126100cd576004356001600160a01b03811681036100cd579060243560028110156100cd57906044356001600160801b03811681036100cd5790565b6002111561089c57565b634e487b7160e01b600052602160045260246000fd5b6101009080516108c181610892565b835260208101516108d181610892565b602084015260018060a01b03806040830151166040850152606082015190815160608601526020820151166080850152604060018060601b039101511660a084015260018060801b0360808201511660c084015260c06001600160401b03918260a08201511660e0860152015116910152565b60409060031901126100cd576004356001600160a01b03811681036100cd579060243560028110156100cd5790565b60405190604082018281106001600160401b0382111761054457604052565b6040519060e082018281106001600160401b0382111761054457604052565b60405190606082018281106001600160401b0382111761054457604052565b9060036109db610992565b92805460ff81166109eb81610892565b855260ff8160081c166109fd81610892565b602086015260101c6001600160a01b039081166040860152610a1d6109b1565b90600183015482526002830154908116602083015260a01c60408201526060850152015460018060801b03811660808401526001600160401b038160801c1660a084015260c01c60c0830152565b610a7482610892565b600060018303610ab657506001600160a01b0316600090815260016020526040902090610aa081610892565b600052602052610ab36040600020610e12565b90565b6001600160a01b03909116815260016020526040808220610ab393919291610add81610892565b825260205220610dcf565b90916001600160801b03908181169081610b0857505050610a7482610892565b610b1485939495610892565b6001946000848703610c33575060018060a01b03166000526020908582526040938460002090610b4381610892565b60005282528380600020876000910194815284845220549060809180831c1515600014610bc457509085879695949392166000528282528360002054901c955b610b90575b505050505090565b909192939594848116600052828252848785600020015416908115610bbc575094959392919084610b83565b959650610b88565b8616969594939291865b610bdd575b5050505050505090565b90919293949596868116928315159081610c19575b5015610c135791600052838352858560002054169695949392919086610bce565b96610bd3565b905083600052858552878760002054841c91161438610bf2565b6001600160a01b0390911681526020868152604080832097989790969295919391610c5d81610892565b8652835287868620019385528383528585208289820154161515600014610cda5750908088979896959493921684528282528086868620015416965b610ca7575b50505050505090565b9091929394969581811685528383528585205460801c908115610cd257509596949392919085610c99565b969750610c9e565b90828998999795939694925416975b610cf7575050505050505090565b90919293949596868116918215159081610d2b575b5015610c13579084528282528484205486169695949392919086610ce9565b905082865284845287808a89892001541691161438610d0c565b6001600160401b0381116105445760051b60200190565b610d64610992565b906000808352806020840152806040840152610d7e6109b1565b81815281602082015281604082015260608401528060808401528060a084015260c0830152565b8051821015610db95760209160051b010190565b634e487b7160e01b600052603260045260246000fd5b80546001600160801b039081169182610de757505090565b915b60406000838316815260018501602052205460801c908115610e0b5750610de9565b9392505050565b80546001600160801b039081169182610e2a57505090565b915b8160008183168152604060019182870160205220015416908115610e0b5750610e2c56fea264697066735822122025cfba8b6f69e403b6876f38495704bd8b9b3002eb57713b20848926aed9a36c64736f6c63430008140033","opcodes":"PUSH1 0x80 DUP1 PUSH1 0x40 MSTORE CALLVALUE PUSH2 0x16 JUMPI PUSH2 0xE86 SWAP1 DUP2 PUSH2 0x1C DUP3 CODECOPY RETURN JUMPDEST PUSH1 0x0 DUP1 REVERT INVALID PUSH1 0x80 PUSH1 0x40 MSTORE PUSH1 0x4 CALLDATASIZE LT ISZERO PUSH2 0x12 JUMPI PUSH1 0x0 DUP1 REVERT JUMPDEST PUSH1 0x0 CALLDATALOAD PUSH1 0xE0 SHR DUP1 PUSH4 0x436A5ED6 EQ PUSH2 0x820 JUMPI DUP1 PUSH4 0x5DCC7F9C EQ PUSH2 0x5A9 JUMPI DUP1 PUSH4 0x7D910DAC EQ PUSH2 0x55A JUMPI DUP1 PUSH4 0x877EDBFF EQ PUSH2 0x144 JUMPI DUP1 PUSH4 0x9C3F1E90 EQ PUSH2 0xFD JUMPI DUP1 PUSH4 0x9E09126C EQ PUSH2 0xD2 JUMPI PUSH4 0xE471BA46 EQ PUSH2 0x69 JUMPI PUSH1 0x0 DUP1 REVERT JUMPDEST CALLVALUE PUSH2 0xCD JUMPI PUSH2 0x77 CALLDATASIZE PUSH2 0x84F JUMP JUMPDEST PUSH1 0x1 PUSH1 0x1 PUSH1 0xA0 SHL SUB SWAP1 SWAP3 AND PUSH1 0x0 SWAP1 DUP2 MSTORE PUSH1 0x2 PUSH1 0x20 MSTORE PUSH1 0x40 SWAP1 KECCAK256 SWAP1 PUSH2 0x9A DUP2 PUSH2 0x892 JUMP JUMPDEST PUSH1 0x0 MSTORE PUSH1 0x20 MSTORE PUSH1 0x40 PUSH1 0x0 KECCAK256 SWAP1 PUSH1 0x1 DUP1 PUSH1 0x80 SHL SUB AND PUSH1 0x0 MSTORE PUSH1 0x20 MSTORE PUSH1 0x40 DUP1 PUSH1 0x0 KECCAK256 PUSH1 0x1 DUP2 SLOAD SWAP2 ADD SLOAD DUP3 MLOAD SWAP2 DUP3 MSTORE PUSH1 0x20 DUP3 ADD MSTORE RETURN JUMPDEST PUSH1 0x0 DUP1 REVERT JUMPDEST CALLVALUE PUSH2 0xCD JUMPI PUSH1 0x20 PUSH2 0xEB PUSH2 0xE5 CALLDATASIZE PUSH2 0x944 JUMP JUMPDEST SWAP1 PUSH2 0xA6B JUMP JUMPDEST PUSH1 0x40 MLOAD PUSH1 0x1 PUSH1 0x1 PUSH1 0x80 SHL SUB SWAP1 SWAP2 AND DUP2 MSTORE RETURN JUMPDEST CALLVALUE PUSH2 0xCD JUMPI PUSH1 0x20 CALLDATASIZE PUSH1 0x3 NOT ADD SLT PUSH2 0xCD JUMPI PUSH1 0x4 CALLDATALOAD PUSH1 0x0 MSTORE PUSH1 0x0 PUSH1 0x20 MSTORE PUSH2 0x140 PUSH1 0x40 PUSH1 0x0 KECCAK256 PUSH1 0x4 PUSH2 0x12C DUP3 PUSH2 0x9D0 JUMP JUMPDEST SWAP2 ADD SLOAD PUSH2 0x13C PUSH1 0x40 MLOAD DUP1 SWAP4 PUSH2 0x8B2 JUMP JUMPDEST PUSH2 0x120 DUP3 ADD MSTORE RETURN JUMPDEST CALLVALUE PUSH2 0xCD JUMPI PUSH1 0xE0 CALLDATASIZE PUSH1 0x3 NOT ADD SLT PUSH2 0xCD JUMPI PUSH2 0x15D PUSH2 0x839 JUMP JUMPDEST PUSH1 0x2 PUSH1 0x44 CALLDATALOAD LT ISZERO PUSH2 0xCD JUMPI PUSH1 0x2 PUSH1 0x64 CALLDATALOAD LT ISZERO PUSH2 0xCD JUMPI PUSH1 0xA4 CALLDATALOAD PUSH1 0x1 PUSH1 0x1 PUSH1 0x80 SHL SUB DUP2 AND SWAP1 SUB PUSH2 0xCD JUMPI PUSH1 0xA4 CALLDATALOAD PUSH1 0xC4 CALLDATALOAD PUSH1 0x0 SWAP3 PUSH2 0x19A PUSH1 0x84 CALLDATALOAD PUSH2 0xD45 JUMP JUMPDEST PUSH1 0x40 MLOAD SWAP4 SWAP1 PUSH1 0x1 PUSH1 0x1 PUSH1 0x40 SHL SUB PUSH1 0x1F DUP3 ADD PUSH1 0x1F NOT AND DUP7 ADD SWAP1 DUP2 GT SWAP1 DUP7 GT OR PUSH2 0x544 JUMPI PUSH1 0x1F ADD PUSH1 0x1F NOT AND DUP5 ADD PUSH1 0x40 MSTORE PUSH1 0x84 CALLDATALOAD DUP1 DUP6 MSTORE PUSH2 0x1D7 SWAP1 PUSH2 0xD45 JUMP JUMPDEST PUSH1 0x1F NOT ADD PUSH1 0x0 JUMPDEST DUP2 DUP2 LT PUSH2 0x52D JUMPI POP POP PUSH1 0xA4 CALLDATALOAD PUSH1 0x1 PUSH1 0x1 PUSH1 0x80 SHL SUB AND PUSH2 0x508 JUMPI POP PUSH2 0x204 PUSH1 0x44 CALLDATALOAD DUP3 PUSH2 0xA6B JUMP JUMPDEST SWAP1 SWAP4 JUMPDEST PUSH1 0x0 SWAP3 JUMPDEST PUSH1 0x1 PUSH1 0x1 PUSH1 0x80 SHL SUB DUP4 AND ISZERO ISZERO DUP1 PUSH2 0x4FD JUMPI JUMPDEST ISZERO PUSH2 0x4A8 JUMPI PUSH1 0x1 PUSH1 0x1 PUSH1 0xA0 SHL SUB DUP7 AND PUSH1 0x0 SWAP1 DUP2 MSTORE PUSH1 0x2 PUSH1 0x20 MSTORE PUSH1 0x40 SWAP1 KECCAK256 PUSH2 0x245 PUSH1 0x44 CALLDATALOAD PUSH2 0x892 JUMP JUMPDEST PUSH1 0x44 CALLDATALOAD PUSH1 0x0 MSTORE PUSH1 0x20 MSTORE PUSH1 0x40 PUSH1 0x0 KECCAK256 PUSH1 0x1 DUP1 PUSH1 0x80 SHL SUB DUP5 AND PUSH1 0x0 MSTORE PUSH1 0x20 MSTORE PUSH1 0x40 PUSH1 0x0 KECCAK256 PUSH2 0x26F PUSH2 0x973 JUMP JUMPDEST PUSH1 0x20 PUSH1 0x1 DUP4 SLOAD SWAP4 DUP5 DUP5 MSTORE ADD SLOAD SWAP2 ADD MSTORE SWAP2 DUP2 PUSH2 0x44A JUMPI JUMPDEST SWAP2 JUMPDEST DUP1 ISZERO ISZERO DUP1 PUSH2 0x43F JUMPI JUMPDEST ISZERO PUSH2 0x424 JUMPI PUSH1 0x0 MSTORE PUSH1 0x0 PUSH1 0x20 MSTORE PUSH1 0x40 PUSH1 0x0 KECCAK256 SWAP2 PUSH2 0x2AB PUSH2 0x973 JUMP JUMPDEST PUSH1 0x1 PUSH1 0x1 PUSH1 0x40 SHL SUB PUSH1 0xA0 PUSH1 0x4 PUSH2 0x2C0 DUP8 PUSH2 0x9D0 JUMP JUMPDEST SWAP7 DUP8 DUP6 MSTORE ADD SLOAD DUP1 PUSH1 0x20 DUP6 ADD MSTORE SWAP6 ADD MLOAD AND DUP1 ISZERO ISZERO SWAP1 DUP2 PUSH2 0x41A JUMPI JUMPDEST POP PUSH2 0x36B JUMPI PUSH2 0x2EA PUSH1 0x44 CALLDATALOAD PUSH2 0x892 JUMP JUMPDEST PUSH1 0x44 CALLDATALOAD PUSH1 0x1 EQ DUP1 PUSH2 0x405 JUMPI JUMPDEST PUSH2 0x3BB JUMPI JUMPDEST PUSH2 0x306 PUSH1 0x44 CALLDATALOAD PUSH2 0x892 JUMP JUMPDEST PUSH1 0x44 CALLDATALOAD PUSH1 0x1 EQ DUP1 PUSH2 0x3A4 JUMPI JUMPDEST PUSH2 0x341 JUMPI JUMPDEST PUSH1 0x20 SWAP2 POP DUP1 MLOAD PUSH2 0x327 DUP8 DUP10 PUSH2 0xDA5 JUMP JUMPDEST MSTORE PUSH2 0x332 DUP7 DUP9 PUSH2 0xDA5 JUMP JUMPDEST POP ADD MLOAD SWAP4 PUSH1 0x1 ADD SWAP4 JUMPDEST SWAP2 PUSH2 0x287 JUMP JUMPDEST PUSH1 0x1 DUP2 MLOAD MLOAD PUSH2 0x34F DUP2 PUSH2 0x892 JUMP JUMPDEST PUSH2 0x358 DUP2 PUSH2 0x892 JUMP JUMPDEST EQ DUP1 PUSH2 0x383 JUMPI JUMPDEST DUP1 PUSH2 0x371 JUMPI JUMPDEST ISZERO PUSH2 0x317 JUMPI JUMPDEST POP PUSH2 0x33B JUMP JUMPDEST POP PUSH1 0x60 DUP2 MLOAD ADD MLOAD MLOAD PUSH1 0x24 CALLDATALOAD EQ ISZERO PUSH2 0x365 JUMP JUMPDEST POP PUSH1 0x1 PUSH1 0x20 DUP3 MLOAD ADD MLOAD PUSH2 0x395 DUP2 PUSH2 0x892 JUMP JUMPDEST PUSH2 0x39E DUP2 PUSH2 0x892 JUMP JUMPDEST EQ PUSH2 0x35F JUMP JUMPDEST POP PUSH2 0x3B0 PUSH1 0x64 CALLDATALOAD PUSH2 0x892 JUMP JUMPDEST PUSH1 0x1 PUSH1 0x64 CALLDATALOAD EQ PUSH2 0x312 JUMP JUMPDEST PUSH1 0x1 DUP2 MLOAD MLOAD PUSH2 0x3C9 DUP2 PUSH2 0x892 JUMP JUMPDEST PUSH2 0x3D2 DUP2 PUSH2 0x892 JUMP JUMPDEST EQ DUP1 PUSH2 0x3E4 JUMPI JUMPDEST ISZERO PUSH2 0x2FB JUMPI POP PUSH2 0x33B JUMP JUMPDEST POP PUSH1 0x1 PUSH1 0x20 DUP3 MLOAD ADD MLOAD PUSH2 0x3F6 DUP2 PUSH2 0x892 JUMP JUMPDEST PUSH2 0x3FF DUP2 PUSH2 0x892 JUMP JUMPDEST EQ PUSH2 0x3D9 JUMP JUMPDEST POP PUSH2 0x411 PUSH1 0x64 CALLDATALOAD PUSH2 0x892 JUMP JUMPDEST PUSH1 0x64 CALLDATALOAD ISZERO PUSH2 0x2F6 JUMP JUMPDEST SWAP1 POP TIMESTAMP GT DUP10 PUSH2 0x2DA JUMP JUMPDEST POP SWAP3 SWAP5 SWAP1 SWAP2 PUSH2 0x436 SWAP1 PUSH1 0x44 CALLDATALOAD DUP4 PUSH2 0xAE8 JUMP JUMPDEST SWAP2 SWAP1 SWAP5 SWAP3 PUSH2 0x20B JUMP JUMPDEST POP PUSH1 0x84 CALLDATALOAD DUP6 LT PUSH2 0x290 JUMP JUMPDEST SWAP1 SWAP6 SWAP2 SWAP5 SWAP4 SWAP5 JUMPDEST DUP1 ISZERO ISZERO DUP1 PUSH2 0x49E JUMPI JUMPDEST ISZERO PUSH2 0x490 JUMPI PUSH1 0x0 MSTORE PUSH1 0x0 PUSH1 0x20 MSTORE PUSH1 0x20 PUSH1 0x40 PUSH1 0x0 KECCAK256 PUSH1 0x4 PUSH2 0x478 PUSH2 0x973 JUMP JUMPDEST SWAP2 PUSH2 0x482 DUP2 PUSH2 0x9D0 JUMP JUMPDEST DUP4 MSTORE ADD SLOAD SWAP2 DUP3 SWAP2 ADD MSTORE PUSH2 0x451 JUMP JUMPDEST SWAP2 SWAP6 POP SWAP4 SWAP3 SWAP4 PUSH1 0x0 SWAP1 PUSH2 0x285 JUMP JUMPDEST POP DUP7 DUP2 EQ ISZERO PUSH2 0x45A JUMP JUMPDEST DUP5 DUP3 PUSH1 0x40 MLOAD SWAP1 PUSH1 0x40 DUP3 ADD SWAP1 PUSH1 0x40 DUP4 MSTORE DUP4 MLOAD DUP1 SWAP3 MSTORE PUSH1 0x60 DUP4 ADD SWAP2 PUSH1 0x20 DUP1 SWAP6 ADD SWAP1 PUSH1 0x0 JUMPDEST DUP2 DUP2 LT PUSH2 0x4DD JUMPI POP POP POP DUP3 SWAP4 DUP4 ADD MSTORE SUB SWAP1 RETURN JUMPDEST SWAP1 SWAP2 SWAP4 DUP7 PUSH2 0x120 DUP3 PUSH2 0x4F2 PUSH1 0x1 SWAP5 DUP10 MLOAD PUSH2 0x8B2 JUMP JUMPDEST ADD SWAP6 ADD SWAP3 SWAP2 ADD PUSH2 0x4CA JUMP JUMPDEST POP PUSH1 0x84 CALLDATALOAD DUP5 LT PUSH2 0x21D JUMP JUMPDEST SWAP1 DUP3 ISZERO PUSH2 0x516 JUMPI JUMPDEST SWAP4 PUSH2 0x207 JUMP JUMPDEST SWAP1 POP PUSH2 0x527 PUSH1 0xA4 CALLDATALOAD PUSH1 0x44 CALLDATALOAD DUP4 PUSH2 0xAE8 JUMP JUMPDEST SWAP1 PUSH2 0x510 JUMP JUMPDEST PUSH1 0x20 SWAP1 PUSH2 0x538 PUSH2 0xD5C JUMP JUMPDEST DUP3 DUP3 DUP10 ADD ADD MSTORE ADD PUSH2 0x1DE JUMP JUMPDEST PUSH4 0x4E487B71 PUSH1 0xE0 SHL PUSH1 0x0 MSTORE PUSH1 0x41 PUSH1 0x4 MSTORE PUSH1 0x24 PUSH1 0x0 REVERT JUMPDEST CALLVALUE PUSH2 0xCD JUMPI PUSH2 0x568 CALLDATASIZE PUSH2 0x944 JUMP JUMPDEST PUSH1 0x1 PUSH1 0x1 PUSH1 0xA0 SHL SUB SWAP1 SWAP2 AND PUSH1 0x0 SWAP1 DUP2 MSTORE PUSH1 0x1 PUSH1 0x20 MSTORE PUSH1 0x40 SWAP1 KECCAK256 SWAP1 PUSH2 0x58B DUP2 PUSH2 0x892 JUMP JUMPDEST PUSH1 0x0 MSTORE PUSH1 0x20 MSTORE PUSH1 0x20 PUSH1 0x1 DUP1 PUSH1 0x80 SHL SUB PUSH1 0x40 PUSH1 0x0 KECCAK256 SLOAD AND PUSH1 0x40 MLOAD SWAP1 DUP2 MSTORE RETURN JUMPDEST CALLVALUE PUSH2 0xCD JUMPI PUSH1 0x80 CALLDATASIZE PUSH1 0x3 NOT ADD SLT PUSH2 0xCD JUMPI PUSH2 0x5C2 PUSH2 0x839 JUMP JUMPDEST PUSH1 0x2 PUSH1 0x44 CALLDATALOAD LT ISZERO PUSH2 0xCD JUMPI PUSH1 0x2 PUSH1 0x64 CALLDATALOAD LT ISZERO PUSH2 0xCD JUMPI PUSH2 0x5E0 PUSH2 0xD5C JUMP JUMPDEST SWAP1 PUSH2 0x5ED PUSH1 0x44 CALLDATALOAD DUP3 PUSH2 0xA6B JUMP JUMPDEST SWAP1 JUMPDEST PUSH1 0x1 PUSH1 0x1 PUSH1 0x80 SHL SUB DUP3 AND DUP1 ISZERO PUSH2 0x814 JUMPI PUSH1 0x1 PUSH1 0x1 PUSH1 0xA0 SHL SUB DUP3 AND PUSH1 0x0 SWAP1 DUP2 MSTORE PUSH1 0x2 PUSH1 0x20 MSTORE PUSH1 0x40 SWAP1 KECCAK256 PUSH2 0x622 PUSH1 0x44 CALLDATALOAD PUSH2 0x892 JUMP JUMPDEST PUSH1 0x44 CALLDATALOAD PUSH1 0x0 MSTORE PUSH1 0x20 MSTORE PUSH1 0x40 PUSH1 0x0 KECCAK256 SWAP1 PUSH1 0x0 MSTORE PUSH1 0x20 MSTORE PUSH1 0x40 PUSH1 0x0 KECCAK256 PUSH2 0x644 PUSH2 0x973 JUMP JUMPDEST PUSH1 0x20 PUSH1 0x1 DUP4 SLOAD SWAP4 DUP5 DUP5 MSTORE ADD SLOAD SWAP2 ADD MSTORE DUP1 JUMPDEST PUSH2 0x699 JUMPI JUMPDEST POP PUSH1 0x80 DUP4 ADD MLOAD SWAP1 SWAP2 SWAP1 PUSH1 0x1 PUSH1 0x1 PUSH1 0x80 SHL SUB AND PUSH2 0x683 JUMPI PUSH2 0x67D SWAP1 PUSH1 0x44 CALLDATALOAD DUP4 PUSH2 0xAE8 JUMP JUMPDEST SWAP1 PUSH2 0x5EF JUMP JUMPDEST POP POP PUSH2 0x120 SWAP1 JUMPDEST PUSH2 0x697 PUSH1 0x40 MLOAD DUP1 SWAP3 PUSH2 0x8B2 JUMP JUMPDEST RETURN JUMPDEST PUSH1 0x0 MSTORE PUSH1 0x0 PUSH1 0x20 MSTORE PUSH1 0x40 PUSH1 0x0 KECCAK256 PUSH1 0x4 PUSH2 0x6B0 PUSH2 0x973 JUMP JUMPDEST SWAP2 PUSH2 0x6BA DUP2 PUSH2 0x9D0 JUMP JUMPDEST DUP4 MSTORE ADD SLOAD SWAP1 PUSH1 0x20 DUP2 ADD SWAP2 DUP3 MSTORE PUSH2 0x6D1 PUSH1 0x44 CALLDATALOAD PUSH2 0x892 JUMP JUMPDEST PUSH1 0x44 CALLDATALOAD PUSH1 0x1 EQ DUP1 PUSH2 0x7FD JUMPI JUMPDEST PUSH2 0x799 JUMPI JUMPDEST PUSH2 0x6ED PUSH1 0x44 CALLDATALOAD PUSH2 0x892 JUMP JUMPDEST PUSH1 0x44 CALLDATALOAD PUSH1 0x1 EQ DUP1 PUSH2 0x784 JUMPI JUMPDEST PUSH2 0x738 JUMPI JUMPDEST MLOAD PUSH1 0x1 PUSH1 0x1 PUSH1 0x40 SHL SUB PUSH1 0xA0 DUP3 ADD MLOAD AND DUP1 ISZERO SWAP1 DUP2 ISZERO PUSH2 0x72E JUMPI JUMPDEST POP PUSH2 0x724 JUMPI POP MLOAD DUP1 PUSH2 0x655 JUMP JUMPDEST SWAP4 POP DUP5 SWAP1 POP PUSH2 0x65A JUMP JUMPDEST SWAP1 POP TIMESTAMP LT DUP7 PUSH2 0x717 JUMP JUMPDEST PUSH1 0x1 DUP2 MLOAD MLOAD PUSH2 0x746 DUP2 PUSH2 0x892 JUMP JUMPDEST PUSH2 0x74F DUP2 PUSH2 0x892 JUMP JUMPDEST EQ DUP1 PUSH2 0x763 JUMPI JUMPDEST ISZERO PUSH2 0x6FE JUMPI POP MLOAD DUP1 PUSH2 0x655 JUMP JUMPDEST POP PUSH1 0x1 PUSH1 0x20 DUP3 MLOAD ADD MLOAD PUSH2 0x775 DUP2 PUSH2 0x892 JUMP JUMPDEST PUSH2 0x77E DUP2 PUSH2 0x892 JUMP JUMPDEST EQ PUSH2 0x756 JUMP JUMPDEST POP PUSH2 0x790 PUSH1 0x64 CALLDATALOAD PUSH2 0x892 JUMP JUMPDEST PUSH1 0x64 CALLDATALOAD ISZERO PUSH2 0x6F9 JUMP JUMPDEST PUSH1 0x1 DUP2 MLOAD MLOAD PUSH2 0x7A7 DUP2 PUSH2 0x892 JUMP JUMPDEST PUSH2 0x7B0 DUP2 PUSH2 0x892 JUMP JUMPDEST EQ DUP1 PUSH2 0x7DC JUMPI JUMPDEST DUP1 PUSH2 0x7CA JUMPI JUMPDEST ISZERO PUSH2 0x6E2 JUMPI POP MLOAD DUP1 PUSH2 0x655 JUMP JUMPDEST POP PUSH1 0x60 DUP2 MLOAD ADD MLOAD MLOAD PUSH1 0x24 CALLDATALOAD EQ ISZERO PUSH2 0x7BD JUMP JUMPDEST POP PUSH1 0x1 PUSH1 0x20 DUP3 MLOAD ADD MLOAD PUSH2 0x7EE DUP2 PUSH2 0x892 JUMP JUMPDEST PUSH2 0x7F7 DUP2 PUSH2 0x892 JUMP JUMPDEST EQ PUSH2 0x7B7 JUMP JUMPDEST POP PUSH2 0x809 PUSH1 0x64 CALLDATALOAD PUSH2 0x892 JUMP JUMPDEST PUSH1 0x1 PUSH1 0x64 CALLDATALOAD EQ PUSH2 0x6DD JUMP JUMPDEST POP POP POP PUSH2 0x120 SWAP1 PUSH2 0x68A JUMP JUMPDEST CALLVALUE PUSH2 0xCD JUMPI PUSH1 0x20 PUSH2 0xEB PUSH2 0x833 CALLDATASIZE PUSH2 0x84F JUMP JUMPDEST SWAP2 PUSH2 0xAE8 JUMP JUMPDEST PUSH1 0x4 CALLDATALOAD SWAP1 PUSH1 0x1 PUSH1 0x1 PUSH1 0xA0 SHL SUB DUP3 AND DUP3 SUB PUSH2 0xCD JUMPI JUMP JUMPDEST PUSH1 0x60 SWAP1 PUSH1 0x3 NOT ADD SLT PUSH2 0xCD JUMPI PUSH1 0x4 CALLDATALOAD PUSH1 0x1 PUSH1 0x1 PUSH1 0xA0 SHL SUB DUP2 AND DUP2 SUB PUSH2 0xCD JUMPI SWAP1 PUSH1 0x24 CALLDATALOAD PUSH1 0x2 DUP2 LT ISZERO PUSH2 0xCD JUMPI SWAP1 PUSH1 0x44 CALLDATALOAD PUSH1 0x1 PUSH1 0x1 PUSH1 0x80 SHL SUB DUP2 AND DUP2 SUB PUSH2 0xCD JUMPI SWAP1 JUMP JUMPDEST PUSH1 0x2 GT ISZERO PUSH2 0x89C JUMPI JUMP JUMPDEST PUSH4 0x4E487B71 PUSH1 0xE0 SHL PUSH1 0x0 MSTORE PUSH1 0x21 PUSH1 0x4 MSTORE PUSH1 0x24 PUSH1 0x0 REVERT JUMPDEST PUSH2 0x100 SWAP1 DUP1 MLOAD PUSH2 0x8C1 DUP2 PUSH2 0x892 JUMP JUMPDEST DUP4 MSTORE PUSH1 0x20 DUP2 ADD MLOAD PUSH2 0x8D1 DUP2 PUSH2 0x892 JUMP JUMPDEST PUSH1 0x20 DUP5 ADD MSTORE PUSH1 0x1 DUP1 PUSH1 0xA0 SHL SUB DUP1 PUSH1 0x40 DUP4 ADD MLOAD AND PUSH1 0x40 DUP6 ADD MSTORE PUSH1 0x60 DUP3 ADD MLOAD SWAP1 DUP2 MLOAD PUSH1 0x60 DUP7 ADD MSTORE PUSH1 0x20 DUP3 ADD MLOAD AND PUSH1 0x80 DUP6 ADD MSTORE PUSH1 0x40 PUSH1 0x1 DUP1 PUSH1 0x60 SHL SUB SWAP2 ADD MLOAD AND PUSH1 0xA0 DUP5 ADD MSTORE PUSH1 0x1 DUP1 PUSH1 0x80 SHL SUB PUSH1 0x80 DUP3 ADD MLOAD AND PUSH1 0xC0 DUP5 ADD MSTORE PUSH1 0xC0 PUSH1 0x1 PUSH1 0x1 PUSH1 0x40 SHL SUB SWAP2 DUP3 PUSH1 0xA0 DUP3 ADD MLOAD AND PUSH1 0xE0 DUP7 ADD MSTORE ADD MLOAD AND SWAP2 ADD MSTORE JUMP JUMPDEST PUSH1 0x40 SWAP1 PUSH1 0x3 NOT ADD SLT PUSH2 0xCD JUMPI PUSH1 0x4 CALLDATALOAD PUSH1 0x1 PUSH1 0x1 PUSH1 0xA0 SHL SUB DUP2 AND DUP2 SUB PUSH2 0xCD JUMPI SWAP1 PUSH1 0x24 CALLDATALOAD PUSH1 0x2 DUP2 LT ISZERO PUSH2 0xCD JUMPI SWAP1 JUMP JUMPDEST PUSH1 0x40 MLOAD SWAP1 PUSH1 0x40 DUP3 ADD DUP3 DUP2 LT PUSH1 0x1 PUSH1 0x1 PUSH1 0x40 SHL SUB DUP3 GT OR PUSH2 0x544 JUMPI PUSH1 0x40 MSTORE JUMP JUMPDEST PUSH1 0x40 MLOAD SWAP1 PUSH1 0xE0 DUP3 ADD DUP3 DUP2 LT PUSH1 0x1 PUSH1 0x1 PUSH1 0x40 SHL SUB DUP3 GT OR PUSH2 0x544 JUMPI PUSH1 0x40 MSTORE JUMP JUMPDEST PUSH1 0x40 MLOAD SWAP1 PUSH1 0x60 DUP3 ADD DUP3 DUP2 LT PUSH1 0x1 PUSH1 0x1 PUSH1 0x40 SHL SUB DUP3 GT OR PUSH2 0x544 JUMPI PUSH1 0x40 MSTORE JUMP JUMPDEST SWAP1 PUSH1 0x3 PUSH2 0x9DB PUSH2 0x992 JUMP JUMPDEST SWAP3 DUP1 SLOAD PUSH1 0xFF DUP2 AND PUSH2 0x9EB DUP2 PUSH2 0x892 JUMP JUMPDEST DUP6 MSTORE PUSH1 0xFF DUP2 PUSH1 0x8 SHR AND PUSH2 0x9FD DUP2 PUSH2 0x892 JUMP JUMPDEST PUSH1 0x20 DUP7 ADD MSTORE PUSH1 0x10 SHR PUSH1 0x1 PUSH1 0x1 PUSH1 0xA0 SHL SUB SWAP1 DUP2 AND PUSH1 0x40 DUP7 ADD MSTORE PUSH2 0xA1D PUSH2 0x9B1 JUMP JUMPDEST SWAP1 PUSH1 0x1 DUP4 ADD SLOAD DUP3 MSTORE PUSH1 0x2 DUP4 ADD SLOAD SWAP1 DUP2 AND PUSH1 0x20 DUP4 ADD MSTORE PUSH1 0xA0 SHR PUSH1 0x40 DUP3 ADD MSTORE PUSH1 0x60 DUP6 ADD MSTORE ADD SLOAD PUSH1 0x1 DUP1 PUSH1 0x80 SHL SUB DUP2 AND PUSH1 0x80 DUP5 ADD MSTORE PUSH1 0x1 PUSH1 0x1 PUSH1 0x40 SHL SUB DUP2 PUSH1 0x80 SHR AND PUSH1 0xA0 DUP5 ADD MSTORE PUSH1 0xC0 SHR PUSH1 0xC0 DUP4 ADD MSTORE JUMP JUMPDEST PUSH2 0xA74 DUP3 PUSH2 0x892 JUMP JUMPDEST PUSH1 0x0 PUSH1 0x1 DUP4 SUB PUSH2 0xAB6 JUMPI POP PUSH1 0x1 PUSH1 0x1 PUSH1 0xA0 SHL SUB AND PUSH1 0x0 SWAP1 DUP2 MSTORE PUSH1 0x1 PUSH1 0x20 MSTORE PUSH1 0x40 SWAP1 KECCAK256 SWAP1 PUSH2 0xAA0 DUP2 PUSH2 0x892 JUMP JUMPDEST PUSH1 0x0 MSTORE PUSH1 0x20 MSTORE PUSH2 0xAB3 PUSH1 0x40 PUSH1 0x0 KECCAK256 PUSH2 0xE12 JUMP JUMPDEST SWAP1 JUMP JUMPDEST PUSH1 0x1 PUSH1 0x1 PUSH1 0xA0 SHL SUB SWAP1 SWAP2 AND DUP2 MSTORE PUSH1 0x1 PUSH1 0x20 MSTORE PUSH1 0x40 DUP1 DUP3 KECCAK256 PUSH2 0xAB3 SWAP4 SWAP2 SWAP3 SWAP2 PUSH2 0xADD DUP2 PUSH2 0x892 JUMP JUMPDEST DUP3 MSTORE PUSH1 0x20 MSTORE KECCAK256 PUSH2 0xDCF JUMP JUMPDEST SWAP1 SWAP2 PUSH1 0x1 PUSH1 0x1 PUSH1 0x80 SHL SUB SWAP1 DUP2 DUP2 AND SWAP1 DUP2 PUSH2 0xB08 JUMPI POP POP POP PUSH2 0xA74 DUP3 PUSH2 0x892 JUMP JUMPDEST PUSH2 0xB14 DUP6 SWAP4 SWAP5 SWAP6 PUSH2 0x892 JUMP JUMPDEST PUSH1 0x1 SWAP5 PUSH1 0x0 DUP5 DUP8 SUB PUSH2 0xC33 JUMPI POP PUSH1 0x1 DUP1 PUSH1 0xA0 SHL SUB AND PUSH1 0x0 MSTORE PUSH1 0x20 SWAP1 DUP6 DUP3 MSTORE PUSH1 0x40 SWAP4 DUP5 PUSH1 0x0 KECCAK256 SWAP1 PUSH2 0xB43 DUP2 PUSH2 0x892 JUMP JUMPDEST PUSH1 0x0 MSTORE DUP3 MSTORE DUP4 DUP1 PUSH1 0x0 KECCAK256 DUP8 PUSH1 0x0 SWAP2 ADD SWAP5 DUP2 MSTORE DUP5 DUP5 MSTORE KECCAK256 SLOAD SWAP1 PUSH1 0x80 SWAP2 DUP1 DUP4 SHR ISZERO ISZERO PUSH1 0x0 EQ PUSH2 0xBC4 JUMPI POP SWAP1 DUP6 DUP8 SWAP7 SWAP6 SWAP5 SWAP4 SWAP3 AND PUSH1 0x0 MSTORE DUP3 DUP3 MSTORE DUP4 PUSH1 0x0 KECCAK256 SLOAD SWAP1 SHR SWAP6 JUMPDEST PUSH2 0xB90 JUMPI JUMPDEST POP POP POP POP POP SWAP1 JUMP JUMPDEST SWAP1 SWAP2 SWAP3 SWAP4 SWAP6 SWAP5 DUP5 DUP2 AND PUSH1 0x0 MSTORE DUP3 DUP3 MSTORE DUP5 DUP8 DUP6 PUSH1 0x0 KECCAK256 ADD SLOAD AND SWAP1 DUP2 ISZERO PUSH2 0xBBC JUMPI POP SWAP5 SWAP6 SWAP4 SWAP3 SWAP2 SWAP1 DUP5 PUSH2 0xB83 JUMP JUMPDEST SWAP6 SWAP7 POP PUSH2 0xB88 JUMP JUMPDEST DUP7 AND SWAP7 SWAP6 SWAP5 SWAP4 SWAP3 SWAP2 DUP7 JUMPDEST PUSH2 0xBDD JUMPI JUMPDEST POP POP POP POP POP POP POP SWAP1 JUMP JUMPDEST SWAP1 SWAP2 SWAP3 SWAP4 SWAP5 SWAP6 SWAP7 DUP7 DUP2 AND SWAP3 DUP4 ISZERO ISZERO SWAP1 DUP2 PUSH2 0xC19 JUMPI JUMPDEST POP ISZERO PUSH2 0xC13 JUMPI SWAP2 PUSH1 0x0 MSTORE DUP4 DUP4 MSTORE DUP6 DUP6 PUSH1 0x0 KECCAK256 SLOAD AND SWAP7 SWAP6 SWAP5 SWAP4 SWAP3 SWAP2 SWAP1 DUP7 PUSH2 0xBCE JUMP JUMPDEST SWAP7 PUSH2 0xBD3 JUMP JUMPDEST SWAP1 POP DUP4 PUSH1 0x0 MSTORE DUP6 DUP6 MSTORE DUP8 DUP8 PUSH1 0x0 KECCAK256 SLOAD DUP5 SHR SWAP2 AND EQ CODESIZE PUSH2 0xBF2 JUMP JUMPDEST PUSH1 0x1 PUSH1 0x1 PUSH1 0xA0 SHL SUB SWAP1 SWAP2 AND DUP2 MSTORE PUSH1 0x20 DUP7 DUP2 MSTORE PUSH1 0x40 DUP1 DUP4 KECCAK256 SWAP8 SWAP9 SWAP8 SWAP1 SWAP7 SWAP3 SWAP6 SWAP2 SWAP4 SWAP2 PUSH2 0xC5D DUP2 PUSH2 0x892 JUMP JUMPDEST DUP7 MSTORE DUP4 MSTORE DUP8 DUP7 DUP7 KECCAK256 ADD SWAP4 DUP6 MSTORE DUP4 DUP4 MSTORE DUP6 DUP6 KECCAK256 DUP3 DUP10 DUP3 ADD SLOAD AND ISZERO ISZERO PUSH1 0x0 EQ PUSH2 0xCDA JUMPI POP SWAP1 DUP1 DUP9 SWAP8 SWAP9 SWAP7 SWAP6 SWAP5 SWAP4 SWAP3 AND DUP5 MSTORE DUP3 DUP3 MSTORE DUP1 DUP7 DUP7 DUP7 KECCAK256 ADD SLOAD AND SWAP7 JUMPDEST PUSH2 0xCA7 JUMPI JUMPDEST POP POP POP POP POP POP SWAP1 JUMP JUMPDEST SWAP1 SWAP2 SWAP3 SWAP4 SWAP5 SWAP7 SWAP6 DUP2 DUP2 AND DUP6 MSTORE DUP4 DUP4 MSTORE DUP6 DUP6 KECCAK256 SLOAD PUSH1 0x80 SHR SWAP1 DUP2 ISZERO PUSH2 0xCD2 JUMPI POP SWAP6 SWAP7 SWAP5 SWAP4 SWAP3 SWAP2 SWAP1 DUP6 PUSH2 0xC99 JUMP JUMPDEST SWAP7 SWAP8 POP PUSH2 0xC9E JUMP JUMPDEST SWAP1 DUP3 DUP10 SWAP9 SWAP10 SWAP8 SWAP6 SWAP4 SWAP7 SWAP5 SWAP3 SLOAD AND SWAP8 JUMPDEST PUSH2 0xCF7 JUMPI POP POP POP POP POP POP POP SWAP1 JUMP JUMPDEST SWAP1 SWAP2 SWAP3 SWAP4 SWAP5 SWAP6 SWAP7 DUP7 DUP2 AND SWAP2 DUP3 ISZERO ISZERO SWAP1 DUP2 PUSH2 0xD2B JUMPI JUMPDEST POP ISZERO PUSH2 0xC13 JUMPI SWAP1 DUP5 MSTORE DUP3 DUP3 MSTORE DUP5 DUP5 KECCAK256 SLOAD DUP7 AND SWAP7 SWAP6 SWAP5 SWAP4 SWAP3 SWAP2 SWAP1 DUP7 PUSH2 0xCE9 JUMP JUMPDEST SWAP1 POP DUP3 DUP7 MSTORE DUP5 DUP5 MSTORE DUP8 DUP1 DUP11 DUP10 DUP10 KECCAK256 ADD SLOAD AND SWAP2 AND EQ CODESIZE PUSH2 0xD0C JUMP JUMPDEST PUSH1 0x1 PUSH1 0x1 PUSH1 0x40 SHL SUB DUP2 GT PUSH2 0x544 JUMPI PUSH1 0x5 SHL PUSH1 0x20 ADD SWAP1 JUMP JUMPDEST PUSH2 0xD64 PUSH2 0x992 JUMP JUMPDEST SWAP1 PUSH1 0x0 DUP1 DUP4 MSTORE DUP1 PUSH1 0x20 DUP5 ADD MSTORE DUP1 PUSH1 0x40 DUP5 ADD MSTORE PUSH2 0xD7E PUSH2 0x9B1 JUMP JUMPDEST DUP2 DUP2 MSTORE DUP2 PUSH1 0x20 DUP3 ADD MSTORE DUP2 PUSH1 0x40 DUP3 ADD MSTORE PUSH1 0x60 DUP5 ADD MSTORE DUP1 PUSH1 0x80 DUP5 ADD MSTORE DUP1 PUSH1 0xA0 DUP5 ADD MSTORE PUSH1 0xC0 DUP4 ADD MSTORE JUMP JUMPDEST DUP1 MLOAD DUP3 LT ISZERO PUSH2 0xDB9 JUMPI PUSH1 0x20 SWAP2 PUSH1 0x5 SHL ADD ADD SWAP1 JUMP JUMPDEST PUSH4 0x4E487B71 PUSH1 0xE0 SHL PUSH1 0x0 MSTORE PUSH1 0x32 PUSH1 0x4 MSTORE PUSH1 0x24 PUSH1 0x0 REVERT JUMPDEST DUP1 SLOAD PUSH1 0x1 PUSH1 0x1 PUSH1 0x80 SHL SUB SWAP1 DUP2 AND SWAP2 DUP3 PUSH2 0xDE7 JUMPI POP POP SWAP1 JUMP JUMPDEST SWAP2 JUMPDEST PUSH1 0x40 PUSH1 0x0 DUP4 DUP4 AND DUP2 MSTORE PUSH1 0x1 DUP6 ADD PUSH1 0x20 MSTORE KECCAK256 SLOAD PUSH1 0x80 SHR SWAP1 DUP2 ISZERO PUSH2 0xE0B JUMPI POP PUSH2 0xDE9 JUMP JUMPDEST SWAP4 SWAP3 POP POP POP JUMP JUMPDEST DUP1 SLOAD PUSH1 0x1 PUSH1 0x1 PUSH1 0x80 SHL SUB SWAP1 DUP2 AND SWAP2 DUP3 PUSH2 0xE2A JUMPI POP POP SWAP1 JUMP JUMPDEST SWAP2 JUMPDEST DUP2 PUSH1 0x0 DUP2 DUP4 AND DUP2 MSTORE PUSH1 0x40 PUSH1 0x1 SWAP2 DUP3 DUP8 ADD PUSH1 0x20 MSTORE KECCAK256 ADD SLOAD AND SWAP1 DUP2 ISZERO PUSH2 0xE0B JUMPI POP PUSH2 0xE2C JUMP INVALID LOG2 PUSH5 0x6970667358 0x22 SLT KECCAK256 0x25 0xCF 0xBA DUP12 PUSH16 0x69E403B6876F38495704BD8B9B3002EB JUMPI PUSH18 0x3B20848926AED9A36C64736F6C6343000814 STOP CALLER "},"methodIdentifiers":{"getBestOrder(address,uint256,uint8,uint8)":"5dcc7f9c","getBestPrice(address,uint8)":"9e09126c","getNextBestPrice(address,uint8,uint128)":"436a5ed6","getOrders(address,uint256,uint8,uint8,uint256,uint128,bytes32)":"877edbff","orderQueues(address,uint8,uint128)":"e471ba46","orders(bytes32)":"9c3f1e90","priceTrees(address,uint8)":"7d910dac"}},"storageLayout":{"storage":[{"astId":6660,"contract":"contracts/OrderStorage.sol:OrderStorage","label":"orders","offset":0,"slot":"0","type":"t_mapping(t_userDefinedValueType(OrderKey)8197,t_struct(DBOrder)8241_storage)"},{"astId":6669,"contract":"contracts/OrderStorage.sol:OrderStorage","label":"priceTrees","offset":0,"slot":"1","type":"t_mapping(t_address,t_mapping(t_enum(Side)8200,t_struct(Tree)8600_storage))"},{"astId":6681,"contract":"contracts/OrderStorage.sol:OrderStorage","label":"orderQueues","offset":0,"slot":"2","type":"t_mapping(t_address,t_mapping(t_enum(Side)8200,t_mapping(t_userDefinedValueType(Price)8578,t_struct(OrderQueue)8249_storage)))"},{"astId":7724,"contract":"contracts/OrderStorage.sol:OrderStorage","label":"__gap","offset":0,"slot":"3","type":"t_array(t_uint256)50_storage"}],"types":{"t_address":{"encoding":"inplace","label":"address","numberOfBytes":"20"},"t_array(t_uint256)50_storage":{"base":"t_uint256","encoding":"inplace","label":"uint256[50]","numberOfBytes":"1600"},"t_enum(SaleKind)8203":{"encoding":"inplace","label":"enum LibOrder.SaleKind","numberOfBytes":"1"},"t_enum(Side)8200":{"encoding":"inplace","label":"enum LibOrder.Side","numberOfBytes":"1"},"t_mapping(t_address,t_mapping(t_enum(Side)8200,t_mapping(t_userDefinedValueType(Price)8578,t_struct(OrderQueue)8249_storage)))":{"encoding":"mapping","key":"t_address","label":"mapping(address => mapping(enum LibOrder.Side => mapping(Price => struct LibOrder.OrderQueue)))","numberOfBytes":"32","value":"t_mapping(t_enum(Side)8200,t_mapping(t_userDefinedValueType(Price)8578,t_struct(OrderQueue)8249_storage))"},"t_mapping(t_address,t_mapping(t_enum(Side)8200,t_struct(Tree)8600_storage))":{"encoding":"mapping","key":"t_address","label":"mapping(address => mapping(enum LibOrder.Side => struct RedBlackTreeLibrary.Tree))","numberOfBytes":"32","value":"t_mapping(t_enum(Side)8200,t_struct(Tree)8600_storage)"},"t_mapping(t_enum(Side)8200,t_mapping(t_userDefinedValueType(Price)8578,t_struct(OrderQueue)8249_storage))":{"encoding":"mapping","key":"t_enum(Side)8200","label":"mapping(enum LibOrder.Side => mapping(Price => struct LibOrder.OrderQueue))","numberOfBytes":"32","value":"t_mapping(t_userDefinedValueType(Price)8578,t_struct(OrderQueue)8249_storage)"},"t_mapping(t_enum(Side)8200,t_struct(Tree)8600_storage)":{"encoding":"mapping","key":"t_enum(Side)8200","label":"mapping(enum LibOrder.Side => struct RedBlackTreeLibrary.Tree)","numberOfBytes":"32","value":"t_struct(Tree)8600_storage"},"t_mapping(t_userDefinedValueType(OrderKey)8197,t_struct(DBOrder)8241_storage)":{"encoding":"mapping","key":"t_userDefinedValueType(OrderKey)8197","label":"mapping(OrderKey => struct LibOrder.DBOrder)","numberOfBytes":"32","value":"t_struct(DBOrder)8241_storage"},"t_mapping(t_userDefinedValueType(Price)8578,t_struct(Node)8590_storage)":{"encoding":"mapping","key":"t_userDefinedValueType(Price)8578","label":"mapping(Price => struct RedBlackTreeLibrary.Node)","numberOfBytes":"32","value":"t_struct(Node)8590_storage"},"t_mapping(t_userDefinedValueType(Price)8578,t_struct(OrderQueue)8249_storage)":{"encoding":"mapping","key":"t_userDefinedValueType(Price)8578","label":"mapping(Price => struct LibOrder.OrderQueue)","numberOfBytes":"32","value":"t_struct(OrderQueue)8249_storage"},"t_struct(Asset)8210_storage":{"encoding":"inplace","label":"struct LibOrder.Asset","members":[{"astId":8205,"contract":"contracts/OrderStorage.sol:OrderStorage","label":"tokenId","offset":0,"slot":"0","type":"t_uint256"},{"astId":8207,"contract":"contracts/OrderStorage.sol:OrderStorage","label":"collection","offset":0,"slot":"1","type":"t_address"},{"astId":8209,"contract":"contracts/OrderStorage.sol:OrderStorage","label":"amount","offset":20,"slot":"1","type":"t_uint96"}],"numberOfBytes":"64"},"t_struct(DBOrder)8241_storage":{"encoding":"inplace","label":"struct LibOrder.DBOrder","members":[{"astId":8237,"contract":"contracts/OrderStorage.sol:OrderStorage","label":"order","offset":0,"slot":"0","type":"t_struct(Order)8234_storage"},{"astId":8240,"contract":"contracts/OrderStorage.sol:OrderStorage","label":"next","offset":0,"slot":"4","type":"t_userDefinedValueType(OrderKey)8197"}],"numberOfBytes":"160"},"t_struct(Node)8590_storage":{"encoding":"inplace","label":"struct RedBlackTreeLibrary.Node","members":[{"astId":8581,"contract":"contracts/OrderStorage.sol:OrderStorage","label":"parent","offset":0,"slot":"0","type":"t_userDefinedValueType(Price)8578"},{"astId":8584,"contract":"contracts/OrderStorage.sol:OrderStorage","label":"left","offset":16,"slot":"0","type":"t_userDefinedValueType(Price)8578"},{"astId":8587,"contract":"contracts/OrderStorage.sol:OrderStorage","label":"right","offset":0,"slot":"1","type":"t_userDefinedValueType(Price)8578"},{"astId":8589,"contract":"contracts/OrderStorage.sol:OrderStorage","label":"red","offset":16,"slot":"1","type":"t_uint8"}],"numberOfBytes":"64"},"t_struct(Order)8234_storage":{"encoding":"inplace","label":"struct LibOrder.Order","members":[{"astId":8218,"contract":"contracts/OrderStorage.sol:OrderStorage","label":"side","offset":0,"slot":"0","type":"t_enum(Side)8200"},{"astId":8221,"contract":"contracts/OrderStorage.sol:OrderStorage","label":"saleKind","offset":1,"slot":"0","type":"t_enum(SaleKind)8203"},{"astId":8223,"contract":"contracts/OrderStorage.sol:OrderStorage","label":"maker","offset":2,"slot":"0","type":"t_address"},{"astId":8226,"contract":"contracts/OrderStorage.sol:OrderStorage","label":"nft","offset":0,"slot":"1","type":"t_struct(Asset)8210_storage"},{"astId":8229,"contract":"contracts/OrderStorage.sol:OrderStorage","label":"price","offset":0,"slot":"3","type":"t_userDefinedValueType(Price)8578"},{"astId":8231,"contract":"contracts/OrderStorage.sol:OrderStorage","label":"expiry","offset":16,"slot":"3","type":"t_uint64"},{"astId":8233,"contract":"contracts/OrderStorage.sol:OrderStorage","label":"salt","offset":24,"slot":"3","type":"t_uint64"}],"numberOfBytes":"128"},"t_struct(OrderQueue)8249_storage":{"encoding":"inplace","label":"struct LibOrder.OrderQueue","members":[{"astId":8245,"contract":"contracts/OrderStorage.sol:OrderStorage","label":"head","offset":0,"slot":"0","type":"t_userDefinedValueType(OrderKey)8197"},{"astId":8248,"contract":"contracts/OrderStorage.sol:OrderStorage","label":"tail","offset":0,"slot":"1","type":"t_userDefinedValueType(OrderKey)8197"}],"numberOfBytes":"64"},"t_struct(Tree)8600_storage":{"encoding":"inplace","label":"struct RedBlackTreeLibrary.Tree","members":[{"astId":8593,"contract":"contracts/OrderStorage.sol:OrderStorage","label":"root","offset":0,"slot":"0","type":"t_userDefinedValueType(Price)8578"},{"astId":8599,"contract":"contracts/OrderStorage.sol:OrderStorage","label":"nodes","offset":0,"slot":"1","type":"t_mapping(t_userDefinedValueType(Price)8578,t_struct(Node)8590_storage)"}],"numberOfBytes":"64"},"t_uint256":{"encoding":"inplace","label":"uint256","numberOfBytes":"32"},"t_uint64":{"encoding":"inplace","label":"uint64","numberOfBytes":"8"},"t_uint8":{"encoding":"inplace","label":"uint8","numberOfBytes":"1"},"t_uint96":{"encoding":"inplace","label":"uint96","numberOfBytes":"12"},"t_userDefinedValueType(OrderKey)8197":{"encoding":"inplace","label":"OrderKey","numberOfBytes":"32"},"t_userDefinedValueType(Price)8578":{"encoding":"inplace","label":"Price","numberOfBytes":"16"}}}}}}