{"contracts/libraries/LibOrder.sol":{"LibOrder":{"abi":[{"inputs":[],"name":"ASSET_TYPEHASH","outputs":[{"internalType":"bytes32","name":"","type":"bytes32"}],"stateMutability":"view","type":"function"},{"inputs":[],"name":"ORDERKEY_SENTINEL","outputs":[{"internalType":"OrderKey","name":"","type":"bytes32"}],"stateMutability":"view","type":"function"},{"inputs":[],"name":"ORDER_TYPEHASH","outputs":[{"internalType":"bytes32","name":"","type":"bytes32"}],"stateMutability":"view","type":"function"}],"evm":{"bytecode":{"linkReferences":{},"object":"608080604052346100195760f7908161001f823930815050f35b600080fdfe6080806040526004361015601257600080fd5b600090813560e01c9081633c75f2e61460aa57508063f973a2091460755763fcd0d9d314603e57600080fd5b8060031936011260725760206040517f631e462bf410c643f967c13284911d970aa0a06097a11e4a1a7ad9549175d78a8152f35b80fd5b508060031936011260725760206040517f7e112775c49cc2f5d597cc604eac1616afa66ee95cc7c4d46a97ca90b539ca338152f35b90508160031936011260bd576020918152f35b5080fdfea264697066735822122086d40ea6ba9bc9b725e5d1824fb67949eb618c73bee50165e5505aaaa222416364736f6c63430008140033","opcodes":"PUSH1 0x80 DUP1 PUSH1 0x40 MSTORE CALLVALUE PUSH2 0x19 JUMPI PUSH1 0xF7 SWAP1 DUP2 PUSH2 0x1F DUP3 CODECOPY ADDRESS DUP2 POP POP RETURN JUMPDEST PUSH1 0x0 DUP1 REVERT INVALID PUSH1 0x80 DUP1 PUSH1 0x40 MSTORE PUSH1 0x4 CALLDATASIZE LT ISZERO PUSH1 0x12 JUMPI PUSH1 0x0 DUP1 REVERT JUMPDEST PUSH1 0x0 SWAP1 DUP2 CALLDATALOAD PUSH1 0xE0 SHR SWAP1 DUP2 PUSH4 0x3C75F2E6 EQ PUSH1 0xAA JUMPI POP DUP1 PUSH4 0xF973A209 EQ PUSH1 0x75 JUMPI PUSH4 0xFCD0D9D3 EQ PUSH1 0x3E JUMPI PUSH1 0x0 DUP1 REVERT JUMPDEST DUP1 PUSH1 0x3 NOT CALLDATASIZE ADD SLT PUSH1 0x72 JUMPI PUSH1 0x20 PUSH1 0x40 MLOAD PUSH32 0x631E462BF410C643F967C13284911D970AA0A06097A11E4A1A7AD9549175D78A DUP2 MSTORE RETURN JUMPDEST DUP1 REVERT JUMPDEST POP DUP1 PUSH1 0x3 NOT CALLDATASIZE ADD SLT PUSH1 0x72 JUMPI PUSH1 0x20 PUSH1 0x40 MLOAD PUSH32 0x7E112775C49CC2F5D597CC604EAC1616AFA66EE95CC7C4D46A97CA90B539CA33 DUP2 MSTORE RETURN JUMPDEST SWAP1 POP DUP2 PUSH1 0x3 NOT CALLDATASIZE ADD SLT PUSH1 0xBD JUMPI PUSH1 0x20 SWAP2 DUP2 MSTORE RETURN JUMPDEST POP DUP1 REVERT INVALID LOG2 PUSH5 0x6970667358 0x22 SLT KECCAK256 DUP7 0xD4 0xE 0xA6 0xBA SWAP12 0xC9 0xB7 0x25 0xE5 0xD1 DUP3 0x4F 0xB6 PUSH26 0x49EB618C73BEE50165E5505AAAA222416364736F6C6343000814 STOP CALLER "},"methodIdentifiers":{"ASSET_TYPEHASH()":"fcd0d9d3","ORDERKEY_SENTINEL()":"3c75f2e6","ORDER_TYPEHASH()":"f973a209"}},"storageLayout":{"storage":[],"types":null}}}}