{"contracts/libraries/LibPayInfo.sol":{"LibPayInfo":{"abi":[{"inputs":[],"name":"MAX_PROTOCOL_SHARE","outputs":[{"internalType":"uint128","name":"","type":"uint128"}],"stateMutability":"view","type":"function"},{"inputs":[],"name":"TOTAL_SHARE","outputs":[{"internalType":"uint128","name":"","type":"uint128"}],"stateMutability":"view","type":"function"},{"inputs":[],"name":"TYPE_HASH","outputs":[{"internalType":"bytes32","name":"","type":"bytes32"}],"stateMutability":"view","type":"function"}],"evm":{"bytecode":{"linkReferences":{},"object":"608080604052346100195760dc908161001f823930815050f35b600080fdfe6080806040526004361015601257600080fd5b600090813560e01c90816364d4c81914606e57508063a931208f1460575763bf41e16f14603e57600080fd5b8060031936011260545760206040516127108152f35b80fd5b508060031936011260545760206040516103e88152f35b90508160031936011260a257807f4ec7427a1de4d1086f228665556ea9a0a419f75736571115e79d40a51f96cc5f60209252f35b5080fdfea2646970667358221220c2785f44fdc452e84dbeb4d1846f2c72bf3dad076dacbb7d9f9a1dec87cbeb3b64736f6c63430008140033","opcodes":"PUSH1 0x80 DUP1 PUSH1 0x40 MSTORE CALLVALUE PUSH2 0x19 JUMPI PUSH1 0xDC SWAP1 DUP2 PUSH2 0x1F DUP3 CODECOPY ADDRESS DUP2 POP POP RETURN JUMPDEST PUSH1 0x0 DUP1 REVERT INVALID PUSH1 0x80 DUP1 PUSH1 0x40 MSTORE PUSH1 0x4 CALLDATASIZE LT ISZERO PUSH1 0x12 JUMPI PUSH1 0x0 DUP1 REVERT JUMPDEST PUSH1 0x0 SWAP1 DUP2 CALLDATALOAD PUSH1 0xE0 SHR SWAP1 DUP2 PUSH4 0x64D4C819 EQ PUSH1 0x6E JUMPI POP DUP1 PUSH4 0xA931208F EQ PUSH1 0x57 JUMPI PUSH4 0xBF41E16F EQ PUSH1 0x3E JUMPI PUSH1 0x0 DUP1 REVERT JUMPDEST DUP1 PUSH1 0x3 NOT CALLDATASIZE ADD SLT PUSH1 0x54 JUMPI PUSH1 0x20 PUSH1 0x40 MLOAD PUSH2 0x2710 DUP2 MSTORE RETURN JUMPDEST DUP1 REVERT JUMPDEST POP DUP1 PUSH1 0x3 NOT CALLDATASIZE ADD SLT PUSH1 0x54 JUMPI PUSH1 0x20 PUSH1 0x40 MLOAD PUSH2 0x3E8 DUP2 MSTORE RETURN JUMPDEST SWAP1 POP DUP2 PUSH1 0x3 NOT CALLDATASIZE ADD SLT PUSH1 0xA2 JUMPI DUP1 PUSH32 0x4EC7427A1DE4D1086F228665556EA9A0A419F75736571115E79D40A51F96CC5F PUSH1 0x20 SWAP3 MSTORE RETURN JUMPDEST POP DUP1 REVERT INVALID LOG2 PUSH5 0x6970667358 0x22 SLT KECCAK256 0xC2 PUSH25 0x5F44FDC452E84DBEB4D1846F2C72BF3DAD076DACBB7D9F9A1D 0xEC DUP8 0xCB 0xEB EXTCODESIZE PUSH5 0x736F6C6343 STOP ADDMOD EQ STOP CALLER "},"methodIdentifiers":{"MAX_PROTOCOL_SHARE()":"a931208f","TOTAL_SHARE()":"bf41e16f","TYPE_HASH()":"64d4c819"}},"storageLayout":{"storage":[],"types":null}}}}