{"contracts/test/ProtocolManagerV2Test.sol":{"ProtocolManagerV2Test":{"abi":[{"inputs":[],"name":"InvalidInitialization","type":"error"},{"inputs":[],"name":"NotInitializing","type":"error"},{"inputs":[{"internalType":"address","name":"owner","type":"address"}],"name":"OwnableInvalidOwner","type":"error"},{"inputs":[{"internalType":"address","name":"account","type":"address"}],"name":"OwnableUnauthorizedAccount","type":"error"},{"anonymous":false,"inputs":[{"indexed":false,"internalType":"uint64","name":"version","type":"uint64"}],"name":"Initialized","type":"event"},{"anonymous":false,"inputs":[{"indexed":true,"internalType":"uint128","name":"newProtocolShare","type":"uint128"}],"name":"LogUpdatedProtocolShare","type":"event"},{"anonymous":false,"inputs":[{"indexed":true,"internalType":"address","name":"previousOwner","type":"address"},{"indexed":true,"internalType":"address","name":"newOwner","type":"address"}],"name":"OwnershipTransferred","type":"event"},{"inputs":[{"internalType":"uint128","name":"newProtocolFee","type":"uint128"}],"name":"initialize","outputs":[],"stateMutability":"nonpayable","type":"function"},{"inputs":[],"name":"owner","outputs":[{"internalType":"address","name":"","type":"address"}],"stateMutability":"view","type":"function"},{"inputs":[],"name":"protocolShare","outputs":[{"internalType":"uint128","name":"","type":"uint128"}],"stateMutability":"view","type":"function"},{"inputs":[],"name":"renounceOwnership","outputs":[],"stateMutability":"nonpayable","type":"function"},{"inputs":[{"internalType":"uint128","name":"newProtocolShare","type":"uint128"}],"name":"setProtocolShare","outputs":[],"stateMutability":"nonpayable","type":"function"},{"inputs":[{"internalType":"address","name":"newOwner","type":"address"}],"name":"transferOwnership","outputs":[],"stateMutability":"nonpayable","type":"function"}],"evm":{"bytecode":{"linkReferences":{},"object":"608080604052346100165761050f908161001c8239f35b600080fdfe608060408181526004908136101561001657600080fd5b600092833560e01c9081631103f3151461041b5750806356db9ef114610266578063715018a6146101f9578063813e7c2a146101405780638da5cb5b146101065763f2fde38b1461006657600080fd5b34610102576020366003190112610102576001600160a01b038235818116939192908490036100fe5761009761043f565b83156100e85750506000805160206104ba83398151915280546001600160a01b031981168417909155167f8be0079c531659141344cd1fd0a4f28419497f9722a3daafe3b4186f6b6457e08380a380f35b51631e4fbdf760e01b8152908101849052602490fd5b8480fd5b8280fd5b83823461013c578160031936011261013c576000805160206104ba8339815191525490516001600160a01b039091168152602090f35b5080fd5b5090346101025760203660031901126101025780356001600160801b03811692908390036101f55761017061043f565b6103e883116101b257505081546001600160801b031916811782557f0b52884d4590055c8791518c34458834f75feed662340ef0b5af2898e7a9be9f8280a280f35b906020606492519162461bcd60e51b8352820152601d60248201527f504d3a20657863656564206d61782070726f746f636f6c2073686172650000006044820152fd5b8380fd5b833461026357806003193601126102635761021261043f565b6000805160206104ba83398151915280546001600160a01b0319811690915581906001600160a01b03167f8be0079c531659141344cd1fd0a4f28419497f9722a3daafe3b4186f6b6457e08280a380f35b80fd5b50346101025760203660031901126101025781356001600160801b03811692908390036101f5577ff0c57e16840df040f15088dc2f81fe391c3923bec73e23a9662efc9c229c6a009182549160ff83831c16159267ffffffffffffffff811680159081610413575b6001149081610409575b159081610400575b506103f15767ffffffffffffffff1981166001178555836103d2575b50610305610478565b61030d610478565b6103e88511610390575084546001600160801b0319168417855551927f0b52884d4590055c8791518c34458834f75feed662340ef0b5af2898e7a9be9f8580a2610355578280f35b805460ff60401b19169055600181527fc7f505b2f371ae2175ee4913f4499e1f2633a7b5936321eed1cdaeb6115181d290602090a138808280f35b6020606492519162461bcd60e51b8352820152601d60248201527f504d3a20657863656564206d61782070726f746f636f6c2073686172650000006044820152fd5b68ffffffffffffffffff191668010000000000000001178455386102fc565b50905163f92ee8a960e01b8152fd5b905015386102e0565b303b1591506102d8565b8591506102ce565b84903461013c578160031936011261013c5790546001600160801b03168152602090f35b6000805160206104ba833981519152546001600160a01b0316330361046057565b60405163118cdaa760e01b8152336004820152602490fd5b60ff7ff0c57e16840df040f15088dc2f81fe391c3923bec73e23a9662efc9c229c6a005460401c16156104a757565b604051631afcd79f60e31b8152600490fdfe9016d09d72d40fdae2fd8ceac6b6234c7706214fd39c1cd1e609a0528c199300a26469706673582212203a91b681e2b5c1bc5a3ac0b583b1573a4adb4cde73ac796218392099f7ac5d7a64736f6c63430008140033","opcodes":"PUSH1 0x80 DUP1 PUSH1 0x40 MSTORE CALLVALUE PUSH2 0x16 JUMPI PUSH2 0x50F SWAP1 DUP2 PUSH2 0x1C DUP3 CODECOPY RETURN JUMPDEST PUSH1 0x0 DUP1 REVERT INVALID PUSH1 0x80 PUSH1 0x40 DUP2 DUP2 MSTORE PUSH1 0x4 SWAP1 DUP2 CALLDATASIZE LT ISZERO PUSH2 0x16 JUMPI PUSH1 0x0 DUP1 REVERT JUMPDEST PUSH1 0x0 SWAP3 DUP4 CALLDATALOAD PUSH1 0xE0 SHR SWAP1 DUP2 PUSH4 0x1103F315 EQ PUSH2 0x41B JUMPI POP DUP1 PUSH4 0x56DB9EF1 EQ PUSH2 0x266 JUMPI DUP1 PUSH4 0x715018A6 EQ PUSH2 0x1F9 JUMPI DUP1 PUSH4 0x813E7C2A EQ PUSH2 0x140 JUMPI DUP1 PUSH4 0x8DA5CB5B EQ PUSH2 0x106 JUMPI PUSH4 0xF2FDE38B EQ PUSH2 0x66 JUMPI PUSH1 0x0 DUP1 REVERT JUMPDEST CALLVALUE PUSH2 0x102 JUMPI PUSH1 0x20 CALLDATASIZE PUSH1 0x3 NOT ADD SLT PUSH2 0x102 JUMPI PUSH1 0x1 PUSH1 0x1 PUSH1 0xA0 SHL SUB DUP3 CALLDATALOAD DUP2 DUP2 AND SWAP4 SWAP2 SWAP3 SWAP1 DUP5 SWAP1 SUB PUSH2 0xFE JUMPI PUSH2 0x97 PUSH2 0x43F JUMP JUMPDEST DUP4 ISZERO PUSH2 0xE8 JUMPI POP POP PUSH1 0x0 DUP1 MLOAD PUSH1 0x20 PUSH2 0x4BA DUP4 CODECOPY DUP2 MLOAD SWAP2 MSTORE DUP1 SLOAD PUSH1 0x1 PUSH1 0x1 PUSH1 0xA0 SHL SUB NOT DUP2 AND DUP5 OR SWAP1 SWAP2 SSTORE AND PUSH32 0x8BE0079C531659141344CD1FD0A4F28419497F9722A3DAAFE3B4186F6B6457E0 DUP4 DUP1 LOG3 DUP1 RETURN JUMPDEST MLOAD PUSH4 0x1E4FBDF7 PUSH1 0xE0 SHL DUP2 MSTORE SWAP1 DUP2 ADD DUP5 SWAP1 MSTORE PUSH1 0x24 SWAP1 REVERT JUMPDEST DUP5 DUP1 REVERT JUMPDEST DUP3 DUP1 REVERT JUMPDEST DUP4 DUP3 CALLVALUE PUSH2 0x13C JUMPI DUP2 PUSH1 0x3 NOT CALLDATASIZE ADD SLT PUSH2 0x13C JUMPI PUSH1 0x0 DUP1 MLOAD PUSH1 0x20 PUSH2 0x4BA DUP4 CODECOPY DUP2 MLOAD SWAP2 MSTORE SLOAD SWAP1 MLOAD PUSH1 0x1 PUSH1 0x1 PUSH1 0xA0 SHL SUB SWAP1 SWAP2 AND DUP2 MSTORE PUSH1 0x20 SWAP1 RETURN JUMPDEST POP DUP1 REVERT JUMPDEST POP SWAP1 CALLVALUE PUSH2 0x102 JUMPI PUSH1 0x20 CALLDATASIZE PUSH1 0x3 NOT ADD SLT PUSH2 0x102 JUMPI DUP1 CALLDATALOAD PUSH1 0x1 PUSH1 0x1 PUSH1 0x80 SHL SUB DUP2 AND SWAP3 SWAP1 DUP4 SWAP1 SUB PUSH2 0x1F5 JUMPI PUSH2 0x170 PUSH2 0x43F JUMP JUMPDEST PUSH2 0x3E8 DUP4 GT PUSH2 0x1B2 JUMPI POP POP DUP2 SLOAD PUSH1 0x1 PUSH1 0x1 PUSH1 0x80 SHL SUB NOT AND DUP2 OR DUP3 SSTORE PUSH32 0xB52884D4590055C8791518C34458834F75FEED662340EF0B5AF2898E7A9BE9F DUP3 DUP1 LOG2 DUP1 RETURN JUMPDEST SWAP1 PUSH1 0x20 PUSH1 0x64 SWAP3 MLOAD SWAP2 PUSH3 0x461BCD PUSH1 0xE5 SHL DUP4 MSTORE DUP3 ADD MSTORE PUSH1 0x1D PUSH1 0x24 DUP3 ADD MSTORE PUSH32 0x504D3A20657863656564206D61782070726F746F636F6C207368617265000000 PUSH1 0x44 DUP3 ADD MSTORE REVERT JUMPDEST DUP4 DUP1 REVERT JUMPDEST DUP4 CALLVALUE PUSH2 0x263 JUMPI DUP1 PUSH1 0x3 NOT CALLDATASIZE ADD SLT PUSH2 0x263 JUMPI PUSH2 0x212 PUSH2 0x43F JUMP JUMPDEST PUSH1 0x0 DUP1 MLOAD PUSH1 0x20 PUSH2 0x4BA DUP4 CODECOPY DUP2 MLOAD SWAP2 MSTORE DUP1 SLOAD PUSH1 0x1 PUSH1 0x1 PUSH1 0xA0 SHL SUB NOT DUP2 AND SWAP1 SWAP2 SSTORE DUP2 SWAP1 PUSH1 0x1 PUSH1 0x1 PUSH1 0xA0 SHL SUB AND PUSH32 0x8BE0079C531659141344CD1FD0A4F28419497F9722A3DAAFE3B4186F6B6457E0 DUP3 DUP1 LOG3 DUP1 RETURN JUMPDEST DUP1 REVERT JUMPDEST POP CALLVALUE PUSH2 0x102 JUMPI PUSH1 0x20 CALLDATASIZE PUSH1 0x3 NOT ADD SLT PUSH2 0x102 JUMPI DUP2 CALLDATALOAD PUSH1 0x1 PUSH1 0x1 PUSH1 0x80 SHL SUB DUP2 AND SWAP3 SWAP1 DUP4 SWAP1 SUB PUSH2 0x1F5 JUMPI PUSH32 0xF0C57E16840DF040F15088DC2F81FE391C3923BEC73E23A9662EFC9C229C6A00 SWAP2 DUP3 SLOAD SWAP2 PUSH1 0xFF DUP4 DUP4 SHR AND ISZERO SWAP3 PUSH8 0xFFFFFFFFFFFFFFFF DUP2 AND DUP1 ISZERO SWAP1 DUP2 PUSH2 0x413 JUMPI JUMPDEST PUSH1 0x1 EQ SWAP1 DUP2 PUSH2 0x409 JUMPI JUMPDEST ISZERO SWAP1 DUP2 PUSH2 0x400 JUMPI JUMPDEST POP PUSH2 0x3F1 JUMPI PUSH8 0xFFFFFFFFFFFFFFFF NOT DUP2 AND PUSH1 0x1 OR DUP6 SSTORE DUP4 PUSH2 0x3D2 JUMPI JUMPDEST POP PUSH2 0x305 PUSH2 0x478 JUMP JUMPDEST PUSH2 0x30D PUSH2 0x478 JUMP JUMPDEST PUSH2 0x3E8 DUP6 GT PUSH2 0x390 JUMPI POP DUP5 SLOAD PUSH1 0x1 PUSH1 0x1 PUSH1 0x80 SHL SUB NOT AND DUP5 OR DUP6 SSTORE MLOAD SWAP3 PUSH32 0xB52884D4590055C8791518C34458834F75FEED662340EF0B5AF2898E7A9BE9F DUP6 DUP1 LOG2 PUSH2 0x355 JUMPI DUP3 DUP1 RETURN JUMPDEST DUP1 SLOAD PUSH1 0xFF PUSH1 0x40 SHL NOT AND SWAP1 SSTORE PUSH1 0x1 DUP2 MSTORE PUSH32 0xC7F505B2F371AE2175EE4913F4499E1F2633A7B5936321EED1CDAEB6115181D2 SWAP1 PUSH1 0x20 SWAP1 LOG1 CODESIZE DUP1 DUP3 DUP1 RETURN JUMPDEST PUSH1 0x20 PUSH1 0x64 SWAP3 MLOAD SWAP2 PUSH3 0x461BCD PUSH1 0xE5 SHL DUP4 MSTORE DUP3 ADD MSTORE PUSH1 0x1D PUSH1 0x24 DUP3 ADD MSTORE PUSH32 0x504D3A20657863656564206D61782070726F746F636F6C207368617265000000 PUSH1 0x44 DUP3 ADD MSTORE REVERT JUMPDEST PUSH9 0xFFFFFFFFFFFFFFFFFF NOT AND PUSH9 0x10000000000000001 OR DUP5 SSTORE CODESIZE PUSH2 0x2FC JUMP JUMPDEST POP SWAP1 MLOAD PUSH4 0xF92EE8A9 PUSH1 0xE0 SHL DUP2 MSTORE REVERT JUMPDEST SWAP1 POP ISZERO CODESIZE PUSH2 0x2E0 JUMP JUMPDEST ADDRESS EXTCODESIZE ISZERO SWAP2 POP PUSH2 0x2D8 JUMP JUMPDEST DUP6 SWAP2 POP PUSH2 0x2CE JUMP JUMPDEST DUP5 SWAP1 CALLVALUE PUSH2 0x13C JUMPI DUP2 PUSH1 0x3 NOT CALLDATASIZE ADD SLT PUSH2 0x13C JUMPI SWAP1 SLOAD PUSH1 0x1 PUSH1 0x1 PUSH1 0x80 SHL SUB AND DUP2 MSTORE PUSH1 0x20 SWAP1 RETURN JUMPDEST PUSH1 0x0 DUP1 MLOAD PUSH1 0x20 PUSH2 0x4BA DUP4 CODECOPY DUP2 MLOAD SWAP2 MSTORE SLOAD PUSH1 0x1 PUSH1 0x1 PUSH1 0xA0 SHL SUB AND CALLER SUB PUSH2 0x460 JUMPI JUMP JUMPDEST PUSH1 0x40 MLOAD PUSH4 0x118CDAA7 PUSH1 0xE0 SHL DUP2 MSTORE CALLER PUSH1 0x4 DUP3 ADD MSTORE PUSH1 0x24 SWAP1 REVERT JUMPDEST PUSH1 0xFF PUSH32 0xF0C57E16840DF040F15088DC2F81FE391C3923BEC73E23A9662EFC9C229C6A00 SLOAD PUSH1 0x40 SHR AND ISZERO PUSH2 0x4A7 JUMPI JUMP JUMPDEST PUSH1 0x40 MLOAD PUSH4 0x1AFCD79F PUSH1 0xE3 SHL DUP2 MSTORE PUSH1 0x4 SWAP1 REVERT INVALID SWAP1 AND 0xD0 SWAP14 PUSH19 0xD40FDAE2FD8CEAC6B6234C7706214FD39C1CD1 0xE6 MULMOD LOG0 MSTORE DUP13 NOT SWAP4 STOP LOG2 PUSH5 0x6970667358 0x22 SLT KECCAK256 GASPRICE SWAP2 0xB6 DUP2 0xE2 0xB5 0xC1 0xBC GAS GASPRICE 0xC0 0xB5 DUP4 0xB1 JUMPI GASPRICE 0x4A 0xDB 0x4C 0xDE PUSH20 0xAC796218392099F7AC5D7A64736F6C6343000814 STOP CALLER "},"methodIdentifiers":{"initialize(uint128)":"56db9ef1","owner()":"8da5cb5b","protocolShare()":"1103f315","renounceOwnership()":"715018a6","setProtocolShare(uint128)":"813e7c2a","transferOwnership(address)":"f2fde38b"}},"storageLayout":{"storage":[{"astId":7952,"contract":"contracts/test/ProtocolManagerV2Test.sol:ProtocolManagerV2Test","label":"protocolShare","offset":0,"slot":"0","type":"t_uint128"},{"astId":8018,"contract":"contracts/test/ProtocolManagerV2Test.sol:ProtocolManagerV2Test","label":"__gap","offset":0,"slot":"1","type":"t_array(t_uint256)50_storage"}],"types":{"t_array(t_uint256)50_storage":{"base":"t_uint256","encoding":"inplace","label":"uint256[50]","numberOfBytes":"1600"},"t_uint128":{"encoding":"inplace","label":"uint128","numberOfBytes":"16"},"t_uint256":{"encoding":"inplace","label":"uint256","numberOfBytes":"32"}}}}}}