{"contracts/EasySwapOrderBook.sol":{"EasySwapOrderBook":{"abi":[{"inputs":[],"name":"CannotFindNextEmptyKey","type":"error"},{"inputs":[],"name":"CannotFindPrevEmptyKey","type":"error"},{"inputs":[{"internalType":"OrderKey","name":"orderKey","type":"bytes32"}],"name":"CannotInsertDuplicateOrder","type":"error"},{"inputs":[],"name":"CannotInsertEmptyKey","type":"error"},{"inputs":[],"name":"CannotInsertExistingKey","type":"error"},{"inputs":[],"name":"CannotRemoveEmptyKey","type":"error"},{"inputs":[],"name":"CannotRemoveMissingKey","type":"error"},{"inputs":[],"name":"EnforcedPause","type":"error"},{"inputs":[],"name":"ExpectedPause","type":"error"},{"inputs":[],"name":"InvalidInitialization","type":"error"},{"inputs":[],"name":"NotInitializing","type":"error"},{"inputs":[{"internalType":"address","name":"owner","type":"address"}],"name":"OwnableInvalidOwner","type":"error"},{"inputs":[{"internalType":"address","name":"account","type":"address"}],"name":"OwnableUnauthorizedAccount","type":"error"},{"inputs":[],"name":"ReentrancyGuardReentrantCall","type":"error"},{"anonymous":false,"inputs":[{"indexed":false,"internalType":"uint256","name":"offset","type":"uint256"},{"indexed":false,"internalType":"bytes","name":"msg","type":"bytes"}],"name":"BatchMatchInnerError","type":"event"},{"anonymous":false,"inputs":[],"name":"EIP712DomainChanged","type":"event"},{"anonymous":false,"inputs":[{"indexed":false,"internalType":"uint64","name":"version","type":"uint64"}],"name":"Initialized","type":"event"},{"anonymous":false,"inputs":[{"indexed":true,"internalType":"OrderKey","name":"orderKey","type":"bytes32"},{"indexed":true,"internalType":"address","name":"maker","type":"address"}],"name":"LogCancel","type":"event"},{"anonymous":false,"inputs":[{"indexed":false,"internalType":"OrderKey","name":"orderKey","type":"bytes32"},{"indexed":true,"internalType":"enum LibOrder.Side","name":"side","type":"uint8"},{"indexed":true,"internalType":"enum LibOrder.SaleKind","name":"saleKind","type":"uint8"},{"indexed":true,"internalType":"address","name":"maker","type":"address"},{"components":[{"internalType":"uint256","name":"tokenId","type":"uint256"},{"internalType":"address","name":"collection","type":"address"},{"internalType":"uint96","name":"amount","type":"uint96"}],"indexed":false,"internalType":"struct LibOrder.Asset","name":"nft","type":"tuple"},{"indexed":false,"internalType":"Price","name":"price","type":"uint128"},{"indexed":false,"internalType":"uint64","name":"expiry","type":"uint64"},{"indexed":false,"internalType":"uint64","name":"salt","type":"uint64"}],"name":"LogMake","type":"event"},{"anonymous":false,"inputs":[{"indexed":true,"internalType":"OrderKey","name":"makeOrderKey","type":"bytes32"},{"indexed":true,"internalType":"OrderKey","name":"takeOrderKey","type":"bytes32"},{"components":[{"internalType":"enum LibOrder.Side","name":"side","type":"uint8"},{"internalType":"enum LibOrder.SaleKind","name":"saleKind","type":"uint8"},{"internalType":"address","name":"maker","type":"address"},{"components":[{"internalType":"uint256","name":"tokenId","type":"uint256"},{"internalType":"address","name":"collection","type":"address"},{"internalType":"uint96","name":"amount","type":"uint96"}],"internalType":"struct LibOrder.Asset","name":"nft","type":"tuple"},{"internalType":"Price","name":"price","type":"uint128"},{"internalType":"uint64","name":"expiry","type":"uint64"},{"internalType":"uint64","name":"salt","type":"uint64"}],"indexed":false,"internalType":"struct LibOrder.Order","name":"makeOrder","type":"tuple"},{"components":[{"internalType":"enum LibOrder.Side","name":"side","type":"uint8"},{"internalType":"enum LibOrder.SaleKind","name":"saleKind","type":"uint8"},{"internalType":"address","name":"maker","type":"address"},{"components":[{"internalType":"uint256","name":"tokenId","type":"uint256"},{"internalType":"address","name":"collection","type":"address"},{"internalType":"uint96","name":"amount","type":"uint96"}],"internalType":"struct LibOrder.Asset","name":"nft","type":"tuple"},{"internalType":"Price","name":"price","type":"uint128"},{"internalType":"uint64","name":"expiry","type":"uint64"},{"internalType":"uint64","name":"salt","type":"uint64"}],"indexed":false,"internalType":"struct LibOrder.Order","name":"takeOrder","type":"tuple"},{"indexed":false,"internalType":"uint128","name":"fillPrice","type":"uint128"}],"name":"LogMatch","type":"event"},{"anonymous":false,"inputs":[{"indexed":false,"internalType":"OrderKey","name":"orderKey","type":"bytes32"},{"indexed":false,"internalType":"uint64","name":"salt","type":"uint64"}],"name":"LogSkipOrder","type":"event"},{"anonymous":false,"inputs":[{"indexed":true,"internalType":"uint128","name":"newProtocolShare","type":"uint128"}],"name":"LogUpdatedProtocolShare","type":"event"},{"anonymous":false,"inputs":[{"indexed":false,"internalType":"address","name":"recipient","type":"address"},{"indexed":false,"internalType":"uint256","name":"amount","type":"uint256"}],"name":"LogWithdrawETH","type":"event"},{"anonymous":false,"inputs":[{"indexed":true,"internalType":"address","name":"previousOwner","type":"address"},{"indexed":true,"internalType":"address","name":"newOwner","type":"address"}],"name":"OwnershipTransferred","type":"event"},{"anonymous":false,"inputs":[{"indexed":false,"internalType":"address","name":"account","type":"address"}],"name":"Paused","type":"event"},{"anonymous":false,"inputs":[{"indexed":false,"internalType":"address","name":"account","type":"address"}],"name":"Unpaused","type":"event"},{"inputs":[{"internalType":"OrderKey[]","name":"orderKeys","type":"bytes32[]"}],"name":"cancelOrders","outputs":[{"internalType":"bool[]","name":"successes","type":"bool[]"}],"stateMutability":"nonpayable","type":"function"},{"inputs":[{"components":[{"internalType":"OrderKey","name":"oldOrderKey","type":"bytes32"},{"components":[{"internalType":"enum LibOrder.Side","name":"side","type":"uint8"},{"internalType":"enum LibOrder.SaleKind","name":"saleKind","type":"uint8"},{"internalType":"address","name":"maker","type":"address"},{"components":[{"internalType":"uint256","name":"tokenId","type":"uint256"},{"internalType":"address","name":"collection","type":"address"},{"internalType":"uint96","name":"amount","type":"uint96"}],"internalType":"struct LibOrder.Asset","name":"nft","type":"tuple"},{"internalType":"Price","name":"price","type":"uint128"},{"internalType":"uint64","name":"expiry","type":"uint64"},{"internalType":"uint64","name":"salt","type":"uint64"}],"internalType":"struct LibOrder.Order","name":"newOrder","type":"tuple"}],"internalType":"struct LibOrder.EditDetail[]","name":"editDetails","type":"tuple[]"}],"name":"editOrders","outputs":[{"internalType":"OrderKey[]","name":"newOrderKeys","type":"bytes32[]"}],"stateMutability":"payable","type":"function"},{"inputs":[],"name":"eip712Domain","outputs":[{"internalType":"bytes1","name":"fields","type":"bytes1"},{"internalType":"string","name":"name","type":"string"},{"internalType":"string","name":"version","type":"string"},{"internalType":"uint256","name":"chainId","type":"uint256"},{"internalType":"address","name":"verifyingContract","type":"address"},{"internalType":"bytes32","name":"salt","type":"bytes32"},{"internalType":"uint256[]","name":"extensions","type":"uint256[]"}],"stateMutability":"view","type":"function"},{"inputs":[{"internalType":"OrderKey","name":"","type":"bytes32"}],"name":"filledAmount","outputs":[{"internalType":"uint256","name":"","type":"uint256"}],"stateMutability":"view","type":"function"},{"inputs":[{"internalType":"address","name":"collection","type":"address"},{"internalType":"uint256","name":"tokenId","type":"uint256"},{"internalType":"enum LibOrder.Side","name":"side","type":"uint8"},{"internalType":"enum LibOrder.SaleKind","name":"saleKind","type":"uint8"}],"name":"getBestOrder","outputs":[{"components":[{"internalType":"enum LibOrder.Side","name":"side","type":"uint8"},{"internalType":"enum LibOrder.SaleKind","name":"saleKind","type":"uint8"},{"internalType":"address","name":"maker","type":"address"},{"components":[{"internalType":"uint256","name":"tokenId","type":"uint256"},{"internalType":"address","name":"collection","type":"address"},{"internalType":"uint96","name":"amount","type":"uint96"}],"internalType":"struct LibOrder.Asset","name":"nft","type":"tuple"},{"internalType":"Price","name":"price","type":"uint128"},{"internalType":"uint64","name":"expiry","type":"uint64"},{"internalType":"uint64","name":"salt","type":"uint64"}],"internalType":"struct LibOrder.Order","name":"orderResult","type":"tuple"}],"stateMutability":"view","type":"function"},{"inputs":[{"internalType":"address","name":"collection","type":"address"},{"internalType":"enum LibOrder.Side","name":"side","type":"uint8"}],"name":"getBestPrice","outputs":[{"internalType":"Price","name":"price","type":"uint128"}],"stateMutability":"view","type":"function"},{"inputs":[{"internalType":"address","name":"collection","type":"address"},{"internalType":"enum LibOrder.Side","name":"side","type":"uint8"},{"internalType":"Price","name":"price","type":"uint128"}],"name":"getNextBestPrice","outputs":[{"internalType":"Price","name":"nextBestPrice","type":"uint128"}],"stateMutability":"view","type":"function"},{"inputs":[{"internalType":"address","name":"collection","type":"address"},{"internalType":"uint256","name":"tokenId","type":"uint256"},{"internalType":"enum LibOrder.Side","name":"side","type":"uint8"},{"internalType":"enum LibOrder.SaleKind","name":"saleKind","type":"uint8"},{"internalType":"uint256","name":"count","type":"uint256"},{"internalType":"Price","name":"price","type":"uint128"},{"internalType":"OrderKey","name":"firstOrderKey","type":"bytes32"}],"name":"getOrders","outputs":[{"components":[{"internalType":"enum LibOrder.Side","name":"side","type":"uint8"},{"internalType":"enum LibOrder.SaleKind","name":"saleKind","type":"uint8"},{"internalType":"address","name":"maker","type":"address"},{"components":[{"internalType":"uint256","name":"tokenId","type":"uint256"},{"internalType":"address","name":"collection","type":"address"},{"internalType":"uint96","name":"amount","type":"uint96"}],"internalType":"struct LibOrder.Asset","name":"nft","type":"tuple"},{"internalType":"Price","name":"price","type":"uint128"},{"internalType":"uint64","name":"expiry","type":"uint64"},{"internalType":"uint64","name":"salt","type":"uint64"}],"internalType":"struct LibOrder.Order[]","name":"resultOrders","type":"tuple[]"},{"internalType":"OrderKey","name":"nextOrderKey","type":"bytes32"}],"stateMutability":"view","type":"function"},{"inputs":[{"internalType":"uint128","name":"newProtocolShare","type":"uint128"},{"internalType":"address","name":"newVault","type":"address"},{"internalType":"string","name":"EIP712Name","type":"string"},{"internalType":"string","name":"EIP712Version","type":"string"}],"name":"initialize","outputs":[],"stateMutability":"nonpayable","type":"function"},{"inputs":[{"components":[{"internalType":"enum LibOrder.Side","name":"side","type":"uint8"},{"internalType":"enum LibOrder.SaleKind","name":"saleKind","type":"uint8"},{"internalType":"address","name":"maker","type":"address"},{"components":[{"internalType":"uint256","name":"tokenId","type":"uint256"},{"internalType":"address","name":"collection","type":"address"},{"internalType":"uint96","name":"amount","type":"uint96"}],"internalType":"struct LibOrder.Asset","name":"nft","type":"tuple"},{"internalType":"Price","name":"price","type":"uint128"},{"internalType":"uint64","name":"expiry","type":"uint64"},{"internalType":"uint64","name":"salt","type":"uint64"}],"internalType":"struct LibOrder.Order[]","name":"newOrders","type":"tuple[]"}],"name":"makeOrders","outputs":[{"internalType":"OrderKey[]","name":"newOrderKeys","type":"bytes32[]"}],"stateMutability":"payable","type":"function"},{"inputs":[{"components":[{"internalType":"enum LibOrder.Side","name":"side","type":"uint8"},{"internalType":"enum LibOrder.SaleKind","name":"saleKind","type":"uint8"},{"internalType":"address","name":"maker","type":"address"},{"components":[{"internalType":"uint256","name":"tokenId","type":"uint256"},{"internalType":"address","name":"collection","type":"address"},{"internalType":"uint96","name":"amount","type":"uint96"}],"internalType":"struct LibOrder.Asset","name":"nft","type":"tuple"},{"internalType":"Price","name":"price","type":"uint128"},{"internalType":"uint64","name":"expiry","type":"uint64"},{"internalType":"uint64","name":"salt","type":"uint64"}],"internalType":"struct LibOrder.Order","name":"sellOrder","type":"tuple"},{"components":[{"internalType":"enum LibOrder.Side","name":"side","type":"uint8"},{"internalType":"enum LibOrder.SaleKind","name":"saleKind","type":"uint8"},{"internalType":"address","name":"maker","type":"address"},{"components":[{"internalType":"uint256","name":"tokenId","type":"uint256"},{"internalType":"address","name":"collection","type":"address"},{"internalType":"uint96","name":"amount","type":"uint96"}],"internalType":"struct LibOrder.Asset","name":"nft","type":"tuple"},{"internalType":"Price","name":"price","type":"uint128"},{"internalType":"uint64","name":"expiry","type":"uint64"},{"internalType":"uint64","name":"salt","type":"uint64"}],"internalType":"struct LibOrder.Order","name":"buyOrder","type":"tuple"}],"name":"matchOrder","outputs":[],"stateMutability":"payable","type":"function"},{"inputs":[{"components":[{"internalType":"enum LibOrder.Side","name":"side","type":"uint8"},{"internalType":"enum LibOrder.SaleKind","name":"saleKind","type":"uint8"},{"internalType":"address","name":"maker","type":"address"},{"components":[{"internalType":"uint256","name":"tokenId","type":"uint256"},{"internalType":"address","name":"collection","type":"address"},{"internalType":"uint96","name":"amount","type":"uint96"}],"internalType":"struct LibOrder.Asset","name":"nft","type":"tuple"},{"internalType":"Price","name":"price","type":"uint128"},{"internalType":"uint64","name":"expiry","type":"uint64"},{"internalType":"uint64","name":"salt","type":"uint64"}],"internalType":"struct LibOrder.Order","name":"sellOrder","type":"tuple"},{"components":[{"internalType":"enum LibOrder.Side","name":"side","type":"uint8"},{"internalType":"enum LibOrder.SaleKind","name":"saleKind","type":"uint8"},{"internalType":"address","name":"maker","type":"address"},{"components":[{"internalType":"uint256","name":"tokenId","type":"uint256"},{"internalType":"address","name":"collection","type":"address"},{"internalType":"uint96","name":"amount","type":"uint96"}],"internalType":"struct LibOrder.Asset","name":"nft","type":"tuple"},{"internalType":"Price","name":"price","type":"uint128"},{"internalType":"uint64","name":"expiry","type":"uint64"},{"internalType":"uint64","name":"salt","type":"uint64"}],"internalType":"struct LibOrder.Order","name":"buyOrder","type":"tuple"},{"internalType":"uint256","name":"msgValue","type":"uint256"}],"name":"matchOrderWithoutPayback","outputs":[{"internalType":"uint128","name":"costValue","type":"uint128"}],"stateMutability":"payable","type":"function"},{"inputs":[{"components":[{"components":[{"internalType":"enum LibOrder.Side","name":"side","type":"uint8"},{"internalType":"enum LibOrder.SaleKind","name":"saleKind","type":"uint8"},{"internalType":"address","name":"maker","type":"address"},{"components":[{"internalType":"uint256","name":"tokenId","type":"uint256"},{"internalType":"address","name":"collection","type":"address"},{"internalType":"uint96","name":"amount","type":"uint96"}],"internalType":"struct LibOrder.Asset","name":"nft","type":"tuple"},{"internalType":"Price","name":"price","type":"uint128"},{"internalType":"uint64","name":"expiry","type":"uint64"},{"internalType":"uint64","name":"salt","type":"uint64"}],"internalType":"struct LibOrder.Order","name":"sellOrder","type":"tuple"},{"components":[{"internalType":"enum LibOrder.Side","name":"side","type":"uint8"},{"internalType":"enum LibOrder.SaleKind","name":"saleKind","type":"uint8"},{"internalType":"address","name":"maker","type":"address"},{"components":[{"internalType":"uint256","name":"tokenId","type":"uint256"},{"internalType":"address","name":"collection","type":"address"},{"internalType":"uint96","name":"amount","type":"uint96"}],"internalType":"struct LibOrder.Asset","name":"nft","type":"tuple"},{"internalType":"Price","name":"price","type":"uint128"},{"internalType":"uint64","name":"expiry","type":"uint64"},{"internalType":"uint64","name":"salt","type":"uint64"}],"internalType":"struct LibOrder.Order","name":"buyOrder","type":"tuple"}],"internalType":"struct LibOrder.MatchDetail[]","name":"matchDetails","type":"tuple[]"}],"name":"matchOrders","outputs":[{"internalType":"bool[]","name":"successes","type":"bool[]"}],"stateMutability":"payable","type":"function"},{"inputs":[{"internalType":"address","name":"","type":"address"},{"internalType":"enum LibOrder.Side","name":"","type":"uint8"},{"internalType":"Price","name":"","type":"uint128"}],"name":"orderQueues","outputs":[{"internalType":"OrderKey","name":"head","type":"bytes32"},{"internalType":"OrderKey","name":"tail","type":"bytes32"}],"stateMutability":"view","type":"function"},{"inputs":[{"internalType":"OrderKey","name":"","type":"bytes32"}],"name":"orders","outputs":[{"components":[{"internalType":"enum LibOrder.Side","name":"side","type":"uint8"},{"internalType":"enum LibOrder.SaleKind","name":"saleKind","type":"uint8"},{"internalType":"address","name":"maker","type":"address"},{"components":[{"internalType":"uint256","name":"tokenId","type":"uint256"},{"internalType":"address","name":"collection","type":"address"},{"internalType":"uint96","name":"amount","type":"uint96"}],"internalType":"struct LibOrder.Asset","name":"nft","type":"tuple"},{"internalType":"Price","name":"price","type":"uint128"},{"internalType":"uint64","name":"expiry","type":"uint64"},{"internalType":"uint64","name":"salt","type":"uint64"}],"internalType":"struct LibOrder.Order","name":"order","type":"tuple"},{"internalType":"OrderKey","name":"next","type":"bytes32"}],"stateMutability":"view","type":"function"},{"inputs":[],"name":"owner","outputs":[{"internalType":"address","name":"","type":"address"}],"stateMutability":"view","type":"function"},{"inputs":[],"name":"pause","outputs":[],"stateMutability":"nonpayable","type":"function"},{"inputs":[],"name":"paused","outputs":[{"internalType":"bool","name":"","type":"bool"}],"stateMutability":"view","type":"function"},{"inputs":[{"internalType":"address","name":"","type":"address"},{"internalType":"enum LibOrder.Side","name":"","type":"uint8"}],"name":"priceTrees","outputs":[{"internalType":"Price","name":"root","type":"uint128"}],"stateMutability":"view","type":"function"},{"inputs":[],"name":"protocolShare","outputs":[{"internalType":"uint128","name":"","type":"uint128"}],"stateMutability":"view","type":"function"},{"inputs":[],"name":"renounceOwnership","outputs":[],"stateMutability":"nonpayable","type":"function"},{"inputs":[{"internalType":"uint128","name":"newProtocolShare","type":"uint128"}],"name":"setProtocolShare","outputs":[],"stateMutability":"nonpayable","type":"function"},{"inputs":[{"internalType":"address","name":"newVault","type":"address"}],"name":"setVault","outputs":[],"stateMutability":"nonpayable","type":"function"},{"inputs":[{"internalType":"address","name":"newOwner","type":"address"}],"name":"transferOwnership","outputs":[],"stateMutability":"nonpayable","type":"function"},{"inputs":[],"name":"unpause","outputs":[],"stateMutability":"nonpayable","type":"function"},{"inputs":[{"internalType":"address","name":"recipient","type":"address"},{"internalType":"uint256","name":"amount","type":"uint256"}],"name":"withdrawETH","outputs":[],"stateMutability":"nonpayable","type":"function"},{"stateMutability":"payable","type":"receive"}],"evm":{"bytecode":{"linkReferences":{},"object":"60a080604052346100245730608052615a8f90816200002a8239608051816104cd0152f35b600080fdfe6080604052600436101561001b575b361561001957600080fd5b005b60003560e01c80630b20b7bc146101bb5780631103f315146101b657806321c77c96146101b1578063307725d9146101ac578063366c39ed146101a75780633f4ba83a146101a2578063436a5ed61461019d5780634782f779146101985780635c975abb146101935780635d52957e1461018e5780635dcc7f9c146101895780636817031b14610184578063715018a61461017f5780637d910dac1461017a578063813e7c2a146101755780638456cb591461017057806384b0196e1461016b578063877edbff14610166578063882849c9146101615780638da5cb5b1461015c5780639c3f1e90146101575780639e09126c14610152578063e471ba461461014d578063e8f27e9514610148578063f2fde38b146101435763fe971c980361000e576117c8565b61179b565b61168d565b611643565b611613565b6115cc565b6114e3565b611465565b61113b565b61101c565b610eef565b610e3a565b610df6565b610d17565b610c95565b610a5e565b61081a565b6106a1565b61061b565b610602565b61051d565b6104a3565b610301565b61025d565b6101f7565b346101e75760203660031901126101e75760043560005260356020526020604060002054604051908152f35b600080fd5b60009103126101e757565b346101e75760003660031901126101e7576068546040516001600160801b039091168152602090f35b6020908160408183019282815285518094520193019160005b828110610247575050505090565b8351151585529381019392810192600101610239565b346101e75760203660031901126101e7576001600160401b036004358181116101e757366023820112156101e75780600401359182116101e7573660248360051b830101116101e7576102c29160246102b69201611fb6565b60405191829182610220565b0390f35b6020908160408183019282815285518094520193019160005b8281106102ed575050505090565b8351855293810193928101926001016102df565b60203660031901126101e7576001600160401b036004358181116101e757366023820112156101e75780600401359182116101e75760248101906024369161012085020101116101e757610353611f5b565b61035b611f86565b61036482611e53565b90600090815b8481106103b5576102c2846001600160801b03851634811061039c575b50610390611e3f565b604051918291826102c6565b6103a96103af9134611f4e565b33614a6b565b82610387565b600060016103cc6103c7848987611ec0565b611ed6565b6103d581610989565b14610424575b6103ef816103ea848987611ec0565b612652565b806103fa8488611f21565b5261040f575b5061040a90611e9b565b61036a565b61041d9061040a9294611f35565b9290610400565b5061047861044d61044160c061043b858a88611ec0565b01611ee0565b6001600160801b031690565b61047261046660a0610460868b89611ec0565b01611efb565b6001600160601b031690565b90611f05565b6103db565b6101209060031901126101e757600490565b610120906101231901126101e75761012490565b6102603660031901126101e7576104b93661047d565b6104c23661048f565b6104ca611f5b565b307f00000000000000000000000000000000000000000000000000000000000000006001600160a01b0316146101e75760209161050b916102443591613103565b6040516001600160801b039091168152f35b346101e75760003660031901126101e757610536611983565b6000805160206159fa833981519152805460ff8116156105825760ff191690557f5db9ee0a495bf2e6ff9c91a7834c1ba4fdd244a5e8aa4e537bd38aeae4b073aa6020604051338152a1005b604051638dfc202b60e01b8152600490fd5b6001600160a01b038116036101e757565b600211156101e757565b6001600160801b038116036101e757565b35906105cb826105af565b565b60609060031901126101e7576004356105e581610594565b906024356105f2816105a5565b906044356105ff816105af565b90565b346101e757602061050b610615366105cd565b91613a63565b346101e75760403660031901126101e7577fab0f46966ebb6f17d26b8f6add4624e39fcfdeaccfeaba589d57f81cb5cb6666604060043561065b81610594565b602435610666611f86565b61066e611983565b6106788183614a6b565b82516001600160a01b0390921682526020820152a16001600080516020615a1a83398151915255005b346101e75760003660031901126101e757602060ff6000805160206159fa83398151915254166040519015158152f35b634e487b7160e01b600052604160045260246000fd5b606081019081106001600160401b0382111761070257604052565b6106d1565b60e081019081106001600160401b0382111761070257604052565b6001600160401b03811161070257604052565b604081019081106001600160401b0382111761070257604052565b60a081019081106001600160401b0382111761070257604052565b90601f801991011681019081106001600160401b0382111761070257604052565b604051906105cb82610735565b60405190608082018281106001600160401b0382111761070257604052565b6001600160401b03811161070257601f01601f191660200190565b81601f820112156101e7578035906107ea826107b8565b926107f8604051948561076b565b828452602083830101116101e757816000926020809301838601378301015290565b346101e75760803660031901126101e757600435610837816105af565b6024359061084482610594565b6001600160401b03916044358381116101e7576108659036906004016107d3565b6064358481116101e75761087d9036906004016107d3565b91600080516020615a3a833981519152549460ff8660401c1615951680159081610981575b6001149081610977575b15908161096e575b5061095c57600080516020615a3a833981519152805467ffffffffffffffff191660011790556108e8938561093757611beb565b6108ee57005b600080516020615a3a833981519152805460ff60401b19169055604051600181527fc7f505b2f371ae2175ee4913f4499e1f2633a7b5936321eed1cdaeb6115181d290602090a1005b600080516020615a3a833981519152805460ff60401b1916600160401b179055611beb565b60405163f92ee8a960e01b8152600490fd5b905015386108b4565b303b1591506108ac565b8691506108a2565b6002111561099357565b634e487b7160e01b600052602160045260246000fd5b9061010060c06105cb9380516109be81610989565b845260208101516109ce81610989565b6020858101919091526040828101516001600160a01b039081168288015260608085015180519189019190915292830151166080808801919091529101516001600160601b031660a08601528101516001600160801b03168285015260a08101516001600160401b031660e085015201516001600160401b0316910152565b610120810192916105cb91906109a9565b346101e7576080806003193601126101e75760043590610a7d82610594565b6024359160443590610a8e826105a5565b60643592610a9b846105a5565b610aa3614320565b94610aae84846139fe565b600190818614905b6001600160801b038116610ad3575b604051806102c28b82610a4d565b610af6610af182610aec8a610ae78b610daa565b610dde565b61162c565b6143c2565b51805b610b30575b5088850151610b1790610441906001600160801b031681565b610b2b57610b26908787613a63565b610ab6565b610ac5565b610b4a610b4f919992996000526000602052604060002090565b613f76565b610b5888610989565b8280610c83575b610c25575b610b6d88610989565b8280610c14575b610bcc575b80516001600160401b03610b9760a08301516001600160401b031690565b168015908115610bc2575b50610bb6575060200151805b989198610af9565b91989950509738610afe565b9050421038610ba2565b83610bd78251612998565b610be081610989565b1480610bf6575b15610b79576020015180610bae565b5083610c056020835101612998565b610c0e81610989565b14610be7565b50610c1e82610989565b8115610b74565b83610c308251612998565b610c3981610989565b1480610c65575b80610c55575b15610b64576020015180610bae565b5060608151015151851415610c46565b5083610c746020835101612998565b610c7d81610989565b14610c40565b50610c8d82610989565b838214610b5f565b346101e75760203660031901126101e757600435610cb281610594565b610cba611983565b6001600160a01b03168015610cdf57609b80546001600160a01b031916919091179055005b60405162461bcd60e51b815260206004820152601060248201526f48443a207a65726f206164647265737360801b6044820152606490fd5b346101e757600080600319360112610d8257610d31611983565b60008051602061597a83398151915280546001600160a01b0319811690915581906001600160a01b03167f8be0079c531659141344cd1fd0a4f28419497f9722a3daafe3b4186f6b6457e08280a380f35b80fd5b60409060031901126101e757600435610d9d81610594565b906024356105ff816105a5565b6001600160a01b0316600090815260026020526040902090565b6001600160a01b0316600090815260016020526040902090565b90610de881610989565b600052602052604060002090565b346101e7576020610e0636610d85565b6001600160a01b03909116600090815260018352604090206001600160801b0391610e3091610dde565b5416604051908152f35b346101e75760203660031901126101e757600435610e57816105af565b610e5f611983565b6001600160801b03166103e88111610eaa57606880546001600160801b031916821790557f0b52884d4590055c8791518c34458834f75feed662340ef0b5af2898e7a9be9f600080a2005b60405162461bcd60e51b815260206004820152601d60248201527f504d3a20657863656564206d61782070726f746f636f6c2073686172650000006044820152606490fd5b346101e75760003660031901126101e757610f08611983565b610f10611f5b565b6000805160206159fa833981519152600160ff198254161790557f62e78cea01bee320cd4e420270b5ea74000d11b0c9f74754ebdbfc544b05a2586020604051338152a1005b919082519283825260005b848110610f82575050826000602080949584010152601f8019910116010190565b602081830181015184830182015201610f61565b91610fc990949194600f60f81b8452610fbb60209660e08887015260e0860190610f56565b908482036040860152610f56565b92606083015260018060a01b03166080820152600060a082015260c081830391015281808451928381520193019160005b828110611008575050505090565b835185529381019392810192600101610ffa565b346101e75760003660031901126101e7577fa16a46d94261c7517cc8ff89f61c0ce93598e3c849801011dee649a6a557d1005415806110c4575b1561108757611063611aa9565b61106b611b5c565b906102c2611077611a47565b6040519384933091469186610f96565b60405162461bcd60e51b81526020600482015260156024820152741152540dcc4c8e88155b9a5b9a5d1a585b1a5e9959605a1b6044820152606490fd5b507fa16a46d94261c7517cc8ff89f61c0ce93598e3c849801011dee649a6a557d1015415611056565b92919060408401604085528151809152606085019060208093019060005b8482821061111c5750505050930152565b6101208561113086976001959697516109a9565b01940192910161110b565b346101e75760e03660031901126101e75760043561115881610594565b60443590602435611168836105a5565b60643592611175846105a5565b6084359060a43593611186856105af565b60c435928596849560009861119a84614372565b986001600160801b039788821661143d575050506111b885856139fe565b909192965b899760019787891493895b6111dc575b604051806102c28f8f836110ed565b818116151580611434575b1561142f57611200610af182610aec8c610ae78d610daa565b518a856113ce575b61122c575b50906112208a9796959493928a8a613a63565b909192939495966111c8565b809c9b9c1515806113c5575b156113bd57610b4a611254916000526000602052604060002090565b602090818101908151926001600160401b0361127b60a0845101516001600160401b031690565b1680151590816113b3575b50611379576112948d610989565b88806113a2575b611358575b6112a98d610989565b8880611346575b6112dd575b508e9f508d9e8d9e6112d292516112cc8383611f21565b52611f21565b50519d8b019b611208565b8d806112e98451612998565b6112f281610989565b149182611327575b505080611317575b61130c578f6112b5565b50508a9c9b9c611208565b5060608151015151891415611302565b611335919250835101612998565b61133e81610989565b148d386112fa565b506113508b610989565b8d8b146112b0565b8d6113638351612998565b61136c81610989565b1480611385575b156112a0575b5050508a9c9b9c611208565b508d61139382845101612998565b61139c81610989565b14611373565b506113ac8b610989565b8a1561129b565b9050421138611286565b9b9a9b61120d565b50838d10611238565b94855b6113df575b50600094611208565b90809592939495151580611425575b1561141a5761140c610b4a6020926000526000602052604060002090565b0151919493929190856113d1565b9094939291946113d6565b50818114156113ee565b6111cd565b50828b106111e7565b97919715611451575b5095909192966111bd565b61145e9197508686613a63565b9538611446565b6102403660031901126101e75761147b3661047d565b6114a86114873661048f565b91611490611f5b565b611498611f86565b6001600160801b03923491613103565b168034116114c5575b6001600080516020615a1a83398151915255005b34033481116114de576114d89033614a6b565b386114b1565b611e85565b346101e75760003660031901126101e75760008051602061597a833981519152546040516001600160a01b039091168152602090f35b906105cb60405161152981610707565b60c060038295805460ff811661153e81610989565b855260ff8160081c1661155081610989565b602086015260101c6001600160a01b039081166040808701919091525190611577826106e7565b600183015482526002830154908116602083015260a01c6040820152606085015201546001600160801b0381166080840152608081901c6001600160401b031660a0840152811c6001600160401b0316910152565b346101e75760203660031901126101e7576004356000526000602052610140604060002060046115fb82611519565b91015461160b60405180936109a9565b610120820152f35b346101e757602061050b61162636610d85565b906139fe565b9060018060801b0316600052602052604060002090565b346101e757611673610aec611657366105cd565b929160018060a01b031660005260026020526040600020610dde565b805460019091015460408051928352602083019190915290f35b6020806003193601126101e7576001600160401b03906004358281116101e757366023820112156101e75780600401359283116101e75760248101906024369161014086020101116101e757916116e2611f5b565b6116ea611f86565b6116f381611e53565b9260009283915b83831061174857858580341161172b575b6001600080516020615a1a83398151915255604051806102c284826102c6565b3403903482116114de576117426102c29233614a6b565b9061170b565b909192949361176f61175b858885612326565b3584611768878a87612326565b01906129e1565b82959195018092116114de57611790919461178a8288611f21565b52611e9b565b9190949293946116fa565b346101e75760203660031901126101e7576100196004356117bb81610594565b6117c3611983565b6119bc565b6020806003193601126101e7576001600160401b03906004358281116101e757366023820112156101e75780600401359283116101e75760248082019181369161024087020101116101e75761181c611f5b565b611824611f86565b61182d84611e53565b92600094855b81811061186c576102c2866001600160801b038916348110611859575b506102b6611e3f565b6103a96118669134611f4e565b82611850565b611877818387612345565b61188a6001600160801b03891634611f4e565b9060008060409384516118c5816118b78b82019463366c39ed60e01b86528d89610120810191850161245d565b03601f19810183528261076b565b5190305af46118d2612485565b92811561194257506118fc916118f6610160926118ef878d611f21565b9015159052565b016124cc565b6001600160a01b0316331461191b575b5061191690611e9b565b611833565b611916919761193582868061193b955183010191016124d6565b90611f35565b969061190c565b7f050f709fb65709f10a27682788a9d67fe74de81b310b5c34e3d32f0e2c3ac557925061197b91509261191694935191829185836124b5565b0390a1611e9b565b60008051602061597a833981519152546001600160a01b031633036119a457565b60405163118cdaa760e01b8152336004820152602490fd5b6001600160a01b03908116908115611a175760008051602061597a83398151915280546001600160a01b031981168417909155167f8be0079c531659141344cd1fd0a4f28419497f9722a3daafe3b4186f6b6457e0600080a3565b604051631e4fbdf760e01b815260006004820152602490fd5b6001600160401b0381116107025760051b60200190565b604051602081018181106001600160401b038211176107025760405260008152906000368137565b90600182811c92168015611a9f575b6020831014611a8957565b634e487b7160e01b600052602260045260246000fd5b91607f1691611a7e565b6040519060008260008051602061595a83398151915291825492611acc84611a6f565b908184526001948581169081600014611b395750600114611af6575b50506105cb9250038361076b565b9093915060005260209081600020936000915b818310611b215750506105cb93508201013880611ae8565b85548884018501529485019487945091830191611b09565b9150506105cb94506020925060ff191682840152151560051b8201013880611ae8565b6040519060008260008051602061599a83398151915291825492611b7f84611a6f565b908184526001948581169081600014611b395750600114611ba85750506105cb9250038361076b565b9093915060005260209081600020936000915b818310611bd35750506105cb93508201013880611ae8565b85548884018501529485019487945091830191611bbb565b91929092611bf7611e10565b611bff611e10565b611c07611e10565b611c0f611e10565b611c17611e10565b611c20336119bc565b611c28611e10565b611c30611e10565b600180600080516020615a1a83398151915255611c4b611e10565b611c53611e10565b6000805160206159fa833981519152805460ff19169055611c72611e10565b611c7a611e10565b611c82611e10565b611c8a611e10565b8151906001600160401b0382116107025760008051602061595a83398151915292611cbe83611cb98654611a6f565b6143e0565b60209081601f8511600114611d6e5750928080611d5e97946105cb9a999794611cff97600094611d63575b50501b916000199060031b1c19161790556144a2565b611d2860007fa16a46d94261c7517cc8ff89f61c0ce93598e3c849801011dee649a6a557d10055565b611d5160007fa16a46d94261c7517cc8ff89f61c0ce93598e3c849801011dee649a6a557d10155565b611d59611e10565b614885565b6139d1565b015192503880611ce9565b60008051602061595a8339815191526000529293929190601f1984167f42ad5d3e1f2e6e70edcf6d991b8a3023d3fca8047a131592f9edb9fd9b89d57d936000905b828210611df957505092611cff95928592611d5e99966105cb9c9b999610611de0575b505050811b0190556144a2565b015160001960f88460031b161c19169055388080611dd3565b808886978294978701518155019601940190611db0565b60ff600080516020615a3a8339815191525460401c1615611e2d57565b604051631afcd79f60e31b8152600490fd5b6001600080516020615a1a83398151915255565b90611e5d82611a30565b611e6a604051918261076b565b8281528092611e7b601f1991611a30565b0190602036910137565b634e487b7160e01b600052601160045260246000fd5b60001981146114de5760010190565b634e487b7160e01b600052603260045260246000fd5b9190811015611ed157610120020190565b611eaa565b356105ff816105a5565b356105ff816105af565b6001600160601b038116036101e757565b356105ff81611eea565b6001600160801b0391821690821602908116919082036114de57565b8051821015611ed15760209160051b010190565b6001600160801b0391821690821601919082116114de57565b919082039182116114de57565b60ff6000805160206159fa8339815191525416611f7457565b60405163d93c066560e01b8152600490fd5b600080516020615a1a8339815191526002815414611fa45760029055565b604051633ee5aeb560e01b8152600490fd5b90611fbf611f5b565b611fc7611f86565b611fd081611e53565b9160005b828110611fe6575050506105ff611e3f565b8060051b82013590600061200c612007846000526000602052604060002090565b611519565b6040818101805191956001600160a01b03949193909285163314806122f0575b156122aa5761203a8161497a565b9061204481613f9b565b50805161205081610989565b61205981610989565b61216d57609b5461208090612074906001600160a01b031681565b6001600160a01b031690565b85519091906060906001600160a01b031691015160208101519093906001600160a01b0316935199833b1561216957906120d08692519b8c9687958694635243975360e01b8652600486016125e8565b03925af192831561216457612146956121419461214b575b505b612101826000526035602052600019604060002055565b9151600192166001600160a01b0316907f0ac8bb53fac566d7afc05d8b4df11d7690a7b27bdc40b54e4060f9b21fb849bd600080a35b6118ef8388611f21565b611e9b565b611fd4565b8061215861215e92610722565b806101ec565b386120e8565b6125dc565b8580fd5b6001819c9b9a9998929496959c5161218481610989565b61218d81610989565b146121a9575b50505050966121419161214694959697986120ea565b6060810151820151939b949593612221906121eb906001600160601b03166121db876000526035602052604060002090565b54906001600160601b0316611f4e565b61221c610441610441608061220d612074612074609b5460018060a01b031690565b9601516001600160801b031690565b6129a2565b85516001600160a01b031692823b156122a65751630160928b60e31b8152600481019d909d5260248d01526001600160a01b039190911660448c015298999798969795968690606490829084905af1928315612164576121469561214194612293575b81939a99989796839550612193565b806121586122a092610722565b38612284565b8480fd5b612141945061214696919350916122e86122dd60c06000805160206159ba8339815191529501516001600160401b031690565b9251928392836125c3565b0390a1612137565b50612305836000526035602052604060002090565b546060820151880151612320906001600160601b0316610466565b1161202c565b9190811015611ed157610140020190565b90600182018092116114de57565b9190811015611ed157610240020190565b6040809180358452602081013561236c81610594565b6001600160a01b03166020850152013561238581611eea565b6001600160601b0316910152565b6001600160401b038116036101e757565b35906105cb82612393565b80356123ba816105a5565b6123c381610989565b825260208101356123d3816105a5565b6123dc81610989565b602083015260408101356123ef81610594565b6001600160a01b0316604083015261240d6060808401908301612356565b60c081013561241b816105af565b6001600160801b031660c083015260e081013561243781612393565b6001600160401b0380911660e08401526101008092013561245781612393565b16910152565b61248161024092959493612476836102608101986123af565b6101208301906123af565b0152565b3d156124b0573d90612496826107b8565b916124a4604051938461076b565b82523d6000602084013e565b606090565b6040906105ff939281528160208201520190610f56565b356105ff81610594565b908160209103126101e757516105ff816105af565b356105ff81612393565b809291039161012083126101e7576040519061251082610707565b60608294823561251f816105a5565b8452602083013561252f816105a5565b6020850152604083013561254281610594565b6040850152605f1901126101e7576125be61010060c092604051612565816106e7565b60608201358152608082013561257a81610594565b602082015260a082013561258d81611eea565b604082015260608601526125a28482016105c0565b60808601526125b360e082016123a4565b60a0860152016123a4565b910152565b9081526001600160401b03909116602082015260400190565b6040513d6000823e3d90fd5b9081526001600160a01b03918216602082015291166040820152606081019190915260800190565b93919261262e60c0949796929760e087019887526020870190612356565b6001600160801b031660808501526001600160401b0391821660a085015216910152565b90919060408101600080612665836124cc565b6001600160a01b0392908316331480612978575b8061295a575b8061291c575b806128f4575b156128b057506126a361269e36866124f5565b61497a565b956126ad85611ed6565b6126b681610989565b6127f6575060016001600160601b036126d160a08701611efb565b16036127ef57609b546126ee90612074906001600160a01b031681565b906126f8846124cc565b612704608087016124cc565b92803b156127eb57606083886127348c604051988997889687956305f91a0f60e41b8752013592600486016125e8565b03925af18015612164576127d8575b505b61275761275236856124f5565b613d49565b5060008051602061593a83398151915261277084611ed6565b9161278661278060208701611ed6565b946124cc565b6127d361279560c08801611ee0565b6127a160e089016124eb565b6127ae6101008a016124eb565b916127b888610989565b6127c189610989565b6060604051968796169a018c86612610565b0390a4565b806121586127e592610722565b38612743565b8280fd5b9450505050565b90600161280286611ed6565b61280b81610989565b14612818575b5050612745565b6001600160601b0361282c60a08701611efb565b16156128a857609b5461284990612074906001600160a01b031681565b803b156128a4576040516373d1ca7d60e11b8152600481018990526001600160801b039390931660248401819052839160449183915af1801561216457612891575b80612811565b8061215861289e92610722565b3861288b565b5080fd5b955050505050565b95505050506000805160206159ba833981519152906128df6101006128d861269e36856124f5565b92016124eb565b906128ef604051928392836125c3565b0390a1565b5061291561290561269e36886124f5565b6000526035602052604060002090565b541561268b565b5060e0850161292a816124eb565b426001600160401b0391821611918215612946575b5050612685565b6129519192506124eb565b1615388061293f565b506001600160401b0361297061010087016124eb565b16151561267f565b506001600160801b0361299061044160c08801611ee0565b161515612679565b516105ff81610989565b818102929181159184041417156114de57565b93909594919260809360a0860197865260208601526040850152606084015260018060a01b0316910152565b916000916000936129ff612007826000526000602052604060002090565b94602086015190612a0f82610989565b6020840191612a1d83611ed6565b90612a2782610989565b612a3081610989565b14801590612f6e575b8015612f3e575b8015612f0a575b8015612ef7575b8015612ebf575b612e8457604080850193612a68856124cc565b6001600160a01b03939084163314801590612e67575b8015612e29575b8015612e10575b612ddf57612aa4826000526035602052604060002090565b5499612aaf81613f9b565b50612ac7836000526035602052600019604060002055565b838101805190919086166001600160a01b0316847f0ac8bb53fac566d7afc05d8b4df11d7690a7b27bdc40b54e4060f9b21fb849bd8580a3612b0c612752368b6124f5565b9b8151612b1881610989565b612b2181610989565b612c0d575050609b54919291612b429150612074906001600160a01b031681565b90813b156127eb57835163650f14c560e11b81526004810191909152602481018b9052939291908490604490829084905af19283156121645760008051602061593a83398151915293612bfa575b505b6127d3612bb0612baa612ba489611ed6565b96611ed6565b966124cc565b91612bbd60c08901611ee0565b612bc960e08a016124eb565b906060612bd96101008c016124eb565b93612be38a610989565b612bec8b610989565b51968796169a018d86612610565b80612158612c0792610722565b38612b90565b60018251612c1a81610989565b612c2381610989565b14612c44575b50505050509060008051602061593a83398151915291612b92565b90612c85612c9492612c8061046689989f9a996060612c6f610441608089015160018060801b031690565b96015101516001600160601b031690565b611f4e565b906001600160801b03166129a2565b90612cba6104418a61047261046660a0612cb361044160c08601611ee0565b9301611efb565b9582871115612d615750612cce8287611f4e565b9a612cf7612ce9612074612074609b5460018060a01b031690565b92516001600160a01b031690565b823b156122a6578d91612d218e9288519a8b97889687956305f852cf60e51b8752600487016129b5565b03925af19283156121645760008051602061593a83398151915293612d4e575b505b909138808080612c29565b80612158612d5b92610722565b38612d41565b9a612d7c612ce9612074612074609b5460018060a01b031690565b823b156122a6578d91612da6869288519a8b97889687956305f852cf60e51b8752600487016129b5565b03925af19283156121645760008051602061593a83398151915293612dcc575b50612d43565b80612158612dd992610722565b38612dc6565b98509350936000805160206159ba833981519152959650612e0992506122dd9150610100016124eb565b0390a18190565b50612e2161290561269e368a6124f5565b541515612a8c565b5060e08701612e37816124eb565b426001600160401b03918216109182612e52575b5050612a85565b612e5d9192506124eb565b1615153880612e4b565b506001600160401b03612e7d61010089016124eb565b1615612a7e565b956000805160206159ba833981519152949550612eaf92935060c0915001516001600160401b031690565b90612e09604051928392836125c3565b50612ed4836000526035602052604060002090565b54606088015160400151612ef0906001600160601b0316610466565b1115612a55565b5060608701515160608501351415612a4e565b506060870151602001516001600160a01b0316612f2c612074608087016124cc565b6001600160a01b039091161415612a47565b5060408701516001600160a01b0316612f5c612074604087016124cc565b6001600160a01b039091161415612a40565b508651612f7a81610989565b612f8385611ed6565b90612f8d82610989565b612f9681610989565b1415612a39565b15612fa457565b60405162461bcd60e51b815260206004820152601a60248201527948443a20627579207072696365203c2066696c6c20707269636560301b6044820152606490fd5b9081526001600160801b0390911660208201526001600160a01b03909116604082015260600190565b1561301657565b60405162461bcd60e51b815260206004820152601660248201527548443a2076616c7565203c2066696c6c20707269636560501b6044820152606490fd5b919261307961024092959461306e856102608101986123af565b6101208501906123af565b6001600160801b0316910152565b6001600160801b0391821690821603919082116114de57565b156130a757565b60405162461bcd60e51b815260206004820152600d60248201526c048443a2076616c7565203e203609c1b6044820152606490fd5b6001600160a01b0391821681529116602082015260a0810192916105cb9160400190612356565b92919060009360009161311961269e36846124f5565b9161312761269e36846124f5565b94613147868561313736866124f5565b61314136886124f5565b90613830565b6040958683019161315a612074846124cc565b33036133d45761316a90156130a0565b60008581526020819052604090206001600160a01b0390613196905b5460101c6001600160a01b031690565b16151580916131ae826131a936886124f5565b6147d1565b6131cd6131c8612007836000526000602052604060002090565b6146e0565b6131dc61044160c08801611ee0565b916133a9575b613208816132036131fd826000526035602052604060002090565b54612337565b614836565b80876000805160206159da8339815191528b5180613228878c8c84613054565b0390a3609b5461324290612074906001600160a01b031681565b90813b156133a55761327089939284928c51958680948193630160928b60e31b835288309160048501612fe6565b03925af1918215612164576132b892613392575b506068546132b290610441906132a3906001600160801b0316846139b5565b6132ac876124cc565b93613087565b90614a6b565b1561333c5750609b546132e29086906132db90612074906001600160a01b031681565b93016124cc565b926132ef608083016124cc565b95833b15612169579161331e86926060945198899788968795635243975360e01b8752013592600486016125e8565b03925af180156121645761332f5750565b806121586105cb92610722565b919492506133658361335e612780612074612074609b5460018060a01b031690565b96016124cc565b92823b156122a65751632f58639d60e11b815294859384928692849261331e9260600191600485016130dc565b8061215861339f92610722565b38613284565b8880fd5b6133bb6133b636876124f5565b613f9b565b506133cf8761320361046660a08901611efb565b6131e2565b968481969597999a5093929301926133ee612074856124cc565b330361367d5782908560018060a01b03613415613186866000526000602052604060002090565b1615938415996134356131c8612007856000526000602052604060002090565b6134438b6131a936846124f5565b61345261044160c08301611ee0565b9b61346261044160c08801611ee0565b96156135ac576134e7956000805160206159da833981519152929091613493906001600160801b038a16111561300f565b6134a68561320361046660a08601611efb565b6134b5888d5193849384613054565b0390a36068546132b290610441906134e0906134da906001600160801b0316876139b5565b936124cc565b9285613087565b6001600160801b038181169088161161358c575b50609b5461351d9061351790612074906001600160a01b031681565b926124cc565b9261352a608083016124cc565b94833b156133a55751635243975360e01b815294889486949385938793859361355b936060013592600486016125e8565b03925af1801561216457613579575b5015613574575090565b905090565b8061215861358692610722565b3861356a565b6135a6906132b261044161359f866124cc565b928a613087565b386134fb565b5092935090506135ca6001600160801b03858116908c161015612f9d565b609b546135e190612074906001600160a01b031681565b803b1561367957908b613610819594938d8c51978880948193630160928b60e31b835230908960048501612fe6565b03925af1938415612164578689936000805160206159da833981519152926134e797613666575b506136456133b636836124f5565b50613661846132036131fd826000526035602052604060002090565b613493565b8061215861367392610722565b38613637565b8b80fd5b855162461bcd60e51b815260206004820152601260248201527112110e881cd95b99195c881a5b9d985b1a5960721b6044820152606490fd5b156136bd57565b60405162461bcd60e51b815260206004820152600e60248201526d24221d1039b0b6b29037b93232b960911b6044820152606490fd5b156136fa57565b60405162461bcd60e51b8152602060048201526011602482015270090887440e6d2c8ca40dad2e6dac2e8c6d607b1b6044820152606490fd5b1561373a57565b60405162461bcd60e51b8152602060048201526011602482015270090887440d6d2dcc840dad2e6dac2e8c6d607b1b6044820152606490fd5b1561377a57565b60405162461bcd60e51b815260206004820152600e60248201526d24221d1039b0b6b29036b0b5b2b960911b6044820152606490fd5b156137b757565b60405162461bcd60e51b8152602060048201526012602482015271090887440c2e6e6cae840dad2e6dac2e8c6d60731b6044820152606490fd5b156137f857565b60405162461bcd60e51b815260206004820152601060248201526f12110e881bdc99195c8818db1bdcd95960821b6044820152606490fd5b613909610466604060606138f76105cb989761384e898214156136b6565b865161385981610989565b61386281610989565b1580613993575b613872906136f3565b6138946001602089015161388581610989565b61388e81610989565b14613733565b86840151612905906001600160a01b0316898601516138d1906138bf906001600160a01b0316612074565b6001600160a01b039283161415613773565b60208a01516138df81610989565b6138e881610989565b15908115613941575b506137b0565b5494015101516001600160601b031690565b119182613918575b50506137f1565b613939919250604060606138f7610466936000526035602052604060002090565b113880613911565b8986015160208101519092506001600160a01b03168b8701516020810151909290613974906001600160a01b0316612074565b9116149182613986575b5050386138f1565b519051149050388061397e565b50613872600189516139a481610989565b6139ad81610989565b149050613869565b612710916001600160801b03916139cc9190611f05565b160490565b6139d9611983565b6001600160a01b03168015610cdf57609b80546001600160a01b031916919091179055565b613a0782610989565b600060018303613a3b57506001600160a01b031660009081526001602052604090206105ff91613a3691610dde565b614b08565b6001600160a01b0390911681526001602052604090206105ff91613a5e91610dde565b614ab6565b6001600160801b03838116613aa75750909150613a7f82610989565b60018203613a97576105ff91610ae7613a3692610dc4565b6105ff91610ae7613a5e92610dc4565b613ab083610989565b60016000848203613ad4575050506105ff9291610ae7613acf92610dc4565b614b5a565b9193613af2919360018060a01b031683528360205260408320610dde565b9284915082840194613b27613b1985613b0b848a61162c565b01546001600160801b031690565b6001600160801b0316151590565b15613b4557505090613b0b613b3f926105ff9561162c565b906150c2565b8395939450613b5a613b67918594939461162c565b546001600160801b031690565b945b613b75575b5050505090565b81859394951615159081613bac575b5015613ba557908391613b9a613b5a838661162c565b949392919091613b69565b8193613b6e565b905081613bc361044161044188613b0b888a61162c565b91161438613b84565b80546001600160801b0319166001600160801b03909216919091179055565b906020600491613d4281518051613c0181610989565b613c0a81610989565b60ff875491168060ff19831617885561ff0086840151613c2981610989565b613c3281610989565b60081b169161ffff191617178655613c7a613c56604083015160018060a01b031690565b875462010000600160b01b03191660109190911b62010000600160b01b0316178755565b606081015180516001880155602081015160409091015160a01b6001600160a01b0319166001600160a01b039190911617600287015560808101516003870191613d229160c09190613cd5906001600160801b031685613bcc565b613d14613cec60a08301516001600160401b031690565b855467ffffffffffffffff60801b191660809190911b67ffffffffffffffff60801b16178555565b01516001600160401b031690565b81546001600160c01b031660c09190911b6001600160c01b031916179055565b0151910155565b90613d538261497a565b9160018060a01b03613d72613186856000526000602052604060002090565b16613f5d5760608101805160209081015185939290613dae90613da2906001600160a01b0316610dc4565b610dc4565b845190610ae782610989565b608084018051909190613dd290613dce906001600160801b031683614c2d565b1590565b613f41575b5081518301518390613e1c90613e0a90613dfe906001600160a01b0316610daa565b610daa565b875190610ae782610989565b83516001600160801b03165b9061162c565b92835415613e9b575b505050600181019081548015600014613e6c57509360009291816105cb965555613e4d61078c565b928352820152613e67846000526000602052604060002090565b613beb565b6000915092856004613e8e613e98969795976000526000602052604060002090565b0155613e4d61078c565b55565b613f399350613f1f613df9613e1693613f2b93613f10613eb961078c565b6000808252848201528251840151613eff90613eef908e90613ee3906001600160a01b0316610daa565b905190610ae782610989565b8a516001600160801b0316613e16565b906020600191805184550151910155565b5101516001600160a01b031690565b865190610ae782610989565b91516001600160801b031690565b388281613e25565b8151613f5791906001600160801b031690614d07565b38613dd7565b604051630c56ca8160e31b815260048101849052602490fd5b90604051613f8381610735565b602060048294613f9281611519565b84520154910152565b9060609081830192602091613fcc613fc0613df98588510160018060a01b0390511690565b835190610ae782610989565b608083018051909591613fe7916001600160801b0316613e16565b9586549260009687945b80151580614318575b15614226578781614019610b4a8d946000526000602052604060002090565b9a8b9889516040858d61404a6120748461403b8188015160018060a01b031690565b9301516001600160a01b031690565b6001600160a01b039091161492836141ef575b50508c8c836141ba575b8361416a575b505081614159575b8a8c83614122575b505050600014614113575091816140e693826140c8949b838854146000146140f457015186555b6001809601828154146140ec575b50509b0151976000526000602052604060002090565b60046000918281558260018201558260028201558260038201550155565b94613ff1565b5538806140b2565b0151600461410c836000526000602052604060002090565b01556140a4565b985050909150980151946140e6565b5101518101518a51909101516001600160601b0391821692506141459116610466565b6001600160601b0390911614388a8c61407d565b8b518b0151518a5151149150614075565b6001600160401b03919293506141a36141af9161419460c0809251016001600160401b0390511690565b9401516001600160401b031690565b6001600160401b031690565b911614908c8c61406d565b6001600160401b03919293506141a36141e49161419460a0809251016001600160401b0390511690565b911614908c8c614067565b01519091506141fd81610989565b858d01519061420b82610989565b61421482610989565b61421d81610989565b1490853861405d565b989295949197509592506000146142d5575415614244575b50505050565b613d9d8184613f1061428b61427b61426f613df9613ee3986142979b510160018060a01b0390511690565b885190610ae782610989565b89516001600160801b0316613e16565b60016000918281550155565b81516142ac906001600160801b031682614c2d565b6142b8575b808061423e565b90516142ce91906001600160801b031690614e3e565b38806142b1565b60405162461bcd60e51b815260206004820152601b60248201527a21b0b73737ba103932b6b7bb329036b4b9b9b4b7339037b93232b960291b6044820152606490fd5b508515613ffa565b6040519061432d82610707565b8160c060009182815282602082015282604082015260405161434e816106e7565b83815283602082015283604082015260608201528260808201528260a08201520152565b9061437c82611a30565b614389604051918261076b565b828152809261439a601f1991611a30565b019060005b8281106143ab57505050565b6020906143b6614320565b8282850101520161439f565b906040516143cf81610735565b602060018294805484520154910152565b601f81116143ec575050565b60009060008051602061595a833981519152825260208220906020601f850160051c83019410614437575b601f0160051c01915b82811061442c57505050565b818155600101614420565b9092508290614417565b601f811161444d575050565b60009060008051602061599a833981519152825260208220906020601f850160051c83019410614498575b601f0160051c01915b82811061448d57505050565b818155600101614481565b9092508290614478565b9081516001600160401b0381116107025760008051602061599a833981519152906144d6816144d18454611a6f565b614441565b602080601f8311600114614512575081929394600092614507575b50508160011b916000199060031b1c1916179055565b0151905038806144f1565b60008051602061599a833981519152600052601f198316959091907f5f9ce34815f8e11431c7bb75a8e6886a91478f7ffc1dbb0a98dc240fddd76b75926000905b88821061458b57505083600195969710614572575b505050811b019055565b015160001960f88460031b161c19169055388080614568565b80600185968294968601518155019501930190614553565b156145aa57565b60405162461bcd60e51b815260206004820152600f60248201526e27ab309d1036b4b9b99036b0b5b2b960891b6044820152606490fd5b156145e857565b60405162461bcd60e51b815260206004820152600c60248201526b13d5984e88195e1c1a5c995960a21b6044820152606490fd5b1561462357565b60405162461bcd60e51b815260206004820152600e60248201526d13d5984e881e995c9bc81cd85b1d60921b6044820152606490fd5b1561466057565b60405162461bcd60e51b815260206004820152600f60248201526e4f56613a207a65726f20707269636560881b6044820152606490fd5b1561469e57565b60405162461bcd60e51b815260206004820152601a60248201527913d5984e881d5b9cdd5c1c1bdc9d1959081b999d08185cdcd95d60321b6044820152606490fd5b60408101516146fd906001600160a01b039081165b1615156145a3565b6147486001600160401b036147318161472060a08601516001600160401b031690565b1680159081156147c7575b506145e1565b60c08301516001600160401b03165b16151561461c565b805161475381610989565b61475c81610989565b6147855760600151602001516105cb9061477e906001600160a01b0316612074565b1515614697565b6001815161479281610989565b61479b81610989565b146147a35750565b608001516105cb906001600160801b03906147bf908216610441565b161515614659565b905042103861472b565b60408101519091906147ed906001600160a01b039081166146f5565b15614812575b6147486001600160401b0361474060c08401516001600160401b031690565b6148316001600160401b0361472060a08401516001600160401b031690565b6147f3565b906000198214614850576000526035602052604060002055565b60405162461bcd60e51b815260206004820152600d60248201526c13d5984e8818d85b98d95b1959609a1b6044820152606490fd5b61488d611e10565b614895611e10565b6001600160801b03166103e88111610eaa57606880546001600160801b031916821790557f0b52884d4590055c8791518c34458834f75feed662340ef0b5af2898e7a9be9f600080a2565b959492909160769794927f7e112775c49cc2f5d597cc604eac1616afa66ee95cc7c4d46a97ca90b539ca33885261491681610989565b60f81b602088015261492781610989565b60f81b602187015260601b6001600160601b0319166022860152603685015260801b6001600160801b031916605684015260c091821b6001600160c01b03199081166066850152911b16606e8201520190565b80519061498682610989565b614a65602082015161499781610989565b6118b760018060a01b03938460408201511694606082015180519160208201511690604060018060601b03910151166040519160208301937f631e462bf410c643f967c13284911d970aa0a06097a11e4a1a7ad9549175d78a855260408401526060830152608082015260808152614a0e81610750565b5190206080820151909190614a2b906001600160801b0316610441565b614a5360c0614a4460a08501516001600160401b031690565b9301516001600160401b031690565b92604051978896602088019a8b6148e0565b51902090565b600080809381935af115614a7b57565b60405162461bcd60e51b815260206004820152601360248201527211551217d514905394d1915497d19052531151606a1b6044820152606490fd5b80546001600160801b03169081614acb575090565b9190915b60018101614add848261162c565b5490608091821c15614b03576001929394614af79161162c565b54901c92919050614acf565b505050565b80546001600160801b03908116929183614b20575050565b9190925b6001908184018583614b36848461162c565b01541615614b5257859291614b4a9161162c565b015416614b24565b509350509050565b906001600160801b0380821615614c1b57600180840191614b88613b19614b81868661162c565b5460801c90565b15614ba6575050614b816105ff9392614ba09261162c565b906150fa565b9094935082614bb9613b5a87958561162c565b955b614bc55750505050565b818692939594961615159081614bfc575b5015614bf457614be9613b5a828661162c565b949293919083614bbb565b93829361423e565b905082614c12610441610441614b81868a61162c565b91161438614bd6565b604051631b67230f60e31b8152600490fd5b6001600160801b03828116801515939084614c49575050505090565b8354831614935090918315614c65575b50505038808080613b6e565b614c7392935060010161162c565b54161515388080614c59565b80546001600160801b031660809290921b6001600160801b031916919091179055565b805460ff60801b191660809290921b60ff60801b16919091179055565b60ff60606105cb93614cfe6001808060801b0395614ce08785511682613bcc565b614cf08760208601511682614c7f565b019460408301511685613bcc565b01511690614ca2565b90916001600160801b0390818416908115614e2c57614d268585614c2d565b614e1a578354600095906001600160801b03165b848116968715614d80575080968410600014614d6857614b81614d60916001880161162c565b955b95614d3a565b614d7a90613b0b60019182890161162c565b95614d62565b9296505080936105cb9593614d93610799565b6001600160801b0385168152916000602084015260006040840152614dbb6060840160019052565b614dd26001870193614dcd868661162c565b614cbf565b84169081614ded57505050614de8915082613bcc565b615139565b1015614e0557614de892614e009161162c565b614c7f565b614e14614de89360019261162c565b01613bcc565b604051638caa2ccf60e01b8152600490fd5b604051631866497960e01b8152600490fd5b6001600160801b03919082821680156150b057614e5e613dce8484614c2d565b61509e5760019384830193614e86614e79614b81838861162c565b6001600160801b03161590565b8015615087575b1561502f57916105cb9593918361428b9694955b614eb1613b19614b81898961162c565b1561501b57614ec3614b81888861162c565b935b614ed2613b5a898961162c565b614ee581614ee0888b61162c565b613bcc565b8583898388161561500e57610441610441614b8186614f039461162c565b8b881603614ffc5750614e00614f19928a61162c565b8160ff614f3582614f2a8c8c61162c565b015460801c60ff1690565b16141593881603614f5f575b5050614f4f575b505061162c565b614f58916155d6565b3880614f48565b95819296614f71614ff4938388615562565b614f8b614f81614b81868a61162c565b614e00848a61162c565b614fa582614ee0614f9f614b81838c61162c565b8a61162c565b614fc1614fb682613b0b878b61162c565b82614e14858b61162c565b614fd682614ee0614f9f84613b0b848d61162c565b614fee614fe782614f2a878b61162c565b928861162c565b01614ca2565b933880614f41565b614e14615009938b61162c565b614f19565b5050615009915087613bcc565b61502981613b0b898961162c565b93614ec5565b8561503e81613b0b848961162c565b965b615057575b9161428b9593916105cb979593614ea1565b95615068613b19614b81838961162c565b156150815761507b614b8188928861162c565b96615040565b95615045565b50615099614e7987613b0b848961162c565b614e8d565b6040516326549d1560e11b8152600490fd5b60405163f482157960e01b8152600490fd5b600181016150d0838261162c565b5490608091821c156150f457600192936150e99161162c565b54901c9190506150c2565b50505090565b905b6001600160801b03906001908382018383615117848461162c565b0154161561513157906151299161162c565b0154166150fc565b509250505090565b80546001600160801b0392808416916151559061044190861681565b82141580615387575b156153665760019384840191615177613b5a828561162c565b93615197610441610441614b81615191613b5a8a8a61162c565b8861162c565b858416036152ae57506151ba86613b0b6151b4613b5a888861162c565b8661162c565b918660ff6151cc82614f2a878961162c565b160361523b57505090610aec8561520b816151f787966151b46152359a9b6151f7613b5a9b8a61162c565b01805460ff60801b1916600160811b179055565b61522161521b613b5a868661162c565b8461162c565b01805460ff60801b1916600160801b179055565b90615139565b909593915061525461044161044186613b0b868861162c565b9086161461528e575b50613b5a614de89282610aec615279613b5a896152889761162c565b9261520b816151f7868661162c565b82615485565b9350613b5a614de892615288926152a587876153aa565b9250925061525d565b91506152c9614b816152c3613b5a878761162c565b8561162c565b918660ff6152db82614f2a878961162c565b160361530657505090610aec8561520b816151f787966151b46152359a9b6151f7613b5a9b8a61162c565b909593915061531e610441610441614b81858761162c565b14615346575b50613b5a614de89282610aec615279613b5a896153409761162c565b826153aa565b9350613b5a614de8926153409261535d8787615485565b92509250615324565b505080546105cb92506001916151f7916001600160801b031690830161162c565b50600160ff6153a382614f2a818801613e16613b5a888361162c565b161461515e565b614ee06105cb92600183016153c46001613b0b848461162c565b93846153d3613b5a858561162c565b916153e1614b81838661162c565b6153f1816001614e14898961162c565b6001600160801b039086818316615471575b505061541384614ee0858861162c565b83811661543357506154259250613bcc565b610aec82614e00868461162c565b9050615448610441610441614b81868861162c565b9085160361546257614e0061545d928461162c565b615425565b6001614e1461545d938561162c565b614ee061547e928861162c565b3886615403565b614ee06105cb926001830161549d614b81838361162c565b93846154ac613b5a858561162c565b916154bc6001613b0b848761162c565b6154ca81614e00888861162c565b6001600160801b03908681831661554e575b50506154ec84614ee0858861162c565b83811661550e57506154fe9250613bcc565b610aec826001614e14878561162c565b90506155256104416104416001613b0b878961162c565b90851603615541576001614e1461553c938561162c565b6154fe565b614e0061553c928461162c565b614ee061555b928861162c565b38866154dc565b6001600160801b039260018201908461557b828461162c565b54169461558c86614ee0878661162c565b8561559e575050506105cb9250613bcc565b909192506155ac858461162c565b5460801c9116146000146155c7576105cb92614e009161162c565b614e146105cb9360019261162c565b905b81546001600160801b03828116916155f291610441911681565b8114158061591c575b1561590a576001615612613b5a828601948561162c565b91615626610441610441614b81868861162c565b036157a75761563981613b0b848661162c565b928160ff61564b82614f2a888661162c565b161461576c575b8161567061566a82614f2a6151b4614b818a8861162c565b60ff1690565b14158061574b575b156156935761568b92936152219161162c565b905b906155d8565b906151f7828583806156b961566a82614f2a61519182613b0b6156f09f6153409e61162c565b03615702575b613b0b613e16926156e26156d784614f2a8c8961162c565b84614fee848961162c565b61521b836151f78b8861162c565b80546001600160801b03165b9061568d565b9061571a61572e926151f76151b4614b81858861162c565b61572885615221838661162c565b88615485565b613e1683613b0b61574382613b0b8a8761162c565b9250506156bf565b508161576561566a82614f2a6151b482613b0b8b8961162c565b1415615678565b92816151f761577b928661162c565b61578981615221848661162c565b61579382856153aa565b6157a181613b0b848661162c565b92615652565b6157b4614b81838561162c565b928160ff6157c682614f2a888661162c565b16146158d0575b816157e661566a82614f2a6151b482613b0b8b8961162c565b1415806158b0575b15615801576156fc92936152219161162c565b906151f782858361582b61566a82614f2a615825614b816156f09d6152889c61162c565b8761162c565b03615868575b614b81613e169161585461584987614f2a8b8861162c565b87614fee848861162c565b615862866151f78a8761162c565b8361162c565b80615881856151f76151b482613b0b615895978961162c565b61588f85615221838661162c565b886153aa565b613e16614b816158a8614b81888561162c565b915050615831565b50816158c961566a82614f2a6151b4614b818a8861162c565b14156157ee565b92816151f76158df928661162c565b6158ed81615221848661162c565b6158f78285615485565b615904614b81838561162c565b926157cd565b506151f7600191826105cb940161162c565b50600160ff61593182614f2a8682890161162c565b1614156155fb56fefc37f2ff950f95913eb7182357ba3c14df60ef354bc7d6ab1ba2815f249fffe6a16a46d94261c7517cc8ff89f61c0ce93598e3c849801011dee649a6a557d1029016d09d72d40fdae2fd8ceac6b6234c7706214fd39c1cd1e609a0528c199300a16a46d94261c7517cc8ff89f61c0ce93598e3c849801011dee649a6a557d10343d1f368251ebe03c021962d50212d072e7ccee5c8ad3f541d93d0dc43bbd420f629aecab94607bc43ce4aebd564bf6e61c7327226a797b002de724b9944b20ecd5ed15c6e187e77e9aee88184c21f4f2182ab5827cb3b7e07fbedcd63f033009b779b17422d0df92223018b32b4d1fa46e071723d6817e2486d003becc55f00f0c57e16840df040f15088dc2f81fe391c3923bec73e23a9662efc9c229c6a00a26469706673582212208606980fbebd329d13cacf3f045ff2627f45bf0b0411db5865fc657f6235eae464736f6c63430008140033","opcodes":"PUSH1 0xA0 DUP1 PUSH1 0x40 MSTORE CALLVALUE PUSH2 0x24 JUMPI ADDRESS PUSH1 0x80 MSTORE PUSH2 0x5A8F SWAP1 DUP2 PUSH3 0x2A DUP3 CODECOPY PUSH1 0x80 MLOAD DUP2 PUSH2 0x4CD ADD MSTORE RETURN JUMPDEST PUSH1 0x0 DUP1 REVERT INVALID PUSH1 0x80 PUSH1 0x40 MSTORE PUSH1 0x4 CALLDATASIZE LT ISZERO PUSH2 0x1B JUMPI JUMPDEST CALLDATASIZE ISZERO PUSH2 0x19 JUMPI PUSH1 0x0 DUP1 REVERT JUMPDEST STOP JUMPDEST PUSH1 0x0 CALLDATALOAD PUSH1 0xE0 SHR DUP1 PUSH4 0xB20B7BC EQ PUSH2 0x1BB JUMPI DUP1 PUSH4 0x1103F315 EQ PUSH2 0x1B6 JUMPI DUP1 PUSH4 0x21C77C96 EQ PUSH2 0x1B1 JUMPI DUP1 PUSH4 0x307725D9 EQ PUSH2 0x1AC JUMPI DUP1 PUSH4 0x366C39ED EQ PUSH2 0x1A7 JUMPI DUP1 PUSH4 0x3F4BA83A EQ PUSH2 0x1A2 JUMPI DUP1 PUSH4 0x436A5ED6 EQ PUSH2 0x19D JUMPI DUP1 PUSH4 0x4782F779 EQ PUSH2 0x198 JUMPI DUP1 PUSH4 0x5C975ABB EQ PUSH2 0x193 JUMPI DUP1 PUSH4 0x5D52957E EQ PUSH2 0x18E JUMPI DUP1 PUSH4 0x5DCC7F9C EQ PUSH2 0x189 JUMPI DUP1 PUSH4 0x6817031B EQ PUSH2 0x184 JUMPI DUP1 PUSH4 0x715018A6 EQ PUSH2 0x17F JUMPI DUP1 PUSH4 0x7D910DAC EQ PUSH2 0x17A JUMPI DUP1 PUSH4 0x813E7C2A EQ PUSH2 0x175 JUMPI DUP1 PUSH4 0x8456CB59 EQ PUSH2 0x170 JUMPI DUP1 PUSH4 0x84B0196E EQ PUSH2 0x16B JUMPI DUP1 PUSH4 0x877EDBFF EQ PUSH2 0x166 JUMPI DUP1 PUSH4 0x882849C9 EQ PUSH2 0x161 JUMPI DUP1 PUSH4 0x8DA5CB5B EQ PUSH2 0x15C JUMPI DUP1 PUSH4 0x9C3F1E90 EQ PUSH2 0x157 JUMPI DUP1 PUSH4 0x9E09126C EQ PUSH2 0x152 JUMPI DUP1 PUSH4 0xE471BA46 EQ PUSH2 0x14D JUMPI DUP1 PUSH4 0xE8F27E95 EQ PUSH2 0x148 JUMPI DUP1 PUSH4 0xF2FDE38B EQ PUSH2 0x143 JUMPI PUSH4 0xFE971C98 SUB PUSH2 0xE JUMPI PUSH2 0x17C8 JUMP JUMPDEST PUSH2 0x179B JUMP JUMPDEST PUSH2 0x168D JUMP JUMPDEST PUSH2 0x1643 JUMP JUMPDEST PUSH2 0x1613 JUMP JUMPDEST PUSH2 0x15CC JUMP JUMPDEST PUSH2 0x14E3 JUMP JUMPDEST PUSH2 0x1465 JUMP JUMPDEST PUSH2 0x113B JUMP JUMPDEST PUSH2 0x101C JUMP JUMPDEST PUSH2 0xEEF JUMP JUMPDEST PUSH2 0xE3A JUMP JUMPDEST PUSH2 0xDF6 JUMP JUMPDEST PUSH2 0xD17 JUMP JUMPDEST PUSH2 0xC95 JUMP JUMPDEST PUSH2 0xA5E JUMP JUMPDEST PUSH2 0x81A JUMP JUMPDEST PUSH2 0x6A1 JUMP JUMPDEST PUSH2 0x61B JUMP JUMPDEST PUSH2 0x602 JUMP JUMPDEST PUSH2 0x51D JUMP JUMPDEST PUSH2 0x4A3 JUMP JUMPDEST PUSH2 0x301 JUMP JUMPDEST PUSH2 0x25D JUMP JUMPDEST PUSH2 0x1F7 JUMP JUMPDEST CALLVALUE PUSH2 0x1E7 JUMPI PUSH1 0x20 CALLDATASIZE PUSH1 0x3 NOT ADD SLT PUSH2 0x1E7 JUMPI PUSH1 0x4 CALLDATALOAD PUSH1 0x0 MSTORE PUSH1 0x35 PUSH1 0x20 MSTORE PUSH1 0x20 PUSH1 0x40 PUSH1 0x0 KECCAK256 SLOAD PUSH1 0x40 MLOAD SWAP1 DUP2 MSTORE RETURN JUMPDEST PUSH1 0x0 DUP1 REVERT JUMPDEST PUSH1 0x0 SWAP2 SUB SLT PUSH2 0x1E7 JUMPI JUMP JUMPDEST CALLVALUE PUSH2 0x1E7 JUMPI PUSH1 0x0 CALLDATASIZE PUSH1 0x3 NOT ADD SLT PUSH2 0x1E7 JUMPI PUSH1 0x68 SLOAD PUSH1 0x40 MLOAD PUSH1 0x1 PUSH1 0x1 PUSH1 0x80 SHL SUB SWAP1 SWAP2 AND DUP2 MSTORE PUSH1 0x20 SWAP1 RETURN JUMPDEST PUSH1 0x20 SWAP1 DUP2 PUSH1 0x40 DUP2 DUP4 ADD SWAP3 DUP3 DUP2 MSTORE DUP6 MLOAD DUP1 SWAP5 MSTORE ADD SWAP4 ADD SWAP2 PUSH1 0x0 JUMPDEST DUP3 DUP2 LT PUSH2 0x247 JUMPI POP POP POP POP SWAP1 JUMP JUMPDEST DUP4 MLOAD ISZERO ISZERO DUP6 MSTORE SWAP4 DUP2 ADD SWAP4 SWAP3 DUP2 ADD SWAP3 PUSH1 0x1 ADD PUSH2 0x239 JUMP JUMPDEST CALLVALUE PUSH2 0x1E7 JUMPI PUSH1 0x20 CALLDATASIZE PUSH1 0x3 NOT ADD SLT PUSH2 0x1E7 JUMPI PUSH1 0x1 PUSH1 0x1 PUSH1 0x40 SHL SUB PUSH1 0x4 CALLDATALOAD DUP2 DUP2 GT PUSH2 0x1E7 JUMPI CALLDATASIZE PUSH1 0x23 DUP3 ADD SLT ISZERO PUSH2 0x1E7 JUMPI DUP1 PUSH1 0x4 ADD CALLDATALOAD SWAP2 DUP3 GT PUSH2 0x1E7 JUMPI CALLDATASIZE PUSH1 0x24 DUP4 PUSH1 0x5 SHL DUP4 ADD ADD GT PUSH2 0x1E7 JUMPI PUSH2 0x2C2 SWAP2 PUSH1 0x24 PUSH2 0x2B6 SWAP3 ADD PUSH2 0x1FB6 JUMP JUMPDEST PUSH1 0x40 MLOAD SWAP2 DUP3 SWAP2 DUP3 PUSH2 0x220 JUMP JUMPDEST SUB SWAP1 RETURN JUMPDEST PUSH1 0x20 SWAP1 DUP2 PUSH1 0x40 DUP2 DUP4 ADD SWAP3 DUP3 DUP2 MSTORE DUP6 MLOAD DUP1 SWAP5 MSTORE ADD SWAP4 ADD SWAP2 PUSH1 0x0 JUMPDEST DUP3 DUP2 LT PUSH2 0x2ED JUMPI POP POP POP POP SWAP1 JUMP JUMPDEST DUP4 MLOAD DUP6 MSTORE SWAP4 DUP2 ADD SWAP4 SWAP3 DUP2 ADD SWAP3 PUSH1 0x1 ADD PUSH2 0x2DF JUMP JUMPDEST PUSH1 0x20 CALLDATASIZE PUSH1 0x3 NOT ADD SLT PUSH2 0x1E7 JUMPI PUSH1 0x1 PUSH1 0x1 PUSH1 0x40 SHL SUB PUSH1 0x4 CALLDATALOAD DUP2 DUP2 GT PUSH2 0x1E7 JUMPI CALLDATASIZE PUSH1 0x23 DUP3 ADD SLT ISZERO PUSH2 0x1E7 JUMPI DUP1 PUSH1 0x4 ADD CALLDATALOAD SWAP2 DUP3 GT PUSH2 0x1E7 JUMPI PUSH1 0x24 DUP2 ADD SWAP1 PUSH1 0x24 CALLDATASIZE SWAP2 PUSH2 0x120 DUP6 MUL ADD ADD GT PUSH2 0x1E7 JUMPI PUSH2 0x353 PUSH2 0x1F5B JUMP JUMPDEST PUSH2 0x35B PUSH2 0x1F86 JUMP JUMPDEST PUSH2 0x364 DUP3 PUSH2 0x1E53 JUMP JUMPDEST SWAP1 PUSH1 0x0 SWAP1 DUP2 JUMPDEST DUP5 DUP2 LT PUSH2 0x3B5 JUMPI PUSH2 0x2C2 DUP5 PUSH1 0x1 PUSH1 0x1 PUSH1 0x80 SHL SUB DUP6 AND CALLVALUE DUP2 LT PUSH2 0x39C JUMPI JUMPDEST POP PUSH2 0x390 PUSH2 0x1E3F JUMP JUMPDEST PUSH1 0x40 MLOAD SWAP2 DUP3 SWAP2 DUP3 PUSH2 0x2C6 JUMP JUMPDEST PUSH2 0x3A9 PUSH2 0x3AF SWAP2 CALLVALUE PUSH2 0x1F4E JUMP JUMPDEST CALLER PUSH2 0x4A6B JUMP JUMPDEST DUP3 PUSH2 0x387 JUMP JUMPDEST PUSH1 0x0 PUSH1 0x1 PUSH2 0x3CC PUSH2 0x3C7 DUP5 DUP10 DUP8 PUSH2 0x1EC0 JUMP JUMPDEST PUSH2 0x1ED6 JUMP JUMPDEST PUSH2 0x3D5 DUP2 PUSH2 0x989 JUMP JUMPDEST EQ PUSH2 0x424 JUMPI JUMPDEST PUSH2 0x3EF DUP2 PUSH2 0x3EA DUP5 DUP10 DUP8 PUSH2 0x1EC0 JUMP JUMPDEST PUSH2 0x2652 JUMP JUMPDEST DUP1 PUSH2 0x3FA DUP5 DUP9 PUSH2 0x1F21 JUMP JUMPDEST MSTORE PUSH2 0x40F JUMPI JUMPDEST POP PUSH2 0x40A SWAP1 PUSH2 0x1E9B JUMP JUMPDEST PUSH2 0x36A JUMP JUMPDEST PUSH2 0x41D SWAP1 PUSH2 0x40A SWAP3 SWAP5 PUSH2 0x1F35 JUMP JUMPDEST SWAP3 SWAP1 PUSH2 0x400 JUMP JUMPDEST POP PUSH2 0x478 PUSH2 0x44D PUSH2 0x441 PUSH1 0xC0 PUSH2 0x43B DUP6 DUP11 DUP9 PUSH2 0x1EC0 JUMP JUMPDEST ADD PUSH2 0x1EE0 JUMP JUMPDEST PUSH1 0x1 PUSH1 0x1 PUSH1 0x80 SHL SUB AND SWAP1 JUMP JUMPDEST PUSH2 0x472 PUSH2 0x466 PUSH1 0xA0 PUSH2 0x460 DUP7 DUP12 DUP10 PUSH2 0x1EC0 JUMP JUMPDEST ADD PUSH2 0x1EFB JUMP JUMPDEST PUSH1 0x1 PUSH1 0x1 PUSH1 0x60 SHL SUB AND SWAP1 JUMP JUMPDEST SWAP1 PUSH2 0x1F05 JUMP JUMPDEST PUSH2 0x3DB JUMP JUMPDEST PUSH2 0x120 SWAP1 PUSH1 0x3 NOT ADD SLT PUSH2 0x1E7 JUMPI PUSH1 0x4 SWAP1 JUMP JUMPDEST PUSH2 0x120 SWAP1 PUSH2 0x123 NOT ADD SLT PUSH2 0x1E7 JUMPI PUSH2 0x124 SWAP1 JUMP JUMPDEST PUSH2 0x260 CALLDATASIZE PUSH1 0x3 NOT ADD SLT PUSH2 0x1E7 JUMPI PUSH2 0x4B9 CALLDATASIZE PUSH2 0x47D JUMP JUMPDEST PUSH2 0x4C2 CALLDATASIZE PUSH2 0x48F JUMP JUMPDEST PUSH2 0x4CA PUSH2 0x1F5B JUMP JUMPDEST ADDRESS PUSH32 0x0 PUSH1 0x1 PUSH1 0x1 PUSH1 0xA0 SHL SUB AND EQ PUSH2 0x1E7 JUMPI PUSH1 0x20 SWAP2 PUSH2 0x50B SWAP2 PUSH2 0x244 CALLDATALOAD SWAP2 PUSH2 0x3103 JUMP JUMPDEST PUSH1 0x40 MLOAD PUSH1 0x1 PUSH1 0x1 PUSH1 0x80 SHL SUB SWAP1 SWAP2 AND DUP2 MSTORE RETURN JUMPDEST CALLVALUE PUSH2 0x1E7 JUMPI PUSH1 0x0 CALLDATASIZE PUSH1 0x3 NOT ADD SLT PUSH2 0x1E7 JUMPI PUSH2 0x536 PUSH2 0x1983 JUMP JUMPDEST PUSH1 0x0 DUP1 MLOAD PUSH1 0x20 PUSH2 0x59FA DUP4 CODECOPY DUP2 MLOAD SWAP2 MSTORE DUP1 SLOAD PUSH1 0xFF DUP2 AND ISZERO PUSH2 0x582 JUMPI PUSH1 0xFF NOT AND SWAP1 SSTORE PUSH32 0x5DB9EE0A495BF2E6FF9C91A7834C1BA4FDD244A5E8AA4E537BD38AEAE4B073AA PUSH1 0x20 PUSH1 0x40 MLOAD CALLER DUP2 MSTORE LOG1 STOP JUMPDEST PUSH1 0x40 MLOAD PUSH4 0x8DFC202B PUSH1 0xE0 SHL DUP2 MSTORE PUSH1 0x4 SWAP1 REVERT JUMPDEST PUSH1 0x1 PUSH1 0x1 PUSH1 0xA0 SHL SUB DUP2 AND SUB PUSH2 0x1E7 JUMPI JUMP JUMPDEST PUSH1 0x2 GT ISZERO PUSH2 0x1E7 JUMPI JUMP JUMPDEST PUSH1 0x1 PUSH1 0x1 PUSH1 0x80 SHL SUB DUP2 AND SUB PUSH2 0x1E7 JUMPI JUMP JUMPDEST CALLDATALOAD SWAP1 PUSH2 0x5CB DUP3 PUSH2 0x5AF JUMP JUMPDEST JUMP JUMPDEST PUSH1 0x60 SWAP1 PUSH1 0x3 NOT ADD SLT PUSH2 0x1E7 JUMPI PUSH1 0x4 CALLDATALOAD PUSH2 0x5E5 DUP2 PUSH2 0x594 JUMP JUMPDEST SWAP1 PUSH1 0x24 CALLDATALOAD PUSH2 0x5F2 DUP2 PUSH2 0x5A5 JUMP JUMPDEST SWAP1 PUSH1 0x44 CALLDATALOAD PUSH2 0x5FF DUP2 PUSH2 0x5AF JUMP JUMPDEST SWAP1 JUMP JUMPDEST CALLVALUE PUSH2 0x1E7 JUMPI PUSH1 0x20 PUSH2 0x50B PUSH2 0x615 CALLDATASIZE PUSH2 0x5CD JUMP JUMPDEST SWAP2 PUSH2 0x3A63 JUMP JUMPDEST CALLVALUE PUSH2 0x1E7 JUMPI PUSH1 0x40 CALLDATASIZE PUSH1 0x3 NOT ADD SLT PUSH2 0x1E7 JUMPI PUSH32 0xAB0F46966EBB6F17D26B8F6ADD4624E39FCFDEACCFEABA589D57F81CB5CB6666 PUSH1 0x40 PUSH1 0x4 CALLDATALOAD PUSH2 0x65B DUP2 PUSH2 0x594 JUMP JUMPDEST PUSH1 0x24 CALLDATALOAD PUSH2 0x666 PUSH2 0x1F86 JUMP JUMPDEST PUSH2 0x66E PUSH2 0x1983 JUMP JUMPDEST PUSH2 0x678 DUP2 DUP4 PUSH2 0x4A6B JUMP JUMPDEST DUP3 MLOAD PUSH1 0x1 PUSH1 0x1 PUSH1 0xA0 SHL SUB SWAP1 SWAP3 AND DUP3 MSTORE PUSH1 0x20 DUP3 ADD MSTORE LOG1 PUSH1 0x1 PUSH1 0x0 DUP1 MLOAD PUSH1 0x20 PUSH2 0x5A1A DUP4 CODECOPY DUP2 MLOAD SWAP2 MSTORE SSTORE STOP JUMPDEST CALLVALUE PUSH2 0x1E7 JUMPI PUSH1 0x0 CALLDATASIZE PUSH1 0x3 NOT ADD SLT PUSH2 0x1E7 JUMPI PUSH1 0x20 PUSH1 0xFF PUSH1 0x0 DUP1 MLOAD PUSH1 0x20 PUSH2 0x59FA DUP4 CODECOPY DUP2 MLOAD SWAP2 MSTORE SLOAD AND PUSH1 0x40 MLOAD SWAP1 ISZERO ISZERO DUP2 MSTORE RETURN JUMPDEST PUSH4 0x4E487B71 PUSH1 0xE0 SHL PUSH1 0x0 MSTORE PUSH1 0x41 PUSH1 0x4 MSTORE PUSH1 0x24 PUSH1 0x0 REVERT JUMPDEST PUSH1 0x60 DUP2 ADD SWAP1 DUP2 LT PUSH1 0x1 PUSH1 0x1 PUSH1 0x40 SHL SUB DUP3 GT OR PUSH2 0x702 JUMPI PUSH1 0x40 MSTORE JUMP JUMPDEST PUSH2 0x6D1 JUMP JUMPDEST PUSH1 0xE0 DUP2 ADD SWAP1 DUP2 LT PUSH1 0x1 PUSH1 0x1 PUSH1 0x40 SHL SUB DUP3 GT OR PUSH2 0x702 JUMPI PUSH1 0x40 MSTORE JUMP JUMPDEST PUSH1 0x1 PUSH1 0x1 PUSH1 0x40 SHL SUB DUP2 GT PUSH2 0x702 JUMPI PUSH1 0x40 MSTORE JUMP JUMPDEST PUSH1 0x40 DUP2 ADD SWAP1 DUP2 LT PUSH1 0x1 PUSH1 0x1 PUSH1 0x40 SHL SUB DUP3 GT OR PUSH2 0x702 JUMPI PUSH1 0x40 MSTORE JUMP JUMPDEST PUSH1 0xA0 DUP2 ADD SWAP1 DUP2 LT PUSH1 0x1 PUSH1 0x1 PUSH1 0x40 SHL SUB DUP3 GT OR PUSH2 0x702 JUMPI PUSH1 0x40 MSTORE JUMP JUMPDEST SWAP1 PUSH1 0x1F DUP1 NOT SWAP2 ADD AND DUP2 ADD SWAP1 DUP2 LT PUSH1 0x1 PUSH1 0x1 PUSH1 0x40 SHL SUB DUP3 GT OR PUSH2 0x702 JUMPI PUSH1 0x40 MSTORE JUMP JUMPDEST PUSH1 0x40 MLOAD SWAP1 PUSH2 0x5CB DUP3 PUSH2 0x735 JUMP JUMPDEST PUSH1 0x40 MLOAD SWAP1 PUSH1 0x80 DUP3 ADD DUP3 DUP2 LT PUSH1 0x1 PUSH1 0x1 PUSH1 0x40 SHL SUB DUP3 GT OR PUSH2 0x702 JUMPI PUSH1 0x40 MSTORE JUMP JUMPDEST PUSH1 0x1 PUSH1 0x1 PUSH1 0x40 SHL SUB DUP2 GT PUSH2 0x702 JUMPI PUSH1 0x1F ADD PUSH1 0x1F NOT AND PUSH1 0x20 ADD SWAP1 JUMP JUMPDEST DUP2 PUSH1 0x1F DUP3 ADD SLT ISZERO PUSH2 0x1E7 JUMPI DUP1 CALLDATALOAD SWAP1 PUSH2 0x7EA DUP3 PUSH2 0x7B8 JUMP JUMPDEST SWAP3 PUSH2 0x7F8 PUSH1 0x40 MLOAD SWAP5 DUP6 PUSH2 0x76B JUMP JUMPDEST DUP3 DUP5 MSTORE PUSH1 0x20 DUP4 DUP4 ADD ADD GT PUSH2 0x1E7 JUMPI DUP2 PUSH1 0x0 SWAP3 PUSH1 0x20 DUP1 SWAP4 ADD DUP4 DUP7 ADD CALLDATACOPY DUP4 ADD ADD MSTORE SWAP1 JUMP JUMPDEST CALLVALUE PUSH2 0x1E7 JUMPI PUSH1 0x80 CALLDATASIZE PUSH1 0x3 NOT ADD SLT PUSH2 0x1E7 JUMPI PUSH1 0x4 CALLDATALOAD PUSH2 0x837 DUP2 PUSH2 0x5AF JUMP JUMPDEST PUSH1 0x24 CALLDATALOAD SWAP1 PUSH2 0x844 DUP3 PUSH2 0x594 JUMP JUMPDEST PUSH1 0x1 PUSH1 0x1 PUSH1 0x40 SHL SUB SWAP2 PUSH1 0x44 CALLDATALOAD DUP4 DUP2 GT PUSH2 0x1E7 JUMPI PUSH2 0x865 SWAP1 CALLDATASIZE SWAP1 PUSH1 0x4 ADD PUSH2 0x7D3 JUMP JUMPDEST PUSH1 0x64 CALLDATALOAD DUP5 DUP2 GT PUSH2 0x1E7 JUMPI PUSH2 0x87D SWAP1 CALLDATASIZE SWAP1 PUSH1 0x4 ADD PUSH2 0x7D3 JUMP JUMPDEST SWAP2 PUSH1 0x0 DUP1 MLOAD PUSH1 0x20 PUSH2 0x5A3A DUP4 CODECOPY DUP2 MLOAD SWAP2 MSTORE SLOAD SWAP5 PUSH1 0xFF DUP7 PUSH1 0x40 SHR AND ISZERO SWAP6 AND DUP1 ISZERO SWAP1 DUP2 PUSH2 0x981 JUMPI JUMPDEST PUSH1 0x1 EQ SWAP1 DUP2 PUSH2 0x977 JUMPI JUMPDEST ISZERO SWAP1 DUP2 PUSH2 0x96E JUMPI JUMPDEST POP PUSH2 0x95C JUMPI PUSH1 0x0 DUP1 MLOAD PUSH1 0x20 PUSH2 0x5A3A DUP4 CODECOPY DUP2 MLOAD SWAP2 MSTORE DUP1 SLOAD PUSH8 0xFFFFFFFFFFFFFFFF NOT AND PUSH1 0x1 OR SWAP1 SSTORE PUSH2 0x8E8 SWAP4 DUP6 PUSH2 0x937 JUMPI PUSH2 0x1BEB JUMP JUMPDEST PUSH2 0x8EE JUMPI STOP JUMPDEST PUSH1 0x0 DUP1 MLOAD PUSH1 0x20 PUSH2 0x5A3A DUP4 CODECOPY DUP2 MLOAD SWAP2 MSTORE DUP1 SLOAD PUSH1 0xFF PUSH1 0x40 SHL NOT AND SWAP1 SSTORE PUSH1 0x40 MLOAD PUSH1 0x1 DUP2 MSTORE PUSH32 0xC7F505B2F371AE2175EE4913F4499E1F2633A7B5936321EED1CDAEB6115181D2 SWAP1 PUSH1 0x20 SWAP1 LOG1 STOP JUMPDEST PUSH1 0x0 DUP1 MLOAD PUSH1 0x20 PUSH2 0x5A3A DUP4 CODECOPY DUP2 MLOAD SWAP2 MSTORE DUP1 SLOAD PUSH1 0xFF PUSH1 0x40 SHL NOT AND PUSH1 0x1 PUSH1 0x40 SHL OR SWAP1 SSTORE PUSH2 0x1BEB JUMP JUMPDEST PUSH1 0x40 MLOAD PUSH4 0xF92EE8A9 PUSH1 0xE0 SHL DUP2 MSTORE PUSH1 0x4 SWAP1 REVERT JUMPDEST SWAP1 POP ISZERO CODESIZE PUSH2 0x8B4 JUMP JUMPDEST ADDRESS EXTCODESIZE ISZERO SWAP2 POP PUSH2 0x8AC JUMP JUMPDEST DUP7 SWAP2 POP PUSH2 0x8A2 JUMP JUMPDEST PUSH1 0x2 GT ISZERO PUSH2 0x993 JUMPI JUMP JUMPDEST PUSH4 0x4E487B71 PUSH1 0xE0 SHL PUSH1 0x0 MSTORE PUSH1 0x21 PUSH1 0x4 MSTORE PUSH1 0x24 PUSH1 0x0 REVERT JUMPDEST SWAP1 PUSH2 0x100 PUSH1 0xC0 PUSH2 0x5CB SWAP4 DUP1 MLOAD PUSH2 0x9BE DUP2 PUSH2 0x989 JUMP JUMPDEST DUP5 MSTORE PUSH1 0x20 DUP2 ADD MLOAD PUSH2 0x9CE DUP2 PUSH2 0x989 JUMP JUMPDEST PUSH1 0x20 DUP6 DUP2 ADD SWAP2 SWAP1 SWAP2 MSTORE PUSH1 0x40 DUP3 DUP2 ADD MLOAD PUSH1 0x1 PUSH1 0x1 PUSH1 0xA0 SHL SUB SWAP1 DUP2 AND DUP3 DUP9 ADD MSTORE PUSH1 0x60 DUP1 DUP6 ADD MLOAD DUP1 MLOAD SWAP2 DUP10 ADD SWAP2 SWAP1 SWAP2 MSTORE SWAP3 DUP4 ADD MLOAD AND PUSH1 0x80 DUP1 DUP9 ADD SWAP2 SWAP1 SWAP2 MSTORE SWAP2 ADD MLOAD PUSH1 0x1 PUSH1 0x1 PUSH1 0x60 SHL SUB AND PUSH1 0xA0 DUP7 ADD MSTORE DUP2 ADD MLOAD PUSH1 0x1 PUSH1 0x1 PUSH1 0x80 SHL SUB AND DUP3 DUP6 ADD MSTORE PUSH1 0xA0 DUP2 ADD MLOAD PUSH1 0x1 PUSH1 0x1 PUSH1 0x40 SHL SUB AND PUSH1 0xE0 DUP6 ADD MSTORE ADD MLOAD PUSH1 0x1 PUSH1 0x1 PUSH1 0x40 SHL SUB AND SWAP2 ADD MSTORE JUMP JUMPDEST PUSH2 0x120 DUP2 ADD SWAP3 SWAP2 PUSH2 0x5CB SWAP2 SWAP1 PUSH2 0x9A9 JUMP JUMPDEST CALLVALUE PUSH2 0x1E7 JUMPI PUSH1 0x80 DUP1 PUSH1 0x3 NOT CALLDATASIZE ADD SLT PUSH2 0x1E7 JUMPI PUSH1 0x4 CALLDATALOAD SWAP1 PUSH2 0xA7D DUP3 PUSH2 0x594 JUMP JUMPDEST PUSH1 0x24 CALLDATALOAD SWAP2 PUSH1 0x44 CALLDATALOAD SWAP1 PUSH2 0xA8E DUP3 PUSH2 0x5A5 JUMP JUMPDEST PUSH1 0x64 CALLDATALOAD SWAP3 PUSH2 0xA9B DUP5 PUSH2 0x5A5 JUMP JUMPDEST PUSH2 0xAA3 PUSH2 0x4320 JUMP JUMPDEST SWAP5 PUSH2 0xAAE DUP5 DUP5 PUSH2 0x39FE JUMP JUMPDEST PUSH1 0x1 SWAP1 DUP2 DUP7 EQ SWAP1 JUMPDEST PUSH1 0x1 PUSH1 0x1 PUSH1 0x80 SHL SUB DUP2 AND PUSH2 0xAD3 JUMPI JUMPDEST PUSH1 0x40 MLOAD DUP1 PUSH2 0x2C2 DUP12 DUP3 PUSH2 0xA4D JUMP JUMPDEST PUSH2 0xAF6 PUSH2 0xAF1 DUP3 PUSH2 0xAEC DUP11 PUSH2 0xAE7 DUP12 PUSH2 0xDAA JUMP JUMPDEST PUSH2 0xDDE JUMP JUMPDEST PUSH2 0x162C JUMP JUMPDEST PUSH2 0x43C2 JUMP JUMPDEST MLOAD DUP1 JUMPDEST PUSH2 0xB30 JUMPI JUMPDEST POP DUP9 DUP6 ADD MLOAD PUSH2 0xB17 SWAP1 PUSH2 0x441 SWAP1 PUSH1 0x1 PUSH1 0x1 PUSH1 0x80 SHL SUB AND DUP2 JUMP JUMPDEST PUSH2 0xB2B JUMPI PUSH2 0xB26 SWAP1 DUP8 DUP8 PUSH2 0x3A63 JUMP JUMPDEST PUSH2 0xAB6 JUMP JUMPDEST PUSH2 0xAC5 JUMP JUMPDEST PUSH2 0xB4A PUSH2 0xB4F SWAP2 SWAP10 SWAP3 SWAP10 PUSH1 0x0 MSTORE PUSH1 0x0 PUSH1 0x20 MSTORE PUSH1 0x40 PUSH1 0x0 KECCAK256 SWAP1 JUMP JUMPDEST PUSH2 0x3F76 JUMP JUMPDEST PUSH2 0xB58 DUP9 PUSH2 0x989 JUMP JUMPDEST DUP3 DUP1 PUSH2 0xC83 JUMPI JUMPDEST PUSH2 0xC25 JUMPI JUMPDEST PUSH2 0xB6D DUP9 PUSH2 0x989 JUMP JUMPDEST DUP3 DUP1 PUSH2 0xC14 JUMPI JUMPDEST PUSH2 0xBCC JUMPI JUMPDEST DUP1 MLOAD PUSH1 0x1 PUSH1 0x1 PUSH1 0x40 SHL SUB PUSH2 0xB97 PUSH1 0xA0 DUP4 ADD MLOAD PUSH1 0x1 PUSH1 0x1 PUSH1 0x40 SHL SUB AND SWAP1 JUMP JUMPDEST AND DUP1 ISZERO SWAP1 DUP2 ISZERO PUSH2 0xBC2 JUMPI JUMPDEST POP PUSH2 0xBB6 JUMPI POP PUSH1 0x20 ADD MLOAD DUP1 JUMPDEST SWAP9 SWAP2 SWAP9 PUSH2 0xAF9 JUMP JUMPDEST SWAP2 SWAP9 SWAP10 POP POP SWAP8 CODESIZE PUSH2 0xAFE JUMP JUMPDEST SWAP1 POP TIMESTAMP LT CODESIZE PUSH2 0xBA2 JUMP JUMPDEST DUP4 PUSH2 0xBD7 DUP3 MLOAD PUSH2 0x2998 JUMP JUMPDEST PUSH2 0xBE0 DUP2 PUSH2 0x989 JUMP JUMPDEST EQ DUP1 PUSH2 0xBF6 JUMPI JUMPDEST ISZERO PUSH2 0xB79 JUMPI PUSH1 0x20 ADD MLOAD DUP1 PUSH2 0xBAE JUMP JUMPDEST POP DUP4 PUSH2 0xC05 PUSH1 0x20 DUP4 MLOAD ADD PUSH2 0x2998 JUMP JUMPDEST PUSH2 0xC0E DUP2 PUSH2 0x989 JUMP JUMPDEST EQ PUSH2 0xBE7 JUMP JUMPDEST POP PUSH2 0xC1E DUP3 PUSH2 0x989 JUMP JUMPDEST DUP2 ISZERO PUSH2 0xB74 JUMP JUMPDEST DUP4 PUSH2 0xC30 DUP3 MLOAD PUSH2 0x2998 JUMP JUMPDEST PUSH2 0xC39 DUP2 PUSH2 0x989 JUMP JUMPDEST EQ DUP1 PUSH2 0xC65 JUMPI JUMPDEST DUP1 PUSH2 0xC55 JUMPI JUMPDEST ISZERO PUSH2 0xB64 JUMPI PUSH1 0x20 ADD MLOAD DUP1 PUSH2 0xBAE JUMP JUMPDEST POP PUSH1 0x60 DUP2 MLOAD ADD MLOAD MLOAD DUP6 EQ ISZERO PUSH2 0xC46 JUMP JUMPDEST POP DUP4 PUSH2 0xC74 PUSH1 0x20 DUP4 MLOAD ADD PUSH2 0x2998 JUMP JUMPDEST PUSH2 0xC7D DUP2 PUSH2 0x989 JUMP JUMPDEST EQ PUSH2 0xC40 JUMP JUMPDEST POP PUSH2 0xC8D DUP3 PUSH2 0x989 JUMP JUMPDEST DUP4 DUP3 EQ PUSH2 0xB5F JUMP JUMPDEST CALLVALUE PUSH2 0x1E7 JUMPI PUSH1 0x20 CALLDATASIZE PUSH1 0x3 NOT ADD SLT PUSH2 0x1E7 JUMPI PUSH1 0x4 CALLDATALOAD PUSH2 0xCB2 DUP2 PUSH2 0x594 JUMP JUMPDEST PUSH2 0xCBA PUSH2 0x1983 JUMP JUMPDEST PUSH1 0x1 PUSH1 0x1 PUSH1 0xA0 SHL SUB AND DUP1 ISZERO PUSH2 0xCDF JUMPI PUSH1 0x9B DUP1 SLOAD PUSH1 0x1 PUSH1 0x1 PUSH1 0xA0 SHL SUB NOT AND SWAP2 SWAP1 SWAP2 OR SWAP1 SSTORE STOP JUMPDEST PUSH1 0x40 MLOAD PUSH3 0x461BCD PUSH1 0xE5 SHL DUP2 MSTORE PUSH1 0x20 PUSH1 0x4 DUP3 ADD MSTORE PUSH1 0x10 PUSH1 0x24 DUP3 ADD MSTORE PUSH16 0x48443A207A65726F2061646472657373 PUSH1 0x80 SHL PUSH1 0x44 DUP3 ADD MSTORE PUSH1 0x64 SWAP1 REVERT JUMPDEST CALLVALUE PUSH2 0x1E7 JUMPI PUSH1 0x0 DUP1 PUSH1 0x3 NOT CALLDATASIZE ADD SLT PUSH2 0xD82 JUMPI PUSH2 0xD31 PUSH2 0x1983 JUMP JUMPDEST PUSH1 0x0 DUP1 MLOAD PUSH1 0x20 PUSH2 0x597A DUP4 CODECOPY DUP2 MLOAD SWAP2 MSTORE DUP1 SLOAD PUSH1 0x1 PUSH1 0x1 PUSH1 0xA0 SHL SUB NOT DUP2 AND SWAP1 SWAP2 SSTORE DUP2 SWAP1 PUSH1 0x1 PUSH1 0x1 PUSH1 0xA0 SHL SUB AND PUSH32 0x8BE0079C531659141344CD1FD0A4F28419497F9722A3DAAFE3B4186F6B6457E0 DUP3 DUP1 LOG3 DUP1 RETURN JUMPDEST DUP1 REVERT JUMPDEST PUSH1 0x40 SWAP1 PUSH1 0x3 NOT ADD SLT PUSH2 0x1E7 JUMPI PUSH1 0x4 CALLDATALOAD PUSH2 0xD9D DUP2 PUSH2 0x594 JUMP JUMPDEST SWAP1 PUSH1 0x24 CALLDATALOAD PUSH2 0x5FF DUP2 PUSH2 0x5A5 JUMP JUMPDEST PUSH1 0x1 PUSH1 0x1 PUSH1 0xA0 SHL SUB AND PUSH1 0x0 SWAP1 DUP2 MSTORE PUSH1 0x2 PUSH1 0x20 MSTORE PUSH1 0x40 SWAP1 KECCAK256 SWAP1 JUMP JUMPDEST PUSH1 0x1 PUSH1 0x1 PUSH1 0xA0 SHL SUB AND PUSH1 0x0 SWAP1 DUP2 MSTORE PUSH1 0x1 PUSH1 0x20 MSTORE PUSH1 0x40 SWAP1 KECCAK256 SWAP1 JUMP JUMPDEST SWAP1 PUSH2 0xDE8 DUP2 PUSH2 0x989 JUMP JUMPDEST PUSH1 0x0 MSTORE PUSH1 0x20 MSTORE PUSH1 0x40 PUSH1 0x0 KECCAK256 SWAP1 JUMP JUMPDEST CALLVALUE PUSH2 0x1E7 JUMPI PUSH1 0x20 PUSH2 0xE06 CALLDATASIZE PUSH2 0xD85 JUMP JUMPDEST PUSH1 0x1 PUSH1 0x1 PUSH1 0xA0 SHL SUB SWAP1 SWAP2 AND PUSH1 0x0 SWAP1 DUP2 MSTORE PUSH1 0x1 DUP4 MSTORE PUSH1 0x40 SWAP1 KECCAK256 PUSH1 0x1 PUSH1 0x1 PUSH1 0x80 SHL SUB SWAP2 PUSH2 0xE30 SWAP2 PUSH2 0xDDE JUMP JUMPDEST SLOAD AND PUSH1 0x40 MLOAD SWAP1 DUP2 MSTORE RETURN JUMPDEST CALLVALUE PUSH2 0x1E7 JUMPI PUSH1 0x20 CALLDATASIZE PUSH1 0x3 NOT ADD SLT PUSH2 0x1E7 JUMPI PUSH1 0x4 CALLDATALOAD PUSH2 0xE57 DUP2 PUSH2 0x5AF JUMP JUMPDEST PUSH2 0xE5F PUSH2 0x1983 JUMP JUMPDEST PUSH1 0x1 PUSH1 0x1 PUSH1 0x80 SHL SUB AND PUSH2 0x3E8 DUP2 GT PUSH2 0xEAA JUMPI PUSH1 0x68 DUP1 SLOAD PUSH1 0x1 PUSH1 0x1 PUSH1 0x80 SHL SUB NOT AND DUP3 OR SWAP1 SSTORE PUSH32 0xB52884D4590055C8791518C34458834F75FEED662340EF0B5AF2898E7A9BE9F PUSH1 0x0 DUP1 LOG2 STOP JUMPDEST PUSH1 0x40 MLOAD PUSH3 0x461BCD PUSH1 0xE5 SHL DUP2 MSTORE PUSH1 0x20 PUSH1 0x4 DUP3 ADD MSTORE PUSH1 0x1D PUSH1 0x24 DUP3 ADD MSTORE PUSH32 0x504D3A20657863656564206D61782070726F746F636F6C207368617265000000 PUSH1 0x44 DUP3 ADD MSTORE PUSH1 0x64 SWAP1 REVERT JUMPDEST CALLVALUE PUSH2 0x1E7 JUMPI PUSH1 0x0 CALLDATASIZE PUSH1 0x3 NOT ADD SLT PUSH2 0x1E7 JUMPI PUSH2 0xF08 PUSH2 0x1983 JUMP JUMPDEST PUSH2 0xF10 PUSH2 0x1F5B JUMP JUMPDEST PUSH1 0x0 DUP1 MLOAD PUSH1 0x20 PUSH2 0x59FA DUP4 CODECOPY DUP2 MLOAD SWAP2 MSTORE PUSH1 0x1 PUSH1 0xFF NOT DUP3 SLOAD AND OR SWAP1 SSTORE PUSH32 0x62E78CEA01BEE320CD4E420270B5EA74000D11B0C9F74754EBDBFC544B05A258 PUSH1 0x20 PUSH1 0x40 MLOAD CALLER DUP2 MSTORE LOG1 STOP JUMPDEST SWAP2 SWAP1 DUP3 MLOAD SWAP3 DUP4 DUP3 MSTORE PUSH1 0x0 JUMPDEST DUP5 DUP2 LT PUSH2 0xF82 JUMPI POP POP DUP3 PUSH1 0x0 PUSH1 0x20 DUP1 SWAP5 SWAP6 DUP5 ADD ADD MSTORE PUSH1 0x1F DUP1 NOT SWAP2 ADD AND ADD ADD SWAP1 JUMP JUMPDEST PUSH1 0x20 DUP2 DUP4 ADD DUP2 ADD MLOAD DUP5 DUP4 ADD DUP3 ADD MSTORE ADD PUSH2 0xF61 JUMP JUMPDEST SWAP2 PUSH2 0xFC9 SWAP1 SWAP5 SWAP2 SWAP5 PUSH1 0xF PUSH1 0xF8 SHL DUP5 MSTORE PUSH2 0xFBB PUSH1 0x20 SWAP7 PUSH1 0xE0 DUP9 DUP8 ADD MSTORE PUSH1 0xE0 DUP7 ADD SWAP1 PUSH2 0xF56 JUMP JUMPDEST SWAP1 DUP5 DUP3 SUB PUSH1 0x40 DUP7 ADD MSTORE PUSH2 0xF56 JUMP JUMPDEST SWAP3 PUSH1 0x60 DUP4 ADD MSTORE PUSH1 0x1 DUP1 PUSH1 0xA0 SHL SUB AND PUSH1 0x80 DUP3 ADD MSTORE PUSH1 0x0 PUSH1 0xA0 DUP3 ADD MSTORE PUSH1 0xC0 DUP2 DUP4 SUB SWAP2 ADD MSTORE DUP2 DUP1 DUP5 MLOAD SWAP3 DUP4 DUP2 MSTORE ADD SWAP4 ADD SWAP2 PUSH1 0x0 JUMPDEST DUP3 DUP2 LT PUSH2 0x1008 JUMPI POP POP POP POP SWAP1 JUMP JUMPDEST DUP4 MLOAD DUP6 MSTORE SWAP4 DUP2 ADD SWAP4 SWAP3 DUP2 ADD SWAP3 PUSH1 0x1 ADD PUSH2 0xFFA JUMP JUMPDEST CALLVALUE PUSH2 0x1E7 JUMPI PUSH1 0x0 CALLDATASIZE PUSH1 0x3 NOT ADD SLT PUSH2 0x1E7 JUMPI PUSH32 0xA16A46D94261C7517CC8FF89F61C0CE93598E3C849801011DEE649A6A557D100 SLOAD ISZERO DUP1 PUSH2 0x10C4 JUMPI JUMPDEST ISZERO PUSH2 0x1087 JUMPI PUSH2 0x1063 PUSH2 0x1AA9 JUMP JUMPDEST PUSH2 0x106B PUSH2 0x1B5C JUMP JUMPDEST SWAP1 PUSH2 0x2C2 PUSH2 0x1077 PUSH2 0x1A47 JUMP JUMPDEST PUSH1 0x40 MLOAD SWAP4 DUP5 SWAP4 ADDRESS SWAP2 CHAINID SWAP2 DUP7 PUSH2 0xF96 JUMP JUMPDEST PUSH1 0x40 MLOAD PUSH3 0x461BCD PUSH1 0xE5 SHL DUP2 MSTORE PUSH1 0x20 PUSH1 0x4 DUP3 ADD MSTORE PUSH1 0x15 PUSH1 0x24 DUP3 ADD MSTORE PUSH21 0x1152540DCC4C8E88155B9A5B9A5D1A585B1A5E9959 PUSH1 0x5A SHL PUSH1 0x44 DUP3 ADD MSTORE PUSH1 0x64 SWAP1 REVERT JUMPDEST POP PUSH32 0xA16A46D94261C7517CC8FF89F61C0CE93598E3C849801011DEE649A6A557D101 SLOAD ISZERO PUSH2 0x1056 JUMP JUMPDEST SWAP3 SWAP2 SWAP1 PUSH1 0x40 DUP5 ADD PUSH1 0x40 DUP6 MSTORE DUP2 MLOAD DUP1 SWAP2 MSTORE PUSH1 0x60 DUP6 ADD SWAP1 PUSH1 0x20 DUP1 SWAP4 ADD SWAP1 PUSH1 0x0 JUMPDEST DUP5 DUP3 DUP3 LT PUSH2 0x111C JUMPI POP POP POP POP SWAP4 ADD MSTORE JUMP JUMPDEST PUSH2 0x120 DUP6 PUSH2 0x1130 DUP7 SWAP8 PUSH1 0x1 SWAP6 SWAP7 SWAP8 MLOAD PUSH2 0x9A9 JUMP JUMPDEST ADD SWAP5 ADD SWAP3 SWAP2 ADD PUSH2 0x110B JUMP JUMPDEST CALLVALUE PUSH2 0x1E7 JUMPI PUSH1 0xE0 CALLDATASIZE PUSH1 0x3 NOT ADD SLT PUSH2 0x1E7 JUMPI PUSH1 0x4 CALLDATALOAD PUSH2 0x1158 DUP2 PUSH2 0x594 JUMP JUMPDEST PUSH1 0x44 CALLDATALOAD SWAP1 PUSH1 0x24 CALLDATALOAD PUSH2 0x1168 DUP4 PUSH2 0x5A5 JUMP JUMPDEST PUSH1 0x64 CALLDATALOAD SWAP3 PUSH2 0x1175 DUP5 PUSH2 0x5A5 JUMP JUMPDEST PUSH1 0x84 CALLDATALOAD SWAP1 PUSH1 0xA4 CALLDATALOAD SWAP4 PUSH2 0x1186 DUP6 PUSH2 0x5AF JUMP JUMPDEST PUSH1 0xC4 CALLDATALOAD SWAP3 DUP6 SWAP7 DUP5 SWAP6 PUSH1 0x0 SWAP9 PUSH2 0x119A DUP5 PUSH2 0x4372 JUMP JUMPDEST SWAP9 PUSH1 0x1 PUSH1 0x1 PUSH1 0x80 SHL SUB SWAP8 DUP9 DUP3 AND PUSH2 0x143D JUMPI POP POP POP PUSH2 0x11B8 DUP6 DUP6 PUSH2 0x39FE JUMP JUMPDEST SWAP1 SWAP2 SWAP3 SWAP7 JUMPDEST DUP10 SWAP8 PUSH1 0x1 SWAP8 DUP8 DUP10 EQ SWAP4 DUP10 JUMPDEST PUSH2 0x11DC JUMPI JUMPDEST PUSH1 0x40 MLOAD DUP1 PUSH2 0x2C2 DUP16 DUP16 DUP4 PUSH2 0x10ED JUMP JUMPDEST DUP2 DUP2 AND ISZERO ISZERO DUP1 PUSH2 0x1434 JUMPI JUMPDEST ISZERO PUSH2 0x142F JUMPI PUSH2 0x1200 PUSH2 0xAF1 DUP3 PUSH2 0xAEC DUP13 PUSH2 0xAE7 DUP14 PUSH2 0xDAA JUMP JUMPDEST MLOAD DUP11 DUP6 PUSH2 0x13CE JUMPI JUMPDEST PUSH2 0x122C JUMPI JUMPDEST POP SWAP1 PUSH2 0x1220 DUP11 SWAP8 SWAP7 SWAP6 SWAP5 SWAP4 SWAP3 DUP11 DUP11 PUSH2 0x3A63 JUMP JUMPDEST SWAP1 SWAP2 SWAP3 SWAP4 SWAP5 SWAP6 SWAP7 PUSH2 0x11C8 JUMP JUMPDEST DUP1 SWAP13 SWAP12 SWAP13 ISZERO ISZERO DUP1 PUSH2 0x13C5 JUMPI JUMPDEST ISZERO PUSH2 0x13BD JUMPI PUSH2 0xB4A PUSH2 0x1254 SWAP2 PUSH1 0x0 MSTORE PUSH1 0x0 PUSH1 0x20 MSTORE PUSH1 0x40 PUSH1 0x0 KECCAK256 SWAP1 JUMP JUMPDEST PUSH1 0x20 SWAP1 DUP2 DUP2 ADD SWAP1 DUP2 MLOAD SWAP3 PUSH1 0x1 PUSH1 0x1 PUSH1 0x40 SHL SUB PUSH2 0x127B PUSH1 0xA0 DUP5 MLOAD ADD MLOAD PUSH1 0x1 PUSH1 0x1 PUSH1 0x40 SHL SUB AND SWAP1 JUMP JUMPDEST AND DUP1 ISZERO ISZERO SWAP1 DUP2 PUSH2 0x13B3 JUMPI JUMPDEST POP PUSH2 0x1379 JUMPI PUSH2 0x1294 DUP14 PUSH2 0x989 JUMP JUMPDEST DUP9 DUP1 PUSH2 0x13A2 JUMPI JUMPDEST PUSH2 0x1358 JUMPI JUMPDEST PUSH2 0x12A9 DUP14 PUSH2 0x989 JUMP JUMPDEST DUP9 DUP1 PUSH2 0x1346 JUMPI JUMPDEST PUSH2 0x12DD JUMPI JUMPDEST POP DUP15 SWAP16 POP DUP14 SWAP15 DUP14 SWAP15 PUSH2 0x12D2 SWAP3 MLOAD PUSH2 0x12CC DUP4 DUP4 PUSH2 0x1F21 JUMP JUMPDEST MSTORE PUSH2 0x1F21 JUMP JUMPDEST POP MLOAD SWAP14 DUP12 ADD SWAP12 PUSH2 0x1208 JUMP JUMPDEST DUP14 DUP1 PUSH2 0x12E9 DUP5 MLOAD PUSH2 0x2998 JUMP JUMPDEST PUSH2 0x12F2 DUP2 PUSH2 0x989 JUMP JUMPDEST EQ SWAP2 DUP3 PUSH2 0x1327 JUMPI JUMPDEST POP POP DUP1 PUSH2 0x1317 JUMPI JUMPDEST PUSH2 0x130C JUMPI DUP16 PUSH2 0x12B5 JUMP JUMPDEST POP POP DUP11 SWAP13 SWAP12 SWAP13 PUSH2 0x1208 JUMP JUMPDEST POP PUSH1 0x60 DUP2 MLOAD ADD MLOAD MLOAD DUP10 EQ ISZERO PUSH2 0x1302 JUMP JUMPDEST PUSH2 0x1335 SWAP2 SWAP3 POP DUP4 MLOAD ADD PUSH2 0x2998 JUMP JUMPDEST PUSH2 0x133E DUP2 PUSH2 0x989 JUMP JUMPDEST EQ DUP14 CODESIZE PUSH2 0x12FA JUMP JUMPDEST POP PUSH2 0x1350 DUP12 PUSH2 0x989 JUMP JUMPDEST DUP14 DUP12 EQ PUSH2 0x12B0 JUMP JUMPDEST DUP14 PUSH2 0x1363 DUP4 MLOAD PUSH2 0x2998 JUMP JUMPDEST PUSH2 0x136C DUP2 PUSH2 0x989 JUMP JUMPDEST EQ DUP1 PUSH2 0x1385 JUMPI JUMPDEST ISZERO PUSH2 0x12A0 JUMPI JUMPDEST POP POP POP DUP11 SWAP13 SWAP12 SWAP13 PUSH2 0x1208 JUMP JUMPDEST POP DUP14 PUSH2 0x1393 DUP3 DUP5 MLOAD ADD PUSH2 0x2998 JUMP JUMPDEST PUSH2 0x139C DUP2 PUSH2 0x989 JUMP JUMPDEST EQ PUSH2 0x1373 JUMP JUMPDEST POP PUSH2 0x13AC DUP12 PUSH2 0x989 JUMP JUMPDEST DUP11 ISZERO PUSH2 0x129B JUMP JUMPDEST SWAP1 POP TIMESTAMP GT CODESIZE PUSH2 0x1286 JUMP JUMPDEST SWAP12 SWAP11 SWAP12 PUSH2 0x120D JUMP JUMPDEST POP DUP4 DUP14 LT PUSH2 0x1238 JUMP JUMPDEST SWAP5 DUP6 JUMPDEST PUSH2 0x13DF JUMPI JUMPDEST POP PUSH1 0x0 SWAP5 PUSH2 0x1208 JUMP JUMPDEST SWAP1 DUP1 SWAP6 SWAP3 SWAP4 SWAP5 SWAP6 ISZERO ISZERO DUP1 PUSH2 0x1425 JUMPI JUMPDEST ISZERO PUSH2 0x141A JUMPI PUSH2 0x140C PUSH2 0xB4A PUSH1 0x20 SWAP3 PUSH1 0x0 MSTORE PUSH1 0x0 PUSH1 0x20 MSTORE PUSH1 0x40 PUSH1 0x0 KECCAK256 SWAP1 JUMP JUMPDEST ADD MLOAD SWAP2 SWAP5 SWAP4 SWAP3 SWAP2 SWAP1 DUP6 PUSH2 0x13D1 JUMP JUMPDEST SWAP1 SWAP5 SWAP4 SWAP3 SWAP2 SWAP5 PUSH2 0x13D6 JUMP JUMPDEST POP DUP2 DUP2 EQ ISZERO PUSH2 0x13EE JUMP JUMPDEST PUSH2 0x11CD JUMP JUMPDEST POP DUP3 DUP12 LT PUSH2 0x11E7 JUMP JUMPDEST SWAP8 SWAP2 SWAP8 ISZERO PUSH2 0x1451 JUMPI JUMPDEST POP SWAP6 SWAP1 SWAP2 SWAP3 SWAP7 PUSH2 0x11BD JUMP JUMPDEST PUSH2 0x145E SWAP2 SWAP8 POP DUP7 DUP7 PUSH2 0x3A63 JUMP JUMPDEST SWAP6 CODESIZE PUSH2 0x1446 JUMP JUMPDEST PUSH2 0x240 CALLDATASIZE PUSH1 0x3 NOT ADD SLT PUSH2 0x1E7 JUMPI PUSH2 0x147B CALLDATASIZE PUSH2 0x47D JUMP JUMPDEST PUSH2 0x14A8 PUSH2 0x1487 CALLDATASIZE PUSH2 0x48F JUMP JUMPDEST SWAP2 PUSH2 0x1490 PUSH2 0x1F5B JUMP JUMPDEST PUSH2 0x1498 PUSH2 0x1F86 JUMP JUMPDEST PUSH1 0x1 PUSH1 0x1 PUSH1 0x80 SHL SUB SWAP3 CALLVALUE SWAP2 PUSH2 0x3103 JUMP JUMPDEST AND DUP1 CALLVALUE GT PUSH2 0x14C5 JUMPI JUMPDEST PUSH1 0x1 PUSH1 0x0 DUP1 MLOAD PUSH1 0x20 PUSH2 0x5A1A DUP4 CODECOPY DUP2 MLOAD SWAP2 MSTORE SSTORE STOP JUMPDEST CALLVALUE SUB CALLVALUE DUP2 GT PUSH2 0x14DE JUMPI PUSH2 0x14D8 SWAP1 CALLER PUSH2 0x4A6B JUMP JUMPDEST CODESIZE PUSH2 0x14B1 JUMP JUMPDEST PUSH2 0x1E85 JUMP JUMPDEST CALLVALUE PUSH2 0x1E7 JUMPI PUSH1 0x0 CALLDATASIZE PUSH1 0x3 NOT ADD SLT PUSH2 0x1E7 JUMPI PUSH1 0x0 DUP1 MLOAD PUSH1 0x20 PUSH2 0x597A DUP4 CODECOPY DUP2 MLOAD SWAP2 MSTORE SLOAD PUSH1 0x40 MLOAD PUSH1 0x1 PUSH1 0x1 PUSH1 0xA0 SHL SUB SWAP1 SWAP2 AND DUP2 MSTORE PUSH1 0x20 SWAP1 RETURN JUMPDEST SWAP1 PUSH2 0x5CB PUSH1 0x40 MLOAD PUSH2 0x1529 DUP2 PUSH2 0x707 JUMP JUMPDEST PUSH1 0xC0 PUSH1 0x3 DUP3 SWAP6 DUP1 SLOAD PUSH1 0xFF DUP2 AND PUSH2 0x153E DUP2 PUSH2 0x989 JUMP JUMPDEST DUP6 MSTORE PUSH1 0xFF DUP2 PUSH1 0x8 SHR AND PUSH2 0x1550 DUP2 PUSH2 0x989 JUMP JUMPDEST PUSH1 0x20 DUP7 ADD MSTORE PUSH1 0x10 SHR PUSH1 0x1 PUSH1 0x1 PUSH1 0xA0 SHL SUB SWAP1 DUP2 AND PUSH1 0x40 DUP1 DUP8 ADD SWAP2 SWAP1 SWAP2 MSTORE MLOAD SWAP1 PUSH2 0x1577 DUP3 PUSH2 0x6E7 JUMP JUMPDEST PUSH1 0x1 DUP4 ADD SLOAD DUP3 MSTORE PUSH1 0x2 DUP4 ADD SLOAD SWAP1 DUP2 AND PUSH1 0x20 DUP4 ADD MSTORE PUSH1 0xA0 SHR PUSH1 0x40 DUP3 ADD MSTORE PUSH1 0x60 DUP6 ADD MSTORE ADD SLOAD PUSH1 0x1 PUSH1 0x1 PUSH1 0x80 SHL SUB DUP2 AND PUSH1 0x80 DUP5 ADD MSTORE PUSH1 0x80 DUP2 SWAP1 SHR PUSH1 0x1 PUSH1 0x1 PUSH1 0x40 SHL SUB AND PUSH1 0xA0 DUP5 ADD MSTORE DUP2 SHR PUSH1 0x1 PUSH1 0x1 PUSH1 0x40 SHL SUB AND SWAP2 ADD MSTORE JUMP JUMPDEST CALLVALUE PUSH2 0x1E7 JUMPI PUSH1 0x20 CALLDATASIZE PUSH1 0x3 NOT ADD SLT PUSH2 0x1E7 JUMPI PUSH1 0x4 CALLDATALOAD PUSH1 0x0 MSTORE PUSH1 0x0 PUSH1 0x20 MSTORE PUSH2 0x140 PUSH1 0x40 PUSH1 0x0 KECCAK256 PUSH1 0x4 PUSH2 0x15FB DUP3 PUSH2 0x1519 JUMP JUMPDEST SWAP2 ADD SLOAD PUSH2 0x160B PUSH1 0x40 MLOAD DUP1 SWAP4 PUSH2 0x9A9 JUMP JUMPDEST PUSH2 0x120 DUP3 ADD MSTORE RETURN JUMPDEST CALLVALUE PUSH2 0x1E7 JUMPI PUSH1 0x20 PUSH2 0x50B PUSH2 0x1626 CALLDATASIZE PUSH2 0xD85 JUMP JUMPDEST SWAP1 PUSH2 0x39FE JUMP JUMPDEST SWAP1 PUSH1 0x1 DUP1 PUSH1 0x80 SHL SUB AND PUSH1 0x0 MSTORE PUSH1 0x20 MSTORE PUSH1 0x40 PUSH1 0x0 KECCAK256 SWAP1 JUMP JUMPDEST CALLVALUE PUSH2 0x1E7 JUMPI PUSH2 0x1673 PUSH2 0xAEC PUSH2 0x1657 CALLDATASIZE PUSH2 0x5CD JUMP JUMPDEST SWAP3 SWAP2 PUSH1 0x1 DUP1 PUSH1 0xA0 SHL SUB AND PUSH1 0x0 MSTORE PUSH1 0x2 PUSH1 0x20 MSTORE PUSH1 0x40 PUSH1 0x0 KECCAK256 PUSH2 0xDDE JUMP JUMPDEST DUP1 SLOAD PUSH1 0x1 SWAP1 SWAP2 ADD SLOAD PUSH1 0x40 DUP1 MLOAD SWAP3 DUP4 MSTORE PUSH1 0x20 DUP4 ADD SWAP2 SWAP1 SWAP2 MSTORE SWAP1 RETURN JUMPDEST PUSH1 0x20 DUP1 PUSH1 0x3 NOT CALLDATASIZE ADD SLT PUSH2 0x1E7 JUMPI PUSH1 0x1 PUSH1 0x1 PUSH1 0x40 SHL SUB SWAP1 PUSH1 0x4 CALLDATALOAD DUP3 DUP2 GT PUSH2 0x1E7 JUMPI CALLDATASIZE PUSH1 0x23 DUP3 ADD SLT ISZERO PUSH2 0x1E7 JUMPI DUP1 PUSH1 0x4 ADD CALLDATALOAD SWAP3 DUP4 GT PUSH2 0x1E7 JUMPI PUSH1 0x24 DUP2 ADD SWAP1 PUSH1 0x24 CALLDATASIZE SWAP2 PUSH2 0x140 DUP7 MUL ADD ADD GT PUSH2 0x1E7 JUMPI SWAP2 PUSH2 0x16E2 PUSH2 0x1F5B JUMP JUMPDEST PUSH2 0x16EA PUSH2 0x1F86 JUMP JUMPDEST PUSH2 0x16F3 DUP2 PUSH2 0x1E53 JUMP JUMPDEST SWAP3 PUSH1 0x0 SWAP3 DUP4 SWAP2 JUMPDEST DUP4 DUP4 LT PUSH2 0x1748 JUMPI DUP6 DUP6 DUP1 CALLVALUE GT PUSH2 0x172B JUMPI JUMPDEST PUSH1 0x1 PUSH1 0x0 DUP1 MLOAD PUSH1 0x20 PUSH2 0x5A1A DUP4 CODECOPY DUP2 MLOAD SWAP2 MSTORE SSTORE PUSH1 0x40 MLOAD DUP1 PUSH2 0x2C2 DUP5 DUP3 PUSH2 0x2C6 JUMP JUMPDEST CALLVALUE SUB SWAP1 CALLVALUE DUP3 GT PUSH2 0x14DE JUMPI PUSH2 0x1742 PUSH2 0x2C2 SWAP3 CALLER PUSH2 0x4A6B JUMP JUMPDEST SWAP1 PUSH2 0x170B JUMP JUMPDEST SWAP1 SWAP2 SWAP3 SWAP5 SWAP4 PUSH2 0x176F PUSH2 0x175B DUP6 DUP9 DUP6 PUSH2 0x2326 JUMP JUMPDEST CALLDATALOAD DUP5 PUSH2 0x1768 DUP8 DUP11 DUP8 PUSH2 0x2326 JUMP JUMPDEST ADD SWAP1 PUSH2 0x29E1 JUMP JUMPDEST DUP3 SWAP6 SWAP2 SWAP6 ADD DUP1 SWAP3 GT PUSH2 0x14DE JUMPI PUSH2 0x1790 SWAP2 SWAP5 PUSH2 0x178A DUP3 DUP9 PUSH2 0x1F21 JUMP JUMPDEST MSTORE PUSH2 0x1E9B JUMP JUMPDEST SWAP2 SWAP1 SWAP5 SWAP3 SWAP4 SWAP5 PUSH2 0x16FA JUMP JUMPDEST CALLVALUE PUSH2 0x1E7 JUMPI PUSH1 0x20 CALLDATASIZE PUSH1 0x3 NOT ADD SLT PUSH2 0x1E7 JUMPI PUSH2 0x19 PUSH1 0x4 CALLDATALOAD PUSH2 0x17BB DUP2 PUSH2 0x594 JUMP JUMPDEST PUSH2 0x17C3 PUSH2 0x1983 JUMP JUMPDEST PUSH2 0x19BC JUMP JUMPDEST PUSH1 0x20 DUP1 PUSH1 0x3 NOT CALLDATASIZE ADD SLT PUSH2 0x1E7 JUMPI PUSH1 0x1 PUSH1 0x1 PUSH1 0x40 SHL SUB SWAP1 PUSH1 0x4 CALLDATALOAD DUP3 DUP2 GT PUSH2 0x1E7 JUMPI CALLDATASIZE PUSH1 0x23 DUP3 ADD SLT ISZERO PUSH2 0x1E7 JUMPI DUP1 PUSH1 0x4 ADD CALLDATALOAD SWAP3 DUP4 GT PUSH2 0x1E7 JUMPI PUSH1 0x24 DUP1 DUP3 ADD SWAP2 DUP2 CALLDATASIZE SWAP2 PUSH2 0x240 DUP8 MUL ADD ADD GT PUSH2 0x1E7 JUMPI PUSH2 0x181C PUSH2 0x1F5B JUMP JUMPDEST PUSH2 0x1824 PUSH2 0x1F86 JUMP JUMPDEST PUSH2 0x182D DUP5 PUSH2 0x1E53 JUMP JUMPDEST SWAP3 PUSH1 0x0 SWAP5 DUP6 JUMPDEST DUP2 DUP2 LT PUSH2 0x186C JUMPI PUSH2 0x2C2 DUP7 PUSH1 0x1 PUSH1 0x1 PUSH1 0x80 SHL SUB DUP10 AND CALLVALUE DUP2 LT PUSH2 0x1859 JUMPI JUMPDEST POP PUSH2 0x2B6 PUSH2 0x1E3F JUMP JUMPDEST PUSH2 0x3A9 PUSH2 0x1866 SWAP2 CALLVALUE PUSH2 0x1F4E JUMP JUMPDEST DUP3 PUSH2 0x1850 JUMP JUMPDEST PUSH2 0x1877 DUP2 DUP4 DUP8 PUSH2 0x2345 JUMP JUMPDEST PUSH2 0x188A PUSH1 0x1 PUSH1 0x1 PUSH1 0x80 SHL SUB DUP10 AND CALLVALUE PUSH2 0x1F4E JUMP JUMPDEST SWAP1 PUSH1 0x0 DUP1 PUSH1 0x40 SWAP4 DUP5 MLOAD PUSH2 0x18C5 DUP2 PUSH2 0x18B7 DUP12 DUP3 ADD SWAP5 PUSH4 0x366C39ED PUSH1 0xE0 SHL DUP7 MSTORE DUP14 DUP10 PUSH2 0x120 DUP2 ADD SWAP2 DUP6 ADD PUSH2 0x245D JUMP JUMPDEST SUB PUSH1 0x1F NOT DUP2 ADD DUP4 MSTORE DUP3 PUSH2 0x76B JUMP JUMPDEST MLOAD SWAP1 ADDRESS GAS DELEGATECALL PUSH2 0x18D2 PUSH2 0x2485 JUMP JUMPDEST SWAP3 DUP2 ISZERO PUSH2 0x1942 JUMPI POP PUSH2 0x18FC SWAP2 PUSH2 0x18F6 PUSH2 0x160 SWAP3 PUSH2 0x18EF DUP8 DUP14 PUSH2 0x1F21 JUMP JUMPDEST SWAP1 ISZERO ISZERO SWAP1 MSTORE JUMP JUMPDEST ADD PUSH2 0x24CC JUMP JUMPDEST PUSH1 0x1 PUSH1 0x1 PUSH1 0xA0 SHL SUB AND CALLER EQ PUSH2 0x191B JUMPI JUMPDEST POP PUSH2 0x1916 SWAP1 PUSH2 0x1E9B JUMP JUMPDEST PUSH2 0x1833 JUMP JUMPDEST PUSH2 0x1916 SWAP2 SWAP8 PUSH2 0x1935 DUP3 DUP7 DUP1 PUSH2 0x193B SWAP6 MLOAD DUP4 ADD ADD SWAP2 ADD PUSH2 0x24D6 JUMP JUMPDEST SWAP1 PUSH2 0x1F35 JUMP JUMPDEST SWAP7 SWAP1 PUSH2 0x190C JUMP JUMPDEST PUSH32 0x50F709FB65709F10A27682788A9D67FE74DE81B310B5C34E3D32F0E2C3AC557 SWAP3 POP PUSH2 0x197B SWAP2 POP SWAP3 PUSH2 0x1916 SWAP5 SWAP4 MLOAD SWAP2 DUP3 SWAP2 DUP6 DUP4 PUSH2 0x24B5 JUMP JUMPDEST SUB SWAP1 LOG1 PUSH2 0x1E9B JUMP JUMPDEST PUSH1 0x0 DUP1 MLOAD PUSH1 0x20 PUSH2 0x597A DUP4 CODECOPY DUP2 MLOAD SWAP2 MSTORE SLOAD PUSH1 0x1 PUSH1 0x1 PUSH1 0xA0 SHL SUB AND CALLER SUB PUSH2 0x19A4 JUMPI JUMP JUMPDEST PUSH1 0x40 MLOAD PUSH4 0x118CDAA7 PUSH1 0xE0 SHL DUP2 MSTORE CALLER PUSH1 0x4 DUP3 ADD MSTORE PUSH1 0x24 SWAP1 REVERT JUMPDEST PUSH1 0x1 PUSH1 0x1 PUSH1 0xA0 SHL SUB SWAP1 DUP2 AND SWAP1 DUP2 ISZERO PUSH2 0x1A17 JUMPI PUSH1 0x0 DUP1 MLOAD PUSH1 0x20 PUSH2 0x597A DUP4 CODECOPY DUP2 MLOAD SWAP2 MSTORE DUP1 SLOAD PUSH1 0x1 PUSH1 0x1 PUSH1 0xA0 SHL SUB NOT DUP2 AND DUP5 OR SWAP1 SWAP2 SSTORE AND PUSH32 0x8BE0079C531659141344CD1FD0A4F28419497F9722A3DAAFE3B4186F6B6457E0 PUSH1 0x0 DUP1 LOG3 JUMP JUMPDEST PUSH1 0x40 MLOAD PUSH4 0x1E4FBDF7 PUSH1 0xE0 SHL DUP2 MSTORE PUSH1 0x0 PUSH1 0x4 DUP3 ADD MSTORE PUSH1 0x24 SWAP1 REVERT JUMPDEST PUSH1 0x1 PUSH1 0x1 PUSH1 0x40 SHL SUB DUP2 GT PUSH2 0x702 JUMPI PUSH1 0x5 SHL PUSH1 0x20 ADD SWAP1 JUMP JUMPDEST PUSH1 0x40 MLOAD PUSH1 0x20 DUP2 ADD DUP2 DUP2 LT PUSH1 0x1 PUSH1 0x1 PUSH1 0x40 SHL SUB DUP3 GT OR PUSH2 0x702 JUMPI PUSH1 0x40 MSTORE PUSH1 0x0 DUP2 MSTORE SWAP1 PUSH1 0x0 CALLDATASIZE DUP2 CALLDATACOPY JUMP JUMPDEST SWAP1 PUSH1 0x1 DUP3 DUP2 SHR SWAP3 AND DUP1 ISZERO PUSH2 0x1A9F JUMPI JUMPDEST PUSH1 0x20 DUP4 LT EQ PUSH2 0x1A89 JUMPI JUMP JUMPDEST PUSH4 0x4E487B71 PUSH1 0xE0 SHL PUSH1 0x0 MSTORE PUSH1 0x22 PUSH1 0x4 MSTORE PUSH1 0x24 PUSH1 0x0 REVERT JUMPDEST SWAP2 PUSH1 0x7F AND SWAP2 PUSH2 0x1A7E JUMP JUMPDEST PUSH1 0x40 MLOAD SWAP1 PUSH1 0x0 DUP3 PUSH1 0x0 DUP1 MLOAD PUSH1 0x20 PUSH2 0x595A DUP4 CODECOPY DUP2 MLOAD SWAP2 MSTORE SWAP2 DUP3 SLOAD SWAP3 PUSH2 0x1ACC DUP5 PUSH2 0x1A6F JUMP JUMPDEST SWAP1 DUP2 DUP5 MSTORE PUSH1 0x1 SWAP5 DUP6 DUP2 AND SWAP1 DUP2 PUSH1 0x0 EQ PUSH2 0x1B39 JUMPI POP PUSH1 0x1 EQ PUSH2 0x1AF6 JUMPI JUMPDEST POP POP PUSH2 0x5CB SWAP3 POP SUB DUP4 PUSH2 0x76B JUMP JUMPDEST SWAP1 SWAP4 SWAP2 POP PUSH1 0x0 MSTORE PUSH1 0x20 SWAP1 DUP2 PUSH1 0x0 KECCAK256 SWAP4 PUSH1 0x0 SWAP2 JUMPDEST DUP2 DUP4 LT PUSH2 0x1B21 JUMPI POP POP PUSH2 0x5CB SWAP4 POP DUP3 ADD ADD CODESIZE DUP1 PUSH2 0x1AE8 JUMP JUMPDEST DUP6 SLOAD DUP9 DUP5 ADD DUP6 ADD MSTORE SWAP5 DUP6 ADD SWAP5 DUP8 SWAP5 POP SWAP2 DUP4 ADD SWAP2 PUSH2 0x1B09 JUMP JUMPDEST SWAP2 POP POP PUSH2 0x5CB SWAP5 POP PUSH1 0x20 SWAP3 POP PUSH1 0xFF NOT AND DUP3 DUP5 ADD MSTORE ISZERO ISZERO PUSH1 0x5 SHL DUP3 ADD ADD CODESIZE DUP1 PUSH2 0x1AE8 JUMP JUMPDEST PUSH1 0x40 MLOAD SWAP1 PUSH1 0x0 DUP3 PUSH1 0x0 DUP1 MLOAD PUSH1 0x20 PUSH2 0x599A DUP4 CODECOPY DUP2 MLOAD SWAP2 MSTORE SWAP2 DUP3 SLOAD SWAP3 PUSH2 0x1B7F DUP5 PUSH2 0x1A6F JUMP JUMPDEST SWAP1 DUP2 DUP5 MSTORE PUSH1 0x1 SWAP5 DUP6 DUP2 AND SWAP1 DUP2 PUSH1 0x0 EQ PUSH2 0x1B39 JUMPI POP PUSH1 0x1 EQ PUSH2 0x1BA8 JUMPI POP POP PUSH2 0x5CB SWAP3 POP SUB DUP4 PUSH2 0x76B JUMP JUMPDEST SWAP1 SWAP4 SWAP2 POP PUSH1 0x0 MSTORE PUSH1 0x20 SWAP1 DUP2 PUSH1 0x0 KECCAK256 SWAP4 PUSH1 0x0 SWAP2 JUMPDEST DUP2 DUP4 LT PUSH2 0x1BD3 JUMPI POP POP PUSH2 0x5CB SWAP4 POP DUP3 ADD ADD CODESIZE DUP1 PUSH2 0x1AE8 JUMP JUMPDEST DUP6 SLOAD DUP9 DUP5 ADD DUP6 ADD MSTORE SWAP5 DUP6 ADD SWAP5 DUP8 SWAP5 POP SWAP2 DUP4 ADD SWAP2 PUSH2 0x1BBB JUMP JUMPDEST SWAP2 SWAP3 SWAP1 SWAP3 PUSH2 0x1BF7 PUSH2 0x1E10 JUMP JUMPDEST PUSH2 0x1BFF PUSH2 0x1E10 JUMP JUMPDEST PUSH2 0x1C07 PUSH2 0x1E10 JUMP JUMPDEST PUSH2 0x1C0F PUSH2 0x1E10 JUMP JUMPDEST PUSH2 0x1C17 PUSH2 0x1E10 JUMP JUMPDEST PUSH2 0x1C20 CALLER PUSH2 0x19BC JUMP JUMPDEST PUSH2 0x1C28 PUSH2 0x1E10 JUMP JUMPDEST PUSH2 0x1C30 PUSH2 0x1E10 JUMP JUMPDEST PUSH1 0x1 DUP1 PUSH1 0x0 DUP1 MLOAD PUSH1 0x20 PUSH2 0x5A1A DUP4 CODECOPY DUP2 MLOAD SWAP2 MSTORE SSTORE PUSH2 0x1C4B PUSH2 0x1E10 JUMP JUMPDEST PUSH2 0x1C53 PUSH2 0x1E10 JUMP JUMPDEST PUSH1 0x0 DUP1 MLOAD PUSH1 0x20 PUSH2 0x59FA DUP4 CODECOPY DUP2 MLOAD SWAP2 MSTORE DUP1 SLOAD PUSH1 0xFF NOT AND SWAP1 SSTORE PUSH2 0x1C72 PUSH2 0x1E10 JUMP JUMPDEST PUSH2 0x1C7A PUSH2 0x1E10 JUMP JUMPDEST PUSH2 0x1C82 PUSH2 0x1E10 JUMP JUMPDEST PUSH2 0x1C8A PUSH2 0x1E10 JUMP JUMPDEST DUP2 MLOAD SWAP1 PUSH1 0x1 PUSH1 0x1 PUSH1 0x40 SHL SUB DUP3 GT PUSH2 0x702 JUMPI PUSH1 0x0 DUP1 MLOAD PUSH1 0x20 PUSH2 0x595A DUP4 CODECOPY DUP2 MLOAD SWAP2 MSTORE SWAP3 PUSH2 0x1CBE DUP4 PUSH2 0x1CB9 DUP7 SLOAD PUSH2 0x1A6F JUMP JUMPDEST PUSH2 0x43E0 JUMP JUMPDEST PUSH1 0x20 SWAP1 DUP2 PUSH1 0x1F DUP6 GT PUSH1 0x1 EQ PUSH2 0x1D6E JUMPI POP SWAP3 DUP1 DUP1 PUSH2 0x1D5E SWAP8 SWAP5 PUSH2 0x5CB SWAP11 SWAP10 SWAP8 SWAP5 PUSH2 0x1CFF SWAP8 PUSH1 0x0 SWAP5 PUSH2 0x1D63 JUMPI JUMPDEST POP POP SHL SWAP2 PUSH1 0x0 NOT SWAP1 PUSH1 0x3 SHL SHR NOT AND OR SWAP1 SSTORE PUSH2 0x44A2 JUMP JUMPDEST PUSH2 0x1D28 PUSH1 0x0 PUSH32 0xA16A46D94261C7517CC8FF89F61C0CE93598E3C849801011DEE649A6A557D100 SSTORE JUMP JUMPDEST PUSH2 0x1D51 PUSH1 0x0 PUSH32 0xA16A46D94261C7517CC8FF89F61C0CE93598E3C849801011DEE649A6A557D101 SSTORE JUMP JUMPDEST PUSH2 0x1D59 PUSH2 0x1E10 JUMP JUMPDEST PUSH2 0x4885 JUMP JUMPDEST PUSH2 0x39D1 JUMP JUMPDEST ADD MLOAD SWAP3 POP CODESIZE DUP1 PUSH2 0x1CE9 JUMP JUMPDEST PUSH1 0x0 DUP1 MLOAD PUSH1 0x20 PUSH2 0x595A DUP4 CODECOPY DUP2 MLOAD SWAP2 MSTORE PUSH1 0x0 MSTORE SWAP3 SWAP4 SWAP3 SWAP2 SWAP1 PUSH1 0x1F NOT DUP5 AND PUSH32 0x42AD5D3E1F2E6E70EDCF6D991B8A3023D3FCA8047A131592F9EDB9FD9B89D57D SWAP4 PUSH1 0x0 SWAP1 JUMPDEST DUP3 DUP3 LT PUSH2 0x1DF9 JUMPI POP POP SWAP3 PUSH2 0x1CFF SWAP6 SWAP3 DUP6 SWAP3 PUSH2 0x1D5E SWAP10 SWAP7 PUSH2 0x5CB SWAP13 SWAP12 SWAP10 SWAP7 LT PUSH2 0x1DE0 JUMPI JUMPDEST POP POP POP DUP2 SHL ADD SWAP1 SSTORE PUSH2 0x44A2 JUMP JUMPDEST ADD MLOAD PUSH1 0x0 NOT PUSH1 0xF8 DUP5 PUSH1 0x3 SHL AND SHR NOT AND SWAP1 SSTORE CODESIZE DUP1 DUP1 PUSH2 0x1DD3 JUMP JUMPDEST DUP1 DUP9 DUP7 SWAP8 DUP3 SWAP5 SWAP8 DUP8 ADD MLOAD DUP2 SSTORE ADD SWAP7 ADD SWAP5 ADD SWAP1 PUSH2 0x1DB0 JUMP JUMPDEST PUSH1 0xFF PUSH1 0x0 DUP1 MLOAD PUSH1 0x20 PUSH2 0x5A3A DUP4 CODECOPY DUP2 MLOAD SWAP2 MSTORE SLOAD PUSH1 0x40 SHR AND ISZERO PUSH2 0x1E2D JUMPI JUMP JUMPDEST PUSH1 0x40 MLOAD PUSH4 0x1AFCD79F PUSH1 0xE3 SHL DUP2 MSTORE PUSH1 0x4 SWAP1 REVERT JUMPDEST PUSH1 0x1 PUSH1 0x0 DUP1 MLOAD PUSH1 0x20 PUSH2 0x5A1A DUP4 CODECOPY DUP2 MLOAD SWAP2 MSTORE SSTORE JUMP JUMPDEST SWAP1 PUSH2 0x1E5D DUP3 PUSH2 0x1A30 JUMP JUMPDEST PUSH2 0x1E6A PUSH1 0x40 MLOAD SWAP2 DUP3 PUSH2 0x76B JUMP JUMPDEST DUP3 DUP2 MSTORE DUP1 SWAP3 PUSH2 0x1E7B PUSH1 0x1F NOT SWAP2 PUSH2 0x1A30 JUMP JUMPDEST ADD SWAP1 PUSH1 0x20 CALLDATASIZE SWAP2 ADD CALLDATACOPY JUMP JUMPDEST PUSH4 0x4E487B71 PUSH1 0xE0 SHL PUSH1 0x0 MSTORE PUSH1 0x11 PUSH1 0x4 MSTORE PUSH1 0x24 PUSH1 0x0 REVERT JUMPDEST PUSH1 0x0 NOT DUP2 EQ PUSH2 0x14DE JUMPI PUSH1 0x1 ADD SWAP1 JUMP JUMPDEST PUSH4 0x4E487B71 PUSH1 0xE0 SHL PUSH1 0x0 MSTORE PUSH1 0x32 PUSH1 0x4 MSTORE PUSH1 0x24 PUSH1 0x0 REVERT JUMPDEST SWAP2 SWAP1 DUP2 LT ISZERO PUSH2 0x1ED1 JUMPI PUSH2 0x120 MUL ADD SWAP1 JUMP JUMPDEST PUSH2 0x1EAA JUMP JUMPDEST CALLDATALOAD PUSH2 0x5FF DUP2 PUSH2 0x5A5 JUMP JUMPDEST CALLDATALOAD PUSH2 0x5FF DUP2 PUSH2 0x5AF JUMP JUMPDEST PUSH1 0x1 PUSH1 0x1 PUSH1 0x60 SHL SUB DUP2 AND SUB PUSH2 0x1E7 JUMPI JUMP JUMPDEST CALLDATALOAD PUSH2 0x5FF DUP2 PUSH2 0x1EEA JUMP JUMPDEST PUSH1 0x1 PUSH1 0x1 PUSH1 0x80 SHL SUB SWAP2 DUP3 AND SWAP1 DUP3 AND MUL SWAP1 DUP2 AND SWAP2 SWAP1 DUP3 SUB PUSH2 0x14DE JUMPI JUMP JUMPDEST DUP1 MLOAD DUP3 LT ISZERO PUSH2 0x1ED1 JUMPI PUSH1 0x20 SWAP2 PUSH1 0x5 SHL ADD ADD SWAP1 JUMP JUMPDEST PUSH1 0x1 PUSH1 0x1 PUSH1 0x80 SHL SUB SWAP2 DUP3 AND SWAP1 DUP3 AND ADD SWAP2 SWAP1 DUP3 GT PUSH2 0x14DE JUMPI JUMP JUMPDEST SWAP2 SWAP1 DUP3 SUB SWAP2 DUP3 GT PUSH2 0x14DE JUMPI JUMP JUMPDEST PUSH1 0xFF PUSH1 0x0 DUP1 MLOAD PUSH1 0x20 PUSH2 0x59FA DUP4 CODECOPY DUP2 MLOAD SWAP2 MSTORE SLOAD AND PUSH2 0x1F74 JUMPI JUMP JUMPDEST PUSH1 0x40 MLOAD PUSH4 0xD93C0665 PUSH1 0xE0 SHL DUP2 MSTORE PUSH1 0x4 SWAP1 REVERT JUMPDEST PUSH1 0x0 DUP1 MLOAD PUSH1 0x20 PUSH2 0x5A1A DUP4 CODECOPY DUP2 MLOAD SWAP2 MSTORE PUSH1 0x2 DUP2 SLOAD EQ PUSH2 0x1FA4 JUMPI PUSH1 0x2 SWAP1 SSTORE JUMP JUMPDEST PUSH1 0x40 MLOAD PUSH4 0x3EE5AEB5 PUSH1 0xE0 SHL DUP2 MSTORE PUSH1 0x4 SWAP1 REVERT JUMPDEST SWAP1 PUSH2 0x1FBF PUSH2 0x1F5B JUMP JUMPDEST PUSH2 0x1FC7 PUSH2 0x1F86 JUMP JUMPDEST PUSH2 0x1FD0 DUP2 PUSH2 0x1E53 JUMP JUMPDEST SWAP2 PUSH1 0x0 JUMPDEST DUP3 DUP2 LT PUSH2 0x1FE6 JUMPI POP POP POP PUSH2 0x5FF PUSH2 0x1E3F JUMP JUMPDEST DUP1 PUSH1 0x5 SHL DUP3 ADD CALLDATALOAD SWAP1 PUSH1 0x0 PUSH2 0x200C PUSH2 0x2007 DUP5 PUSH1 0x0 MSTORE PUSH1 0x0 PUSH1 0x20 MSTORE PUSH1 0x40 PUSH1 0x0 KECCAK256 SWAP1 JUMP JUMPDEST PUSH2 0x1519 JUMP JUMPDEST PUSH1 0x40 DUP2 DUP2 ADD DUP1 MLOAD SWAP2 SWAP6 PUSH1 0x1 PUSH1 0x1 PUSH1 0xA0 SHL SUB SWAP5 SWAP2 SWAP4 SWAP1 SWAP3 DUP6 AND CALLER EQ DUP1 PUSH2 0x22F0 JUMPI JUMPDEST ISZERO PUSH2 0x22AA JUMPI PUSH2 0x203A DUP2 PUSH2 0x497A JUMP JUMPDEST SWAP1 PUSH2 0x2044 DUP2 PUSH2 0x3F9B JUMP JUMPDEST POP DUP1 MLOAD PUSH2 0x2050 DUP2 PUSH2 0x989 JUMP JUMPDEST PUSH2 0x2059 DUP2 PUSH2 0x989 JUMP JUMPDEST PUSH2 0x216D JUMPI PUSH1 0x9B SLOAD PUSH2 0x2080 SWAP1 PUSH2 0x2074 SWAP1 PUSH1 0x1 PUSH1 0x1 PUSH1 0xA0 SHL SUB AND DUP2 JUMP JUMPDEST PUSH1 0x1 PUSH1 0x1 PUSH1 0xA0 SHL SUB AND SWAP1 JUMP JUMPDEST DUP6 MLOAD SWAP1 SWAP2 SWAP1 PUSH1 0x60 SWAP1 PUSH1 0x1 PUSH1 0x1 PUSH1 0xA0 SHL SUB AND SWAP2 ADD MLOAD PUSH1 0x20 DUP2 ADD MLOAD SWAP1 SWAP4 SWAP1 PUSH1 0x1 PUSH1 0x1 PUSH1 0xA0 SHL SUB AND SWAP4 MLOAD SWAP10 DUP4 EXTCODESIZE ISZERO PUSH2 0x2169 JUMPI SWAP1 PUSH2 0x20D0 DUP7 SWAP3 MLOAD SWAP12 DUP13 SWAP7 DUP8 SWAP6 DUP7 SWAP5 PUSH4 0x52439753 PUSH1 0xE0 SHL DUP7 MSTORE PUSH1 0x4 DUP7 ADD PUSH2 0x25E8 JUMP JUMPDEST SUB SWAP3 GAS CALL SWAP3 DUP4 ISZERO PUSH2 0x2164 JUMPI PUSH2 0x2146 SWAP6 PUSH2 0x2141 SWAP5 PUSH2 0x214B JUMPI JUMPDEST POP JUMPDEST PUSH2 0x2101 DUP3 PUSH1 0x0 MSTORE PUSH1 0x35 PUSH1 0x20 MSTORE PUSH1 0x0 NOT PUSH1 0x40 PUSH1 0x0 KECCAK256 SSTORE JUMP JUMPDEST SWAP2 MLOAD PUSH1 0x1 SWAP3 AND PUSH1 0x1 PUSH1 0x1 PUSH1 0xA0 SHL SUB AND SWAP1 PUSH32 0xAC8BB53FAC566D7AFC05D8B4DF11D7690A7B27BDC40B54E4060F9B21FB849BD PUSH1 0x0 DUP1 LOG3 JUMPDEST PUSH2 0x18EF DUP4 DUP9 PUSH2 0x1F21 JUMP JUMPDEST PUSH2 0x1E9B JUMP JUMPDEST PUSH2 0x1FD4 JUMP JUMPDEST DUP1 PUSH2 0x2158 PUSH2 0x215E SWAP3 PUSH2 0x722 JUMP JUMPDEST DUP1 PUSH2 0x1EC JUMP JUMPDEST CODESIZE PUSH2 0x20E8 JUMP JUMPDEST PUSH2 0x25DC JUMP JUMPDEST DUP6 DUP1 REVERT JUMPDEST PUSH1 0x1 DUP2 SWAP13 SWAP12 SWAP11 SWAP10 SWAP9 SWAP3 SWAP5 SWAP7 SWAP6 SWAP13 MLOAD PUSH2 0x2184 DUP2 PUSH2 0x989 JUMP JUMPDEST PUSH2 0x218D DUP2 PUSH2 0x989 JUMP JUMPDEST EQ PUSH2 0x21A9 JUMPI JUMPDEST POP POP POP POP SWAP7 PUSH2 0x2141 SWAP2 PUSH2 0x2146 SWAP5 SWAP6 SWAP7 SWAP8 SWAP9 PUSH2 0x20EA JUMP JUMPDEST PUSH1 0x60 DUP2 ADD MLOAD DUP3 ADD MLOAD SWAP4 SWAP12 SWAP5 SWAP6 SWAP4 PUSH2 0x2221 SWAP1 PUSH2 0x21EB SWAP1 PUSH1 0x1 PUSH1 0x1 PUSH1 0x60 SHL SUB AND PUSH2 0x21DB DUP8 PUSH1 0x0 MSTORE PUSH1 0x35 PUSH1 0x20 MSTORE PUSH1 0x40 PUSH1 0x0 KECCAK256 SWAP1 JUMP JUMPDEST SLOAD SWAP1 PUSH1 0x1 PUSH1 0x1 PUSH1 0x60 SHL SUB AND PUSH2 0x1F4E JUMP JUMPDEST PUSH2 0x221C PUSH2 0x441 PUSH2 0x441 PUSH1 0x80 PUSH2 0x220D PUSH2 0x2074 PUSH2 0x2074 PUSH1 0x9B SLOAD PUSH1 0x1 DUP1 PUSH1 0xA0 SHL SUB AND SWAP1 JUMP JUMPDEST SWAP7 ADD MLOAD PUSH1 0x1 PUSH1 0x1 PUSH1 0x80 SHL SUB AND SWAP1 JUMP JUMPDEST PUSH2 0x29A2 JUMP JUMPDEST DUP6 MLOAD PUSH1 0x1 PUSH1 0x1 PUSH1 0xA0 SHL SUB AND SWAP3 DUP3 EXTCODESIZE ISZERO PUSH2 0x22A6 JUMPI MLOAD PUSH4 0x160928B PUSH1 0xE3 SHL DUP2 MSTORE PUSH1 0x4 DUP2 ADD SWAP14 SWAP1 SWAP14 MSTORE PUSH1 0x24 DUP14 ADD MSTORE PUSH1 0x1 PUSH1 0x1 PUSH1 0xA0 SHL SUB SWAP2 SWAP1 SWAP2 AND PUSH1 0x44 DUP13 ADD MSTORE SWAP9 SWAP10 SWAP8 SWAP9 SWAP7 SWAP8 SWAP6 SWAP7 DUP7 SWAP1 PUSH1 0x64 SWAP1 DUP3 SWAP1 DUP5 SWAP1 GAS CALL SWAP3 DUP4 ISZERO PUSH2 0x2164 JUMPI PUSH2 0x2146 SWAP6 PUSH2 0x2141 SWAP5 PUSH2 0x2293 JUMPI JUMPDEST DUP2 SWAP4 SWAP11 SWAP10 SWAP9 SWAP8 SWAP7 DUP4 SWAP6 POP PUSH2 0x2193 JUMP JUMPDEST DUP1 PUSH2 0x2158 PUSH2 0x22A0 SWAP3 PUSH2 0x722 JUMP JUMPDEST CODESIZE PUSH2 0x2284 JUMP JUMPDEST DUP5 DUP1 REVERT JUMPDEST PUSH2 0x2141 SWAP5 POP PUSH2 0x2146 SWAP7 SWAP2 SWAP4 POP SWAP2 PUSH2 0x22E8 PUSH2 0x22DD PUSH1 0xC0 PUSH1 0x0 DUP1 MLOAD PUSH1 0x20 PUSH2 0x59BA DUP4 CODECOPY DUP2 MLOAD SWAP2 MSTORE SWAP6 ADD MLOAD PUSH1 0x1 PUSH1 0x1 PUSH1 0x40 SHL SUB AND SWAP1 JUMP JUMPDEST SWAP3 MLOAD SWAP3 DUP4 SWAP3 DUP4 PUSH2 0x25C3 JUMP JUMPDEST SUB SWAP1 LOG1 PUSH2 0x2137 JUMP JUMPDEST POP PUSH2 0x2305 DUP4 PUSH1 0x0 MSTORE PUSH1 0x35 PUSH1 0x20 MSTORE PUSH1 0x40 PUSH1 0x0 KECCAK256 SWAP1 JUMP JUMPDEST SLOAD PUSH1 0x60 DUP3 ADD MLOAD DUP9 ADD MLOAD PUSH2 0x2320 SWAP1 PUSH1 0x1 PUSH1 0x1 PUSH1 0x60 SHL SUB AND PUSH2 0x466 JUMP JUMPDEST GT PUSH2 0x202C JUMP JUMPDEST SWAP2 SWAP1 DUP2 LT ISZERO PUSH2 0x1ED1 JUMPI PUSH2 0x140 MUL ADD SWAP1 JUMP JUMPDEST SWAP1 PUSH1 0x1 DUP3 ADD DUP1 SWAP3 GT PUSH2 0x14DE JUMPI JUMP JUMPDEST SWAP2 SWAP1 DUP2 LT ISZERO PUSH2 0x1ED1 JUMPI PUSH2 0x240 MUL ADD SWAP1 JUMP JUMPDEST PUSH1 0x40 DUP1 SWAP2 DUP1 CALLDATALOAD DUP5 MSTORE PUSH1 0x20 DUP2 ADD CALLDATALOAD PUSH2 0x236C DUP2 PUSH2 0x594 JUMP JUMPDEST PUSH1 0x1 PUSH1 0x1 PUSH1 0xA0 SHL SUB AND PUSH1 0x20 DUP6 ADD MSTORE ADD CALLDATALOAD PUSH2 0x2385 DUP2 PUSH2 0x1EEA JUMP JUMPDEST PUSH1 0x1 PUSH1 0x1 PUSH1 0x60 SHL SUB AND SWAP2 ADD MSTORE JUMP JUMPDEST PUSH1 0x1 PUSH1 0x1 PUSH1 0x40 SHL SUB DUP2 AND SUB PUSH2 0x1E7 JUMPI JUMP JUMPDEST CALLDATALOAD SWAP1 PUSH2 0x5CB DUP3 PUSH2 0x2393 JUMP JUMPDEST DUP1 CALLDATALOAD PUSH2 0x23BA DUP2 PUSH2 0x5A5 JUMP JUMPDEST PUSH2 0x23C3 DUP2 PUSH2 0x989 JUMP JUMPDEST DUP3 MSTORE PUSH1 0x20 DUP2 ADD CALLDATALOAD PUSH2 0x23D3 DUP2 PUSH2 0x5A5 JUMP JUMPDEST PUSH2 0x23DC DUP2 PUSH2 0x989 JUMP JUMPDEST PUSH1 0x20 DUP4 ADD MSTORE PUSH1 0x40 DUP2 ADD CALLDATALOAD PUSH2 0x23EF DUP2 PUSH2 0x594 JUMP JUMPDEST PUSH1 0x1 PUSH1 0x1 PUSH1 0xA0 SHL SUB AND PUSH1 0x40 DUP4 ADD MSTORE PUSH2 0x240D PUSH1 0x60 DUP1 DUP5 ADD SWAP1 DUP4 ADD PUSH2 0x2356 JUMP JUMPDEST PUSH1 0xC0 DUP2 ADD CALLDATALOAD PUSH2 0x241B DUP2 PUSH2 0x5AF JUMP JUMPDEST PUSH1 0x1 PUSH1 0x1 PUSH1 0x80 SHL SUB AND PUSH1 0xC0 DUP4 ADD MSTORE PUSH1 0xE0 DUP2 ADD CALLDATALOAD PUSH2 0x2437 DUP2 PUSH2 0x2393 JUMP JUMPDEST PUSH1 0x1 PUSH1 0x1 PUSH1 0x40 SHL SUB DUP1 SWAP2 AND PUSH1 0xE0 DUP5 ADD MSTORE PUSH2 0x100 DUP1 SWAP3 ADD CALLDATALOAD PUSH2 0x2457 DUP2 PUSH2 0x2393 JUMP JUMPDEST AND SWAP2 ADD MSTORE JUMP JUMPDEST PUSH2 0x2481 PUSH2 0x240 SWAP3 SWAP6 SWAP5 SWAP4 PUSH2 0x2476 DUP4 PUSH2 0x260 DUP2 ADD SWAP9 PUSH2 0x23AF JUMP JUMPDEST PUSH2 0x120 DUP4 ADD SWAP1 PUSH2 0x23AF JUMP JUMPDEST ADD MSTORE JUMP JUMPDEST RETURNDATASIZE ISZERO PUSH2 0x24B0 JUMPI RETURNDATASIZE SWAP1 PUSH2 0x2496 DUP3 PUSH2 0x7B8 JUMP JUMPDEST SWAP2 PUSH2 0x24A4 PUSH1 0x40 MLOAD SWAP4 DUP5 PUSH2 0x76B JUMP JUMPDEST DUP3 MSTORE RETURNDATASIZE PUSH1 0x0 PUSH1 0x20 DUP5 ADD RETURNDATACOPY JUMP JUMPDEST PUSH1 0x60 SWAP1 JUMP JUMPDEST PUSH1 0x40 SWAP1 PUSH2 0x5FF SWAP4 SWAP3 DUP2 MSTORE DUP2 PUSH1 0x20 DUP3 ADD MSTORE ADD SWAP1 PUSH2 0xF56 JUMP JUMPDEST CALLDATALOAD PUSH2 0x5FF DUP2 PUSH2 0x594 JUMP JUMPDEST SWAP1 DUP2 PUSH1 0x20 SWAP2 SUB SLT PUSH2 0x1E7 JUMPI MLOAD PUSH2 0x5FF DUP2 PUSH2 0x5AF JUMP JUMPDEST CALLDATALOAD PUSH2 0x5FF DUP2 PUSH2 0x2393 JUMP JUMPDEST DUP1 SWAP3 SWAP2 SUB SWAP2 PUSH2 0x120 DUP4 SLT PUSH2 0x1E7 JUMPI PUSH1 0x40 MLOAD SWAP1 PUSH2 0x2510 DUP3 PUSH2 0x707 JUMP JUMPDEST PUSH1 0x60 DUP3 SWAP5 DUP3 CALLDATALOAD PUSH2 0x251F DUP2 PUSH2 0x5A5 JUMP JUMPDEST DUP5 MSTORE PUSH1 0x20 DUP4 ADD CALLDATALOAD PUSH2 0x252F DUP2 PUSH2 0x5A5 JUMP JUMPDEST PUSH1 0x20 DUP6 ADD MSTORE PUSH1 0x40 DUP4 ADD CALLDATALOAD PUSH2 0x2542 DUP2 PUSH2 0x594 JUMP JUMPDEST PUSH1 0x40 DUP6 ADD MSTORE PUSH1 0x5F NOT ADD SLT PUSH2 0x1E7 JUMPI PUSH2 0x25BE PUSH2 0x100 PUSH1 0xC0 SWAP3 PUSH1 0x40 MLOAD PUSH2 0x2565 DUP2 PUSH2 0x6E7 JUMP JUMPDEST PUSH1 0x60 DUP3 ADD CALLDATALOAD DUP2 MSTORE PUSH1 0x80 DUP3 ADD CALLDATALOAD PUSH2 0x257A DUP2 PUSH2 0x594 JUMP JUMPDEST PUSH1 0x20 DUP3 ADD MSTORE PUSH1 0xA0 DUP3 ADD CALLDATALOAD PUSH2 0x258D DUP2 PUSH2 0x1EEA JUMP JUMPDEST PUSH1 0x40 DUP3 ADD MSTORE PUSH1 0x60 DUP7 ADD MSTORE PUSH2 0x25A2 DUP5 DUP3 ADD PUSH2 0x5C0 JUMP JUMPDEST PUSH1 0x80 DUP7 ADD MSTORE PUSH2 0x25B3 PUSH1 0xE0 DUP3 ADD PUSH2 0x23A4 JUMP JUMPDEST PUSH1 0xA0 DUP7 ADD MSTORE ADD PUSH2 0x23A4 JUMP JUMPDEST SWAP2 ADD MSTORE JUMP JUMPDEST SWAP1 DUP2 MSTORE PUSH1 0x1 PUSH1 0x1 PUSH1 0x40 SHL SUB SWAP1 SWAP2 AND PUSH1 0x20 DUP3 ADD MSTORE PUSH1 0x40 ADD SWAP1 JUMP JUMPDEST PUSH1 0x40 MLOAD RETURNDATASIZE PUSH1 0x0 DUP3 RETURNDATACOPY RETURNDATASIZE SWAP1 REVERT JUMPDEST SWAP1 DUP2 MSTORE PUSH1 0x1 PUSH1 0x1 PUSH1 0xA0 SHL SUB SWAP2 DUP3 AND PUSH1 0x20 DUP3 ADD MSTORE SWAP2 AND PUSH1 0x40 DUP3 ADD MSTORE PUSH1 0x60 DUP2 ADD SWAP2 SWAP1 SWAP2 MSTORE PUSH1 0x80 ADD SWAP1 JUMP JUMPDEST SWAP4 SWAP2 SWAP3 PUSH2 0x262E PUSH1 0xC0 SWAP5 SWAP8 SWAP7 SWAP3 SWAP8 PUSH1 0xE0 DUP8 ADD SWAP9 DUP8 MSTORE PUSH1 0x20 DUP8 ADD SWAP1 PUSH2 0x2356 JUMP JUMPDEST PUSH1 0x1 PUSH1 0x1 PUSH1 0x80 SHL SUB AND PUSH1 0x80 DUP6 ADD MSTORE PUSH1 0x1 PUSH1 0x1 PUSH1 0x40 SHL SUB SWAP2 DUP3 AND PUSH1 0xA0 DUP6 ADD MSTORE AND SWAP2 ADD MSTORE JUMP JUMPDEST SWAP1 SWAP2 SWAP1 PUSH1 0x40 DUP2 ADD PUSH1 0x0 DUP1 PUSH2 0x2665 DUP4 PUSH2 0x24CC JUMP JUMPDEST PUSH1 0x1 PUSH1 0x1 PUSH1 0xA0 SHL SUB SWAP3 SWAP1 DUP4 AND CALLER EQ DUP1 PUSH2 0x2978 JUMPI JUMPDEST DUP1 PUSH2 0x295A JUMPI JUMPDEST DUP1 PUSH2 0x291C JUMPI JUMPDEST DUP1 PUSH2 0x28F4 JUMPI JUMPDEST ISZERO PUSH2 0x28B0 JUMPI POP PUSH2 0x26A3 PUSH2 0x269E CALLDATASIZE DUP7 PUSH2 0x24F5 JUMP JUMPDEST PUSH2 0x497A JUMP JUMPDEST SWAP6 PUSH2 0x26AD DUP6 PUSH2 0x1ED6 JUMP JUMPDEST PUSH2 0x26B6 DUP2 PUSH2 0x989 JUMP JUMPDEST PUSH2 0x27F6 JUMPI POP PUSH1 0x1 PUSH1 0x1 PUSH1 0x1 PUSH1 0x60 SHL SUB PUSH2 0x26D1 PUSH1 0xA0 DUP8 ADD PUSH2 0x1EFB JUMP JUMPDEST AND SUB PUSH2 0x27EF JUMPI PUSH1 0x9B SLOAD PUSH2 0x26EE SWAP1 PUSH2 0x2074 SWAP1 PUSH1 0x1 PUSH1 0x1 PUSH1 0xA0 SHL SUB AND DUP2 JUMP JUMPDEST SWAP1 PUSH2 0x26F8 DUP5 PUSH2 0x24CC JUMP JUMPDEST PUSH2 0x2704 PUSH1 0x80 DUP8 ADD PUSH2 0x24CC JUMP JUMPDEST SWAP3 DUP1 EXTCODESIZE ISZERO PUSH2 0x27EB JUMPI PUSH1 0x60 DUP4 DUP9 PUSH2 0x2734 DUP13 PUSH1 0x40 MLOAD SWAP9 DUP10 SWAP8 DUP9 SWAP7 DUP8 SWAP6 PUSH4 0x5F91A0F PUSH1 0xE4 SHL DUP8 MSTORE ADD CALLDATALOAD SWAP3 PUSH1 0x4 DUP7 ADD PUSH2 0x25E8 JUMP JUMPDEST SUB SWAP3 GAS CALL DUP1 ISZERO PUSH2 0x2164 JUMPI PUSH2 0x27D8 JUMPI JUMPDEST POP JUMPDEST PUSH2 0x2757 PUSH2 0x2752 CALLDATASIZE DUP6 PUSH2 0x24F5 JUMP JUMPDEST PUSH2 0x3D49 JUMP JUMPDEST POP PUSH1 0x0 DUP1 MLOAD PUSH1 0x20 PUSH2 0x593A DUP4 CODECOPY DUP2 MLOAD SWAP2 MSTORE PUSH2 0x2770 DUP5 PUSH2 0x1ED6 JUMP JUMPDEST SWAP2 PUSH2 0x2786 PUSH2 0x2780 PUSH1 0x20 DUP8 ADD PUSH2 0x1ED6 JUMP JUMPDEST SWAP5 PUSH2 0x24CC JUMP JUMPDEST PUSH2 0x27D3 PUSH2 0x2795 PUSH1 0xC0 DUP9 ADD PUSH2 0x1EE0 JUMP JUMPDEST PUSH2 0x27A1 PUSH1 0xE0 DUP10 ADD PUSH2 0x24EB JUMP JUMPDEST PUSH2 0x27AE PUSH2 0x100 DUP11 ADD PUSH2 0x24EB JUMP JUMPDEST SWAP2 PUSH2 0x27B8 DUP9 PUSH2 0x989 JUMP JUMPDEST PUSH2 0x27C1 DUP10 PUSH2 0x989 JUMP JUMPDEST PUSH1 0x60 PUSH1 0x40 MLOAD SWAP7 DUP8 SWAP7 AND SWAP11 ADD DUP13 DUP7 PUSH2 0x2610 JUMP JUMPDEST SUB SWAP1 LOG4 JUMP JUMPDEST DUP1 PUSH2 0x2158 PUSH2 0x27E5 SWAP3 PUSH2 0x722 JUMP JUMPDEST CODESIZE PUSH2 0x2743 JUMP JUMPDEST DUP3 DUP1 REVERT JUMPDEST SWAP5 POP POP POP POP JUMP JUMPDEST SWAP1 PUSH1 0x1 PUSH2 0x2802 DUP7 PUSH2 0x1ED6 JUMP JUMPDEST PUSH2 0x280B DUP2 PUSH2 0x989 JUMP JUMPDEST EQ PUSH2 0x2818 JUMPI JUMPDEST POP POP PUSH2 0x2745 JUMP JUMPDEST PUSH1 0x1 PUSH1 0x1 PUSH1 0x60 SHL SUB PUSH2 0x282C PUSH1 0xA0 DUP8 ADD PUSH2 0x1EFB JUMP JUMPDEST AND ISZERO PUSH2 0x28A8 JUMPI PUSH1 0x9B SLOAD PUSH2 0x2849 SWAP1 PUSH2 0x2074 SWAP1 PUSH1 0x1 PUSH1 0x1 PUSH1 0xA0 SHL SUB AND DUP2 JUMP JUMPDEST DUP1 EXTCODESIZE ISZERO PUSH2 0x28A4 JUMPI PUSH1 0x40 MLOAD PUSH4 0x73D1CA7D PUSH1 0xE1 SHL DUP2 MSTORE PUSH1 0x4 DUP2 ADD DUP10 SWAP1 MSTORE PUSH1 0x1 PUSH1 0x1 PUSH1 0x80 SHL SUB SWAP4 SWAP1 SWAP4 AND PUSH1 0x24 DUP5 ADD DUP2 SWAP1 MSTORE DUP4 SWAP2 PUSH1 0x44 SWAP2 DUP4 SWAP2 GAS CALL DUP1 ISZERO PUSH2 0x2164 JUMPI PUSH2 0x2891 JUMPI JUMPDEST DUP1 PUSH2 0x2811 JUMP JUMPDEST DUP1 PUSH2 0x2158 PUSH2 0x289E SWAP3 PUSH2 0x722 JUMP JUMPDEST CODESIZE PUSH2 0x288B JUMP JUMPDEST POP DUP1 REVERT JUMPDEST SWAP6 POP POP POP POP POP JUMP JUMPDEST SWAP6 POP POP POP POP PUSH1 0x0 DUP1 MLOAD PUSH1 0x20 PUSH2 0x59BA DUP4 CODECOPY DUP2 MLOAD SWAP2 MSTORE SWAP1 PUSH2 0x28DF PUSH2 0x100 PUSH2 0x28D8 PUSH2 0x269E CALLDATASIZE DUP6 PUSH2 0x24F5 JUMP JUMPDEST SWAP3 ADD PUSH2 0x24EB JUMP JUMPDEST SWAP1 PUSH2 0x28EF PUSH1 0x40 MLOAD SWAP3 DUP4 SWAP3 DUP4 PUSH2 0x25C3 JUMP JUMPDEST SUB SWAP1 LOG1 JUMP JUMPDEST POP PUSH2 0x2915 PUSH2 0x2905 PUSH2 0x269E CALLDATASIZE DUP9 PUSH2 0x24F5 JUMP JUMPDEST PUSH1 0x0 MSTORE PUSH1 0x35 PUSH1 0x20 MSTORE PUSH1 0x40 PUSH1 0x0 KECCAK256 SWAP1 JUMP JUMPDEST SLOAD ISZERO PUSH2 0x268B JUMP JUMPDEST POP PUSH1 0xE0 DUP6 ADD PUSH2 0x292A DUP2 PUSH2 0x24EB JUMP JUMPDEST TIMESTAMP PUSH1 0x1 PUSH1 0x1 PUSH1 0x40 SHL SUB SWAP2 DUP3 AND GT SWAP2 DUP3 ISZERO PUSH2 0x2946 JUMPI JUMPDEST POP POP PUSH2 0x2685 JUMP JUMPDEST PUSH2 0x2951 SWAP2 SWAP3 POP PUSH2 0x24EB JUMP JUMPDEST AND ISZERO CODESIZE DUP1 PUSH2 0x293F JUMP JUMPDEST POP PUSH1 0x1 PUSH1 0x1 PUSH1 0x40 SHL SUB PUSH2 0x2970 PUSH2 0x100 DUP8 ADD PUSH2 0x24EB JUMP JUMPDEST AND ISZERO ISZERO PUSH2 0x267F JUMP JUMPDEST POP PUSH1 0x1 PUSH1 0x1 PUSH1 0x80 SHL SUB PUSH2 0x2990 PUSH2 0x441 PUSH1 0xC0 DUP9 ADD PUSH2 0x1EE0 JUMP JUMPDEST AND ISZERO ISZERO PUSH2 0x2679 JUMP JUMPDEST MLOAD PUSH2 0x5FF DUP2 PUSH2 0x989 JUMP JUMPDEST DUP2 DUP2 MUL SWAP3 SWAP2 DUP2 ISZERO SWAP2 DUP5 DIV EQ OR ISZERO PUSH2 0x14DE JUMPI JUMP JUMPDEST SWAP4 SWAP1 SWAP6 SWAP5 SWAP2 SWAP3 PUSH1 0x80 SWAP4 PUSH1 0xA0 DUP7 ADD SWAP8 DUP7 MSTORE PUSH1 0x20 DUP7 ADD MSTORE PUSH1 0x40 DUP6 ADD MSTORE PUSH1 0x60 DUP5 ADD MSTORE PUSH1 0x1 DUP1 PUSH1 0xA0 SHL SUB AND SWAP2 ADD MSTORE JUMP JUMPDEST SWAP2 PUSH1 0x0 SWAP2 PUSH1 0x0 SWAP4 PUSH2 0x29FF PUSH2 0x2007 DUP3 PUSH1 0x0 MSTORE PUSH1 0x0 PUSH1 0x20 MSTORE PUSH1 0x40 PUSH1 0x0 KECCAK256 SWAP1 JUMP JUMPDEST SWAP5 PUSH1 0x20 DUP7 ADD MLOAD SWAP1 PUSH2 0x2A0F DUP3 PUSH2 0x989 JUMP JUMPDEST PUSH1 0x20 DUP5 ADD SWAP2 PUSH2 0x2A1D DUP4 PUSH2 0x1ED6 JUMP JUMPDEST SWAP1 PUSH2 0x2A27 DUP3 PUSH2 0x989 JUMP JUMPDEST PUSH2 0x2A30 DUP2 PUSH2 0x989 JUMP JUMPDEST EQ DUP1 ISZERO SWAP1 PUSH2 0x2F6E JUMPI JUMPDEST DUP1 ISZERO PUSH2 0x2F3E JUMPI JUMPDEST DUP1 ISZERO PUSH2 0x2F0A JUMPI JUMPDEST DUP1 ISZERO PUSH2 0x2EF7 JUMPI JUMPDEST DUP1 ISZERO PUSH2 0x2EBF JUMPI JUMPDEST PUSH2 0x2E84 JUMPI PUSH1 0x40 DUP1 DUP6 ADD SWAP4 PUSH2 0x2A68 DUP6 PUSH2 0x24CC JUMP JUMPDEST PUSH1 0x1 PUSH1 0x1 PUSH1 0xA0 SHL SUB SWAP4 SWAP1 DUP5 AND CALLER EQ DUP1 ISZERO SWAP1 PUSH2 0x2E67 JUMPI JUMPDEST DUP1 ISZERO PUSH2 0x2E29 JUMPI JUMPDEST DUP1 ISZERO PUSH2 0x2E10 JUMPI JUMPDEST PUSH2 0x2DDF JUMPI PUSH2 0x2AA4 DUP3 PUSH1 0x0 MSTORE PUSH1 0x35 PUSH1 0x20 MSTORE PUSH1 0x40 PUSH1 0x0 KECCAK256 SWAP1 JUMP JUMPDEST SLOAD SWAP10 PUSH2 0x2AAF DUP2 PUSH2 0x3F9B JUMP JUMPDEST POP PUSH2 0x2AC7 DUP4 PUSH1 0x0 MSTORE PUSH1 0x35 PUSH1 0x20 MSTORE PUSH1 0x0 NOT PUSH1 0x40 PUSH1 0x0 KECCAK256 SSTORE JUMP JUMPDEST DUP4 DUP2 ADD DUP1 MLOAD SWAP1 SWAP2 SWAP1 DUP7 AND PUSH1 0x1 PUSH1 0x1 PUSH1 0xA0 SHL SUB AND DUP5 PUSH32 0xAC8BB53FAC566D7AFC05D8B4DF11D7690A7B27BDC40B54E4060F9B21FB849BD DUP6 DUP1 LOG3 PUSH2 0x2B0C PUSH2 0x2752 CALLDATASIZE DUP12 PUSH2 0x24F5 JUMP JUMPDEST SWAP12 DUP2 MLOAD PUSH2 0x2B18 DUP2 PUSH2 0x989 JUMP JUMPDEST PUSH2 0x2B21 DUP2 PUSH2 0x989 JUMP JUMPDEST PUSH2 0x2C0D JUMPI POP POP PUSH1 0x9B SLOAD SWAP2 SWAP3 SWAP2 PUSH2 0x2B42 SWAP2 POP PUSH2 0x2074 SWAP1 PUSH1 0x1 PUSH1 0x1 PUSH1 0xA0 SHL SUB AND DUP2 JUMP JUMPDEST SWAP1 DUP2 EXTCODESIZE ISZERO PUSH2 0x27EB JUMPI DUP4 MLOAD PUSH4 0x650F14C5 PUSH1 0xE1 SHL DUP2 MSTORE PUSH1 0x4 DUP2 ADD SWAP2 SWAP1 SWAP2 MSTORE PUSH1 0x24 DUP2 ADD DUP12 SWAP1 MSTORE SWAP4 SWAP3 SWAP2 SWAP1 DUP5 SWAP1 PUSH1 0x44 SWAP1 DUP3 SWAP1 DUP5 SWAP1 GAS CALL SWAP3 DUP4 ISZERO PUSH2 0x2164 JUMPI PUSH1 0x0 DUP1 MLOAD PUSH1 0x20 PUSH2 0x593A DUP4 CODECOPY DUP2 MLOAD SWAP2 MSTORE SWAP4 PUSH2 0x2BFA JUMPI JUMPDEST POP JUMPDEST PUSH2 0x27D3 PUSH2 0x2BB0 PUSH2 0x2BAA PUSH2 0x2BA4 DUP10 PUSH2 0x1ED6 JUMP JUMPDEST SWAP7 PUSH2 0x1ED6 JUMP JUMPDEST SWAP7 PUSH2 0x24CC JUMP JUMPDEST SWAP2 PUSH2 0x2BBD PUSH1 0xC0 DUP10 ADD PUSH2 0x1EE0 JUMP JUMPDEST PUSH2 0x2BC9 PUSH1 0xE0 DUP11 ADD PUSH2 0x24EB JUMP JUMPDEST SWAP1 PUSH1 0x60 PUSH2 0x2BD9 PUSH2 0x100 DUP13 ADD PUSH2 0x24EB JUMP JUMPDEST SWAP4 PUSH2 0x2BE3 DUP11 PUSH2 0x989 JUMP JUMPDEST PUSH2 0x2BEC DUP12 PUSH2 0x989 JUMP JUMPDEST MLOAD SWAP7 DUP8 SWAP7 AND SWAP11 ADD DUP14 DUP7 PUSH2 0x2610 JUMP JUMPDEST DUP1 PUSH2 0x2158 PUSH2 0x2C07 SWAP3 PUSH2 0x722 JUMP JUMPDEST CODESIZE PUSH2 0x2B90 JUMP JUMPDEST PUSH1 0x1 DUP3 MLOAD PUSH2 0x2C1A DUP2 PUSH2 0x989 JUMP JUMPDEST PUSH2 0x2C23 DUP2 PUSH2 0x989 JUMP JUMPDEST EQ PUSH2 0x2C44 JUMPI JUMPDEST POP POP POP POP POP SWAP1 PUSH1 0x0 DUP1 MLOAD PUSH1 0x20 PUSH2 0x593A DUP4 CODECOPY DUP2 MLOAD SWAP2 MSTORE SWAP2 PUSH2 0x2B92 JUMP JUMPDEST SWAP1 PUSH2 0x2C85 PUSH2 0x2C94 SWAP3 PUSH2 0x2C80 PUSH2 0x466 DUP10 SWAP9 SWAP16 SWAP11 SWAP10 PUSH1 0x60 PUSH2 0x2C6F PUSH2 0x441 PUSH1 0x80 DUP10 ADD MLOAD PUSH1 0x1 DUP1 PUSH1 0x80 SHL SUB AND SWAP1 JUMP JUMPDEST SWAP7 ADD MLOAD ADD MLOAD PUSH1 0x1 PUSH1 0x1 PUSH1 0x60 SHL SUB AND SWAP1 JUMP JUMPDEST PUSH2 0x1F4E JUMP JUMPDEST SWAP1 PUSH1 0x1 PUSH1 0x1 PUSH1 0x80 SHL SUB AND PUSH2 0x29A2 JUMP JUMPDEST SWAP1 PUSH2 0x2CBA PUSH2 0x441 DUP11 PUSH2 0x472 PUSH2 0x466 PUSH1 0xA0 PUSH2 0x2CB3 PUSH2 0x441 PUSH1 0xC0 DUP7 ADD PUSH2 0x1EE0 JUMP JUMPDEST SWAP4 ADD PUSH2 0x1EFB JUMP JUMPDEST SWAP6 DUP3 DUP8 GT ISZERO PUSH2 0x2D61 JUMPI POP PUSH2 0x2CCE DUP3 DUP8 PUSH2 0x1F4E JUMP JUMPDEST SWAP11 PUSH2 0x2CF7 PUSH2 0x2CE9 PUSH2 0x2074 PUSH2 0x2074 PUSH1 0x9B SLOAD PUSH1 0x1 DUP1 PUSH1 0xA0 SHL SUB AND SWAP1 JUMP JUMPDEST SWAP3 MLOAD PUSH1 0x1 PUSH1 0x1 PUSH1 0xA0 SHL SUB AND SWAP1 JUMP JUMPDEST DUP3 EXTCODESIZE ISZERO PUSH2 0x22A6 JUMPI DUP14 SWAP2 PUSH2 0x2D21 DUP15 SWAP3 DUP9 MLOAD SWAP11 DUP12 SWAP8 DUP9 SWAP7 DUP8 SWAP6 PUSH4 0x5F852CF PUSH1 0xE5 SHL DUP8 MSTORE PUSH1 0x4 DUP8 ADD PUSH2 0x29B5 JUMP JUMPDEST SUB SWAP3 GAS CALL SWAP3 DUP4 ISZERO PUSH2 0x2164 JUMPI PUSH1 0x0 DUP1 MLOAD PUSH1 0x20 PUSH2 0x593A DUP4 CODECOPY DUP2 MLOAD SWAP2 MSTORE SWAP4 PUSH2 0x2D4E JUMPI JUMPDEST POP JUMPDEST SWAP1 SWAP2 CODESIZE DUP1 DUP1 DUP1 PUSH2 0x2C29 JUMP JUMPDEST DUP1 PUSH2 0x2158 PUSH2 0x2D5B SWAP3 PUSH2 0x722 JUMP JUMPDEST CODESIZE PUSH2 0x2D41 JUMP JUMPDEST SWAP11 PUSH2 0x2D7C PUSH2 0x2CE9 PUSH2 0x2074 PUSH2 0x2074 PUSH1 0x9B SLOAD PUSH1 0x1 DUP1 PUSH1 0xA0 SHL SUB AND SWAP1 JUMP JUMPDEST DUP3 EXTCODESIZE ISZERO PUSH2 0x22A6 JUMPI DUP14 SWAP2 PUSH2 0x2DA6 DUP7 SWAP3 DUP9 MLOAD SWAP11 DUP12 SWAP8 DUP9 SWAP7 DUP8 SWAP6 PUSH4 0x5F852CF PUSH1 0xE5 SHL DUP8 MSTORE PUSH1 0x4 DUP8 ADD PUSH2 0x29B5 JUMP JUMPDEST SUB SWAP3 GAS CALL SWAP3 DUP4 ISZERO PUSH2 0x2164 JUMPI PUSH1 0x0 DUP1 MLOAD PUSH1 0x20 PUSH2 0x593A DUP4 CODECOPY DUP2 MLOAD SWAP2 MSTORE SWAP4 PUSH2 0x2DCC JUMPI JUMPDEST POP PUSH2 0x2D43 JUMP JUMPDEST DUP1 PUSH2 0x2158 PUSH2 0x2DD9 SWAP3 PUSH2 0x722 JUMP JUMPDEST CODESIZE PUSH2 0x2DC6 JUMP JUMPDEST SWAP9 POP SWAP4 POP SWAP4 PUSH1 0x0 DUP1 MLOAD PUSH1 0x20 PUSH2 0x59BA DUP4 CODECOPY DUP2 MLOAD SWAP2 MSTORE SWAP6 SWAP7 POP PUSH2 0x2E09 SWAP3 POP PUSH2 0x22DD SWAP2 POP PUSH2 0x100 ADD PUSH2 0x24EB JUMP JUMPDEST SUB SWAP1 LOG1 DUP2 SWAP1 JUMP JUMPDEST POP PUSH2 0x2E21 PUSH2 0x2905 PUSH2 0x269E CALLDATASIZE DUP11 PUSH2 0x24F5 JUMP JUMPDEST SLOAD ISZERO ISZERO PUSH2 0x2A8C JUMP JUMPDEST POP PUSH1 0xE0 DUP8 ADD PUSH2 0x2E37 DUP2 PUSH2 0x24EB JUMP JUMPDEST TIMESTAMP PUSH1 0x1 PUSH1 0x1 PUSH1 0x40 SHL SUB SWAP2 DUP3 AND LT SWAP2 DUP3 PUSH2 0x2E52 JUMPI JUMPDEST POP POP PUSH2 0x2A85 JUMP JUMPDEST PUSH2 0x2E5D SWAP2 SWAP3 POP PUSH2 0x24EB JUMP JUMPDEST AND ISZERO ISZERO CODESIZE DUP1 PUSH2 0x2E4B JUMP JUMPDEST POP PUSH1 0x1 PUSH1 0x1 PUSH1 0x40 SHL SUB PUSH2 0x2E7D PUSH2 0x100 DUP10 ADD PUSH2 0x24EB JUMP JUMPDEST AND ISZERO PUSH2 0x2A7E JUMP JUMPDEST SWAP6 PUSH1 0x0 DUP1 MLOAD PUSH1 0x20 PUSH2 0x59BA DUP4 CODECOPY DUP2 MLOAD SWAP2 MSTORE SWAP5 SWAP6 POP PUSH2 0x2EAF SWAP3 SWAP4 POP PUSH1 0xC0 SWAP2 POP ADD MLOAD PUSH1 0x1 PUSH1 0x1 PUSH1 0x40 SHL SUB AND SWAP1 JUMP JUMPDEST SWAP1 PUSH2 0x2E09 PUSH1 0x40 MLOAD SWAP3 DUP4 SWAP3 DUP4 PUSH2 0x25C3 JUMP JUMPDEST POP PUSH2 0x2ED4 DUP4 PUSH1 0x0 MSTORE PUSH1 0x35 PUSH1 0x20 MSTORE PUSH1 0x40 PUSH1 0x0 KECCAK256 SWAP1 JUMP JUMPDEST SLOAD PUSH1 0x60 DUP9 ADD MLOAD PUSH1 0x40 ADD MLOAD PUSH2 0x2EF0 SWAP1 PUSH1 0x1 PUSH1 0x1 PUSH1 0x60 SHL SUB AND PUSH2 0x466 JUMP JUMPDEST GT ISZERO PUSH2 0x2A55 JUMP JUMPDEST POP PUSH1 0x60 DUP8 ADD MLOAD MLOAD PUSH1 0x60 DUP6 ADD CALLDATALOAD EQ ISZERO PUSH2 0x2A4E JUMP JUMPDEST POP PUSH1 0x60 DUP8 ADD MLOAD PUSH1 0x20 ADD MLOAD PUSH1 0x1 PUSH1 0x1 PUSH1 0xA0 SHL SUB AND PUSH2 0x2F2C PUSH2 0x2074 PUSH1 0x80 DUP8 ADD PUSH2 0x24CC JUMP JUMPDEST PUSH1 0x1 PUSH1 0x1 PUSH1 0xA0 SHL SUB SWAP1 SWAP2 AND EQ ISZERO PUSH2 0x2A47 JUMP JUMPDEST POP PUSH1 0x40 DUP8 ADD MLOAD PUSH1 0x1 PUSH1 0x1 PUSH1 0xA0 SHL SUB AND PUSH2 0x2F5C PUSH2 0x2074 PUSH1 0x40 DUP8 ADD PUSH2 0x24CC JUMP JUMPDEST PUSH1 0x1 PUSH1 0x1 PUSH1 0xA0 SHL SUB SWAP1 SWAP2 AND EQ ISZERO PUSH2 0x2A40 JUMP JUMPDEST POP DUP7 MLOAD PUSH2 0x2F7A DUP2 PUSH2 0x989 JUMP JUMPDEST PUSH2 0x2F83 DUP6 PUSH2 0x1ED6 JUMP JUMPDEST SWAP1 PUSH2 0x2F8D DUP3 PUSH2 0x989 JUMP JUMPDEST PUSH2 0x2F96 DUP2 PUSH2 0x989 JUMP JUMPDEST EQ ISZERO PUSH2 0x2A39 JUMP JUMPDEST ISZERO PUSH2 0x2FA4 JUMPI JUMP JUMPDEST PUSH1 0x40 MLOAD PUSH3 0x461BCD PUSH1 0xE5 SHL DUP2 MSTORE PUSH1 0x20 PUSH1 0x4 DUP3 ADD MSTORE PUSH1 0x1A PUSH1 0x24 DUP3 ADD MSTORE PUSH26 0x48443A20627579207072696365203C2066696C6C207072696365 PUSH1 0x30 SHL PUSH1 0x44 DUP3 ADD MSTORE PUSH1 0x64 SWAP1 REVERT JUMPDEST SWAP1 DUP2 MSTORE PUSH1 0x1 PUSH1 0x1 PUSH1 0x80 SHL SUB SWAP1 SWAP2 AND PUSH1 0x20 DUP3 ADD MSTORE PUSH1 0x1 PUSH1 0x1 PUSH1 0xA0 SHL SUB SWAP1 SWAP2 AND PUSH1 0x40 DUP3 ADD MSTORE PUSH1 0x60 ADD SWAP1 JUMP JUMPDEST ISZERO PUSH2 0x3016 JUMPI JUMP JUMPDEST PUSH1 0x40 MLOAD PUSH3 0x461BCD PUSH1 0xE5 SHL DUP2 MSTORE PUSH1 0x20 PUSH1 0x4 DUP3 ADD MSTORE PUSH1 0x16 PUSH1 0x24 DUP3 ADD MSTORE PUSH22 0x48443A2076616C7565203C2066696C6C207072696365 PUSH1 0x50 SHL PUSH1 0x44 DUP3 ADD MSTORE PUSH1 0x64 SWAP1 REVERT JUMPDEST SWAP2 SWAP3 PUSH2 0x3079 PUSH2 0x240 SWAP3 SWAP6 SWAP5 PUSH2 0x306E DUP6 PUSH2 0x260 DUP2 ADD SWAP9 PUSH2 0x23AF JUMP JUMPDEST PUSH2 0x120 DUP6 ADD SWAP1 PUSH2 0x23AF JUMP JUMPDEST PUSH1 0x1 PUSH1 0x1 PUSH1 0x80 SHL SUB AND SWAP2 ADD MSTORE JUMP JUMPDEST PUSH1 0x1 PUSH1 0x1 PUSH1 0x80 SHL SUB SWAP2 DUP3 AND SWAP1 DUP3 AND SUB SWAP2 SWAP1 DUP3 GT PUSH2 0x14DE JUMPI JUMP JUMPDEST ISZERO PUSH2 0x30A7 JUMPI JUMP JUMPDEST PUSH1 0x40 MLOAD PUSH3 0x461BCD PUSH1 0xE5 SHL DUP2 MSTORE PUSH1 0x20 PUSH1 0x4 DUP3 ADD MSTORE PUSH1 0xD PUSH1 0x24 DUP3 ADD MSTORE PUSH13 0x48443A2076616C7565203E203 PUSH1 0x9C SHL PUSH1 0x44 DUP3 ADD MSTORE PUSH1 0x64 SWAP1 REVERT JUMPDEST PUSH1 0x1 PUSH1 0x1 PUSH1 0xA0 SHL SUB SWAP2 DUP3 AND DUP2 MSTORE SWAP2 AND PUSH1 0x20 DUP3 ADD MSTORE PUSH1 0xA0 DUP2 ADD SWAP3 SWAP2 PUSH2 0x5CB SWAP2 PUSH1 0x40 ADD SWAP1 PUSH2 0x2356 JUMP JUMPDEST SWAP3 SWAP2 SWAP1 PUSH1 0x0 SWAP4 PUSH1 0x0 SWAP2 PUSH2 0x3119 PUSH2 0x269E CALLDATASIZE DUP5 PUSH2 0x24F5 JUMP JUMPDEST SWAP2 PUSH2 0x3127 PUSH2 0x269E CALLDATASIZE DUP5 PUSH2 0x24F5 JUMP JUMPDEST SWAP5 PUSH2 0x3147 DUP7 DUP6 PUSH2 0x3137 CALLDATASIZE DUP7 PUSH2 0x24F5 JUMP JUMPDEST PUSH2 0x3141 CALLDATASIZE DUP9 PUSH2 0x24F5 JUMP JUMPDEST SWAP1 PUSH2 0x3830 JUMP JUMPDEST PUSH1 0x40 SWAP6 DUP7 DUP4 ADD SWAP2 PUSH2 0x315A PUSH2 0x2074 DUP5 PUSH2 0x24CC JUMP JUMPDEST CALLER SUB PUSH2 0x33D4 JUMPI PUSH2 0x316A SWAP1 ISZERO PUSH2 0x30A0 JUMP JUMPDEST PUSH1 0x0 DUP6 DUP2 MSTORE PUSH1 0x20 DUP2 SWAP1 MSTORE PUSH1 0x40 SWAP1 KECCAK256 PUSH1 0x1 PUSH1 0x1 PUSH1 0xA0 SHL SUB SWAP1 PUSH2 0x3196 SWAP1 JUMPDEST SLOAD PUSH1 0x10 SHR PUSH1 0x1 PUSH1 0x1 PUSH1 0xA0 SHL SUB AND SWAP1 JUMP JUMPDEST AND ISZERO ISZERO DUP1 SWAP2 PUSH2 0x31AE DUP3 PUSH2 0x31A9 CALLDATASIZE DUP9 PUSH2 0x24F5 JUMP JUMPDEST PUSH2 0x47D1 JUMP JUMPDEST PUSH2 0x31CD PUSH2 0x31C8 PUSH2 0x2007 DUP4 PUSH1 0x0 MSTORE PUSH1 0x0 PUSH1 0x20 MSTORE PUSH1 0x40 PUSH1 0x0 KECCAK256 SWAP1 JUMP JUMPDEST PUSH2 0x46E0 JUMP JUMPDEST PUSH2 0x31DC PUSH2 0x441 PUSH1 0xC0 DUP9 ADD PUSH2 0x1EE0 JUMP JUMPDEST SWAP2 PUSH2 0x33A9 JUMPI JUMPDEST PUSH2 0x3208 DUP2 PUSH2 0x3203 PUSH2 0x31FD DUP3 PUSH1 0x0 MSTORE PUSH1 0x35 PUSH1 0x20 MSTORE PUSH1 0x40 PUSH1 0x0 KECCAK256 SWAP1 JUMP JUMPDEST SLOAD PUSH2 0x2337 JUMP JUMPDEST PUSH2 0x4836 JUMP JUMPDEST DUP1 DUP8 PUSH1 0x0 DUP1 MLOAD PUSH1 0x20 PUSH2 0x59DA DUP4 CODECOPY DUP2 MLOAD SWAP2 MSTORE DUP12 MLOAD DUP1 PUSH2 0x3228 DUP8 DUP13 DUP13 DUP5 PUSH2 0x3054 JUMP JUMPDEST SUB SWAP1 LOG3 PUSH1 0x9B SLOAD PUSH2 0x3242 SWAP1 PUSH2 0x2074 SWAP1 PUSH1 0x1 PUSH1 0x1 PUSH1 0xA0 SHL SUB AND DUP2 JUMP JUMPDEST SWAP1 DUP2 EXTCODESIZE ISZERO PUSH2 0x33A5 JUMPI PUSH2 0x3270 DUP10 SWAP4 SWAP3 DUP5 SWAP3 DUP13 MLOAD SWAP6 DUP7 DUP1 SWAP5 DUP2 SWAP4 PUSH4 0x160928B PUSH1 0xE3 SHL DUP4 MSTORE DUP9 ADDRESS SWAP2 PUSH1 0x4 DUP6 ADD PUSH2 0x2FE6 JUMP JUMPDEST SUB SWAP3 GAS CALL SWAP2 DUP3 ISZERO PUSH2 0x2164 JUMPI PUSH2 0x32B8 SWAP3 PUSH2 0x3392 JUMPI JUMPDEST POP PUSH1 0x68 SLOAD PUSH2 0x32B2 SWAP1 PUSH2 0x441 SWAP1 PUSH2 0x32A3 SWAP1 PUSH1 0x1 PUSH1 0x1 PUSH1 0x80 SHL SUB AND DUP5 PUSH2 0x39B5 JUMP JUMPDEST PUSH2 0x32AC DUP8 PUSH2 0x24CC JUMP JUMPDEST SWAP4 PUSH2 0x3087 JUMP JUMPDEST SWAP1 PUSH2 0x4A6B JUMP JUMPDEST ISZERO PUSH2 0x333C JUMPI POP PUSH1 0x9B SLOAD PUSH2 0x32E2 SWAP1 DUP7 SWAP1 PUSH2 0x32DB SWAP1 PUSH2 0x2074 SWAP1 PUSH1 0x1 PUSH1 0x1 PUSH1 0xA0 SHL SUB AND DUP2 JUMP JUMPDEST SWAP4 ADD PUSH2 0x24CC JUMP JUMPDEST SWAP3 PUSH2 0x32EF PUSH1 0x80 DUP4 ADD PUSH2 0x24CC JUMP JUMPDEST SWAP6 DUP4 EXTCODESIZE ISZERO PUSH2 0x2169 JUMPI SWAP2 PUSH2 0x331E DUP7 SWAP3 PUSH1 0x60 SWAP5 MLOAD SWAP9 DUP10 SWAP8 DUP9 SWAP7 DUP8 SWAP6 PUSH4 0x52439753 PUSH1 0xE0 SHL DUP8 MSTORE ADD CALLDATALOAD SWAP3 PUSH1 0x4 DUP7 ADD PUSH2 0x25E8 JUMP JUMPDEST SUB SWAP3 GAS CALL DUP1 ISZERO PUSH2 0x2164 JUMPI PUSH2 0x332F JUMPI POP JUMP JUMPDEST DUP1 PUSH2 0x2158 PUSH2 0x5CB SWAP3 PUSH2 0x722 JUMP JUMPDEST SWAP2 SWAP5 SWAP3 POP PUSH2 0x3365 DUP4 PUSH2 0x335E PUSH2 0x2780 PUSH2 0x2074 PUSH2 0x2074 PUSH1 0x9B SLOAD PUSH1 0x1 DUP1 PUSH1 0xA0 SHL SUB AND SWAP1 JUMP JUMPDEST SWAP7 ADD PUSH2 0x24CC JUMP JUMPDEST SWAP3 DUP3 EXTCODESIZE ISZERO PUSH2 0x22A6 JUMPI MLOAD PUSH4 0x2F58639D PUSH1 0xE1 SHL DUP2 MSTORE SWAP5 DUP6 SWAP4 DUP5 SWAP3 DUP7 SWAP3 DUP5 SWAP3 PUSH2 0x331E SWAP3 PUSH1 0x60 ADD SWAP2 PUSH1 0x4 DUP6 ADD PUSH2 0x30DC JUMP JUMPDEST DUP1 PUSH2 0x2158 PUSH2 0x339F SWAP3 PUSH2 0x722 JUMP JUMPDEST CODESIZE PUSH2 0x3284 JUMP JUMPDEST DUP9 DUP1 REVERT JUMPDEST PUSH2 0x33BB PUSH2 0x33B6 CALLDATASIZE DUP8 PUSH2 0x24F5 JUMP JUMPDEST PUSH2 0x3F9B JUMP JUMPDEST POP PUSH2 0x33CF DUP8 PUSH2 0x3203 PUSH2 0x466 PUSH1 0xA0 DUP10 ADD PUSH2 0x1EFB JUMP JUMPDEST PUSH2 0x31E2 JUMP JUMPDEST SWAP7 DUP5 DUP2 SWAP7 SWAP6 SWAP8 SWAP10 SWAP11 POP SWAP4 SWAP3 SWAP4 ADD SWAP3 PUSH2 0x33EE PUSH2 0x2074 DUP6 PUSH2 0x24CC JUMP JUMPDEST CALLER SUB PUSH2 0x367D JUMPI DUP3 SWAP1 DUP6 PUSH1 0x1 DUP1 PUSH1 0xA0 SHL SUB PUSH2 0x3415 PUSH2 0x3186 DUP7 PUSH1 0x0 MSTORE PUSH1 0x0 PUSH1 0x20 MSTORE PUSH1 0x40 PUSH1 0x0 KECCAK256 SWAP1 JUMP JUMPDEST AND ISZERO SWAP4 DUP5 ISZERO SWAP10 PUSH2 0x3435 PUSH2 0x31C8 PUSH2 0x2007 DUP6 PUSH1 0x0 MSTORE PUSH1 0x0 PUSH1 0x20 MSTORE PUSH1 0x40 PUSH1 0x0 KECCAK256 SWAP1 JUMP JUMPDEST PUSH2 0x3443 DUP12 PUSH2 0x31A9 CALLDATASIZE DUP5 PUSH2 0x24F5 JUMP JUMPDEST PUSH2 0x3452 PUSH2 0x441 PUSH1 0xC0 DUP4 ADD PUSH2 0x1EE0 JUMP JUMPDEST SWAP12 PUSH2 0x3462 PUSH2 0x441 PUSH1 0xC0 DUP9 ADD PUSH2 0x1EE0 JUMP JUMPDEST SWAP7 ISZERO PUSH2 0x35AC JUMPI PUSH2 0x34E7 SWAP6 PUSH1 0x0 DUP1 MLOAD PUSH1 0x20 PUSH2 0x59DA DUP4 CODECOPY DUP2 MLOAD SWAP2 MSTORE SWAP3 SWAP1 SWAP2 PUSH2 0x3493 SWAP1 PUSH1 0x1 PUSH1 0x1 PUSH1 0x80 SHL SUB DUP11 AND GT ISZERO PUSH2 0x300F JUMP JUMPDEST PUSH2 0x34A6 DUP6 PUSH2 0x3203 PUSH2 0x466 PUSH1 0xA0 DUP7 ADD PUSH2 0x1EFB JUMP JUMPDEST PUSH2 0x34B5 DUP9 DUP14 MLOAD SWAP4 DUP5 SWAP4 DUP5 PUSH2 0x3054 JUMP JUMPDEST SUB SWAP1 LOG3 PUSH1 0x68 SLOAD PUSH2 0x32B2 SWAP1 PUSH2 0x441 SWAP1 PUSH2 0x34E0 SWAP1 PUSH2 0x34DA SWAP1 PUSH1 0x1 PUSH1 0x1 PUSH1 0x80 SHL SUB AND DUP8 PUSH2 0x39B5 JUMP JUMPDEST SWAP4 PUSH2 0x24CC JUMP JUMPDEST SWAP3 DUP6 PUSH2 0x3087 JUMP JUMPDEST PUSH1 0x1 PUSH1 0x1 PUSH1 0x80 SHL SUB DUP2 DUP2 AND SWAP1 DUP9 AND GT PUSH2 0x358C JUMPI JUMPDEST POP PUSH1 0x9B SLOAD PUSH2 0x351D SWAP1 PUSH2 0x3517 SWAP1 PUSH2 0x2074 SWAP1 PUSH1 0x1 PUSH1 0x1 PUSH1 0xA0 SHL SUB AND DUP2 JUMP JUMPDEST SWAP3 PUSH2 0x24CC JUMP JUMPDEST SWAP3 PUSH2 0x352A PUSH1 0x80 DUP4 ADD PUSH2 0x24CC JUMP JUMPDEST SWAP5 DUP4 EXTCODESIZE ISZERO PUSH2 0x33A5 JUMPI MLOAD PUSH4 0x52439753 PUSH1 0xE0 SHL DUP2 MSTORE SWAP5 DUP9 SWAP5 DUP7 SWAP5 SWAP4 DUP6 SWAP4 DUP8 SWAP4 DUP6 SWAP4 PUSH2 0x355B SWAP4 PUSH1 0x60 ADD CALLDATALOAD SWAP3 PUSH1 0x4 DUP7 ADD PUSH2 0x25E8 JUMP JUMPDEST SUB SWAP3 GAS CALL DUP1 ISZERO PUSH2 0x2164 JUMPI PUSH2 0x3579 JUMPI JUMPDEST POP ISZERO PUSH2 0x3574 JUMPI POP SWAP1 JUMP JUMPDEST SWAP1 POP SWAP1 JUMP JUMPDEST DUP1 PUSH2 0x2158 PUSH2 0x3586 SWAP3 PUSH2 0x722 JUMP JUMPDEST CODESIZE PUSH2 0x356A JUMP JUMPDEST PUSH2 0x35A6 SWAP1 PUSH2 0x32B2 PUSH2 0x441 PUSH2 0x359F DUP7 PUSH2 0x24CC JUMP JUMPDEST SWAP3 DUP11 PUSH2 0x3087 JUMP JUMPDEST CODESIZE PUSH2 0x34FB JUMP JUMPDEST POP SWAP3 SWAP4 POP SWAP1 POP PUSH2 0x35CA PUSH1 0x1 PUSH1 0x1 PUSH1 0x80 SHL SUB DUP6 DUP2 AND SWAP1 DUP13 AND LT ISZERO PUSH2 0x2F9D JUMP JUMPDEST PUSH1 0x9B SLOAD PUSH2 0x35E1 SWAP1 PUSH2 0x2074 SWAP1 PUSH1 0x1 PUSH1 0x1 PUSH1 0xA0 SHL SUB AND DUP2 JUMP JUMPDEST DUP1 EXTCODESIZE ISZERO PUSH2 0x3679 JUMPI SWAP1 DUP12 PUSH2 0x3610 DUP2 SWAP6 SWAP5 SWAP4 DUP14 DUP13 MLOAD SWAP8 DUP9 DUP1 SWAP5 DUP2 SWAP4 PUSH4 0x160928B PUSH1 0xE3 SHL DUP4 MSTORE ADDRESS SWAP1 DUP10 PUSH1 0x4 DUP6 ADD PUSH2 0x2FE6 JUMP JUMPDEST SUB SWAP3 GAS CALL SWAP4 DUP5 ISZERO PUSH2 0x2164 JUMPI DUP7 DUP10 SWAP4 PUSH1 0x0 DUP1 MLOAD PUSH1 0x20 PUSH2 0x59DA DUP4 CODECOPY DUP2 MLOAD SWAP2 MSTORE SWAP3 PUSH2 0x34E7 SWAP8 PUSH2 0x3666 JUMPI JUMPDEST POP PUSH2 0x3645 PUSH2 0x33B6 CALLDATASIZE DUP4 PUSH2 0x24F5 JUMP JUMPDEST POP PUSH2 0x3661 DUP5 PUSH2 0x3203 PUSH2 0x31FD DUP3 PUSH1 0x0 MSTORE PUSH1 0x35 PUSH1 0x20 MSTORE PUSH1 0x40 PUSH1 0x0 KECCAK256 SWAP1 JUMP JUMPDEST PUSH2 0x3493 JUMP JUMPDEST DUP1 PUSH2 0x2158 PUSH2 0x3673 SWAP3 PUSH2 0x722 JUMP JUMPDEST CODESIZE PUSH2 0x3637 JUMP JUMPDEST DUP12 DUP1 REVERT JUMPDEST DUP6 MLOAD PUSH3 0x461BCD PUSH1 0xE5 SHL DUP2 MSTORE PUSH1 0x20 PUSH1 0x4 DUP3 ADD MSTORE PUSH1 0x12 PUSH1 0x24 DUP3 ADD MSTORE PUSH18 0x12110E881CD95B99195C881A5B9D985B1A59 PUSH1 0x72 SHL PUSH1 0x44 DUP3 ADD MSTORE PUSH1 0x64 SWAP1 REVERT JUMPDEST ISZERO PUSH2 0x36BD JUMPI JUMP JUMPDEST PUSH1 0x40 MLOAD PUSH3 0x461BCD PUSH1 0xE5 SHL DUP2 MSTORE PUSH1 0x20 PUSH1 0x4 DUP3 ADD MSTORE PUSH1 0xE PUSH1 0x24 DUP3 ADD MSTORE PUSH14 0x24221D1039B0B6B29037B93232B9 PUSH1 0x91 SHL PUSH1 0x44 DUP3 ADD MSTORE PUSH1 0x64 SWAP1 REVERT JUMPDEST ISZERO PUSH2 0x36FA JUMPI JUMP JUMPDEST PUSH1 0x40 MLOAD PUSH3 0x461BCD PUSH1 0xE5 SHL DUP2 MSTORE PUSH1 0x20 PUSH1 0x4 DUP3 ADD MSTORE PUSH1 0x11 PUSH1 0x24 DUP3 ADD MSTORE PUSH17 0x90887440E6D2C8CA40DAD2E6DAC2E8C6D PUSH1 0x7B SHL PUSH1 0x44 DUP3 ADD MSTORE PUSH1 0x64 SWAP1 REVERT JUMPDEST ISZERO PUSH2 0x373A JUMPI JUMP JUMPDEST PUSH1 0x40 MLOAD PUSH3 0x461BCD PUSH1 0xE5 SHL DUP2 MSTORE PUSH1 0x20 PUSH1 0x4 DUP3 ADD MSTORE PUSH1 0x11 PUSH1 0x24 DUP3 ADD MSTORE PUSH17 0x90887440D6D2DCC840DAD2E6DAC2E8C6D PUSH1 0x7B SHL PUSH1 0x44 DUP3 ADD MSTORE PUSH1 0x64 SWAP1 REVERT JUMPDEST ISZERO PUSH2 0x377A JUMPI JUMP JUMPDEST PUSH1 0x40 MLOAD PUSH3 0x461BCD PUSH1 0xE5 SHL DUP2 MSTORE PUSH1 0x20 PUSH1 0x4 DUP3 ADD MSTORE PUSH1 0xE PUSH1 0x24 DUP3 ADD MSTORE PUSH14 0x24221D1039B0B6B29036B0B5B2B9 PUSH1 0x91 SHL PUSH1 0x44 DUP3 ADD MSTORE PUSH1 0x64 SWAP1 REVERT JUMPDEST ISZERO PUSH2 0x37B7 JUMPI JUMP JUMPDEST PUSH1 0x40 MLOAD PUSH3 0x461BCD PUSH1 0xE5 SHL DUP2 MSTORE PUSH1 0x20 PUSH1 0x4 DUP3 ADD MSTORE PUSH1 0x12 PUSH1 0x24 DUP3 ADD MSTORE PUSH18 0x90887440C2E6E6CAE840DAD2E6DAC2E8C6D PUSH1 0x73 SHL PUSH1 0x44 DUP3 ADD MSTORE PUSH1 0x64 SWAP1 REVERT JUMPDEST ISZERO PUSH2 0x37F8 JUMPI JUMP JUMPDEST PUSH1 0x40 MLOAD PUSH3 0x461BCD PUSH1 0xE5 SHL DUP2 MSTORE PUSH1 0x20 PUSH1 0x4 DUP3 ADD MSTORE PUSH1 0x10 PUSH1 0x24 DUP3 ADD MSTORE PUSH16 0x12110E881BDC99195C8818DB1BDCD959 PUSH1 0x82 SHL PUSH1 0x44 DUP3 ADD MSTORE PUSH1 0x64 SWAP1 REVERT JUMPDEST PUSH2 0x3909 PUSH2 0x466 PUSH1 0x40 PUSH1 0x60 PUSH2 0x38F7 PUSH2 0x5CB SWAP9 SWAP8 PUSH2 0x384E DUP10 DUP3 EQ ISZERO PUSH2 0x36B6 JUMP JUMPDEST DUP7 MLOAD PUSH2 0x3859 DUP2 PUSH2 0x989 JUMP JUMPDEST PUSH2 0x3862 DUP2 PUSH2 0x989 JUMP JUMPDEST ISZERO DUP1 PUSH2 0x3993 JUMPI JUMPDEST PUSH2 0x3872 SWAP1 PUSH2 0x36F3 JUMP JUMPDEST PUSH2 0x3894 PUSH1 0x1 PUSH1 0x20 DUP10 ADD MLOAD PUSH2 0x3885 DUP2 PUSH2 0x989 JUMP JUMPDEST PUSH2 0x388E DUP2 PUSH2 0x989 JUMP JUMPDEST EQ PUSH2 0x3733 JUMP JUMPDEST DUP7 DUP5 ADD MLOAD PUSH2 0x2905 SWAP1 PUSH1 0x1 PUSH1 0x1 PUSH1 0xA0 SHL SUB AND DUP10 DUP7 ADD MLOAD PUSH2 0x38D1 SWAP1 PUSH2 0x38BF SWAP1 PUSH1 0x1 PUSH1 0x1 PUSH1 0xA0 SHL SUB AND PUSH2 0x2074 JUMP JUMPDEST PUSH1 0x1 PUSH1 0x1 PUSH1 0xA0 SHL SUB SWAP3 DUP4 AND EQ ISZERO PUSH2 0x3773 JUMP JUMPDEST PUSH1 0x20 DUP11 ADD MLOAD PUSH2 0x38DF DUP2 PUSH2 0x989 JUMP JUMPDEST PUSH2 0x38E8 DUP2 PUSH2 0x989 JUMP JUMPDEST ISZERO SWAP1 DUP2 ISZERO PUSH2 0x3941 JUMPI JUMPDEST POP PUSH2 0x37B0 JUMP JUMPDEST SLOAD SWAP5 ADD MLOAD ADD MLOAD PUSH1 0x1 PUSH1 0x1 PUSH1 0x60 SHL SUB AND SWAP1 JUMP JUMPDEST GT SWAP2 DUP3 PUSH2 0x3918 JUMPI JUMPDEST POP POP PUSH2 0x37F1 JUMP JUMPDEST PUSH2 0x3939 SWAP2 SWAP3 POP PUSH1 0x40 PUSH1 0x60 PUSH2 0x38F7 PUSH2 0x466 SWAP4 PUSH1 0x0 MSTORE PUSH1 0x35 PUSH1 0x20 MSTORE PUSH1 0x40 PUSH1 0x0 KECCAK256 SWAP1 JUMP JUMPDEST GT CODESIZE DUP1 PUSH2 0x3911 JUMP JUMPDEST DUP10 DUP7 ADD MLOAD PUSH1 0x20 DUP2 ADD MLOAD SWAP1 SWAP3 POP PUSH1 0x1 PUSH1 0x1 PUSH1 0xA0 SHL SUB AND DUP12 DUP8 ADD MLOAD PUSH1 0x20 DUP2 ADD MLOAD SWAP1 SWAP3 SWAP1 PUSH2 0x3974 SWAP1 PUSH1 0x1 PUSH1 0x1 PUSH1 0xA0 SHL SUB AND PUSH2 0x2074 JUMP JUMPDEST SWAP2 AND EQ SWAP2 DUP3 PUSH2 0x3986 JUMPI JUMPDEST POP POP CODESIZE PUSH2 0x38F1 JUMP JUMPDEST MLOAD SWAP1 MLOAD EQ SWAP1 POP CODESIZE DUP1 PUSH2 0x397E JUMP JUMPDEST POP PUSH2 0x3872 PUSH1 0x1 DUP10 MLOAD PUSH2 0x39A4 DUP2 PUSH2 0x989 JUMP JUMPDEST PUSH2 0x39AD DUP2 PUSH2 0x989 JUMP JUMPDEST EQ SWAP1 POP PUSH2 0x3869 JUMP JUMPDEST PUSH2 0x2710 SWAP2 PUSH1 0x1 PUSH1 0x1 PUSH1 0x80 SHL SUB SWAP2 PUSH2 0x39CC SWAP2 SWAP1 PUSH2 0x1F05 JUMP JUMPDEST AND DIV SWAP1 JUMP JUMPDEST PUSH2 0x39D9 PUSH2 0x1983 JUMP JUMPDEST PUSH1 0x1 PUSH1 0x1 PUSH1 0xA0 SHL SUB AND DUP1 ISZERO PUSH2 0xCDF JUMPI PUSH1 0x9B DUP1 SLOAD PUSH1 0x1 PUSH1 0x1 PUSH1 0xA0 SHL SUB NOT AND SWAP2 SWAP1 SWAP2 OR SWAP1 SSTORE JUMP JUMPDEST PUSH2 0x3A07 DUP3 PUSH2 0x989 JUMP JUMPDEST PUSH1 0x0 PUSH1 0x1 DUP4 SUB PUSH2 0x3A3B JUMPI POP PUSH1 0x1 PUSH1 0x1 PUSH1 0xA0 SHL SUB AND PUSH1 0x0 SWAP1 DUP2 MSTORE PUSH1 0x1 PUSH1 0x20 MSTORE PUSH1 0x40 SWAP1 KECCAK256 PUSH2 0x5FF SWAP2 PUSH2 0x3A36 SWAP2 PUSH2 0xDDE JUMP JUMPDEST PUSH2 0x4B08 JUMP JUMPDEST PUSH1 0x1 PUSH1 0x1 PUSH1 0xA0 SHL SUB SWAP1 SWAP2 AND DUP2 MSTORE PUSH1 0x1 PUSH1 0x20 MSTORE PUSH1 0x40 SWAP1 KECCAK256 PUSH2 0x5FF SWAP2 PUSH2 0x3A5E SWAP2 PUSH2 0xDDE JUMP JUMPDEST PUSH2 0x4AB6 JUMP JUMPDEST PUSH1 0x1 PUSH1 0x1 PUSH1 0x80 SHL SUB DUP4 DUP2 AND PUSH2 0x3AA7 JUMPI POP SWAP1 SWAP2 POP PUSH2 0x3A7F DUP3 PUSH2 0x989 JUMP JUMPDEST PUSH1 0x1 DUP3 SUB PUSH2 0x3A97 JUMPI PUSH2 0x5FF SWAP2 PUSH2 0xAE7 PUSH2 0x3A36 SWAP3 PUSH2 0xDC4 JUMP JUMPDEST PUSH2 0x5FF SWAP2 PUSH2 0xAE7 PUSH2 0x3A5E SWAP3 PUSH2 0xDC4 JUMP JUMPDEST PUSH2 0x3AB0 DUP4 PUSH2 0x989 JUMP JUMPDEST PUSH1 0x1 PUSH1 0x0 DUP5 DUP3 SUB PUSH2 0x3AD4 JUMPI POP POP POP PUSH2 0x5FF SWAP3 SWAP2 PUSH2 0xAE7 PUSH2 0x3ACF SWAP3 PUSH2 0xDC4 JUMP JUMPDEST PUSH2 0x4B5A JUMP JUMPDEST SWAP2 SWAP4 PUSH2 0x3AF2 SWAP2 SWAP4 PUSH1 0x1 DUP1 PUSH1 0xA0 SHL SUB AND DUP4 MSTORE DUP4 PUSH1 0x20 MSTORE PUSH1 0x40 DUP4 KECCAK256 PUSH2 0xDDE JUMP JUMPDEST SWAP3 DUP5 SWAP2 POP DUP3 DUP5 ADD SWAP5 PUSH2 0x3B27 PUSH2 0x3B19 DUP6 PUSH2 0x3B0B DUP5 DUP11 PUSH2 0x162C JUMP JUMPDEST ADD SLOAD PUSH1 0x1 PUSH1 0x1 PUSH1 0x80 SHL SUB AND SWAP1 JUMP JUMPDEST PUSH1 0x1 PUSH1 0x1 PUSH1 0x80 SHL SUB AND ISZERO ISZERO SWAP1 JUMP JUMPDEST ISZERO PUSH2 0x3B45 JUMPI POP POP SWAP1 PUSH2 0x3B0B PUSH2 0x3B3F SWAP3 PUSH2 0x5FF SWAP6 PUSH2 0x162C JUMP JUMPDEST SWAP1 PUSH2 0x50C2 JUMP JUMPDEST DUP4 SWAP6 SWAP4 SWAP5 POP PUSH2 0x3B5A PUSH2 0x3B67 SWAP2 DUP6 SWAP5 SWAP4 SWAP5 PUSH2 0x162C JUMP JUMPDEST SLOAD PUSH1 0x1 PUSH1 0x1 PUSH1 0x80 SHL SUB AND SWAP1 JUMP JUMPDEST SWAP5 JUMPDEST PUSH2 0x3B75 JUMPI JUMPDEST POP POP POP POP SWAP1 JUMP JUMPDEST DUP2 DUP6 SWAP4 SWAP5 SWAP6 AND ISZERO ISZERO SWAP1 DUP2 PUSH2 0x3BAC JUMPI JUMPDEST POP ISZERO PUSH2 0x3BA5 JUMPI SWAP1 DUP4 SWAP2 PUSH2 0x3B9A PUSH2 0x3B5A DUP4 DUP7 PUSH2 0x162C JUMP JUMPDEST SWAP5 SWAP4 SWAP3 SWAP2 SWAP1 SWAP2 PUSH2 0x3B69 JUMP JUMPDEST DUP2 SWAP4 PUSH2 0x3B6E JUMP JUMPDEST SWAP1 POP DUP2 PUSH2 0x3BC3 PUSH2 0x441 PUSH2 0x441 DUP9 PUSH2 0x3B0B DUP9 DUP11 PUSH2 0x162C JUMP JUMPDEST SWAP2 AND EQ CODESIZE PUSH2 0x3B84 JUMP JUMPDEST DUP1 SLOAD PUSH1 0x1 PUSH1 0x1 PUSH1 0x80 SHL SUB NOT AND PUSH1 0x1 PUSH1 0x1 PUSH1 0x80 SHL SUB SWAP1 SWAP3 AND SWAP2 SWAP1 SWAP2 OR SWAP1 SSTORE JUMP JUMPDEST SWAP1 PUSH1 0x20 PUSH1 0x4 SWAP2 PUSH2 0x3D42 DUP2 MLOAD DUP1 MLOAD PUSH2 0x3C01 DUP2 PUSH2 0x989 JUMP JUMPDEST PUSH2 0x3C0A DUP2 PUSH2 0x989 JUMP JUMPDEST PUSH1 0xFF DUP8 SLOAD SWAP2 AND DUP1 PUSH1 0xFF NOT DUP4 AND OR DUP9 SSTORE PUSH2 0xFF00 DUP7 DUP5 ADD MLOAD PUSH2 0x3C29 DUP2 PUSH2 0x989 JUMP JUMPDEST PUSH2 0x3C32 DUP2 PUSH2 0x989 JUMP JUMPDEST PUSH1 0x8 SHL AND SWAP2 PUSH2 0xFFFF NOT AND OR OR DUP7 SSTORE PUSH2 0x3C7A PUSH2 0x3C56 PUSH1 0x40 DUP4 ADD MLOAD PUSH1 0x1 DUP1 PUSH1 0xA0 SHL SUB AND SWAP1 JUMP JUMPDEST DUP8 SLOAD PUSH3 0x10000 PUSH1 0x1 PUSH1 0xB0 SHL SUB NOT AND PUSH1 0x10 SWAP2 SWAP1 SWAP2 SHL PUSH3 0x10000 PUSH1 0x1 PUSH1 0xB0 SHL SUB AND OR DUP8 SSTORE JUMP JUMPDEST PUSH1 0x60 DUP2 ADD MLOAD DUP1 MLOAD PUSH1 0x1 DUP9 ADD SSTORE PUSH1 0x20 DUP2 ADD MLOAD PUSH1 0x40 SWAP1 SWAP2 ADD MLOAD PUSH1 0xA0 SHL PUSH1 0x1 PUSH1 0x1 PUSH1 0xA0 SHL SUB NOT AND PUSH1 0x1 PUSH1 0x1 PUSH1 0xA0 SHL SUB SWAP2 SWAP1 SWAP2 AND OR PUSH1 0x2 DUP8 ADD SSTORE PUSH1 0x80 DUP2 ADD MLOAD PUSH1 0x3 DUP8 ADD SWAP2 PUSH2 0x3D22 SWAP2 PUSH1 0xC0 SWAP2 SWAP1 PUSH2 0x3CD5 SWAP1 PUSH1 0x1 PUSH1 0x1 PUSH1 0x80 SHL SUB AND DUP6 PUSH2 0x3BCC JUMP JUMPDEST PUSH2 0x3D14 PUSH2 0x3CEC PUSH1 0xA0 DUP4 ADD MLOAD PUSH1 0x1 PUSH1 0x1 PUSH1 0x40 SHL SUB AND SWAP1 JUMP JUMPDEST DUP6 SLOAD PUSH8 0xFFFFFFFFFFFFFFFF PUSH1 0x80 SHL NOT AND PUSH1 0x80 SWAP2 SWAP1 SWAP2 SHL PUSH8 0xFFFFFFFFFFFFFFFF PUSH1 0x80 SHL AND OR DUP6 SSTORE JUMP JUMPDEST ADD MLOAD PUSH1 0x1 PUSH1 0x1 PUSH1 0x40 SHL SUB AND SWAP1 JUMP JUMPDEST DUP2 SLOAD PUSH1 0x1 PUSH1 0x1 PUSH1 0xC0 SHL SUB AND PUSH1 0xC0 SWAP2 SWAP1 SWAP2 SHL PUSH1 0x1 PUSH1 0x1 PUSH1 0xC0 SHL SUB NOT AND OR SWAP1 SSTORE JUMP JUMPDEST ADD MLOAD SWAP2 ADD SSTORE JUMP JUMPDEST SWAP1 PUSH2 0x3D53 DUP3 PUSH2 0x497A JUMP JUMPDEST SWAP2 PUSH1 0x1 DUP1 PUSH1 0xA0 SHL SUB PUSH2 0x3D72 PUSH2 0x3186 DUP6 PUSH1 0x0 MSTORE PUSH1 0x0 PUSH1 0x20 MSTORE PUSH1 0x40 PUSH1 0x0 KECCAK256 SWAP1 JUMP JUMPDEST AND PUSH2 0x3F5D JUMPI PUSH1 0x60 DUP2 ADD DUP1 MLOAD PUSH1 0x20 SWAP1 DUP2 ADD MLOAD DUP6 SWAP4 SWAP3 SWAP1 PUSH2 0x3DAE SWAP1 PUSH2 0x3DA2 SWAP1 PUSH1 0x1 PUSH1 0x1 PUSH1 0xA0 SHL SUB AND PUSH2 0xDC4 JUMP JUMPDEST PUSH2 0xDC4 JUMP JUMPDEST DUP5 MLOAD SWAP1 PUSH2 0xAE7 DUP3 PUSH2 0x989 JUMP JUMPDEST PUSH1 0x80 DUP5 ADD DUP1 MLOAD SWAP1 SWAP2 SWAP1 PUSH2 0x3DD2 SWAP1 PUSH2 0x3DCE SWAP1 PUSH1 0x1 PUSH1 0x1 PUSH1 0x80 SHL SUB AND DUP4 PUSH2 0x4C2D JUMP JUMPDEST ISZERO SWAP1 JUMP JUMPDEST PUSH2 0x3F41 JUMPI JUMPDEST POP DUP2 MLOAD DUP4 ADD MLOAD DUP4 SWAP1 PUSH2 0x3E1C SWAP1 PUSH2 0x3E0A SWAP1 PUSH2 0x3DFE SWAP1 PUSH1 0x1 PUSH1 0x1 PUSH1 0xA0 SHL SUB AND PUSH2 0xDAA JUMP JUMPDEST PUSH2 0xDAA JUMP JUMPDEST DUP8 MLOAD SWAP1 PUSH2 0xAE7 DUP3 PUSH2 0x989 JUMP JUMPDEST DUP4 MLOAD PUSH1 0x1 PUSH1 0x1 PUSH1 0x80 SHL SUB AND JUMPDEST SWAP1 PUSH2 0x162C JUMP JUMPDEST SWAP3 DUP4 SLOAD ISZERO PUSH2 0x3E9B JUMPI JUMPDEST POP POP POP PUSH1 0x1 DUP2 ADD SWAP1 DUP2 SLOAD DUP1 ISZERO PUSH1 0x0 EQ PUSH2 0x3E6C JUMPI POP SWAP4 PUSH1 0x0 SWAP3 SWAP2 DUP2 PUSH2 0x5CB SWAP7 SSTORE SSTORE PUSH2 0x3E4D PUSH2 0x78C JUMP JUMPDEST SWAP3 DUP4 MSTORE DUP3 ADD MSTORE PUSH2 0x3E67 DUP5 PUSH1 0x0 MSTORE PUSH1 0x0 PUSH1 0x20 MSTORE PUSH1 0x40 PUSH1 0x0 KECCAK256 SWAP1 JUMP JUMPDEST PUSH2 0x3BEB JUMP JUMPDEST PUSH1 0x0 SWAP2 POP SWAP3 DUP6 PUSH1 0x4 PUSH2 0x3E8E PUSH2 0x3E98 SWAP7 SWAP8 SWAP6 SWAP8 PUSH1 0x0 MSTORE PUSH1 0x0 PUSH1 0x20 MSTORE PUSH1 0x40 PUSH1 0x0 KECCAK256 SWAP1 JUMP JUMPDEST ADD SSTORE PUSH2 0x3E4D PUSH2 0x78C JUMP JUMPDEST SSTORE JUMP JUMPDEST PUSH2 0x3F39 SWAP4 POP PUSH2 0x3F1F PUSH2 0x3DF9 PUSH2 0x3E16 SWAP4 PUSH2 0x3F2B SWAP4 PUSH2 0x3F10 PUSH2 0x3EB9 PUSH2 0x78C JUMP JUMPDEST PUSH1 0x0 DUP1 DUP3 MSTORE DUP5 DUP3 ADD MSTORE DUP3 MLOAD DUP5 ADD MLOAD PUSH2 0x3EFF SWAP1 PUSH2 0x3EEF SWAP1 DUP15 SWAP1 PUSH2 0x3EE3 SWAP1 PUSH1 0x1 PUSH1 0x1 PUSH1 0xA0 SHL SUB AND PUSH2 0xDAA JUMP JUMPDEST SWAP1 MLOAD SWAP1 PUSH2 0xAE7 DUP3 PUSH2 0x989 JUMP JUMPDEST DUP11 MLOAD PUSH1 0x1 PUSH1 0x1 PUSH1 0x80 SHL SUB AND PUSH2 0x3E16 JUMP JUMPDEST SWAP1 PUSH1 0x20 PUSH1 0x1 SWAP2 DUP1 MLOAD DUP5 SSTORE ADD MLOAD SWAP2 ADD SSTORE JUMP JUMPDEST MLOAD ADD MLOAD PUSH1 0x1 PUSH1 0x1 PUSH1 0xA0 SHL SUB AND SWAP1 JUMP JUMPDEST DUP7 MLOAD SWAP1 PUSH2 0xAE7 DUP3 PUSH2 0x989 JUMP JUMPDEST SWAP2 MLOAD PUSH1 0x1 PUSH1 0x1 PUSH1 0x80 SHL SUB AND SWAP1 JUMP JUMPDEST CODESIZE DUP3 DUP2 PUSH2 0x3E25 JUMP JUMPDEST DUP2 MLOAD PUSH2 0x3F57 SWAP2 SWAP1 PUSH1 0x1 PUSH1 0x1 PUSH1 0x80 SHL SUB AND SWAP1 PUSH2 0x4D07 JUMP JUMPDEST CODESIZE PUSH2 0x3DD7 JUMP JUMPDEST PUSH1 0x40 MLOAD PUSH4 0xC56CA81 PUSH1 0xE3 SHL DUP2 MSTORE PUSH1 0x4 DUP2 ADD DUP5 SWAP1 MSTORE PUSH1 0x24 SWAP1 REVERT JUMPDEST SWAP1 PUSH1 0x40 MLOAD PUSH2 0x3F83 DUP2 PUSH2 0x735 JUMP JUMPDEST PUSH1 0x20 PUSH1 0x4 DUP3 SWAP5 PUSH2 0x3F92 DUP2 PUSH2 0x1519 JUMP JUMPDEST DUP5 MSTORE ADD SLOAD SWAP2 ADD MSTORE JUMP JUMPDEST SWAP1 PUSH1 0x60 SWAP1 DUP2 DUP4 ADD SWAP3 PUSH1 0x20 SWAP2 PUSH2 0x3FCC PUSH2 0x3FC0 PUSH2 0x3DF9 DUP6 DUP9 MLOAD ADD PUSH1 0x1 DUP1 PUSH1 0xA0 SHL SUB SWAP1 MLOAD AND SWAP1 JUMP JUMPDEST DUP4 MLOAD SWAP1 PUSH2 0xAE7 DUP3 PUSH2 0x989 JUMP JUMPDEST PUSH1 0x80 DUP4 ADD DUP1 MLOAD SWAP1 SWAP6 SWAP2 PUSH2 0x3FE7 SWAP2 PUSH1 0x1 PUSH1 0x1 PUSH1 0x80 SHL SUB AND PUSH2 0x3E16 JUMP JUMPDEST SWAP6 DUP7 SLOAD SWAP3 PUSH1 0x0 SWAP7 DUP8 SWAP5 JUMPDEST DUP1 ISZERO ISZERO DUP1 PUSH2 0x4318 JUMPI JUMPDEST ISZERO PUSH2 0x4226 JUMPI DUP8 DUP2 PUSH2 0x4019 PUSH2 0xB4A DUP14 SWAP5 PUSH1 0x0 MSTORE PUSH1 0x0 PUSH1 0x20 MSTORE PUSH1 0x40 PUSH1 0x0 KECCAK256 SWAP1 JUMP JUMPDEST SWAP11 DUP12 SWAP9 DUP10 MLOAD PUSH1 0x40 DUP6 DUP14 PUSH2 0x404A PUSH2 0x2074 DUP5 PUSH2 0x403B DUP2 DUP9 ADD MLOAD PUSH1 0x1 DUP1 PUSH1 0xA0 SHL SUB AND SWAP1 JUMP JUMPDEST SWAP4 ADD MLOAD PUSH1 0x1 PUSH1 0x1 PUSH1 0xA0 SHL SUB AND SWAP1 JUMP JUMPDEST PUSH1 0x1 PUSH1 0x1 PUSH1 0xA0 SHL SUB SWAP1 SWAP2 AND EQ SWAP3 DUP4 PUSH2 0x41EF JUMPI JUMPDEST POP POP DUP13 DUP13 DUP4 PUSH2 0x41BA JUMPI JUMPDEST DUP4 PUSH2 0x416A JUMPI JUMPDEST POP POP DUP2 PUSH2 0x4159 JUMPI JUMPDEST DUP11 DUP13 DUP4 PUSH2 0x4122 JUMPI JUMPDEST POP POP POP PUSH1 0x0 EQ PUSH2 0x4113 JUMPI POP SWAP2 DUP2 PUSH2 0x40E6 SWAP4 DUP3 PUSH2 0x40C8 SWAP5 SWAP12 DUP4 DUP9 SLOAD EQ PUSH1 0x0 EQ PUSH2 0x40F4 JUMPI ADD MLOAD DUP7 SSTORE JUMPDEST PUSH1 0x1 DUP1 SWAP7 ADD DUP3 DUP2 SLOAD EQ PUSH2 0x40EC JUMPI JUMPDEST POP POP SWAP12 ADD MLOAD SWAP8 PUSH1 0x0 MSTORE PUSH1 0x0 PUSH1 0x20 MSTORE PUSH1 0x40 PUSH1 0x0 KECCAK256 SWAP1 JUMP JUMPDEST PUSH1 0x4 PUSH1 0x0 SWAP2 DUP3 DUP2 SSTORE DUP3 PUSH1 0x1 DUP3 ADD SSTORE DUP3 PUSH1 0x2 DUP3 ADD SSTORE DUP3 PUSH1 0x3 DUP3 ADD SSTORE ADD SSTORE JUMP JUMPDEST SWAP5 PUSH2 0x3FF1 JUMP JUMPDEST SSTORE CODESIZE DUP1 PUSH2 0x40B2 JUMP JUMPDEST ADD MLOAD PUSH1 0x4 PUSH2 0x410C DUP4 PUSH1 0x0 MSTORE PUSH1 0x0 PUSH1 0x20 MSTORE PUSH1 0x40 PUSH1 0x0 KECCAK256 SWAP1 JUMP JUMPDEST ADD SSTORE PUSH2 0x40A4 JUMP JUMPDEST SWAP9 POP POP SWAP1 SWAP2 POP SWAP9 ADD MLOAD SWAP5 PUSH2 0x40E6 JUMP JUMPDEST MLOAD ADD MLOAD DUP2 ADD MLOAD DUP11 MLOAD SWAP1 SWAP2 ADD MLOAD PUSH1 0x1 PUSH1 0x1 PUSH1 0x60 SHL SUB SWAP2 DUP3 AND SWAP3 POP PUSH2 0x4145 SWAP2 AND PUSH2 0x466 JUMP JUMPDEST PUSH1 0x1 PUSH1 0x1 PUSH1 0x60 SHL SUB SWAP1 SWAP2 AND EQ CODESIZE DUP11 DUP13 PUSH2 0x407D JUMP JUMPDEST DUP12 MLOAD DUP12 ADD MLOAD MLOAD DUP11 MLOAD MLOAD EQ SWAP2 POP PUSH2 0x4075 JUMP JUMPDEST PUSH1 0x1 PUSH1 0x1 PUSH1 0x40 SHL SUB SWAP2 SWAP3 SWAP4 POP PUSH2 0x41A3 PUSH2 0x41AF SWAP2 PUSH2 0x4194 PUSH1 0xC0 DUP1 SWAP3 MLOAD ADD PUSH1 0x1 PUSH1 0x1 PUSH1 0x40 SHL SUB SWAP1 MLOAD AND SWAP1 JUMP JUMPDEST SWAP5 ADD MLOAD PUSH1 0x1 PUSH1 0x1 PUSH1 0x40 SHL SUB AND SWAP1 JUMP JUMPDEST PUSH1 0x1 PUSH1 0x1 PUSH1 0x40 SHL SUB AND SWAP1 JUMP JUMPDEST SWAP2 AND EQ SWAP1 DUP13 DUP13 PUSH2 0x406D JUMP JUMPDEST PUSH1 0x1 PUSH1 0x1 PUSH1 0x40 SHL SUB SWAP2 SWAP3 SWAP4 POP PUSH2 0x41A3 PUSH2 0x41E4 SWAP2 PUSH2 0x4194 PUSH1 0xA0 DUP1 SWAP3 MLOAD ADD PUSH1 0x1 PUSH1 0x1 PUSH1 0x40 SHL SUB SWAP1 MLOAD AND SWAP1 JUMP JUMPDEST SWAP2 AND EQ SWAP1 DUP13 DUP13 PUSH2 0x4067 JUMP JUMPDEST ADD MLOAD SWAP1 SWAP2 POP PUSH2 0x41FD DUP2 PUSH2 0x989 JUMP JUMPDEST DUP6 DUP14 ADD MLOAD SWAP1 PUSH2 0x420B DUP3 PUSH2 0x989 JUMP JUMPDEST PUSH2 0x4214 DUP3 PUSH2 0x989 JUMP JUMPDEST PUSH2 0x421D DUP2 PUSH2 0x989 JUMP JUMPDEST EQ SWAP1 DUP6 CODESIZE PUSH2 0x405D JUMP JUMPDEST SWAP9 SWAP3 SWAP6 SWAP5 SWAP2 SWAP8 POP SWAP6 SWAP3 POP PUSH1 0x0 EQ PUSH2 0x42D5 JUMPI SLOAD ISZERO PUSH2 0x4244 JUMPI JUMPDEST POP POP POP POP JUMP JUMPDEST PUSH2 0x3D9D DUP2 DUP5 PUSH2 0x3F10 PUSH2 0x428B PUSH2 0x427B PUSH2 0x426F PUSH2 0x3DF9 PUSH2 0x3EE3 SWAP9 PUSH2 0x4297 SWAP12 MLOAD ADD PUSH1 0x1 DUP1 PUSH1 0xA0 SHL SUB SWAP1 MLOAD AND SWAP1 JUMP JUMPDEST DUP9 MLOAD SWAP1 PUSH2 0xAE7 DUP3 PUSH2 0x989 JUMP JUMPDEST DUP10 MLOAD PUSH1 0x1 PUSH1 0x1 PUSH1 0x80 SHL SUB AND PUSH2 0x3E16 JUMP JUMPDEST PUSH1 0x1 PUSH1 0x0 SWAP2 DUP3 DUP2 SSTORE ADD SSTORE JUMP JUMPDEST DUP2 MLOAD PUSH2 0x42AC SWAP1 PUSH1 0x1 PUSH1 0x1 PUSH1 0x80 SHL SUB AND DUP3 PUSH2 0x4C2D JUMP JUMPDEST PUSH2 0x42B8 JUMPI JUMPDEST DUP1 DUP1 PUSH2 0x423E JUMP JUMPDEST SWAP1 MLOAD PUSH2 0x42CE SWAP2 SWAP1 PUSH1 0x1 PUSH1 0x1 PUSH1 0x80 SHL SUB AND SWAP1 PUSH2 0x4E3E JUMP JUMPDEST CODESIZE DUP1 PUSH2 0x42B1 JUMP JUMPDEST PUSH1 0x40 MLOAD PUSH3 0x461BCD PUSH1 0xE5 SHL DUP2 MSTORE PUSH1 0x20 PUSH1 0x4 DUP3 ADD MSTORE PUSH1 0x1B PUSH1 0x24 DUP3 ADD MSTORE PUSH27 0x21B0B73737BA103932B6B7BB329036B4B9B9B4B7339037B93232B9 PUSH1 0x29 SHL PUSH1 0x44 DUP3 ADD MSTORE PUSH1 0x64 SWAP1 REVERT JUMPDEST POP DUP6 ISZERO PUSH2 0x3FFA JUMP JUMPDEST PUSH1 0x40 MLOAD SWAP1 PUSH2 0x432D DUP3 PUSH2 0x707 JUMP JUMPDEST DUP2 PUSH1 0xC0 PUSH1 0x0 SWAP2 DUP3 DUP2 MSTORE DUP3 PUSH1 0x20 DUP3 ADD MSTORE DUP3 PUSH1 0x40 DUP3 ADD MSTORE PUSH1 0x40 MLOAD PUSH2 0x434E DUP2 PUSH2 0x6E7 JUMP JUMPDEST DUP4 DUP2 MSTORE DUP4 PUSH1 0x20 DUP3 ADD MSTORE DUP4 PUSH1 0x40 DUP3 ADD MSTORE PUSH1 0x60 DUP3 ADD MSTORE DUP3 PUSH1 0x80 DUP3 ADD MSTORE DUP3 PUSH1 0xA0 DUP3 ADD MSTORE ADD MSTORE JUMP JUMPDEST SWAP1 PUSH2 0x437C DUP3 PUSH2 0x1A30 JUMP JUMPDEST PUSH2 0x4389 PUSH1 0x40 MLOAD SWAP2 DUP3 PUSH2 0x76B JUMP JUMPDEST DUP3 DUP2 MSTORE DUP1 SWAP3 PUSH2 0x439A PUSH1 0x1F NOT SWAP2 PUSH2 0x1A30 JUMP JUMPDEST ADD SWAP1 PUSH1 0x0 JUMPDEST DUP3 DUP2 LT PUSH2 0x43AB JUMPI POP POP POP JUMP JUMPDEST PUSH1 0x20 SWAP1 PUSH2 0x43B6 PUSH2 0x4320 JUMP JUMPDEST DUP3 DUP3 DUP6 ADD ADD MSTORE ADD PUSH2 0x439F JUMP JUMPDEST SWAP1 PUSH1 0x40 MLOAD PUSH2 0x43CF DUP2 PUSH2 0x735 JUMP JUMPDEST PUSH1 0x20 PUSH1 0x1 DUP3 SWAP5 DUP1 SLOAD DUP5 MSTORE ADD SLOAD SWAP2 ADD MSTORE JUMP JUMPDEST PUSH1 0x1F DUP2 GT PUSH2 0x43EC JUMPI POP POP JUMP JUMPDEST PUSH1 0x0 SWAP1 PUSH1 0x0 DUP1 MLOAD PUSH1 0x20 PUSH2 0x595A DUP4 CODECOPY DUP2 MLOAD SWAP2 MSTORE DUP3 MSTORE PUSH1 0x20 DUP3 KECCAK256 SWAP1 PUSH1 0x20 PUSH1 0x1F DUP6 ADD PUSH1 0x5 SHR DUP4 ADD SWAP5 LT PUSH2 0x4437 JUMPI JUMPDEST PUSH1 0x1F ADD PUSH1 0x5 SHR ADD SWAP2 JUMPDEST DUP3 DUP2 LT PUSH2 0x442C JUMPI POP POP POP JUMP JUMPDEST DUP2 DUP2 SSTORE PUSH1 0x1 ADD PUSH2 0x4420 JUMP JUMPDEST SWAP1 SWAP3 POP DUP3 SWAP1 PUSH2 0x4417 JUMP JUMPDEST PUSH1 0x1F DUP2 GT PUSH2 0x444D JUMPI POP POP JUMP JUMPDEST PUSH1 0x0 SWAP1 PUSH1 0x0 DUP1 MLOAD PUSH1 0x20 PUSH2 0x599A DUP4 CODECOPY DUP2 MLOAD SWAP2 MSTORE DUP3 MSTORE PUSH1 0x20 DUP3 KECCAK256 SWAP1 PUSH1 0x20 PUSH1 0x1F DUP6 ADD PUSH1 0x5 SHR DUP4 ADD SWAP5 LT PUSH2 0x4498 JUMPI JUMPDEST PUSH1 0x1F ADD PUSH1 0x5 SHR ADD SWAP2 JUMPDEST DUP3 DUP2 LT PUSH2 0x448D JUMPI POP POP POP JUMP JUMPDEST DUP2 DUP2 SSTORE PUSH1 0x1 ADD PUSH2 0x4481 JUMP JUMPDEST SWAP1 SWAP3 POP DUP3 SWAP1 PUSH2 0x4478 JUMP JUMPDEST SWAP1 DUP2 MLOAD PUSH1 0x1 PUSH1 0x1 PUSH1 0x40 SHL SUB DUP2 GT PUSH2 0x702 JUMPI PUSH1 0x0 DUP1 MLOAD PUSH1 0x20 PUSH2 0x599A DUP4 CODECOPY DUP2 MLOAD SWAP2 MSTORE SWAP1 PUSH2 0x44D6 DUP2 PUSH2 0x44D1 DUP5 SLOAD PUSH2 0x1A6F JUMP JUMPDEST PUSH2 0x4441 JUMP JUMPDEST PUSH1 0x20 DUP1 PUSH1 0x1F DUP4 GT PUSH1 0x1 EQ PUSH2 0x4512 JUMPI POP DUP2 SWAP3 SWAP4 SWAP5 PUSH1 0x0 SWAP3 PUSH2 0x4507 JUMPI JUMPDEST POP POP DUP2 PUSH1 0x1 SHL SWAP2 PUSH1 0x0 NOT SWAP1 PUSH1 0x3 SHL SHR NOT AND OR SWAP1 SSTORE JUMP JUMPDEST ADD MLOAD SWAP1 POP CODESIZE DUP1 PUSH2 0x44F1 JUMP JUMPDEST PUSH1 0x0 DUP1 MLOAD PUSH1 0x20 PUSH2 0x599A DUP4 CODECOPY DUP2 MLOAD SWAP2 MSTORE PUSH1 0x0 MSTORE PUSH1 0x1F NOT DUP4 AND SWAP6 SWAP1 SWAP2 SWAP1 PUSH32 0x5F9CE34815F8E11431C7BB75A8E6886A91478F7FFC1DBB0A98DC240FDDD76B75 SWAP3 PUSH1 0x0 SWAP1 JUMPDEST DUP9 DUP3 LT PUSH2 0x458B JUMPI POP POP DUP4 PUSH1 0x1 SWAP6 SWAP7 SWAP8 LT PUSH2 0x4572 JUMPI JUMPDEST POP POP POP DUP2 SHL ADD SWAP1 SSTORE JUMP JUMPDEST ADD MLOAD PUSH1 0x0 NOT PUSH1 0xF8 DUP5 PUSH1 0x3 SHL AND SHR NOT AND SWAP1 SSTORE CODESIZE DUP1 DUP1 PUSH2 0x4568 JUMP JUMPDEST DUP1 PUSH1 0x1 DUP6 SWAP7 DUP3 SWAP5 SWAP7 DUP7 ADD MLOAD DUP2 SSTORE ADD SWAP6 ADD SWAP4 ADD SWAP1 PUSH2 0x4553 JUMP JUMPDEST ISZERO PUSH2 0x45AA JUMPI JUMP JUMPDEST PUSH1 0x40 MLOAD PUSH3 0x461BCD PUSH1 0xE5 SHL DUP2 MSTORE PUSH1 0x20 PUSH1 0x4 DUP3 ADD MSTORE PUSH1 0xF PUSH1 0x24 DUP3 ADD MSTORE PUSH15 0x27AB309D1036B4B9B99036B0B5B2B9 PUSH1 0x89 SHL PUSH1 0x44 DUP3 ADD MSTORE PUSH1 0x64 SWAP1 REVERT JUMPDEST ISZERO PUSH2 0x45E8 JUMPI JUMP JUMPDEST PUSH1 0x40 MLOAD PUSH3 0x461BCD PUSH1 0xE5 SHL DUP2 MSTORE PUSH1 0x20 PUSH1 0x4 DUP3 ADD MSTORE PUSH1 0xC PUSH1 0x24 DUP3 ADD MSTORE PUSH12 0x13D5984E88195E1C1A5C9959 PUSH1 0xA2 SHL PUSH1 0x44 DUP3 ADD MSTORE PUSH1 0x64 SWAP1 REVERT JUMPDEST ISZERO PUSH2 0x4623 JUMPI JUMP JUMPDEST PUSH1 0x40 MLOAD PUSH3 0x461BCD PUSH1 0xE5 SHL DUP2 MSTORE PUSH1 0x20 PUSH1 0x4 DUP3 ADD MSTORE PUSH1 0xE PUSH1 0x24 DUP3 ADD MSTORE PUSH14 0x13D5984E881E995C9BC81CD85B1D PUSH1 0x92 SHL PUSH1 0x44 DUP3 ADD MSTORE PUSH1 0x64 SWAP1 REVERT JUMPDEST ISZERO PUSH2 0x4660 JUMPI JUMP JUMPDEST PUSH1 0x40 MLOAD PUSH3 0x461BCD PUSH1 0xE5 SHL DUP2 MSTORE PUSH1 0x20 PUSH1 0x4 DUP3 ADD MSTORE PUSH1 0xF PUSH1 0x24 DUP3 ADD MSTORE PUSH15 0x4F56613A207A65726F207072696365 PUSH1 0x88 SHL PUSH1 0x44 DUP3 ADD MSTORE PUSH1 0x64 SWAP1 REVERT JUMPDEST ISZERO PUSH2 0x469E JUMPI JUMP JUMPDEST PUSH1 0x40 MLOAD PUSH3 0x461BCD PUSH1 0xE5 SHL DUP2 MSTORE PUSH1 0x20 PUSH1 0x4 DUP3 ADD MSTORE PUSH1 0x1A PUSH1 0x24 DUP3 ADD MSTORE PUSH26 0x13D5984E881D5B9CDD5C1C1BDC9D1959081B999D08185CDCD95D PUSH1 0x32 SHL PUSH1 0x44 DUP3 ADD MSTORE PUSH1 0x64 SWAP1 REVERT JUMPDEST PUSH1 0x40 DUP2 ADD MLOAD PUSH2 0x46FD SWAP1 PUSH1 0x1 PUSH1 0x1 PUSH1 0xA0 SHL SUB SWAP1 DUP2 AND JUMPDEST AND ISZERO ISZERO PUSH2 0x45A3 JUMP JUMPDEST PUSH2 0x4748 PUSH1 0x1 PUSH1 0x1 PUSH1 0x40 SHL SUB PUSH2 0x4731 DUP2 PUSH2 0x4720 PUSH1 0xA0 DUP7 ADD MLOAD PUSH1 0x1 PUSH1 0x1 PUSH1 0x40 SHL SUB AND SWAP1 JUMP JUMPDEST AND DUP1 ISZERO SWAP1 DUP2 ISZERO PUSH2 0x47C7 JUMPI JUMPDEST POP PUSH2 0x45E1 JUMP JUMPDEST PUSH1 0xC0 DUP4 ADD MLOAD PUSH1 0x1 PUSH1 0x1 PUSH1 0x40 SHL SUB AND JUMPDEST AND ISZERO ISZERO PUSH2 0x461C JUMP JUMPDEST DUP1 MLOAD PUSH2 0x4753 DUP2 PUSH2 0x989 JUMP JUMPDEST PUSH2 0x475C DUP2 PUSH2 0x989 JUMP JUMPDEST PUSH2 0x4785 JUMPI PUSH1 0x60 ADD MLOAD PUSH1 0x20 ADD MLOAD PUSH2 0x5CB SWAP1 PUSH2 0x477E SWAP1 PUSH1 0x1 PUSH1 0x1 PUSH1 0xA0 SHL SUB AND PUSH2 0x2074 JUMP JUMPDEST ISZERO ISZERO PUSH2 0x4697 JUMP JUMPDEST PUSH1 0x1 DUP2 MLOAD PUSH2 0x4792 DUP2 PUSH2 0x989 JUMP JUMPDEST PUSH2 0x479B DUP2 PUSH2 0x989 JUMP JUMPDEST EQ PUSH2 0x47A3 JUMPI POP JUMP JUMPDEST PUSH1 0x80 ADD MLOAD PUSH2 0x5CB SWAP1 PUSH1 0x1 PUSH1 0x1 PUSH1 0x80 SHL SUB SWAP1 PUSH2 0x47BF SWAP1 DUP3 AND PUSH2 0x441 JUMP JUMPDEST AND ISZERO ISZERO PUSH2 0x4659 JUMP JUMPDEST SWAP1 POP TIMESTAMP LT CODESIZE PUSH2 0x472B JUMP JUMPDEST PUSH1 0x40 DUP2 ADD MLOAD SWAP1 SWAP2 SWAP1 PUSH2 0x47ED SWAP1 PUSH1 0x1 PUSH1 0x1 PUSH1 0xA0 SHL SUB SWAP1 DUP2 AND PUSH2 0x46F5 JUMP JUMPDEST ISZERO PUSH2 0x4812 JUMPI JUMPDEST PUSH2 0x4748 PUSH1 0x1 PUSH1 0x1 PUSH1 0x40 SHL SUB PUSH2 0x4740 PUSH1 0xC0 DUP5 ADD MLOAD PUSH1 0x1 PUSH1 0x1 PUSH1 0x40 SHL SUB AND SWAP1 JUMP JUMPDEST PUSH2 0x4831 PUSH1 0x1 PUSH1 0x1 PUSH1 0x40 SHL SUB PUSH2 0x4720 PUSH1 0xA0 DUP5 ADD MLOAD PUSH1 0x1 PUSH1 0x1 PUSH1 0x40 SHL SUB AND SWAP1 JUMP JUMPDEST PUSH2 0x47F3 JUMP JUMPDEST SWAP1 PUSH1 0x0 NOT DUP3 EQ PUSH2 0x4850 JUMPI PUSH1 0x0 MSTORE PUSH1 0x35 PUSH1 0x20 MSTORE PUSH1 0x40 PUSH1 0x0 KECCAK256 SSTORE JUMP JUMPDEST PUSH1 0x40 MLOAD PUSH3 0x461BCD PUSH1 0xE5 SHL DUP2 MSTORE PUSH1 0x20 PUSH1 0x4 DUP3 ADD MSTORE PUSH1 0xD PUSH1 0x24 DUP3 ADD MSTORE PUSH13 0x13D5984E8818D85B98D95B1959 PUSH1 0x9A SHL PUSH1 0x44 DUP3 ADD MSTORE PUSH1 0x64 SWAP1 REVERT JUMPDEST PUSH2 0x488D PUSH2 0x1E10 JUMP JUMPDEST PUSH2 0x4895 PUSH2 0x1E10 JUMP JUMPDEST PUSH1 0x1 PUSH1 0x1 PUSH1 0x80 SHL SUB AND PUSH2 0x3E8 DUP2 GT PUSH2 0xEAA JUMPI PUSH1 0x68 DUP1 SLOAD PUSH1 0x1 PUSH1 0x1 PUSH1 0x80 SHL SUB NOT AND DUP3 OR SWAP1 SSTORE PUSH32 0xB52884D4590055C8791518C34458834F75FEED662340EF0B5AF2898E7A9BE9F PUSH1 0x0 DUP1 LOG2 JUMP JUMPDEST SWAP6 SWAP5 SWAP3 SWAP1 SWAP2 PUSH1 0x76 SWAP8 SWAP5 SWAP3 PUSH32 0x7E112775C49CC2F5D597CC604EAC1616AFA66EE95CC7C4D46A97CA90B539CA33 DUP9 MSTORE PUSH2 0x4916 DUP2 PUSH2 0x989 JUMP JUMPDEST PUSH1 0xF8 SHL PUSH1 0x20 DUP9 ADD MSTORE PUSH2 0x4927 DUP2 PUSH2 0x989 JUMP JUMPDEST PUSH1 0xF8 SHL PUSH1 0x21 DUP8 ADD MSTORE PUSH1 0x60 SHL PUSH1 0x1 PUSH1 0x1 PUSH1 0x60 SHL SUB NOT AND PUSH1 0x22 DUP7 ADD MSTORE PUSH1 0x36 DUP6 ADD MSTORE PUSH1 0x80 SHL PUSH1 0x1 PUSH1 0x1 PUSH1 0x80 SHL SUB NOT AND PUSH1 0x56 DUP5 ADD MSTORE PUSH1 0xC0 SWAP2 DUP3 SHL PUSH1 0x1 PUSH1 0x1 PUSH1 0xC0 SHL SUB NOT SWAP1 DUP2 AND PUSH1 0x66 DUP6 ADD MSTORE SWAP2 SHL AND PUSH1 0x6E DUP3 ADD MSTORE ADD SWAP1 JUMP JUMPDEST DUP1 MLOAD SWAP1 PUSH2 0x4986 DUP3 PUSH2 0x989 JUMP JUMPDEST PUSH2 0x4A65 PUSH1 0x20 DUP3 ADD MLOAD PUSH2 0x4997 DUP2 PUSH2 0x989 JUMP JUMPDEST PUSH2 0x18B7 PUSH1 0x1 DUP1 PUSH1 0xA0 SHL SUB SWAP4 DUP5 PUSH1 0x40 DUP3 ADD MLOAD AND SWAP5 PUSH1 0x60 DUP3 ADD MLOAD DUP1 MLOAD SWAP2 PUSH1 0x20 DUP3 ADD MLOAD AND SWAP1 PUSH1 0x40 PUSH1 0x1 DUP1 PUSH1 0x60 SHL SUB SWAP2 ADD MLOAD AND PUSH1 0x40 MLOAD SWAP2 PUSH1 0x20 DUP4 ADD SWAP4 PUSH32 0x631E462BF410C643F967C13284911D970AA0A06097A11E4A1A7AD9549175D78A DUP6 MSTORE PUSH1 0x40 DUP5 ADD MSTORE PUSH1 0x60 DUP4 ADD MSTORE PUSH1 0x80 DUP3 ADD MSTORE PUSH1 0x80 DUP2 MSTORE PUSH2 0x4A0E DUP2 PUSH2 0x750 JUMP JUMPDEST MLOAD SWAP1 KECCAK256 PUSH1 0x80 DUP3 ADD MLOAD SWAP1 SWAP2 SWAP1 PUSH2 0x4A2B SWAP1 PUSH1 0x1 PUSH1 0x1 PUSH1 0x80 SHL SUB AND PUSH2 0x441 JUMP JUMPDEST PUSH2 0x4A53 PUSH1 0xC0 PUSH2 0x4A44 PUSH1 0xA0 DUP6 ADD MLOAD PUSH1 0x1 PUSH1 0x1 PUSH1 0x40 SHL SUB AND SWAP1 JUMP JUMPDEST SWAP4 ADD MLOAD PUSH1 0x1 PUSH1 0x1 PUSH1 0x40 SHL SUB AND SWAP1 JUMP JUMPDEST SWAP3 PUSH1 0x40 MLOAD SWAP8 DUP9 SWAP7 PUSH1 0x20 DUP9 ADD SWAP11 DUP12 PUSH2 0x48E0 JUMP JUMPDEST MLOAD SWAP1 KECCAK256 SWAP1 JUMP JUMPDEST PUSH1 0x0 DUP1 DUP1 SWAP4 DUP2 SWAP4 GAS CALL ISZERO PUSH2 0x4A7B JUMPI JUMP JUMPDEST PUSH1 0x40 MLOAD PUSH3 0x461BCD PUSH1 0xE5 SHL DUP2 MSTORE PUSH1 0x20 PUSH1 0x4 DUP3 ADD MSTORE PUSH1 0x13 PUSH1 0x24 DUP3 ADD MSTORE PUSH19 0x11551217D514905394D1915497D19052531151 PUSH1 0x6A SHL PUSH1 0x44 DUP3 ADD MSTORE PUSH1 0x64 SWAP1 REVERT JUMPDEST DUP1 SLOAD PUSH1 0x1 PUSH1 0x1 PUSH1 0x80 SHL SUB AND SWAP1 DUP2 PUSH2 0x4ACB JUMPI POP SWAP1 JUMP JUMPDEST SWAP2 SWAP1 SWAP2 JUMPDEST PUSH1 0x1 DUP2 ADD PUSH2 0x4ADD DUP5 DUP3 PUSH2 0x162C JUMP JUMPDEST SLOAD SWAP1 PUSH1 0x80 SWAP2 DUP3 SHR ISZERO PUSH2 0x4B03 JUMPI PUSH1 0x1 SWAP3 SWAP4 SWAP5 PUSH2 0x4AF7 SWAP2 PUSH2 0x162C JUMP JUMPDEST SLOAD SWAP1 SHR SWAP3 SWAP2 SWAP1 POP PUSH2 0x4ACF JUMP JUMPDEST POP POP POP JUMP JUMPDEST DUP1 SLOAD PUSH1 0x1 PUSH1 0x1 PUSH1 0x80 SHL SUB SWAP1 DUP2 AND SWAP3 SWAP2 DUP4 PUSH2 0x4B20 JUMPI POP POP JUMP JUMPDEST SWAP2 SWAP1 SWAP3 JUMPDEST PUSH1 0x1 SWAP1 DUP2 DUP5 ADD DUP6 DUP4 PUSH2 0x4B36 DUP5 DUP5 PUSH2 0x162C JUMP JUMPDEST ADD SLOAD AND ISZERO PUSH2 0x4B52 JUMPI DUP6 SWAP3 SWAP2 PUSH2 0x4B4A SWAP2 PUSH2 0x162C JUMP JUMPDEST ADD SLOAD AND PUSH2 0x4B24 JUMP JUMPDEST POP SWAP4 POP POP SWAP1 POP JUMP JUMPDEST SWAP1 PUSH1 0x1 PUSH1 0x1 PUSH1 0x80 SHL SUB DUP1 DUP3 AND ISZERO PUSH2 0x4C1B JUMPI PUSH1 0x1 DUP1 DUP5 ADD SWAP2 PUSH2 0x4B88 PUSH2 0x3B19 PUSH2 0x4B81 DUP7 DUP7 PUSH2 0x162C JUMP JUMPDEST SLOAD PUSH1 0x80 SHR SWAP1 JUMP JUMPDEST ISZERO PUSH2 0x4BA6 JUMPI POP POP PUSH2 0x4B81 PUSH2 0x5FF SWAP4 SWAP3 PUSH2 0x4BA0 SWAP3 PUSH2 0x162C JUMP JUMPDEST SWAP1 PUSH2 0x50FA JUMP JUMPDEST SWAP1 SWAP5 SWAP4 POP DUP3 PUSH2 0x4BB9 PUSH2 0x3B5A DUP8 SWAP6 DUP6 PUSH2 0x162C JUMP JUMPDEST SWAP6 JUMPDEST PUSH2 0x4BC5 JUMPI POP POP POP POP JUMP JUMPDEST DUP2 DUP7 SWAP3 SWAP4 SWAP6 SWAP5 SWAP7 AND ISZERO ISZERO SWAP1 DUP2 PUSH2 0x4BFC JUMPI JUMPDEST POP ISZERO PUSH2 0x4BF4 JUMPI PUSH2 0x4BE9 PUSH2 0x3B5A DUP3 DUP7 PUSH2 0x162C JUMP JUMPDEST SWAP5 SWAP3 SWAP4 SWAP2 SWAP1 DUP4 PUSH2 0x4BBB JUMP JUMPDEST SWAP4 DUP3 SWAP4 PUSH2 0x423E JUMP JUMPDEST SWAP1 POP DUP3 PUSH2 0x4C12 PUSH2 0x441 PUSH2 0x441 PUSH2 0x4B81 DUP7 DUP11 PUSH2 0x162C JUMP JUMPDEST SWAP2 AND EQ CODESIZE PUSH2 0x4BD6 JUMP JUMPDEST PUSH1 0x40 MLOAD PUSH4 0x1B67230F PUSH1 0xE3 SHL DUP2 MSTORE PUSH1 0x4 SWAP1 REVERT JUMPDEST PUSH1 0x1 PUSH1 0x1 PUSH1 0x80 SHL SUB DUP3 DUP2 AND DUP1 ISZERO ISZERO SWAP4 SWAP1 DUP5 PUSH2 0x4C49 JUMPI POP POP POP POP SWAP1 JUMP JUMPDEST DUP4 SLOAD DUP4 AND EQ SWAP4 POP SWAP1 SWAP2 DUP4 ISZERO PUSH2 0x4C65 JUMPI JUMPDEST POP POP POP CODESIZE DUP1 DUP1 DUP1 PUSH2 0x3B6E JUMP JUMPDEST PUSH2 0x4C73 SWAP3 SWAP4 POP PUSH1 0x1 ADD PUSH2 0x162C JUMP JUMPDEST SLOAD AND ISZERO ISZERO CODESIZE DUP1 DUP1 PUSH2 0x4C59 JUMP JUMPDEST DUP1 SLOAD PUSH1 0x1 PUSH1 0x1 PUSH1 0x80 SHL SUB AND PUSH1 0x80 SWAP3 SWAP1 SWAP3 SHL PUSH1 0x1 PUSH1 0x1 PUSH1 0x80 SHL SUB NOT AND SWAP2 SWAP1 SWAP2 OR SWAP1 SSTORE JUMP JUMPDEST DUP1 SLOAD PUSH1 0xFF PUSH1 0x80 SHL NOT AND PUSH1 0x80 SWAP3 SWAP1 SWAP3 SHL PUSH1 0xFF PUSH1 0x80 SHL AND SWAP2 SWAP1 SWAP2 OR SWAP1 SSTORE JUMP JUMPDEST PUSH1 0xFF PUSH1 0x60 PUSH2 0x5CB SWAP4 PUSH2 0x4CFE PUSH1 0x1 DUP1 DUP1 PUSH1 0x80 SHL SUB SWAP6 PUSH2 0x4CE0 DUP8 DUP6 MLOAD AND DUP3 PUSH2 0x3BCC JUMP JUMPDEST PUSH2 0x4CF0 DUP8 PUSH1 0x20 DUP7 ADD MLOAD AND DUP3 PUSH2 0x4C7F JUMP JUMPDEST ADD SWAP5 PUSH1 0x40 DUP4 ADD MLOAD AND DUP6 PUSH2 0x3BCC JUMP JUMPDEST ADD MLOAD AND SWAP1 PUSH2 0x4CA2 JUMP JUMPDEST SWAP1 SWAP2 PUSH1 0x1 PUSH1 0x1 PUSH1 0x80 SHL SUB SWAP1 DUP2 DUP5 AND SWAP1 DUP2 ISZERO PUSH2 0x4E2C JUMPI PUSH2 0x4D26 DUP6 DUP6 PUSH2 0x4C2D JUMP JUMPDEST PUSH2 0x4E1A JUMPI DUP4 SLOAD PUSH1 0x0 SWAP6 SWAP1 PUSH1 0x1 PUSH1 0x1 PUSH1 0x80 SHL SUB AND JUMPDEST DUP5 DUP2 AND SWAP7 DUP8 ISZERO PUSH2 0x4D80 JUMPI POP DUP1 SWAP7 DUP5 LT PUSH1 0x0 EQ PUSH2 0x4D68 JUMPI PUSH2 0x4B81 PUSH2 0x4D60 SWAP2 PUSH1 0x1 DUP9 ADD PUSH2 0x162C JUMP JUMPDEST SWAP6 JUMPDEST SWAP6 PUSH2 0x4D3A JUMP JUMPDEST PUSH2 0x4D7A SWAP1 PUSH2 0x3B0B PUSH1 0x1 SWAP2 DUP3 DUP10 ADD PUSH2 0x162C JUMP JUMPDEST SWAP6 PUSH2 0x4D62 JUMP JUMPDEST SWAP3 SWAP7 POP POP DUP1 SWAP4 PUSH2 0x5CB SWAP6 SWAP4 PUSH2 0x4D93 PUSH2 0x799 JUMP JUMPDEST PUSH1 0x1 PUSH1 0x1 PUSH1 0x80 SHL SUB DUP6 AND DUP2 MSTORE SWAP2 PUSH1 0x0 PUSH1 0x20 DUP5 ADD MSTORE PUSH1 0x0 PUSH1 0x40 DUP5 ADD MSTORE PUSH2 0x4DBB PUSH1 0x60 DUP5 ADD PUSH1 0x1 SWAP1 MSTORE JUMP JUMPDEST PUSH2 0x4DD2 PUSH1 0x1 DUP8 ADD SWAP4 PUSH2 0x4DCD DUP7 DUP7 PUSH2 0x162C JUMP JUMPDEST PUSH2 0x4CBF JUMP JUMPDEST DUP5 AND SWAP1 DUP2 PUSH2 0x4DED JUMPI POP POP POP PUSH2 0x4DE8 SWAP2 POP DUP3 PUSH2 0x3BCC JUMP JUMPDEST PUSH2 0x5139 JUMP JUMPDEST LT ISZERO PUSH2 0x4E05 JUMPI PUSH2 0x4DE8 SWAP3 PUSH2 0x4E00 SWAP2 PUSH2 0x162C JUMP JUMPDEST PUSH2 0x4C7F JUMP JUMPDEST PUSH2 0x4E14 PUSH2 0x4DE8 SWAP4 PUSH1 0x1 SWAP3 PUSH2 0x162C JUMP JUMPDEST ADD PUSH2 0x3BCC JUMP JUMPDEST PUSH1 0x40 MLOAD PUSH4 0x8CAA2CCF PUSH1 0xE0 SHL DUP2 MSTORE PUSH1 0x4 SWAP1 REVERT JUMPDEST PUSH1 0x40 MLOAD PUSH4 0x18664979 PUSH1 0xE0 SHL DUP2 MSTORE PUSH1 0x4 SWAP1 REVERT JUMPDEST PUSH1 0x1 PUSH1 0x1 PUSH1 0x80 SHL SUB SWAP2 SWAP1 DUP3 DUP3 AND DUP1 ISZERO PUSH2 0x50B0 JUMPI PUSH2 0x4E5E PUSH2 0x3DCE DUP5 DUP5 PUSH2 0x4C2D JUMP JUMPDEST PUSH2 0x509E JUMPI PUSH1 0x1 SWAP4 DUP5 DUP4 ADD SWAP4 PUSH2 0x4E86 PUSH2 0x4E79 PUSH2 0x4B81 DUP4 DUP9 PUSH2 0x162C JUMP JUMPDEST PUSH1 0x1 PUSH1 0x1 PUSH1 0x80 SHL SUB AND ISZERO SWAP1 JUMP JUMPDEST DUP1 ISZERO PUSH2 0x5087 JUMPI JUMPDEST ISZERO PUSH2 0x502F JUMPI SWAP2 PUSH2 0x5CB SWAP6 SWAP4 SWAP2 DUP4 PUSH2 0x428B SWAP7 SWAP5 SWAP6 JUMPDEST PUSH2 0x4EB1 PUSH2 0x3B19 PUSH2 0x4B81 DUP10 DUP10 PUSH2 0x162C JUMP JUMPDEST ISZERO PUSH2 0x501B JUMPI PUSH2 0x4EC3 PUSH2 0x4B81 DUP9 DUP9 PUSH2 0x162C JUMP JUMPDEST SWAP4 JUMPDEST PUSH2 0x4ED2 PUSH2 0x3B5A DUP10 DUP10 PUSH2 0x162C JUMP JUMPDEST PUSH2 0x4EE5 DUP2 PUSH2 0x4EE0 DUP9 DUP12 PUSH2 0x162C JUMP JUMPDEST PUSH2 0x3BCC JUMP JUMPDEST DUP6 DUP4 DUP10 DUP4 DUP9 AND ISZERO PUSH2 0x500E JUMPI PUSH2 0x441 PUSH2 0x441 PUSH2 0x4B81 DUP7 PUSH2 0x4F03 SWAP5 PUSH2 0x162C JUMP JUMPDEST DUP12 DUP9 AND SUB PUSH2 0x4FFC JUMPI POP PUSH2 0x4E00 PUSH2 0x4F19 SWAP3 DUP11 PUSH2 0x162C JUMP JUMPDEST DUP2 PUSH1 0xFF PUSH2 0x4F35 DUP3 PUSH2 0x4F2A DUP13 DUP13 PUSH2 0x162C JUMP JUMPDEST ADD SLOAD PUSH1 0x80 SHR PUSH1 0xFF AND SWAP1 JUMP JUMPDEST AND EQ ISZERO SWAP4 DUP9 AND SUB PUSH2 0x4F5F JUMPI JUMPDEST POP POP PUSH2 0x4F4F JUMPI JUMPDEST POP POP PUSH2 0x162C JUMP JUMPDEST PUSH2 0x4F58 SWAP2 PUSH2 0x55D6 JUMP JUMPDEST CODESIZE DUP1 PUSH2 0x4F48 JUMP JUMPDEST SWAP6 DUP2 SWAP3 SWAP7 PUSH2 0x4F71 PUSH2 0x4FF4 SWAP4 DUP4 DUP9 PUSH2 0x5562 JUMP JUMPDEST PUSH2 0x4F8B PUSH2 0x4F81 PUSH2 0x4B81 DUP7 DUP11 PUSH2 0x162C JUMP JUMPDEST PUSH2 0x4E00 DUP5 DUP11 PUSH2 0x162C JUMP JUMPDEST PUSH2 0x4FA5 DUP3 PUSH2 0x4EE0 PUSH2 0x4F9F PUSH2 0x4B81 DUP4 DUP13 PUSH2 0x162C JUMP JUMPDEST DUP11 PUSH2 0x162C JUMP JUMPDEST PUSH2 0x4FC1 PUSH2 0x4FB6 DUP3 PUSH2 0x3B0B DUP8 DUP12 PUSH2 0x162C JUMP JUMPDEST DUP3 PUSH2 0x4E14 DUP6 DUP12 PUSH2 0x162C JUMP JUMPDEST PUSH2 0x4FD6 DUP3 PUSH2 0x4EE0 PUSH2 0x4F9F DUP5 PUSH2 0x3B0B DUP5 DUP14 PUSH2 0x162C JUMP JUMPDEST PUSH2 0x4FEE PUSH2 0x4FE7 DUP3 PUSH2 0x4F2A DUP8 DUP12 PUSH2 0x162C JUMP JUMPDEST SWAP3 DUP9 PUSH2 0x162C JUMP JUMPDEST ADD PUSH2 0x4CA2 JUMP JUMPDEST SWAP4 CODESIZE DUP1 PUSH2 0x4F41 JUMP JUMPDEST PUSH2 0x4E14 PUSH2 0x5009 SWAP4 DUP12 PUSH2 0x162C JUMP JUMPDEST PUSH2 0x4F19 JUMP JUMPDEST POP POP PUSH2 0x5009 SWAP2 POP DUP8 PUSH2 0x3BCC JUMP JUMPDEST PUSH2 0x5029 DUP2 PUSH2 0x3B0B DUP10 DUP10 PUSH2 0x162C JUMP JUMPDEST SWAP4 PUSH2 0x4EC5 JUMP JUMPDEST DUP6 PUSH2 0x503E DUP2 PUSH2 0x3B0B DUP5 DUP10 PUSH2 0x162C JUMP JUMPDEST SWAP7 JUMPDEST PUSH2 0x5057 JUMPI JUMPDEST SWAP2 PUSH2 0x428B SWAP6 SWAP4 SWAP2 PUSH2 0x5CB SWAP8 SWAP6 SWAP4 PUSH2 0x4EA1 JUMP JUMPDEST SWAP6 PUSH2 0x5068 PUSH2 0x3B19 PUSH2 0x4B81 DUP4 DUP10 PUSH2 0x162C JUMP JUMPDEST ISZERO PUSH2 0x5081 JUMPI PUSH2 0x507B PUSH2 0x4B81 DUP9 SWAP3 DUP9 PUSH2 0x162C JUMP JUMPDEST SWAP7 PUSH2 0x5040 JUMP JUMPDEST SWAP6 PUSH2 0x5045 JUMP JUMPDEST POP PUSH2 0x5099 PUSH2 0x4E79 DUP8 PUSH2 0x3B0B DUP5 DUP10 PUSH2 0x162C JUMP JUMPDEST PUSH2 0x4E8D JUMP JUMPDEST PUSH1 0x40 MLOAD PUSH4 0x26549D15 PUSH1 0xE1 SHL DUP2 MSTORE PUSH1 0x4 SWAP1 REVERT JUMPDEST PUSH1 0x40 MLOAD PUSH4 0xF4821579 PUSH1 0xE0 SHL DUP2 MSTORE PUSH1 0x4 SWAP1 REVERT JUMPDEST PUSH1 0x1 DUP2 ADD PUSH2 0x50D0 DUP4 DUP3 PUSH2 0x162C JUMP JUMPDEST SLOAD SWAP1 PUSH1 0x80 SWAP2 DUP3 SHR ISZERO PUSH2 0x50F4 JUMPI PUSH1 0x1 SWAP3 SWAP4 PUSH2 0x50E9 SWAP2 PUSH2 0x162C JUMP JUMPDEST SLOAD SWAP1 SHR SWAP2 SWAP1 POP PUSH2 0x50C2 JUMP JUMPDEST POP POP POP SWAP1 JUMP JUMPDEST SWAP1 JUMPDEST PUSH1 0x1 PUSH1 0x1 PUSH1 0x80 SHL SUB SWAP1 PUSH1 0x1 SWAP1 DUP4 DUP3 ADD DUP4 DUP4 PUSH2 0x5117 DUP5 DUP5 PUSH2 0x162C JUMP JUMPDEST ADD SLOAD AND ISZERO PUSH2 0x5131 JUMPI SWAP1 PUSH2 0x5129 SWAP2 PUSH2 0x162C JUMP JUMPDEST ADD SLOAD AND PUSH2 0x50FC JUMP JUMPDEST POP SWAP3 POP POP POP SWAP1 JUMP JUMPDEST DUP1 SLOAD PUSH1 0x1 PUSH1 0x1 PUSH1 0x80 SHL SUB SWAP3 DUP1 DUP5 AND SWAP2 PUSH2 0x5155 SWAP1 PUSH2 0x441 SWAP1 DUP7 AND DUP2 JUMP JUMPDEST DUP3 EQ ISZERO DUP1 PUSH2 0x5387 JUMPI JUMPDEST ISZERO PUSH2 0x5366 JUMPI PUSH1 0x1 SWAP4 DUP5 DUP5 ADD SWAP2 PUSH2 0x5177 PUSH2 0x3B5A DUP3 DUP6 PUSH2 0x162C JUMP JUMPDEST SWAP4 PUSH2 0x5197 PUSH2 0x441 PUSH2 0x441 PUSH2 0x4B81 PUSH2 0x5191 PUSH2 0x3B5A DUP11 DUP11 PUSH2 0x162C JUMP JUMPDEST DUP9 PUSH2 0x162C JUMP JUMPDEST DUP6 DUP5 AND SUB PUSH2 0x52AE JUMPI POP PUSH2 0x51BA DUP7 PUSH2 0x3B0B PUSH2 0x51B4 PUSH2 0x3B5A DUP9 DUP9 PUSH2 0x162C JUMP JUMPDEST DUP7 PUSH2 0x162C JUMP JUMPDEST SWAP2 DUP7 PUSH1 0xFF PUSH2 0x51CC DUP3 PUSH2 0x4F2A DUP8 DUP10 PUSH2 0x162C JUMP JUMPDEST AND SUB PUSH2 0x523B JUMPI POP POP SWAP1 PUSH2 0xAEC DUP6 PUSH2 0x520B DUP2 PUSH2 0x51F7 DUP8 SWAP7 PUSH2 0x51B4 PUSH2 0x5235 SWAP11 SWAP12 PUSH2 0x51F7 PUSH2 0x3B5A SWAP12 DUP11 PUSH2 0x162C JUMP JUMPDEST ADD DUP1 SLOAD PUSH1 0xFF PUSH1 0x80 SHL NOT AND PUSH1 0x1 PUSH1 0x81 SHL OR SWAP1 SSTORE JUMP JUMPDEST PUSH2 0x5221 PUSH2 0x521B PUSH2 0x3B5A DUP7 DUP7 PUSH2 0x162C JUMP JUMPDEST DUP5 PUSH2 0x162C JUMP JUMPDEST ADD DUP1 SLOAD PUSH1 0xFF PUSH1 0x80 SHL NOT AND PUSH1 0x1 PUSH1 0x80 SHL OR SWAP1 SSTORE JUMP JUMPDEST SWAP1 PUSH2 0x5139 JUMP JUMPDEST SWAP1 SWAP6 SWAP4 SWAP2 POP PUSH2 0x5254 PUSH2 0x441 PUSH2 0x441 DUP7 PUSH2 0x3B0B DUP7 DUP9 PUSH2 0x162C JUMP JUMPDEST SWAP1 DUP7 AND EQ PUSH2 0x528E JUMPI JUMPDEST POP PUSH2 0x3B5A PUSH2 0x4DE8 SWAP3 DUP3 PUSH2 0xAEC PUSH2 0x5279 PUSH2 0x3B5A DUP10 PUSH2 0x5288 SWAP8 PUSH2 0x162C JUMP JUMPDEST SWAP3 PUSH2 0x520B DUP2 PUSH2 0x51F7 DUP7 DUP7 PUSH2 0x162C JUMP JUMPDEST DUP3 PUSH2 0x5485 JUMP JUMPDEST SWAP4 POP PUSH2 0x3B5A PUSH2 0x4DE8 SWAP3 PUSH2 0x5288 SWAP3 PUSH2 0x52A5 DUP8 DUP8 PUSH2 0x53AA JUMP JUMPDEST SWAP3 POP SWAP3 POP PUSH2 0x525D JUMP JUMPDEST SWAP2 POP PUSH2 0x52C9 PUSH2 0x4B81 PUSH2 0x52C3 PUSH2 0x3B5A DUP8 DUP8 PUSH2 0x162C JUMP JUMPDEST DUP6 PUSH2 0x162C JUMP JUMPDEST SWAP2 DUP7 PUSH1 0xFF PUSH2 0x52DB DUP3 PUSH2 0x4F2A DUP8 DUP10 PUSH2 0x162C JUMP JUMPDEST AND SUB PUSH2 0x5306 JUMPI POP POP SWAP1 PUSH2 0xAEC DUP6 PUSH2 0x520B DUP2 PUSH2 0x51F7 DUP8 SWAP7 PUSH2 0x51B4 PUSH2 0x5235 SWAP11 SWAP12 PUSH2 0x51F7 PUSH2 0x3B5A SWAP12 DUP11 PUSH2 0x162C JUMP JUMPDEST SWAP1 SWAP6 SWAP4 SWAP2 POP PUSH2 0x531E PUSH2 0x441 PUSH2 0x441 PUSH2 0x4B81 DUP6 DUP8 PUSH2 0x162C JUMP JUMPDEST EQ PUSH2 0x5346 JUMPI JUMPDEST POP PUSH2 0x3B5A PUSH2 0x4DE8 SWAP3 DUP3 PUSH2 0xAEC PUSH2 0x5279 PUSH2 0x3B5A DUP10 PUSH2 0x5340 SWAP8 PUSH2 0x162C JUMP JUMPDEST DUP3 PUSH2 0x53AA JUMP JUMPDEST SWAP4 POP PUSH2 0x3B5A PUSH2 0x4DE8 SWAP3 PUSH2 0x5340 SWAP3 PUSH2 0x535D DUP8 DUP8 PUSH2 0x5485 JUMP JUMPDEST SWAP3 POP SWAP3 POP PUSH2 0x5324 JUMP JUMPDEST POP POP DUP1 SLOAD PUSH2 0x5CB SWAP3 POP PUSH1 0x1 SWAP2 PUSH2 0x51F7 SWAP2 PUSH1 0x1 PUSH1 0x1 PUSH1 0x80 SHL SUB AND SWAP1 DUP4 ADD PUSH2 0x162C JUMP JUMPDEST POP PUSH1 0x1 PUSH1 0xFF PUSH2 0x53A3 DUP3 PUSH2 0x4F2A DUP2 DUP9 ADD PUSH2 0x3E16 PUSH2 0x3B5A DUP9 DUP4 PUSH2 0x162C JUMP JUMPDEST AND EQ PUSH2 0x515E JUMP JUMPDEST PUSH2 0x4EE0 PUSH2 0x5CB SWAP3 PUSH1 0x1 DUP4 ADD PUSH2 0x53C4 PUSH1 0x1 PUSH2 0x3B0B DUP5 DUP5 PUSH2 0x162C JUMP JUMPDEST SWAP4 DUP5 PUSH2 0x53D3 PUSH2 0x3B5A DUP6 DUP6 PUSH2 0x162C JUMP JUMPDEST SWAP2 PUSH2 0x53E1 PUSH2 0x4B81 DUP4 DUP7 PUSH2 0x162C JUMP JUMPDEST PUSH2 0x53F1 DUP2 PUSH1 0x1 PUSH2 0x4E14 DUP10 DUP10 PUSH2 0x162C JUMP JUMPDEST PUSH1 0x1 PUSH1 0x1 PUSH1 0x80 SHL SUB SWAP1 DUP7 DUP2 DUP4 AND PUSH2 0x5471 JUMPI JUMPDEST POP POP PUSH2 0x5413 DUP5 PUSH2 0x4EE0 DUP6 DUP9 PUSH2 0x162C JUMP JUMPDEST DUP4 DUP2 AND PUSH2 0x5433 JUMPI POP PUSH2 0x5425 SWAP3 POP PUSH2 0x3BCC JUMP JUMPDEST PUSH2 0xAEC DUP3 PUSH2 0x4E00 DUP7 DUP5 PUSH2 0x162C JUMP JUMPDEST SWAP1 POP PUSH2 0x5448 PUSH2 0x441 PUSH2 0x441 PUSH2 0x4B81 DUP7 DUP9 PUSH2 0x162C JUMP JUMPDEST SWAP1 DUP6 AND SUB PUSH2 0x5462 JUMPI PUSH2 0x4E00 PUSH2 0x545D SWAP3 DUP5 PUSH2 0x162C JUMP JUMPDEST PUSH2 0x5425 JUMP JUMPDEST PUSH1 0x1 PUSH2 0x4E14 PUSH2 0x545D SWAP4 DUP6 PUSH2 0x162C JUMP JUMPDEST PUSH2 0x4EE0 PUSH2 0x547E SWAP3 DUP9 PUSH2 0x162C JUMP JUMPDEST CODESIZE DUP7 PUSH2 0x5403 JUMP JUMPDEST PUSH2 0x4EE0 PUSH2 0x5CB SWAP3 PUSH1 0x1 DUP4 ADD PUSH2 0x549D PUSH2 0x4B81 DUP4 DUP4 PUSH2 0x162C JUMP JUMPDEST SWAP4 DUP5 PUSH2 0x54AC PUSH2 0x3B5A DUP6 DUP6 PUSH2 0x162C JUMP JUMPDEST SWAP2 PUSH2 0x54BC PUSH1 0x1 PUSH2 0x3B0B DUP5 DUP8 PUSH2 0x162C JUMP JUMPDEST PUSH2 0x54CA DUP2 PUSH2 0x4E00 DUP9 DUP9 PUSH2 0x162C JUMP JUMPDEST PUSH1 0x1 PUSH1 0x1 PUSH1 0x80 SHL SUB SWAP1 DUP7 DUP2 DUP4 AND PUSH2 0x554E JUMPI JUMPDEST POP POP PUSH2 0x54EC DUP5 PUSH2 0x4EE0 DUP6 DUP9 PUSH2 0x162C JUMP JUMPDEST DUP4 DUP2 AND PUSH2 0x550E JUMPI POP PUSH2 0x54FE SWAP3 POP PUSH2 0x3BCC JUMP JUMPDEST PUSH2 0xAEC DUP3 PUSH1 0x1 PUSH2 0x4E14 DUP8 DUP6 PUSH2 0x162C JUMP JUMPDEST SWAP1 POP PUSH2 0x5525 PUSH2 0x441 PUSH2 0x441 PUSH1 0x1 PUSH2 0x3B0B DUP8 DUP10 PUSH2 0x162C JUMP JUMPDEST SWAP1 DUP6 AND SUB PUSH2 0x5541 JUMPI PUSH1 0x1 PUSH2 0x4E14 PUSH2 0x553C SWAP4 DUP6 PUSH2 0x162C JUMP JUMPDEST PUSH2 0x54FE JUMP JUMPDEST PUSH2 0x4E00 PUSH2 0x553C SWAP3 DUP5 PUSH2 0x162C JUMP JUMPDEST PUSH2 0x4EE0 PUSH2 0x555B SWAP3 DUP9 PUSH2 0x162C JUMP JUMPDEST CODESIZE DUP7 PUSH2 0x54DC JUMP JUMPDEST PUSH1 0x1 PUSH1 0x1 PUSH1 0x80 SHL SUB SWAP3 PUSH1 0x1 DUP3 ADD SWAP1 DUP5 PUSH2 0x557B DUP3 DUP5 PUSH2 0x162C JUMP JUMPDEST SLOAD AND SWAP5 PUSH2 0x558C DUP7 PUSH2 0x4EE0 DUP8 DUP7 PUSH2 0x162C JUMP JUMPDEST DUP6 PUSH2 0x559E JUMPI POP POP POP PUSH2 0x5CB SWAP3 POP PUSH2 0x3BCC JUMP JUMPDEST SWAP1 SWAP2 SWAP3 POP PUSH2 0x55AC DUP6 DUP5 PUSH2 0x162C JUMP JUMPDEST SLOAD PUSH1 0x80 SHR SWAP2 AND EQ PUSH1 0x0 EQ PUSH2 0x55C7 JUMPI PUSH2 0x5CB SWAP3 PUSH2 0x4E00 SWAP2 PUSH2 0x162C JUMP JUMPDEST PUSH2 0x4E14 PUSH2 0x5CB SWAP4 PUSH1 0x1 SWAP3 PUSH2 0x162C JUMP JUMPDEST SWAP1 JUMPDEST DUP2 SLOAD PUSH1 0x1 PUSH1 0x1 PUSH1 0x80 SHL SUB DUP3 DUP2 AND SWAP2 PUSH2 0x55F2 SWAP2 PUSH2 0x441 SWAP2 AND DUP2 JUMP JUMPDEST DUP2 EQ ISZERO DUP1 PUSH2 0x591C JUMPI JUMPDEST ISZERO PUSH2 0x590A JUMPI PUSH1 0x1 PUSH2 0x5612 PUSH2 0x3B5A DUP3 DUP7 ADD SWAP5 DUP6 PUSH2 0x162C JUMP JUMPDEST SWAP2 PUSH2 0x5626 PUSH2 0x441 PUSH2 0x441 PUSH2 0x4B81 DUP7 DUP9 PUSH2 0x162C JUMP JUMPDEST SUB PUSH2 0x57A7 JUMPI PUSH2 0x5639 DUP2 PUSH2 0x3B0B DUP5 DUP7 PUSH2 0x162C JUMP JUMPDEST SWAP3 DUP2 PUSH1 0xFF PUSH2 0x564B DUP3 PUSH2 0x4F2A DUP9 DUP7 PUSH2 0x162C JUMP JUMPDEST AND EQ PUSH2 0x576C JUMPI JUMPDEST DUP2 PUSH2 0x5670 PUSH2 0x566A DUP3 PUSH2 0x4F2A PUSH2 0x51B4 PUSH2 0x4B81 DUP11 DUP9 PUSH2 0x162C JUMP JUMPDEST PUSH1 0xFF AND SWAP1 JUMP JUMPDEST EQ ISZERO DUP1 PUSH2 0x574B JUMPI JUMPDEST ISZERO PUSH2 0x5693 JUMPI PUSH2 0x568B SWAP3 SWAP4 PUSH2 0x5221 SWAP2 PUSH2 0x162C JUMP JUMPDEST SWAP1 JUMPDEST SWAP1 PUSH2 0x55D8 JUMP JUMPDEST SWAP1 PUSH2 0x51F7 DUP3 DUP6 DUP4 DUP1 PUSH2 0x56B9 PUSH2 0x566A DUP3 PUSH2 0x4F2A PUSH2 0x5191 DUP3 PUSH2 0x3B0B PUSH2 0x56F0 SWAP16 PUSH2 0x5340 SWAP15 PUSH2 0x162C JUMP JUMPDEST SUB PUSH2 0x5702 JUMPI JUMPDEST PUSH2 0x3B0B PUSH2 0x3E16 SWAP3 PUSH2 0x56E2 PUSH2 0x56D7 DUP5 PUSH2 0x4F2A DUP13 DUP10 PUSH2 0x162C JUMP JUMPDEST DUP5 PUSH2 0x4FEE DUP5 DUP10 PUSH2 0x162C JUMP JUMPDEST PUSH2 0x521B DUP4 PUSH2 0x51F7 DUP12 DUP9 PUSH2 0x162C JUMP JUMPDEST DUP1 SLOAD PUSH1 0x1 PUSH1 0x1 PUSH1 0x80 SHL SUB AND JUMPDEST SWAP1 PUSH2 0x568D JUMP JUMPDEST SWAP1 PUSH2 0x571A PUSH2 0x572E SWAP3 PUSH2 0x51F7 PUSH2 0x51B4 PUSH2 0x4B81 DUP6 DUP9 PUSH2 0x162C JUMP JUMPDEST PUSH2 0x5728 DUP6 PUSH2 0x5221 DUP4 DUP7 PUSH2 0x162C JUMP JUMPDEST DUP9 PUSH2 0x5485 JUMP JUMPDEST PUSH2 0x3E16 DUP4 PUSH2 0x3B0B PUSH2 0x5743 DUP3 PUSH2 0x3B0B DUP11 DUP8 PUSH2 0x162C JUMP JUMPDEST SWAP3 POP POP PUSH2 0x56BF JUMP JUMPDEST POP DUP2 PUSH2 0x5765 PUSH2 0x566A DUP3 PUSH2 0x4F2A PUSH2 0x51B4 DUP3 PUSH2 0x3B0B DUP12 DUP10 PUSH2 0x162C JUMP JUMPDEST EQ ISZERO PUSH2 0x5678 JUMP JUMPDEST SWAP3 DUP2 PUSH2 0x51F7 PUSH2 0x577B SWAP3 DUP7 PUSH2 0x162C JUMP JUMPDEST PUSH2 0x5789 DUP2 PUSH2 0x5221 DUP5 DUP7 PUSH2 0x162C JUMP JUMPDEST PUSH2 0x5793 DUP3 DUP6 PUSH2 0x53AA JUMP JUMPDEST PUSH2 0x57A1 DUP2 PUSH2 0x3B0B DUP5 DUP7 PUSH2 0x162C JUMP JUMPDEST SWAP3 PUSH2 0x5652 JUMP JUMPDEST PUSH2 0x57B4 PUSH2 0x4B81 DUP4 DUP6 PUSH2 0x162C JUMP JUMPDEST SWAP3 DUP2 PUSH1 0xFF PUSH2 0x57C6 DUP3 PUSH2 0x4F2A DUP9 DUP7 PUSH2 0x162C JUMP JUMPDEST AND EQ PUSH2 0x58D0 JUMPI JUMPDEST DUP2 PUSH2 0x57E6 PUSH2 0x566A DUP3 PUSH2 0x4F2A PUSH2 0x51B4 DUP3 PUSH2 0x3B0B DUP12 DUP10 PUSH2 0x162C JUMP JUMPDEST EQ ISZERO DUP1 PUSH2 0x58B0 JUMPI JUMPDEST ISZERO PUSH2 0x5801 JUMPI PUSH2 0x56FC SWAP3 SWAP4 PUSH2 0x5221 SWAP2 PUSH2 0x162C JUMP JUMPDEST SWAP1 PUSH2 0x51F7 DUP3 DUP6 DUP4 PUSH2 0x582B PUSH2 0x566A DUP3 PUSH2 0x4F2A PUSH2 0x5825 PUSH2 0x4B81 PUSH2 0x56F0 SWAP14 PUSH2 0x5288 SWAP13 PUSH2 0x162C JUMP JUMPDEST DUP8 PUSH2 0x162C JUMP JUMPDEST SUB PUSH2 0x5868 JUMPI JUMPDEST PUSH2 0x4B81 PUSH2 0x3E16 SWAP2 PUSH2 0x5854 PUSH2 0x5849 DUP8 PUSH2 0x4F2A DUP12 DUP9 PUSH2 0x162C JUMP JUMPDEST DUP8 PUSH2 0x4FEE DUP5 DUP9 PUSH2 0x162C JUMP JUMPDEST PUSH2 0x5862 DUP7 PUSH2 0x51F7 DUP11 DUP8 PUSH2 0x162C JUMP JUMPDEST DUP4 PUSH2 0x162C JUMP JUMPDEST DUP1 PUSH2 0x5881 DUP6 PUSH2 0x51F7 PUSH2 0x51B4 DUP3 PUSH2 0x3B0B PUSH2 0x5895 SWAP8 DUP10 PUSH2 0x162C JUMP JUMPDEST PUSH2 0x588F DUP6 PUSH2 0x5221 DUP4 DUP7 PUSH2 0x162C JUMP JUMPDEST DUP9 PUSH2 0x53AA JUMP JUMPDEST PUSH2 0x3E16 PUSH2 0x4B81 PUSH2 0x58A8 PUSH2 0x4B81 DUP9 DUP6 PUSH2 0x162C JUMP JUMPDEST SWAP2 POP POP PUSH2 0x5831 JUMP JUMPDEST POP DUP2 PUSH2 0x58C9 PUSH2 0x566A DUP3 PUSH2 0x4F2A PUSH2 0x51B4 PUSH2 0x4B81 DUP11 DUP9 PUSH2 0x162C JUMP JUMPDEST EQ ISZERO PUSH2 0x57EE JUMP JUMPDEST SWAP3 DUP2 PUSH2 0x51F7 PUSH2 0x58DF SWAP3 DUP7 PUSH2 0x162C JUMP JUMPDEST PUSH2 0x58ED DUP2 PUSH2 0x5221 DUP5 DUP7 PUSH2 0x162C JUMP JUMPDEST PUSH2 0x58F7 DUP3 DUP6 PUSH2 0x5485 JUMP JUMPDEST PUSH2 0x5904 PUSH2 0x4B81 DUP4 DUP6 PUSH2 0x162C JUMP JUMPDEST SWAP3 PUSH2 0x57CD JUMP JUMPDEST POP PUSH2 0x51F7 PUSH1 0x1 SWAP2 DUP3 PUSH2 0x5CB SWAP5 ADD PUSH2 0x162C JUMP JUMPDEST POP PUSH1 0x1 PUSH1 0xFF PUSH2 0x5931 DUP3 PUSH2 0x4F2A DUP7 DUP3 DUP10 ADD PUSH2 0x162C JUMP JUMPDEST AND EQ ISZERO PUSH2 0x55FB JUMP INVALID 0xFC CALLDATACOPY CALLCODE SELFDESTRUCT SWAP6 0xF SWAP6 SWAP2 RETURNDATACOPY 0xB7 XOR 0x23 JUMPI 0xBA EXTCODECOPY EQ 0xDF PUSH1 0xEF CALLDATALOAD 0x4B 0xC7 0xD6 0xAB SHL LOG2 DUP2 PUSH0 0x24 SWAP16 SELFDESTRUCT 0xE6 LOG1 PUSH11 0x46D94261C7517CC8FF89F6 SHR 0xC 0xE9 CALLDATALOAD SWAP9 0xE3 0xC8 0x49 DUP1 LT GT 0xDE 0xE6 0x49 0xA6 0xA5 JUMPI 0xD1 MUL SWAP1 AND 0xD0 SWAP14 PUSH19 0xD40FDAE2FD8CEAC6B6234C7706214FD39C1CD1 0xE6 MULMOD LOG0 MSTORE DUP13 NOT SWAP4 STOP LOG1 PUSH11 0x46D94261C7517CC8FF89F6 SHR 0xC 0xE9 CALLDATALOAD SWAP9 0xE3 0xC8 0x49 DUP1 LT GT 0xDE 0xE6 0x49 0xA6 0xA5 JUMPI 0xD1 SUB NUMBER 0xD1 RETURN PUSH9 0x251EBE03C021962D50 0x21 0x2D SMOD 0x2E PUSH29 0xCEE5C8AD3F541D93D0DC43BBD420F629AECAB94607BC43CE4AEBD564BF PUSH15 0x61C7327226A797B002DE724B9944B2 0xE 0xCD 0x5E 0xD1 0x5C PUSH15 0x187E77E9AEE88184C21F4F2182AB58 0x27 0xCB EXTCODESIZE PUSH31 0x7FBEDCD63F033009B779B17422D0DF92223018B32B4D1FA46E071723D6817 0xE2 BASEFEE PUSH14 0x3BECC55F00F0C57E16840DF040 CALL POP DUP9 0xDC 0x2F DUP2 INVALID CODECOPY SHR CODECOPY 0x23 0xBE 0xC7 RETURNDATACOPY 0x23 0xA9 PUSH7 0x2EFC9C229C6A00 LOG2 PUSH5 0x6970667358 0x22 SLT KECCAK256 DUP7 MOD SWAP9 0xF 0xBE 0xBD ORIGIN SWAP14 SGT 0xCA 0xCF EXTCODEHASH DIV PUSH0 CALLCODE PUSH3 0x7F45BF SIGNEXTEND DIV GT 0xDB PC PUSH6 0xFC657F6235EA 0xE4 PUSH5 0x736F6C6343 STOP ADDMOD EQ STOP CALLER "},"methodIdentifiers":{"cancelOrders(bytes32[])":"21c77c96","editOrders((bytes32,(uint8,uint8,address,(uint256,address,uint96),uint128,uint64,uint64))[])":"e8f27e95","eip712Domain()":"84b0196e","filledAmount(bytes32)":"0b20b7bc","getBestOrder(address,uint256,uint8,uint8)":"5dcc7f9c","getBestPrice(address,uint8)":"9e09126c","getNextBestPrice(address,uint8,uint128)":"436a5ed6","getOrders(address,uint256,uint8,uint8,uint256,uint128,bytes32)":"877edbff","initialize(uint128,address,string,string)":"5d52957e","makeOrders((uint8,uint8,address,(uint256,address,uint96),uint128,uint64,uint64)[])":"307725d9","matchOrder((uint8,uint8,address,(uint256,address,uint96),uint128,uint64,uint64),(uint8,uint8,address,(uint256,address,uint96),uint128,uint64,uint64))":"882849c9","matchOrderWithoutPayback((uint8,uint8,address,(uint256,address,uint96),uint128,uint64,uint64),(uint8,uint8,address,(uint256,address,uint96),uint128,uint64,uint64),uint256)":"366c39ed","matchOrders(((uint8,uint8,address,(uint256,address,uint96),uint128,uint64,uint64),(uint8,uint8,address,(uint256,address,uint96),uint128,uint64,uint64))[])":"fe971c98","orderQueues(address,uint8,uint128)":"e471ba46","orders(bytes32)":"9c3f1e90","owner()":"8da5cb5b","pause()":"8456cb59","paused()":"5c975abb","priceTrees(address,uint8)":"7d910dac","protocolShare()":"1103f315","renounceOwnership()":"715018a6","setProtocolShare(uint128)":"813e7c2a","setVault(address)":"6817031b","transferOwnership(address)":"f2fde38b","unpause()":"3f4ba83a","withdrawETH(address,uint256)":"4782f779"}},"storageLayout":{"storage":[{"astId":6660,"contract":"contracts/EasySwapOrderBook.sol:EasySwapOrderBook","label":"orders","offset":0,"slot":"0","type":"t_mapping(t_userDefinedValueType(OrderKey)8197,t_struct(DBOrder)8241_storage)"},{"astId":6669,"contract":"contracts/EasySwapOrderBook.sol:EasySwapOrderBook","label":"priceTrees","offset":0,"slot":"1","type":"t_mapping(t_address,t_mapping(t_enum(Side)8200,t_struct(Tree)8600_storage))"},{"astId":6681,"contract":"contracts/EasySwapOrderBook.sol:EasySwapOrderBook","label":"orderQueues","offset":0,"slot":"2","type":"t_mapping(t_address,t_mapping(t_enum(Side)8200,t_mapping(t_userDefinedValueType(Price)8578,t_struct(OrderQueue)8249_storage)))"},{"astId":7724,"contract":"contracts/EasySwapOrderBook.sol:EasySwapOrderBook","label":"__gap","offset":0,"slot":"3","type":"t_array(t_uint256)50_storage"},{"astId":7760,"contract":"contracts/EasySwapOrderBook.sol:EasySwapOrderBook","label":"filledAmount","offset":0,"slot":"53","type":"t_mapping(t_userDefinedValueType(OrderKey)8197,t_uint256)"},{"astId":7937,"contract":"contracts/EasySwapOrderBook.sol:EasySwapOrderBook","label":"__gap","offset":0,"slot":"54","type":"t_array(t_uint256)50_storage"},{"astId":7952,"contract":"contracts/EasySwapOrderBook.sol:EasySwapOrderBook","label":"protocolShare","offset":0,"slot":"104","type":"t_uint128"},{"astId":8018,"contract":"contracts/EasySwapOrderBook.sol:EasySwapOrderBook","label":"__gap","offset":0,"slot":"105","type":"t_array(t_uint256)50_storage"},{"astId":4991,"contract":"contracts/EasySwapOrderBook.sol:EasySwapOrderBook","label":"_vault","offset":0,"slot":"155","type":"t_address"},{"astId":6631,"contract":"contracts/EasySwapOrderBook.sol:EasySwapOrderBook","label":"__gap","offset":0,"slot":"156","type":"t_array(t_uint256)50_storage"}],"types":{"t_address":{"encoding":"inplace","label":"address","numberOfBytes":"20"},"t_array(t_uint256)50_storage":{"base":"t_uint256","encoding":"inplace","label":"uint256[50]","numberOfBytes":"1600"},"t_enum(SaleKind)8203":{"encoding":"inplace","label":"enum LibOrder.SaleKind","numberOfBytes":"1"},"t_enum(Side)8200":{"encoding":"inplace","label":"enum LibOrder.Side","numberOfBytes":"1"},"t_mapping(t_address,t_mapping(t_enum(Side)8200,t_mapping(t_userDefinedValueType(Price)8578,t_struct(OrderQueue)8249_storage)))":{"encoding":"mapping","key":"t_address","label":"mapping(address => mapping(enum LibOrder.Side => mapping(Price => struct LibOrder.OrderQueue)))","numberOfBytes":"32","value":"t_mapping(t_enum(Side)8200,t_mapping(t_userDefinedValueType(Price)8578,t_struct(OrderQueue)8249_storage))"},"t_mapping(t_address,t_mapping(t_enum(Side)8200,t_struct(Tree)8600_storage))":{"encoding":"mapping","key":"t_address","label":"mapping(address => mapping(enum LibOrder.Side => struct RedBlackTreeLibrary.Tree))","numberOfBytes":"32","value":"t_mapping(t_enum(Side)8200,t_struct(Tree)8600_storage)"},"t_mapping(t_enum(Side)8200,t_mapping(t_userDefinedValueType(Price)8578,t_struct(OrderQueue)8249_storage))":{"encoding":"mapping","key":"t_enum(Side)8200","label":"mapping(enum LibOrder.Side => mapping(Price => struct LibOrder.OrderQueue))","numberOfBytes":"32","value":"t_mapping(t_userDefinedValueType(Price)8578,t_struct(OrderQueue)8249_storage)"},"t_mapping(t_enum(Side)8200,t_struct(Tree)8600_storage)":{"encoding":"mapping","key":"t_enum(Side)8200","label":"mapping(enum LibOrder.Side => struct RedBlackTreeLibrary.Tree)","numberOfBytes":"32","value":"t_struct(Tree)8600_storage"},"t_mapping(t_userDefinedValueType(OrderKey)8197,t_struct(DBOrder)8241_storage)":{"encoding":"mapping","key":"t_userDefinedValueType(OrderKey)8197","label":"mapping(OrderKey => struct LibOrder.DBOrder)","numberOfBytes":"32","value":"t_struct(DBOrder)8241_storage"},"t_mapping(t_userDefinedValueType(OrderKey)8197,t_uint256)":{"encoding":"mapping","key":"t_userDefinedValueType(OrderKey)8197","label":"mapping(OrderKey => uint256)","numberOfBytes":"32","value":"t_uint256"},"t_mapping(t_userDefinedValueType(Price)8578,t_struct(Node)8590_storage)":{"encoding":"mapping","key":"t_userDefinedValueType(Price)8578","label":"mapping(Price => struct RedBlackTreeLibrary.Node)","numberOfBytes":"32","value":"t_struct(Node)8590_storage"},"t_mapping(t_userDefinedValueType(Price)8578,t_struct(OrderQueue)8249_storage)":{"encoding":"mapping","key":"t_userDefinedValueType(Price)8578","label":"mapping(Price => struct LibOrder.OrderQueue)","numberOfBytes":"32","value":"t_struct(OrderQueue)8249_storage"},"t_struct(Asset)8210_storage":{"encoding":"inplace","label":"struct LibOrder.Asset","members":[{"astId":8205,"contract":"contracts/EasySwapOrderBook.sol:EasySwapOrderBook","label":"tokenId","offset":0,"slot":"0","type":"t_uint256"},{"astId":8207,"contract":"contracts/EasySwapOrderBook.sol:EasySwapOrderBook","label":"collection","offset":0,"slot":"1","type":"t_address"},{"astId":8209,"contract":"contracts/EasySwapOrderBook.sol:EasySwapOrderBook","label":"amount","offset":20,"slot":"1","type":"t_uint96"}],"numberOfBytes":"64"},"t_struct(DBOrder)8241_storage":{"encoding":"inplace","label":"struct LibOrder.DBOrder","members":[{"astId":8237,"contract":"contracts/EasySwapOrderBook.sol:EasySwapOrderBook","label":"order","offset":0,"slot":"0","type":"t_struct(Order)8234_storage"},{"astId":8240,"contract":"contracts/EasySwapOrderBook.sol:EasySwapOrderBook","label":"next","offset":0,"slot":"4","type":"t_userDefinedValueType(OrderKey)8197"}],"numberOfBytes":"160"},"t_struct(Node)8590_storage":{"encoding":"inplace","label":"struct RedBlackTreeLibrary.Node","members":[{"astId":8581,"contract":"contracts/EasySwapOrderBook.sol:EasySwapOrderBook","label":"parent","offset":0,"slot":"0","type":"t_userDefinedValueType(Price)8578"},{"astId":8584,"contract":"contracts/EasySwapOrderBook.sol:EasySwapOrderBook","label":"left","offset":16,"slot":"0","type":"t_userDefinedValueType(Price)8578"},{"astId":8587,"contract":"contracts/EasySwapOrderBook.sol:EasySwapOrderBook","label":"right","offset":0,"slot":"1","type":"t_userDefinedValueType(Price)8578"},{"astId":8589,"contract":"contracts/EasySwapOrderBook.sol:EasySwapOrderBook","label":"red","offset":16,"slot":"1","type":"t_uint8"}],"numberOfBytes":"64"},"t_struct(Order)8234_storage":{"encoding":"inplace","label":"struct LibOrder.Order","members":[{"astId":8218,"contract":"contracts/EasySwapOrderBook.sol:EasySwapOrderBook","label":"side","offset":0,"slot":"0","type":"t_enum(Side)8200"},{"astId":8221,"contract":"contracts/EasySwapOrderBook.sol:EasySwapOrderBook","label":"saleKind","offset":1,"slot":"0","type":"t_enum(SaleKind)8203"},{"astId":8223,"contract":"contracts/EasySwapOrderBook.sol:EasySwapOrderBook","label":"maker","offset":2,"slot":"0","type":"t_address"},{"astId":8226,"contract":"contracts/EasySwapOrderBook.sol:EasySwapOrderBook","label":"nft","offset":0,"slot":"1","type":"t_struct(Asset)8210_storage"},{"astId":8229,"contract":"contracts/EasySwapOrderBook.sol:EasySwapOrderBook","label":"price","offset":0,"slot":"3","type":"t_userDefinedValueType(Price)8578"},{"astId":8231,"contract":"contracts/EasySwapOrderBook.sol:EasySwapOrderBook","label":"expiry","offset":16,"slot":"3","type":"t_uint64"},{"astId":8233,"contract":"contracts/EasySwapOrderBook.sol:EasySwapOrderBook","label":"salt","offset":24,"slot":"3","type":"t_uint64"}],"numberOfBytes":"128"},"t_struct(OrderQueue)8249_storage":{"encoding":"inplace","label":"struct LibOrder.OrderQueue","members":[{"astId":8245,"contract":"contracts/EasySwapOrderBook.sol:EasySwapOrderBook","label":"head","offset":0,"slot":"0","type":"t_userDefinedValueType(OrderKey)8197"},{"astId":8248,"contract":"contracts/EasySwapOrderBook.sol:EasySwapOrderBook","label":"tail","offset":0,"slot":"1","type":"t_userDefinedValueType(OrderKey)8197"}],"numberOfBytes":"64"},"t_struct(Tree)8600_storage":{"encoding":"inplace","label":"struct RedBlackTreeLibrary.Tree","members":[{"astId":8593,"contract":"contracts/EasySwapOrderBook.sol:EasySwapOrderBook","label":"root","offset":0,"slot":"0","type":"t_userDefinedValueType(Price)8578"},{"astId":8599,"contract":"contracts/EasySwapOrderBook.sol:EasySwapOrderBook","label":"nodes","offset":0,"slot":"1","type":"t_mapping(t_userDefinedValueType(Price)8578,t_struct(Node)8590_storage)"}],"numberOfBytes":"64"},"t_uint128":{"encoding":"inplace","label":"uint128","numberOfBytes":"16"},"t_uint256":{"encoding":"inplace","label":"uint256","numberOfBytes":"32"},"t_uint64":{"encoding":"inplace","label":"uint64","numberOfBytes":"8"},"t_uint8":{"encoding":"inplace","label":"uint8","numberOfBytes":"1"},"t_uint96":{"encoding":"inplace","label":"uint96","numberOfBytes":"12"},"t_userDefinedValueType(OrderKey)8197":{"encoding":"inplace","label":"OrderKey","numberOfBytes":"32"},"t_userDefinedValueType(Price)8578":{"encoding":"inplace","label":"Price","numberOfBytes":"16"}}}}}}